{
  "_format": "hh-sol-artifact-1",
  "contractName": "DonePriceOracle",
  "sourceName": "contracts/oracles/DonePriceOracle.sol",
  "abi": [
    {
      "inputs": [
        {
          "internalType": "address",
          "name": "_priceFeedAddress",
          "type": "address"
        }
      ],
      "stateMutability": "nonpayable",
      "type": "constructor"
    },
    {
      "anonymous": false,
      "inputs": [
        {
          "indexed": false,
          "internalType": "uint256",
          "name": "usdAmount",
          "type": "uint256"
        },
        {
          "indexed": false,
          "internalType": "uint256",
          "name": "maticAmount",
          "type": "uint256"
        }
      ],
      "name": "ConversionRequested",
      "type": "event"
    },
    {
      "anonymous": false,
      "inputs": [
        {
          "indexed": true,
          "internalType": "address",
          "name": "previousOwner",
          "type": "address"
        },
        {
          "indexed": true,
          "internalType": "address",
          "name": "newOwner",
          "type": "address"
        }
      ],
      "name": "OwnershipTransferred",
      "type": "event"
    },
    {
      "anonymous": false,
      "inputs": [
        {
          "indexed": false,
          "internalType": "int256",
          "name": "price",
          "type": "int256"
        },
        {
          "indexed": false,
          "internalType": "uint256",
          "name": "timestamp",
          "type": "uint256"
        }
      ],
      "name": "PriceUpdated",
      "type": "event"
    },
    {
      "inputs": [],
      "name": "DECIMALS",
      "outputs": [
        {
          "internalType": "uint8",
          "name": "",
          "type": "uint8"
        }
      ],
      "stateMutability": "view",
      "type": "function"
    },
    {
      "inputs": [],
      "name": "PRECISION",
      "outputs": [
        {
          "internalType": "uint256",
          "name": "",
          "type": "uint256"
        }
      ],
      "stateMutability": "view",
      "type": "function"
    },
    {
      "inputs": [
        {
          "internalType": "uint256",
          "name": "maticAmount",
          "type": "uint256"
        }
      ],
      "name": "convertMATICtoUSD",
      "outputs": [
        {
          "internalType": "uint256",
          "name": "",
          "type": "uint256"
        }
      ],
      "stateMutability": "nonpayable",
      "type": "function"
    },
    {
      "inputs": [
        {
          "internalType": "uint256",
          "name": "usdAmount",
          "type": "uint256"
        }
      ],
      "name": "convertUSDtoMATIC",
      "outputs": [
        {
          "internalType": "uint256",
          "name": "",
          "type": "uint256"
        }
      ],
      "stateMutability": "nonpayable",
      "type": "function"
    },
    {
      "inputs": [],
      "name": "getLatestPrice",
      "outputs": [
        {
          "internalType": "int256",
          "name": "",
          "type": "int256"
        },
        {
          "internalType": "uint8",
          "name": "",
          "type": "uint8"
        },
        {
          "internalType": "uint256",
          "name": "",
          "type": "uint256"
        }
      ],
      "stateMutability": "view",
      "type": "function"
    },
    {
      "inputs": [],
      "name": "getPriceWithAge",
      "outputs": [
        {
          "internalType": "int256",
          "name": "",
          "type": "int256"
        },
        {
          "internalType": "uint256",
          "name": "",
          "type": "uint256"
        }
      ],
      "stateMutability": "view",
      "type": "function"
    },
    {
      "inputs": [],
      "name": "owner",
      "outputs": [
        {
          "internalType": "address",
          "name": "",
          "type": "address"
        }
      ],
      "stateMutability": "view",
      "type": "function"
    },
    {
      "inputs": [],
      "name": "renounceOwnership",
      "outputs": [],
      "stateMutability": "nonpayable",
      "type": "function"
    },
    {
      "inputs": [
        {
          "internalType": "address",
          "name": "newOwner",
          "type": "address"
        }
      ],
      "name": "transferOwnership",
      "outputs": [],
      "stateMutability": "nonpayable",
      "type": "function"
    },
    {
      "inputs": [
        {
          "internalType": "address",
          "name": "_newPriceFeedAddress",
          "type": "address"
        }
      ],
      "name": "updatePriceFeed",
      "outputs": [],
      "stateMutability": "nonpayable",
      "type": "function"
    }
  ],
  "bytecode": "0x6080346100f357601f61084438819003918201601f19168301916001600160401b038311848410176100f8578084926020946040528339810103126100f357516001600160a01b03808216918290036100f3576000549060018060a01b0319913383821617600055604051913391167f8be0079c531659141344cd1fd0a4f28419497f9722a3daafe3b4186f6b6457e0600080a382156100b157506001541617600155604051610735908161010f8239f35b62461bcd60e51b815260206004820152601a60248201527f496e76616c6964207072696365206665656420616464726573730000000000006044820152606490fd5b600080fd5b634e487b7160e01b600052604160045260246000fdfe6040608081526004908136101561001557600080fd5b600091823560e01c806322644179146103db5780632e0f2625146103bf578063715018a6146103655780638da5cb5b1461033d5780638e15f4731461030757806395877f781461027c578063a4fdd36814610200578063aaf5eb68146101d9578063f2fde38b1461010f5763f818a0171461008f57600080fd5b3461010b57602036600319011261010b576020925035906100b1821515610659565b7fd9669984fb749b7a11006a0df5d36b4a2f103297006d91a4d80769ed85d67da9816100f96100ed6100f36100e46104d2565b509290886106cc565b916106a5565b906106df565b9381519085825286820152a151908152f35b8280fd5b50903461010b57602036600319011261010b576001600160a01b038235818116939192908490036101d557610142610426565b831561018357505082546001600160a01b0319811683178455167f8be0079c531659141344cd1fd0a4f28419497f9722a3daafe3b4186f6b6457e08380a380f35b906020608492519162461bcd60e51b8352820152602660248201527f4f776e61626c653a206e6577206f776e657220697320746865207a65726f206160448201526564647265737360d01b6064820152fd5b8480fd5b5050346101fc57816003193601126101fc5760209051670de0b6b3a76400008152f35b5080fd5b503461010b57602036600319011261010b57602092503590610223821515610659565b7fd9669984fb749b7a11006a0df5d36b4a2f103297006d91a4d80769ed85d67da98161026a61025f6102656102566104d2565b509290926106a5565b876106cc565b6106df565b9381519081528486820152a151908152f35b503461010b57602036600319011261010b5780356001600160a01b0381169290839003610303576102ab610426565b82156102ce5750506bffffffffffffffffffffffff60a01b600154161760015580f35b906020606492519162461bcd60e51b8352820152600f60248201526e496e76616c6964206164647265737360881b6044820152fd5b8380fd5b82843461033a578060031936011261033a57606060ff836103266104d2565b929193908251948552166020840152820152f35b80fd5b5050346101fc57816003193601126101fc57905490516001600160a01b039091168152602090f35b833461033a578060031936011261033a5761037e610426565b80546001600160a01b03198116825581906001600160a01b03167f8be0079c531659141344cd1fd0a4f28419497f9722a3daafe3b4186f6b6457e08280a380f35b5050346101fc57816003193601126101fc576020905160128152f35b508290346101fc57816003193601126101fc576103f66104d2565b905092909242039142831161041357505082519182526020820152f35b634e487b7160e01b825260119052602490fd5b6000546001600160a01b0316330361043a57565b606460405162461bcd60e51b815260206004820152602060248201527f4f776e61626c653a2063616c6c6572206973206e6f7420746865206f776e65726044820152fd5b90601f8019910116810190811067ffffffffffffffff8211176104a057604052565b634e487b7160e01b600052604160045260246000fd5b519069ffffffffffffffffffff821682036104cd57565b600080fd5b60018060a01b03600154166040918251633fabe5a360e21b815260a081600481865afa92831561064e5760009182946105f8575b5060008213156105c457831561058c57602060049186519283809263313ce56760e01b82525afa9485156105825750600094610543575b50929190565b6020949194813d821161057a575b8161055e6020938361047e565b810103126101fc57519060ff8216820361033a5750923861053d565b3d9150610551565b513d6000823e3d90fd5b845162461bcd60e51b81526020600482015260116024820152700496e76616c69642074696d657374616d7607c1b6044820152606490fd5b845162461bcd60e51b815260206004820152600d60248201526c496e76616c696420707269636560981b6044820152606490fd5b9190935060a0823d8211610646575b8161061460a0938361047e565b8101031261033a5750610626816104b6565b50602081015161063d6080606084015193016104b6565b50909238610506565b3d9150610607565b84513d6000823e3d90fd5b1561066057565b60405162461bcd60e51b815260206004820152601d60248201527f416d6f756e74206d7573742062652067726561746572207468616e20300000006044820152606490fd5b60ff16604d81116106b657600a0a90565b634e487b7160e01b600052601160045260246000fd5b818102929181159184041417156106b657565b81156106e9570490565b634e487b7160e01b600052601260045260246000fdfea2646970667358221220771ac12f97f1c99316965492d53282883f7a6776e5335736f1813ee04f7813ad64736f6c63430008140033",
  "linkReferences": {},
  "deployedLinkReferences": {}
}