{
  "_format": "hh-sol-artifact-1",
  "contractName": "DoneArbitration",
  "sourceName": "contracts/governance/DoneArbitration.sol",
  "abi": [
    {
      "inputs": [
        {
          "internalType": "address",
          "name": "_doneToken",
          "type": "address"
        },
        {
          "internalType": "address payable",
          "name": "_platformWallet",
          "type": "address"
        }
      ],
      "stateMutability": "nonpayable",
      "type": "constructor"
    },
    {
      "anonymous": false,
      "inputs": [
        {
          "indexed": true,
          "internalType": "uint256",
          "name": "disputeId",
          "type": "uint256"
        },
        {
          "indexed": true,
          "internalType": "uint256",
          "name": "orderId",
          "type": "uint256"
        },
        {
          "indexed": false,
          "internalType": "string",
          "name": "reason",
          "type": "string"
        }
      ],
      "name": "DisputeCancelled",
      "type": "event"
    },
    {
      "anonymous": false,
      "inputs": [
        {
          "indexed": true,
          "internalType": "uint256",
          "name": "disputeId",
          "type": "uint256"
        },
        {
          "indexed": true,
          "internalType": "uint256",
          "name": "orderId",
          "type": "uint256"
        },
        {
          "indexed": true,
          "internalType": "address",
          "name": "initiator",
          "type": "address"
        },
        {
          "indexed": false,
          "internalType": "address",
          "name": "client",
          "type": "address"
        },
        {
          "indexed": false,
          "internalType": "address",
          "name": "restaurant",
          "type": "address"
        },
        {
          "indexed": false,
          "internalType": "address",
          "name": "deliverer",
          "type": "address"
        },
        {
          "indexed": false,
          "internalType": "string",
          "name": "reason",
          "type": "string"
        },
        {
          "indexed": false,
          "internalType": "uint256",
          "name": "escrowAmount",
          "type": "uint256"
        }
      ],
      "name": "DisputeCreated",
      "type": "event"
    },
    {
      "anonymous": false,
      "inputs": [
        {
          "indexed": true,
          "internalType": "uint256",
          "name": "disputeId",
          "type": "uint256"
        },
        {
          "indexed": true,
          "internalType": "uint256",
          "name": "orderId",
          "type": "uint256"
        },
        {
          "indexed": false,
          "internalType": "enum DoneArbitration.Winner",
          "name": "winner",
          "type": "uint8"
        },
        {
          "indexed": false,
          "internalType": "uint256",
          "name": "totalVotePower",
          "type": "uint256"
        },
        {
          "indexed": false,
          "internalType": "address",
          "name": "winnerAddress",
          "type": "address"
        },
        {
          "indexed": false,
          "internalType": "uint256",
          "name": "amountTransferred",
          "type": "uint256"
        }
      ],
      "name": "DisputeResolved",
      "type": "event"
    },
    {
      "anonymous": false,
      "inputs": [
        {
          "indexed": false,
          "internalType": "uint256",
          "name": "minVotingPower",
          "type": "uint256"
        },
        {
          "indexed": false,
          "internalType": "uint256",
          "name": "votingPeriod",
          "type": "uint256"
        },
        {
          "indexed": false,
          "internalType": "uint256",
          "name": "minTokensToVote",
          "type": "uint256"
        }
      ],
      "name": "ParametersUpdated",
      "type": "event"
    },
    {
      "anonymous": false,
      "inputs": [
        {
          "indexed": true,
          "internalType": "bytes32",
          "name": "role",
          "type": "bytes32"
        },
        {
          "indexed": true,
          "internalType": "bytes32",
          "name": "previousAdminRole",
          "type": "bytes32"
        },
        {
          "indexed": true,
          "internalType": "bytes32",
          "name": "newAdminRole",
          "type": "bytes32"
        }
      ],
      "name": "RoleAdminChanged",
      "type": "event"
    },
    {
      "anonymous": false,
      "inputs": [
        {
          "indexed": true,
          "internalType": "bytes32",
          "name": "role",
          "type": "bytes32"
        },
        {
          "indexed": true,
          "internalType": "address",
          "name": "account",
          "type": "address"
        },
        {
          "indexed": true,
          "internalType": "address",
          "name": "sender",
          "type": "address"
        }
      ],
      "name": "RoleGranted",
      "type": "event"
    },
    {
      "anonymous": false,
      "inputs": [
        {
          "indexed": true,
          "internalType": "bytes32",
          "name": "role",
          "type": "bytes32"
        },
        {
          "indexed": true,
          "internalType": "address",
          "name": "account",
          "type": "address"
        },
        {
          "indexed": true,
          "internalType": "address",
          "name": "sender",
          "type": "address"
        }
      ],
      "name": "RoleRevoked",
      "type": "event"
    },
    {
      "anonymous": false,
      "inputs": [
        {
          "indexed": true,
          "internalType": "uint256",
          "name": "disputeId",
          "type": "uint256"
        },
        {
          "indexed": true,
          "internalType": "address",
          "name": "voter",
          "type": "address"
        },
        {
          "indexed": false,
          "internalType": "enum DoneArbitration.Winner",
          "name": "winner",
          "type": "uint8"
        },
        {
          "indexed": false,
          "internalType": "uint256",
          "name": "votePower",
          "type": "uint256"
        }
      ],
      "name": "VoteCast",
      "type": "event"
    },
    {
      "inputs": [],
      "name": "ARBITER_ROLE",
      "outputs": [
        {
          "internalType": "bytes32",
          "name": "",
          "type": "bytes32"
        }
      ],
      "stateMutability": "view",
      "type": "function"
    },
    {
      "inputs": [],
      "name": "DEFAULT_ADMIN_ROLE",
      "outputs": [
        {
          "internalType": "bytes32",
          "name": "",
          "type": "bytes32"
        }
      ],
      "stateMutability": "view",
      "type": "function"
    },
    {
      "inputs": [],
      "name": "PLATFORM_ROLE",
      "outputs": [
        {
          "internalType": "bytes32",
          "name": "",
          "type": "bytes32"
        }
      ],
      "stateMutability": "view",
      "type": "function"
    },
    {
      "inputs": [
        {
          "internalType": "address",
          "name": "_arbiter",
          "type": "address"
        }
      ],
      "name": "addArbiter",
      "outputs": [],
      "stateMutability": "nonpayable",
      "type": "function"
    },
    {
      "inputs": [],
      "name": "arbitrationFeePercent",
      "outputs": [
        {
          "internalType": "uint256",
          "name": "",
          "type": "uint256"
        }
      ],
      "stateMutability": "view",
      "type": "function"
    },
    {
      "inputs": [
        {
          "internalType": "uint256",
          "name": "_disputeId",
          "type": "uint256"
        }
      ],
      "name": "canResolve",
      "outputs": [
        {
          "internalType": "bool",
          "name": "",
          "type": "bool"
        }
      ],
      "stateMutability": "view",
      "type": "function"
    },
    {
      "inputs": [
        {
          "internalType": "uint256",
          "name": "_disputeId",
          "type": "uint256"
        },
        {
          "internalType": "string",
          "name": "_reason",
          "type": "string"
        }
      ],
      "name": "cancelDispute",
      "outputs": [],
      "stateMutability": "nonpayable",
      "type": "function"
    },
    {
      "inputs": [
        {
          "internalType": "uint256",
          "name": "_orderId",
          "type": "uint256"
        },
        {
          "internalType": "address",
          "name": "_client",
          "type": "address"
        },
        {
          "internalType": "address",
          "name": "_restaurant",
          "type": "address"
        },
        {
          "internalType": "address",
          "name": "_deliverer",
          "type": "address"
        },
        {
          "internalType": "string",
          "name": "_reason",
          "type": "string"
        },
        {
          "internalType": "string",
          "name": "_evidenceIPFS",
          "type": "string"
        }
      ],
      "name": "createDispute",
      "outputs": [
        {
          "internalType": "uint256",
          "name": "disputeId",
          "type": "uint256"
        }
      ],
      "stateMutability": "payable",
      "type": "function"
    },
    {
      "inputs": [],
      "name": "disputeCount",
      "outputs": [
        {
          "internalType": "uint256",
          "name": "",
          "type": "uint256"
        }
      ],
      "stateMutability": "view",
      "type": "function"
    },
    {
      "inputs": [
        {
          "internalType": "uint256",
          "name": "",
          "type": "uint256"
        },
        {
          "internalType": "uint256",
          "name": "",
          "type": "uint256"
        }
      ],
      "name": "disputeVoters",
      "outputs": [
        {
          "internalType": "address",
          "name": "",
          "type": "address"
        }
      ],
      "stateMutability": "view",
      "type": "function"
    },
    {
      "inputs": [
        {
          "internalType": "uint256",
          "name": "",
          "type": "uint256"
        }
      ],
      "name": "disputes",
      "outputs": [
        {
          "internalType": "uint256",
          "name": "orderId",
          "type": "uint256"
        },
        {
          "internalType": "address",
          "name": "client",
          "type": "address"
        },
        {
          "internalType": "address",
          "name": "restaurant",
          "type": "address"
        },
        {
          "internalType": "address",
          "name": "deliverer",
          "type": "address"
        },
        {
          "internalType": "string",
          "name": "reason",
          "type": "string"
        },
        {
          "internalType": "string",
          "name": "evidenceIPFS",
          "type": "string"
        },
        {
          "internalType": "uint256",
          "name": "totalVotePower",
          "type": "uint256"
        },
        {
          "internalType": "enum DoneArbitration.Winner",
          "name": "leadingWinner",
          "type": "uint8"
        },
        {
          "internalType": "enum DoneArbitration.DisputeStatus",
          "name": "status",
          "type": "uint8"
        },
        {
          "internalType": "uint256",
          "name": "createdAt",
          "type": "uint256"
        },
        {
          "internalType": "uint256",
          "name": "votingDeadline",
          "type": "uint256"
        },
        {
          "internalType": "uint256",
          "name": "resolvedAt",
          "type": "uint256"
        },
        {
          "internalType": "uint256",
          "name": "escrowAmount",
          "type": "uint256"
        }
      ],
      "stateMutability": "view",
      "type": "function"
    },
    {
      "inputs": [],
      "name": "doneToken",
      "outputs": [
        {
          "internalType": "contract IERC20",
          "name": "",
          "type": "address"
        }
      ],
      "stateMutability": "view",
      "type": "function"
    },
    {
      "inputs": [
        {
          "internalType": "uint256",
          "name": "_disputeId",
          "type": "uint256"
        }
      ],
      "name": "emergencyWithdraw",
      "outputs": [],
      "stateMutability": "nonpayable",
      "type": "function"
    },
    {
      "inputs": [
        {
          "internalType": "uint256",
          "name": "_disputeId",
          "type": "uint256"
        }
      ],
      "name": "getDispute",
      "outputs": [
        {
          "components": [
            {
              "internalType": "uint256",
              "name": "orderId",
              "type": "uint256"
            },
            {
              "internalType": "address",
              "name": "client",
              "type": "address"
            },
            {
              "internalType": "address",
              "name": "restaurant",
              "type": "address"
            },
            {
              "internalType": "address",
              "name": "deliverer",
              "type": "address"
            },
            {
              "internalType": "string",
              "name": "reason",
              "type": "string"
            },
            {
              "internalType": "string",
              "name": "evidenceIPFS",
              "type": "string"
            },
            {
              "internalType": "uint256",
              "name": "totalVotePower",
              "type": "uint256"
            },
            {
              "internalType": "enum DoneArbitration.Winner",
              "name": "leadingWinner",
              "type": "uint8"
            },
            {
              "internalType": "enum DoneArbitration.DisputeStatus",
              "name": "status",
              "type": "uint8"
            },
            {
              "internalType": "uint256",
              "name": "createdAt",
              "type": "uint256"
            },
            {
              "internalType": "uint256",
              "name": "votingDeadline",
              "type": "uint256"
            },
            {
              "internalType": "uint256",
              "name": "resolvedAt",
              "type": "uint256"
            },
            {
              "internalType": "uint256",
              "name": "escrowAmount",
              "type": "uint256"
            }
          ],
          "internalType": "struct DoneArbitration.Dispute",
          "name": "",
          "type": "tuple"
        }
      ],
      "stateMutability": "view",
      "type": "function"
    },
    {
      "inputs": [
        {
          "internalType": "uint256",
          "name": "_orderId",
          "type": "uint256"
        }
      ],
      "name": "getDisputeByOrder",
      "outputs": [
        {
          "internalType": "uint256",
          "name": "",
          "type": "uint256"
        }
      ],
      "stateMutability": "view",
      "type": "function"
    },
    {
      "inputs": [
        {
          "internalType": "uint256",
          "name": "_disputeId",
          "type": "uint256"
        }
      ],
      "name": "getDisputeVoters",
      "outputs": [
        {
          "internalType": "address[]",
          "name": "",
          "type": "address[]"
        }
      ],
      "stateMutability": "view",
      "type": "function"
    },
    {
      "inputs": [
        {
          "internalType": "uint256",
          "name": "_disputeId",
          "type": "uint256"
        }
      ],
      "name": "getRemainingVotingTime",
      "outputs": [
        {
          "internalType": "uint256",
          "name": "",
          "type": "uint256"
        }
      ],
      "stateMutability": "view",
      "type": "function"
    },
    {
      "inputs": [
        {
          "internalType": "bytes32",
          "name": "role",
          "type": "bytes32"
        }
      ],
      "name": "getRoleAdmin",
      "outputs": [
        {
          "internalType": "bytes32",
          "name": "",
          "type": "bytes32"
        }
      ],
      "stateMutability": "view",
      "type": "function"
    },
    {
      "inputs": [
        {
          "internalType": "address",
          "name": "_user",
          "type": "address"
        }
      ],
      "name": "getUserVotingPower",
      "outputs": [
        {
          "internalType": "uint256",
          "name": "",
          "type": "uint256"
        }
      ],
      "stateMutability": "view",
      "type": "function"
    },
    {
      "inputs": [
        {
          "internalType": "uint256",
          "name": "_disputeId",
          "type": "uint256"
        },
        {
          "internalType": "address",
          "name": "_voter",
          "type": "address"
        }
      ],
      "name": "getVoteDetails",
      "outputs": [
        {
          "components": [
            {
              "internalType": "address",
              "name": "voter",
              "type": "address"
            },
            {
              "internalType": "enum DoneArbitration.Winner",
              "name": "choice",
              "type": "uint8"
            },
            {
              "internalType": "uint256",
              "name": "votePower",
              "type": "uint256"
            },
            {
              "internalType": "uint256",
              "name": "timestamp",
              "type": "uint256"
            }
          ],
          "internalType": "struct DoneArbitration.Vote",
          "name": "",
          "type": "tuple"
        }
      ],
      "stateMutability": "view",
      "type": "function"
    },
    {
      "inputs": [
        {
          "internalType": "uint256",
          "name": "_disputeId",
          "type": "uint256"
        }
      ],
      "name": "getVoteDistribution",
      "outputs": [
        {
          "internalType": "uint256",
          "name": "clientVotes",
          "type": "uint256"
        },
        {
          "internalType": "uint256",
          "name": "restaurantVotes",
          "type": "uint256"
        },
        {
          "internalType": "uint256",
          "name": "delivererVotes",
          "type": "uint256"
        }
      ],
      "stateMutability": "view",
      "type": "function"
    },
    {
      "inputs": [
        {
          "internalType": "uint256",
          "name": "_disputeId",
          "type": "uint256"
        }
      ],
      "name": "getVoterCount",
      "outputs": [
        {
          "internalType": "uint256",
          "name": "",
          "type": "uint256"
        }
      ],
      "stateMutability": "view",
      "type": "function"
    },
    {
      "inputs": [
        {
          "internalType": "bytes32",
          "name": "role",
          "type": "bytes32"
        },
        {
          "internalType": "address",
          "name": "account",
          "type": "address"
        }
      ],
      "name": "grantRole",
      "outputs": [],
      "stateMutability": "nonpayable",
      "type": "function"
    },
    {
      "inputs": [
        {
          "internalType": "bytes32",
          "name": "role",
          "type": "bytes32"
        },
        {
          "internalType": "address",
          "name": "account",
          "type": "address"
        }
      ],
      "name": "hasRole",
      "outputs": [
        {
          "internalType": "bool",
          "name": "",
          "type": "bool"
        }
      ],
      "stateMutability": "view",
      "type": "function"
    },
    {
      "inputs": [
        {
          "internalType": "uint256",
          "name": "_disputeId",
          "type": "uint256"
        },
        {
          "internalType": "address",
          "name": "_user",
          "type": "address"
        }
      ],
      "name": "hasUserVoted",
      "outputs": [
        {
          "internalType": "bool",
          "name": "",
          "type": "bool"
        }
      ],
      "stateMutability": "view",
      "type": "function"
    },
    {
      "inputs": [
        {
          "internalType": "uint256",
          "name": "",
          "type": "uint256"
        },
        {
          "internalType": "address",
          "name": "",
          "type": "address"
        }
      ],
      "name": "hasVoted",
      "outputs": [
        {
          "internalType": "bool",
          "name": "",
          "type": "bool"
        }
      ],
      "stateMutability": "view",
      "type": "function"
    },
    {
      "inputs": [],
      "name": "minTokensToVote",
      "outputs": [
        {
          "internalType": "uint256",
          "name": "",
          "type": "uint256"
        }
      ],
      "stateMutability": "view",
      "type": "function"
    },
    {
      "inputs": [],
      "name": "minVotingPowerRequired",
      "outputs": [
        {
          "internalType": "uint256",
          "name": "",
          "type": "uint256"
        }
      ],
      "stateMutability": "view",
      "type": "function"
    },
    {
      "inputs": [],
      "name": "orderManagerAddress",
      "outputs": [
        {
          "internalType": "address",
          "name": "",
          "type": "address"
        }
      ],
      "stateMutability": "view",
      "type": "function"
    },
    {
      "inputs": [
        {
          "internalType": "uint256",
          "name": "",
          "type": "uint256"
        }
      ],
      "name": "orderToDispute",
      "outputs": [
        {
          "internalType": "uint256",
          "name": "",
          "type": "uint256"
        }
      ],
      "stateMutability": "view",
      "type": "function"
    },
    {
      "inputs": [],
      "name": "platformWallet",
      "outputs": [
        {
          "internalType": "address payable",
          "name": "",
          "type": "address"
        }
      ],
      "stateMutability": "view",
      "type": "function"
    },
    {
      "inputs": [
        {
          "internalType": "address",
          "name": "_arbiter",
          "type": "address"
        }
      ],
      "name": "removeArbiter",
      "outputs": [],
      "stateMutability": "nonpayable",
      "type": "function"
    },
    {
      "inputs": [
        {
          "internalType": "bytes32",
          "name": "role",
          "type": "bytes32"
        },
        {
          "internalType": "address",
          "name": "account",
          "type": "address"
        }
      ],
      "name": "renounceRole",
      "outputs": [],
      "stateMutability": "nonpayable",
      "type": "function"
    },
    {
      "inputs": [
        {
          "internalType": "uint256",
          "name": "_disputeId",
          "type": "uint256"
        }
      ],
      "name": "resolveDispute",
      "outputs": [],
      "stateMutability": "nonpayable",
      "type": "function"
    },
    {
      "inputs": [
        {
          "internalType": "uint256",
          "name": "_disputeId",
          "type": "uint256"
        },
        {
          "internalType": "enum DoneArbitration.Winner",
          "name": "_winner",
          "type": "uint8"
        }
      ],
      "name": "resolveDisputeManual",
      "outputs": [],
      "stateMutability": "nonpayable",
      "type": "function"
    },
    {
      "inputs": [
        {
          "internalType": "bytes32",
          "name": "role",
          "type": "bytes32"
        },
        {
          "internalType": "address",
          "name": "account",
          "type": "address"
        }
      ],
      "name": "revokeRole",
      "outputs": [],
      "stateMutability": "nonpayable",
      "type": "function"
    },
    {
      "inputs": [
        {
          "internalType": "uint256",
          "name": "_newFee",
          "type": "uint256"
        }
      ],
      "name": "setArbitrationFee",
      "outputs": [],
      "stateMutability": "nonpayable",
      "type": "function"
    },
    {
      "inputs": [
        {
          "internalType": "uint256",
          "name": "_newMin",
          "type": "uint256"
        }
      ],
      "name": "setMinTokensToVote",
      "outputs": [],
      "stateMutability": "nonpayable",
      "type": "function"
    },
    {
      "inputs": [
        {
          "internalType": "uint256",
          "name": "_newMinPower",
          "type": "uint256"
        }
      ],
      "name": "setMinVotingPowerRequired",
      "outputs": [],
      "stateMutability": "nonpayable",
      "type": "function"
    },
    {
      "inputs": [
        {
          "internalType": "address",
          "name": "_orderManager",
          "type": "address"
        }
      ],
      "name": "setOrderManager",
      "outputs": [],
      "stateMutability": "nonpayable",
      "type": "function"
    },
    {
      "inputs": [
        {
          "internalType": "address payable",
          "name": "_newWallet",
          "type": "address"
        }
      ],
      "name": "setPlatformWallet",
      "outputs": [],
      "stateMutability": "nonpayable",
      "type": "function"
    },
    {
      "inputs": [
        {
          "internalType": "uint256",
          "name": "_newPeriod",
          "type": "uint256"
        }
      ],
      "name": "setVotingPeriod",
      "outputs": [],
      "stateMutability": "nonpayable",
      "type": "function"
    },
    {
      "inputs": [
        {
          "internalType": "bytes4",
          "name": "interfaceId",
          "type": "bytes4"
        }
      ],
      "name": "supportsInterface",
      "outputs": [
        {
          "internalType": "bool",
          "name": "",
          "type": "bool"
        }
      ],
      "stateMutability": "view",
      "type": "function"
    },
    {
      "inputs": [
        {
          "internalType": "uint256",
          "name": "_disputeId",
          "type": "uint256"
        },
        {
          "internalType": "enum DoneArbitration.Winner",
          "name": "_winner",
          "type": "uint8"
        }
      ],
      "name": "voteDispute",
      "outputs": [],
      "stateMutability": "nonpayable",
      "type": "function"
    },
    {
      "inputs": [
        {
          "internalType": "uint256",
          "name": "",
          "type": "uint256"
        },
        {
          "internalType": "address",
          "name": "",
          "type": "address"
        }
      ],
      "name": "voterDetails",
      "outputs": [
        {
          "internalType": "address",
          "name": "voter",
          "type": "address"
        },
        {
          "internalType": "enum DoneArbitration.Winner",
          "name": "choice",
          "type": "uint8"
        },
        {
          "internalType": "uint256",
          "name": "votePower",
          "type": "uint256"
        },
        {
          "internalType": "uint256",
          "name": "timestamp",
          "type": "uint256"
        }
      ],
      "stateMutability": "view",
      "type": "function"
    },
    {
      "inputs": [
        {
          "internalType": "uint256",
          "name": "",
          "type": "uint256"
        },
        {
          "internalType": "enum DoneArbitration.Winner",
          "name": "",
          "type": "uint8"
        }
      ],
      "name": "votes",
      "outputs": [
        {
          "internalType": "uint256",
          "name": "",
          "type": "uint256"
        }
      ],
      "stateMutability": "view",
      "type": "function"
    },
    {
      "inputs": [],
      "name": "votingPeriod",
      "outputs": [
        {
          "internalType": "uint256",
          "name": "",
          "type": "uint256"
        }
      ],
      "stateMutability": "view",
      "type": "function"
    },
    {
      "stateMutability": "payable",
      "type": "receive"
    }
  ],
  "bytecode": "0x6080346200029b57620035e390601f38839003908101601f19168201906001600160401b03821183831017620002a057808391604095869485528339810103126200029b5780516001600160a01b0390818116908190036200029b576020809301519182168092036200029b5760018055683635c9adc5dea00000600b556202a300600c55670de0b6b3a7640000600d556005600f55801562000257578115620002135760018060a01b031990816002541617600255600e541617600e556000808052808252828120338252825260ff838220541615620001db575b7fbb08418a67729a078f87bbc8d02a770929bb68f5bfdf134ae2ead6ed38e2f4ae808252818352838220338352835260ff848320541615620001a1575b507f797343f8d6a29aafeb3aaf0910a8973e0081c60c2f6c1f775cd9f76ea348fc1e91828252818152838220338352815260ff84832054161562000166575b835161330c9081620002b78239f35b8282528181528382209033835252828120600160ff198254161790553391600080516020620035c3833981519152339280a438808062000157565b8082528183528382203383528352838220600160ff1982541617905533903390600080516020620035c38339815191528480a43862000118565b8080528082528281203382528252828120600160ff19825416179055333382600080516020620035c38339815191528180a4620000db565b835162461bcd60e51b815260048101849052601760248201527f496e76616c696420706c6174666f726d2077616c6c65740000000000000000006044820152606490fd5b835162461bcd60e51b815260048101849052601560248201527f496e76616c696420746f6b656e206164647265737300000000000000000000006044820152606490fd5b600080fd5b634e487b7160e01b600052604160045260246000fdfe608080604052600436101561001d575b50361561001b57600080fd5b005b60003560e01c90816301ffc9a71461255d5750806302a251a31461253f5780630adabf89146124955780630baca2e5146124095780631732d6521461235157806323158eee14612333578063248a9ca3146123045780632935df9e1461223a5780632f2ff15d146121d55780633487e08c1461211857806336568abe146120865780633a519fff1461200f578063438596321461067357806348ed7a1c14611fe75780634d104adf14611fbe57806350caff2814611f955780635312ea8e14611e35578063564a565d14611d2d5780635da13df714611d045780635e434bb414610a905780635ea7b4fc14611cac5780636a0cd08414611c8e57806370824c5c14611c5357806374d5073d146117425780638831e9cf146116f157806391d14854146116a4578063933de1fe14611009578063a217fddf14610fed578063a28889e114610fcf578063a476fc5114610fa9578063aaca917714610f20578063b1e1fc3414610d3e578063b233884014610b7d578063b538d3bc14610abc578063b991c4a214610a90578063c0da840d14610a43578063c2b7b86814610767578063d25c4e5f146106ff578063d547741f146106c0578063dc296ae114610673578063e36c33b214610621578063e3a96cbd146103c7578063e92e5c341461039b578063ea0217cf146102b7578063f24ecb8414610299578063fa2af9da146102705763ff8e8dfa1461022f573861000f565b3461026b5761023d3661277f565b906000526007602052604060002090610255816125dc565b6000526020526020604060002054604051908152f35b600080fd5b3461026b57600036600319011261026b57600e546040516001600160a01b039091168152602090f35b3461026b57600036600319011261026b576020600d54604051908152f35b3461026b57602036600319011261026b576004356102d36127fa565b610e1081106103695762093a80811161033757807f4dd522c050b46ef5e852ea87e7cd136b049dcb37740ad38386fbbb5cd30aa92491600c55600b54610332600d54604051938493846040919493926060820195825260208201520152565b0390a1005b60405162461bcd60e51b815260206004820152600a6024820152694d61782037206461797360b01b6044820152606490fd5b60405162461bcd60e51b815260206004820152600a60248201526926b4b71018903437bab960b11b6044820152606490fd5b3461026b57602036600319011261026b5760043560005260086020526020604060002054604051908152f35b3461026b57602036600319011261026b5760006101806040516103e981612652565b82815282602082015282604082015282606082015260606080820152606060a08201528260c08201528260e0820152826101008201528261012082015282610140820152826101608201520152600435151580610613575b61044a90612ec7565b60043560005260056020526104656040600020541515612f07565b60043560005260056020526040600020600b6040519161048483612652565b8054835260018101546001600160a01b03908116602085015260028201548116604085015260038201541660608401526104c060048201612691565b60808401526104d160058201612691565b60a0840152600681015460c084015260ff60078201548181166104f3816125dc565b60e086015260081c16610505816125dc565b61010084015260088101546101208401526009810154610140840152600a81015461016084015201546101808201526040518091602082528051602083015260018060a01b03602082015116604083015260018060a01b03604082015116606083015260018060a01b03606082015116608083015260808101516101806105b361059d6101a0938460a08801526101c087019061275a565b60a0850151868203601f190160c088015261275a565b9260c081015160e086015260e08101516105cc816125dc565b6101008601526101008101516105e1816125dc565b610120860152610120810151610140860152610140810151610160860152610160810151828601520151908301520390f35b506004805490351115610441565b3461026b57604036600319011261026b5760243560043560005260086020526040600020805482101561026b5760209161065a916127cc565b905460405160039290921b1c6001600160a01b03168152f35b3461026b57604036600319011261026b5761068c6125c6565b600435600052600660205260406000209060018060a01b0316600052602052602060ff604060002054166040519015158152f35b3461026b57604036600319011261026b5761001b6004356106df6125c6565b908060005260006020526106fa600160406000200154612b27565b612c31565b3461026b57602036600319011261026b577f4dd522c050b46ef5e852ea87e7cd136b049dcb37740ad38386fbbb5cd30aa92460043561073c6127fa565b80600d55600b54610332600c5492604051938493846040919493926060820195825260208201520152565b3461026b5760208060031936011261026b5760043590610785612e71565b81151580610a37575b61079790612ec7565b81600052600581526107af6040600020541515612f07565b8160005260058152604060002091600783019160ff835460081c16936107d4856125dc565b6107e16001809614612f45565b600981015442119160068201948554600b541115936000805160206132b783398151915260005260008352604060002033600052835260ff60406000205416948115610a22575b50156109e85761083785613185565b91610841836125dc565b821561096f575b507f6584a808796f85ebc35f137f0a33b9eb54e668f901d7f68a690b5088839f68b193506108768282612e38565b61020061ff001982541617905542600a830155610905600b830154926108ab60646108a3600f5487612ca5565b048095612fd3565b906108b5846125dc565b83890361093657808901546001600160a01b0316945b8061090c575b506108f56000808080866001600160a01b038b165af16108ef612fe0565b50613052565b5496549360405194859485613097565b0390a38055005b60008080806109309460018060a01b03600e54165af161092a612fe0565b50613010565b896108d1565b61093f846125dc565b6002840361095b5760028101546001600160a01b0316946108cb565b60038101546001600160a01b0316946108cb565b91509192156109a45750907f6584a808796f85ebc35f137f0a33b9eb54e668f901d7f68a690b5088839f68b191859087610848565b6064906040519062461bcd60e51b82526004820152601860248201527f41726269746572206d757374207265736f6c76652074696500000000000000006044820152fd5b60405162461bcd60e51b815260048101839052601260248201527110d85b9b9bdd081c995cdbdb1d99481e595d60721b6044820152606490fd5b905080610a30575b88610828565b5083610a2a565b5060045482111561078e565b3461026b57602036600319011261026b57610a5c6125b0565b610a646127fa565b6001600160a01b0316610a78811515613278565b6001600160601b0360a01b6003541617600355600080f35b3461026b57602036600319011261026b57600435600052600a6020526020604060002054604051908152f35b3461026b57602036600319011261026b57610ad56125b0565b610add6127fa565b6001600160a01b031660008181527f89777fffb7045c97177d1161cd08d871365cb73d0b18f242761255a7718434cf60205260409020546000805160206132b7833981519152919060ff1615610b2f57005b8160005260006020526040600020816000526020526040600020600160ff1982541617905533917f2f8788117e7eff1d82e926ec794901d17c78024a50270940304540a733656f0d600080a4005b3461026b57604036600319011261026b5760043560243567ffffffffffffffff811161026b57610bb190369060040161279e565b610bbc9291926129f4565b610bc4612e71565b81151580610d32575b610bd690612ec7565b81600052602060058152610bf06040600020541515612f07565b8260005260058152604060002060078101805460ff8160081c16610c13816125dc565b8015908115610d1e575b5015610ce95761ff00191661030017905542600a8201556001810154600b820154600091829182918291906001600160a01b03165af1610c5b612fe0565b5015610cb45790610cab827f39383d6b9c3bc156731cf154d26b0a9a3703b5f039b080b5752e26de561ba60f949354600052600a8352600060408120555495604051938385948552840191612e50565b0390a360018055005b60405162461bcd60e51b815260048101839052600d60248201526c1499599d5b990819985a5b1959609a1b6044820152606490fd5b60405162461bcd60e51b815260048101859052600d60248201526c10d85b9b9bdd0818d85b98d95b609a1b6044820152606490fd5b60019150610d2b816125dc565b1488610c1d565b50600454821115610bcd565b3461026b57610d4c3661277f565b90610d556129f4565b610d5d612e71565b80151580610f14575b610d6f90612ec7565b806000526005602052610d886040600020541515612f07565b8060005260056020526040600020916007830190610db8600160ff845460081c16610db2816125dc565b14612f45565b610dc1816125dc565b8015610ede5781610df3827f6584a808796f85ebc35f137f0a33b9eb54e668f901d7f68a690b5088839f68b194612e38565b61020061ff001982541617905542600a850155600b84015490610cab610e286064610e20600f5486612ca5565b048094612fd3565b610e31836125dc565b60018303610ea55760018701546001600160a01b0316935b80610e81575b50610e6d6000808080856001600160a01b038a165af16108ef612fe0565b600687549701549360405194859485613097565b6000808080610e9f9460018060a01b03600e54165af161092a612fe0565b87610e4f565b610eae836125dc565b60028303610eca5760028701546001600160a01b031693610e49565b60038701546001600160a01b031693610e49565b60405162461bcd60e51b815260206004820152600e60248201526d24b73b30b634b2103bb4b73732b960911b6044820152606490fd5b50600454811115610d66565b3461026b5760208060031936011261026b576004359081600052600781526040600020600160005281526040600020549082600052600781526040600020600260005281526040600020549260005260078152604060002090600360005252610fa5604060002054604051938493846040919493926060820195825260208201520152565b0390f35b3461026b57602036600319011261026b576020610fc760043561312b565b604051908152f35b3461026b57600036600319011261026b576020600454604051908152f35b3461026b57600036600319011261026b57602060405160008152f35b60c036600319011261026b5761101d6125c6565b604435906001600160a01b038216820361026b576064356001600160a01b038116810361026b5760843567ffffffffffffffff811161026b5761106490369060040161279e565b929060a43567ffffffffffffffff811161026b5761108690369060040161279e565b949093611091612e71565b336001600160a01b038516148015611692575b8015611680575b8015611649575b8015611635575b156115ff57600435600052600a6020526040600020546115c15734156115835760045494600019861461156d57600186016004556111456110fc600c5442612cb8565b916040519861110a8a612652565b6004358a526001600160a01b0388811660208c01528b811660408c0152851660608b0152611139368789612e01565b60808b01523691612e01565b60a0880152600060c0880152600060e0880152600161010088015242610120880152610140870152600061016087015234610180870152600185016000526005602052604060002096865188556001880160018060a01b03602089015116906001600160601b0360a01b91828254161790556002890160018060a01b0360408a01511682825416179055600389019060018060a01b0360608a01511690825416179055608087015180519067ffffffffffffffff821161148757819061120e60048c01546125fc565b601f811161151a575b50602090601f83116001146114a85760009261149d575b50508160011b916000199060031b1c19161760048901555b60a087015197885167ffffffffffffffff81116114875761126a60058301546125fc565b99601f8b11611440575b60209a508a90601f83116001146113c7579982600b93610180936113769b9c9d6000926113bc575b50508160011b916000199060031b1c19161760058501555b60c08101516006850155600784016112d960e08301516112d3816125dc565b82612e38565b6101008201516112e8816125dc565b6112f1816125dc565b61ff0082549160081b169061ff00191617905561012081015160088501556101408101516009850155610160810151600a8501550151910155600435600052600a8852600187016040600020556040519560018060a01b0316865260018060a01b03168786015260018060a01b0316604085015260a0606085015260a0840191612e50565b9034608082015233917f35773e783e59df4f614c1f6c55c64725e30b2740a8716c42b783811225fbb304600435928060018701930390a460018055600160405191018152f35b015190508e8061129c565b90600584016000528b6000209160005b601f1985168110611429575083610180936113769b9c9d93600193600b97601f19811610611410575b505050811b0160058501556112b4565b015160001960f88460031b161c191690558e8080611400565b91928d6001819286850151815501940192016113d7565b600583016000526020600020601f830160051c810160208410611480575b601f8d0160051c82018110611474575050611274565b6000815560010161145e565b508061145e565b634e487b7160e01b600052604160045260246000fd5b015190508a8061122e565b925060048b016000526020600020906000935b601f19841685106114ff576001945083601f198116106114e6575b505050811b016004890155611246565b015160001960f88460031b161c191690558a80806114d6565b818101518355602094850194600190930192909101906114bb565b90915060048b016000526020600020601f840160051c810160208510611566575b90849392915b601f830160051c82018110611557575050611217565b60008155859450600101611541565b508061153b565b634e487b7160e01b600052601160045260246000fd5b60405162461bcd60e51b8152602060048201526016602482015275115cd8dc9bddc8185b5bdd5b9d081c995c5d5a5c995960521b6044820152606490fd5b60405162461bcd60e51b81526020600482015260166024820152754469737075746520616c72656164792065786973747360501b6044820152606490fd5b60405162461bcd60e51b815260206004820152600e60248201526d139bdd08185d5d1a1bdc9a5e995960921b6044820152606490fd5b506003546001600160a01b031633146110b9565b503360009081527e4137ac999875a62b0381e65f8832c0a903cf25418dd0c40107411aa55dc687602052604090205460ff166110b2565b50336001600160a01b038216146110ab565b50336001600160a01b038816146110a4565b3461026b57604036600319011261026b576116bd6125c6565b600435600052600060205260406000209060018060a01b0316600052602052602060ff604060002054166040519015158152f35b3461026b57602036600319011261026b576004356001600160a01b0381169081900361026b5761171f6127fa565b61172a811515613278565b6001600160601b0360a01b600e541617600e55600080f35b3461026b576117503661277f565b611758612e71565b81151580611c47575b61176a90612ec7565b81600052602091600583526117856040600020541515612f07565b806000526005835260079260ff846040600020015460081c16936117a8856125dc565b6117b56001809614612f45565b82600052600582526009604060002001544211611c0c57826000526005825260406000209060068352604060002033600052835260ff60406000205416611bd7576117ff856125dc565b8585149081159182611bc4575b8015611bb1575b15611b74578683015460249493926001600160a01b0392913390841603611b255761184690611841896125dc565b612f87565b838260025416604051968780926370a0823160e01b82523360048301525afa948515611b1957600095611aea575b50600d548510611aa55785600052600684526040600020336000528452600660406000209360ff19948a868254161790558760005282865260406000206118ba8a6125dc565b89600052865260406000206118d0888254612cb8565b9055016118de868254612cb8565b90558560005260088452604060002091825492680100000000000000008410156114875783611912918b80960181556127cc565b81549060031b908333831b921b191617905560026040519161193383612636565b3383528683016119428b6125dc565b8a8152604084019089825260608501924284528b60005260098a526040600020336000528a5260406000209551168554915161197d816125dc565b611986816125dc565b60ff60a01b9060a01b16916affffffffffffffffffffff60a81b1617178455518584015551910155856000526005845260406000208185526040600020836000528552604060002054876000528286526040600020600260005286526040600020549088600052838752604060002060036000528752604060002054908281101580611a9b575b15611a5a5750505001918254161790555b60405193611a2b816125dc565b84528301527fb83d25c6a5d258561330739951487acb4bd09ba5190b5d32c4f261817d90679260403393a38055005b90918093955010159182611a90575b505015611a80576002910191825416179055611a1e565b6003910191825416179055611a1e565b101590508980611a69565b5081811015611a0d565b60405162461bcd60e51b815260048101859052601960248201527f496e73756666696369656e7420766f74696e6720706f776572000000000000006044820152606490fd5b9094508381813d8311611b12575b611b02818361266f565b8101031261026b57519388611874565b503d611af8565b6040513d6000823e3d90fd5b50816002840154163314600014611b5157611b3f876125dc565b611b4c6002881415612f87565b611846565b81600384015416330361184657611b67876125dc565b611b4c6003881415612f87565b60405162461bcd60e51b8152600481018590526015602482015274496e76616c69642077696e6e65722063686f69636560581b6044820152606490fd5b50611bbb866125dc565b60038614611813565b50611bce866125dc565b6002861461180c565b60405162461bcd60e51b815260048101849052600d60248201526c105b1c9958591e481d9bdd1959609a1b6044820152606490fd5b60405162461bcd60e51b8152600481018390526013602482015272159bdd1a5b99c81c195c9a5bd908195b991959606a1b6044820152606490fd5b50600454821115611761565b3461026b57600036600319011261026b5760206040517f797343f8d6a29aafeb3aaf0910a8973e0081c60c2f6c1f775cd9f76ea348fc1e8152f35b3461026b57600036600319011261026b576020600b54604051908152f35b3461026b57602036600319011261026b57600435611cc86127fa565b60148111611cd557600f55005b60405162461bcd60e51b81526020600482015260076024820152664d61782032302560c81b6044820152606490fd5b3461026b57600036600319011261026b576003546040516001600160a01b039091168152602090f35b3461026b57602036600319011261026b57600435600052600560205260406000208054600160a01b6001900391826001820154169280600283015416906003830154169160048101611d7e90612691565b92611d8b60058301612691565b93600683015494600784015460ff81169060081c60ff1691600886015493600987015495600a88015497600b0154986040519c8d9c8d5260208d015260408c015260608b01526101a08060808c01528a01611de59161275a565b89810360a08b0152611df69161275a565b9660c0890152611e05816125dc565b60e0880152611e13816125dc565b6101008701526101208601526101408501526101608401526101808301520390f35b3461026b57602036600319011261026b57611e4e6127fa565b611e56612e71565b60043560005260056020526040600020600b8101908154918215611f65576007820191825490600160ff8360081c16611e8e816125dc565b149081611f4a575b5015611f0f57600080835561ff0019909116610300178355600e5481908190819087906001600160a01b03165af1611ecc612fe0565b5015611ed85760018055005b60405162461bcd60e51b815260206004820152600f60248201526e151c985b9cd9995c8819985a5b1959608a1b6044820152606490fd5b60405162461bcd60e51b815260206004820152601360248201527210d85b9b9bdd081dda5d1a191c985dc81e595d606a1b6044820152606490fd5b60099150015462278d00810180911161156d57421185611e96565b60405162461bcd60e51b81526020600482015260086024820152674e6f2066756e647360c01b6044820152606490fd5b3461026b57600036600319011261026b576002546040516001600160a01b039091168152602090f35b3461026b57600036600319011261026b5760206040516000805160206132b78339815191528152f35b3461026b57602036600319011261026b5760206120056004356130c5565b6040519015158152f35b3461026b57604036600319011261026b57608061202a6125c6565b6004356000526009602052604060002060018060a01b0380921660005260205260406000209081549160ff8360a01c16600260018301549201549260405194168452612075816125dc565b602084015260408301526060820152f35b3461026b57604036600319011261026b5761209f6125c6565b336001600160a01b038216036120bb5761001b90600435612c31565b60405162461bcd60e51b815260206004820152602f60248201527f416363657373436f6e74726f6c3a2063616e206f6e6c792072656e6f756e636560448201526e103937b632b9903337b91039b2b63360891b6064820152608490fd5b3461026b57602036600319011261026b576121316125b0565b6121396127fa565b6001600160a01b031660008181527f89777fffb7045c97177d1161cd08d871365cb73d0b18f242761255a7718434cf60205260409020546000805160206132b7833981519152919060ff1661218a57005b816000526000602052604060002081600052602052604060002060ff19815416905533917ff6391f5c32d9c69d2a47ea670b442974b53935d1edc7fd64eb21e047a839171b600080a4005b3461026b57604036600319011261026b576004356121f16125c6565b81600052600060205261220b600160406000200154612b27565b81600052600060205260406000209060018060a01b0316908160005260205260ff6040600020541615610b2f57005b3461026b57604036600319011261026b5760806122556125c6565b6000606060405161226581612636565b82815282602082015282604082015201526004356000526009602052604060002060018060a01b03809216600052602052604060002090604051916122a983612636565b60ff8154838116855260a01c1660208401906122c4816125dc565b8152600260018301549260408601938452015492606085019384526040519451168452516122f1816125dc565b6020840152516040830152516060820152f35b3461026b57602036600319011261026b5760043560005260006020526020600160406000200154604051908152f35b3461026b57600036600319011261026b576020600f54604051908152f35b3461026b5760208060031936011261026b5760043560005260088152604060002060405190818382549182815201908192600052846000209060005b868282106123ec5786866123a38288038361266f565b604051928392818401908285525180915260408401929160005b8281106123cc57505050500390f35b83516001600160a01b0316855286955093810193928101926001016123bd565b83546001600160a01b03168552909301926001928301920161238d565b3461026b5760208060031936011261026b576124236125b0565b6002546040516370a0823160e01b81526001600160a01b03928316600482015291839183916024918391165afa908115611b1957600091612468575b50604051908152f35b90508181813d831161248e575b61247f818361266f565b8101031261026b57518261245f565b503d612475565b3461026b57602036600319011261026b576004356124b16127fa565b801561250157600b819055600c54600d54604080519384526020840192909252908201527f4dd522c050b46ef5e852ea87e7cd136b049dcb37740ad38386fbbb5cd30aa924908060608101610332565b60405162461bcd60e51b815260206004820152601660248201527504d7573742062652067726561746572207468616e20360541b6044820152606490fd5b3461026b57600036600319011261026b576020600c54604051908152f35b3461026b57602036600319011261026b576004359063ffffffff60e01b821680920361026b57602091637965db0b60e01b811490811561259f575b5015158152f35b6301ffc9a760e01b14905083612598565b600435906001600160a01b038216820361026b57565b602435906001600160a01b038216820361026b57565b600411156125e657565b634e487b7160e01b600052602160045260246000fd5b90600182811c9216801561262c575b602083101461261657565b634e487b7160e01b600052602260045260246000fd5b91607f169161260b565b6080810190811067ffffffffffffffff82111761148757604052565b6101a0810190811067ffffffffffffffff82111761148757604052565b90601f8019910116810190811067ffffffffffffffff82111761148757604052565b90604051918260008254926126a5846125fc565b90818452600194858116908160001461271457506001146126d1575b50506126cf9250038361266f565b565b9093915060005260209081600020936000915b8183106126fc5750506126cf935082010138806126c1565b855488840185015294850194879450918301916126e4565b9150506126cf94506020925060ff191682840152151560051b82010138806126c1565b60005b83811061274a5750506000910152565b818101518382015260200161273a565b9060209161277381518092818552858086019101612737565b601f01601f1916010190565b604090600319011261026b5760043590602435600481101561026b5790565b9181601f8401121561026b5782359167ffffffffffffffff831161026b576020838186019501011161026b57565b80548210156127e45760005260206000200190600090565b634e487b7160e01b600052603260045260246000fd5b3360009081527fad3228b676f7d3cd4284a5443f17f1962b36e491b30a40b2405849e597ba5fb5602090815260408083205490929060ff161561283c57505050565b61284533612cf2565b908084519061285382612636565b604282528482019260603685378251156129e057603084538251906001918210156129e05790607860218501536041915b8183116129725750505061293057604861292c93869361291093612901985198899376020b1b1b2b9b9a1b7b73a3937b61d1030b1b1b7bab73a1604d1b8a8601526128d8815180928c603789019101612737565b8401917001034b99036b4b9b9b4b733903937b6329607d1b603784015251809386840190612737565b0103602881018752018561266f565b5192839262461bcd60e51b84526004840152602483019061275a565b0390fd5b60648486519062461bcd60e51b825280600483015260248201527f537472696e67733a20686578206c656e67746820696e73756666696369656e746044820152fd5b909192600f811660108110156129cc576f181899199a1a9b1b9c1cb0b131b232b360811b901a6129a28587612ce1565b5360041c9280156129b857600019019190612884565b634e487b7160e01b82526011600452602482fd5b634e487b7160e01b83526032600452602483fd5b634e487b7160e01b81526032600452602490fd5b3360009081527f89777fffb7045c97177d1161cd08d871365cb73d0b18f242761255a7718434cf602090815260408083205490926000805160206132b78339815191529160ff1615612a465750505050565b612a4f33612cf2565b91845190612a5c82612636565b604282528482019260603685378251156129e057603084538251906001918210156129e05790607860218501536041915b818311612ae15750505061293057604861292c93869361291093612901985198899376020b1b1b2b9b9a1b7b73a3937b61d1030b1b1b7bab73a1604d1b8a8601526128d8815180928c603789019101612737565b909192600f811660108110156129cc576f181899199a1a9b1b9c1cb0b131b232b360811b901a612b118587612ce1565b5360041c9280156129b857600019019190612a8d565b600090808252602090828252604092838120338252835260ff848220541615612b505750505050565b612b5933612cf2565b91845190612b6682612636565b604282528482019260603685378251156129e057603084538251906001918210156129e05790607860218501536041915b818311612beb5750505061293057604861292c93869361291093612901985198899376020b1b1b2b9b9a1b7b73a3937b61d1030b1b1b7bab73a1604d1b8a8601526128d8815180928c603789019101612737565b909192600f811660108110156129cc576f181899199a1a9b1b9c1cb0b131b232b360811b901a612c1b8587612ce1565b5360041c9280156129b857600019019190612b97565b9060009180835282602052604083209160018060a01b03169182845260205260ff604084205416612c6157505050565b80835282602052604083208284526020526040832060ff1981541690557ff6391f5c32d9c69d2a47ea670b442974b53935d1edc7fd64eb21e047a839171b339380a4565b8181029291811591840414171561156d57565b9190820180921161156d57565b67ffffffffffffffff811161148757601f01601f191660200190565b9081518110156127e4570160200190565b604051906060820182811067ffffffffffffffff82111761148757604052602a82526020820160403682378251156127e4576030905381516001908110156127e457607860218401536029905b808211612d93575050612d4f5790565b606460405162461bcd60e51b815260206004820152602060248201527f537472696e67733a20686578206c656e67746820696e73756666696369656e746044820152fd5b9091600f81166010811015612dec576f181899199a1a9b1b9c1cb0b131b232b360811b901a612dc28486612ce1565b5360041c918015612dd7576000190190612d3f565b60246000634e487b7160e01b81526011600452fd5b60246000634e487b7160e01b81526032600452fd5b929192612e0d82612cc5565b91612e1b604051938461266f565b82948184528183011161026b578281602093846000960137010152565b90612e42816125dc565b60ff80198354169116179055565b908060209392818452848401376000828201840152601f01601f1916010190565b600260015414612e82576002600155565b60405162461bcd60e51b815260206004820152601f60248201527f5265656e7472616e637947756172643a207265656e7472616e742063616c6c006044820152606490fd5b15612ece57565b60405162461bcd60e51b8152602060048201526011602482015270111a5cdc1d5d19481b9bdd08199bdd5b99607a1b6044820152606490fd5b15612f0e57565b60405162461bcd60e51b815260206004820152600f60248201526e496e76616c6964206469737075746560881b6044820152606490fd5b15612f4c57565b60405162461bcd60e51b81526020600482015260136024820152724e6f7420696e20766f74696e6720706861736560681b6044820152606490fd5b15612f8e57565b60405162461bcd60e51b815260206004820152601860248201527f43616e6e6f7420766f746520666f7220796f757273656c6600000000000000006044820152606490fd5b9190820391821161156d57565b3d1561300b573d90612ff182612cc5565b91612fff604051938461266f565b82523d6000602084013e565b606090565b1561301757565b60405162461bcd60e51b8152602060048201526013602482015272119959481d1c985b9cd9995c8819985a5b1959606a1b6044820152606490fd5b1561305957565b60405162461bcd60e51b815260206004820152601660248201527515da5b9b995c881d1c985b9cd9995c8819985a5b195960521b6044820152606490fd5b9094939260609260808301966130ac816125dc565b835260208301526001600160a01b031660408201520152565b80158015613120575b61311a5760005260056020526040600020600160ff600783015460081c166130f5816125dc565b0361311a576009810154421190811561310c575090565b600691500154600b54111590565b50600090565b5060045481116130ce565b8015801561317a575b61311a5760005260056020526040600020600160ff600783015460081c1661315b816125dc565b0361311a57600901548042101561311a57613177904290612fd3565b90565b506004548111613134565b60009081526007602090815260408083206001845290915280822054600283528183205460038452918320549291811580613270575b80613268575b6132615781600194838311613255575b81811161324c575b8284149384613242575b8415613221575b508315613202575b5050506131fd575090565b905090565b821492509082613217575b50503880806131f2565b149050388061320d565b909350818482149182613238575b505092386131ea565b149050813861322f565b82811494506131e3565b600395506131d9565b945050806002946131d1565b5050905090565b5083156131c1565b5080156131bb565b1561327f57565b60405162461bcd60e51b815260206004820152600f60248201526e496e76616c6964206164647265737360881b6044820152606490fdfebb08418a67729a078f87bbc8d02a770929bb68f5bfdf134ae2ead6ed38e2f4aea26469706673582212205115d9de40324bf3e61b41c6b38e1b140dbf26edca5763ecac89dd4cd058491364736f6c634300081400332f8788117e7eff1d82e926ec794901d17c78024a50270940304540a733656f0d",
  "linkReferences": {},
  "deployedLinkReferences": {}
}