{
  "_format": "hh-sol-artifact-1",
  "contractName": "DoneWeatherOracle",
  "sourceName": "contracts/oracles/DoneWeatherOracle.sol",
  "abi": [
    {
      "inputs": [],
      "stateMutability": "nonpayable",
      "type": "constructor"
    },
    {
      "anonymous": false,
      "inputs": [
        {
          "indexed": false,
          "internalType": "uint256",
          "name": "baseFee",
          "type": "uint256"
        },
        {
          "indexed": false,
          "internalType": "uint256",
          "name": "adjustedFee",
          "type": "uint256"
        },
        {
          "indexed": false,
          "internalType": "enum DoneWeatherOracle.WeatherCondition",
          "name": "condition",
          "type": "uint8"
        }
      ],
      "name": "DeliveryFeeAdjusted",
      "type": "event"
    },
    {
      "anonymous": false,
      "inputs": [
        {
          "indexed": true,
          "internalType": "bytes32",
          "name": "locationHash",
          "type": "bytes32"
        },
        {
          "indexed": false,
          "internalType": "enum DoneWeatherOracle.WeatherCondition",
          "name": "condition",
          "type": "uint8"
        }
      ],
      "name": "ExtremeWeatherAlert",
      "type": "event"
    },
    {
      "anonymous": false,
      "inputs": [
        {
          "indexed": true,
          "internalType": "address",
          "name": "previousOwner",
          "type": "address"
        },
        {
          "indexed": true,
          "internalType": "address",
          "name": "newOwner",
          "type": "address"
        }
      ],
      "name": "OwnershipTransferred",
      "type": "event"
    },
    {
      "anonymous": false,
      "inputs": [
        {
          "indexed": true,
          "internalType": "bytes32",
          "name": "locationHash",
          "type": "bytes32"
        },
        {
          "indexed": false,
          "internalType": "enum DoneWeatherOracle.WeatherCondition",
          "name": "condition",
          "type": "uint8"
        },
        {
          "indexed": false,
          "internalType": "int256",
          "name": "temperature",
          "type": "int256"
        },
        {
          "indexed": false,
          "internalType": "bool",
          "name": "isExtreme",
          "type": "bool"
        }
      ],
      "name": "WeatherUpdated",
      "type": "event"
    },
    {
      "inputs": [],
      "name": "UPDATE_INTERVAL",
      "outputs": [
        {
          "internalType": "uint256",
          "name": "",
          "type": "uint256"
        }
      ],
      "stateMutability": "view",
      "type": "function"
    },
    {
      "inputs": [
        {
          "internalType": "uint256",
          "name": "baseFee",
          "type": "uint256"
        },
        {
          "internalType": "enum DoneWeatherOracle.WeatherCondition",
          "name": "condition",
          "type": "uint8"
        }
      ],
      "name": "adjustDeliveryFee",
      "outputs": [
        {
          "internalType": "uint256",
          "name": "",
          "type": "uint256"
        }
      ],
      "stateMutability": "view",
      "type": "function"
    },
    {
      "inputs": [
        {
          "internalType": "int256",
          "name": "lat",
          "type": "int256"
        },
        {
          "internalType": "int256",
          "name": "lng",
          "type": "int256"
        }
      ],
      "name": "canDeliver",
      "outputs": [
        {
          "internalType": "bool",
          "name": "",
          "type": "bool"
        }
      ],
      "stateMutability": "view",
      "type": "function"
    },
    {
      "inputs": [
        {
          "internalType": "enum DoneWeatherOracle.WeatherCondition",
          "name": "",
          "type": "uint8"
        }
      ],
      "name": "deliveryFeeMultipliers",
      "outputs": [
        {
          "internalType": "uint256",
          "name": "",
          "type": "uint256"
        }
      ],
      "stateMutability": "view",
      "type": "function"
    },
    {
      "inputs": [
        {
          "internalType": "int256",
          "name": "lat",
          "type": "int256"
        },
        {
          "internalType": "int256",
          "name": "lng",
          "type": "int256"
        }
      ],
      "name": "getWeather",
      "outputs": [
        {
          "internalType": "enum DoneWeatherOracle.WeatherCondition",
          "name": "",
          "type": "uint8"
        },
        {
          "internalType": "int256",
          "name": "",
          "type": "int256"
        },
        {
          "internalType": "uint256",
          "name": "",
          "type": "uint256"
        },
        {
          "internalType": "bool",
          "name": "",
          "type": "bool"
        }
      ],
      "stateMutability": "view",
      "type": "function"
    },
    {
      "inputs": [],
      "name": "owner",
      "outputs": [
        {
          "internalType": "address",
          "name": "",
          "type": "address"
        }
      ],
      "stateMutability": "view",
      "type": "function"
    },
    {
      "inputs": [],
      "name": "renounceOwnership",
      "outputs": [],
      "stateMutability": "nonpayable",
      "type": "function"
    },
    {
      "inputs": [
        {
          "internalType": "enum DoneWeatherOracle.WeatherCondition",
          "name": "condition",
          "type": "uint8"
        },
        {
          "internalType": "uint256",
          "name": "multiplier",
          "type": "uint256"
        }
      ],
      "name": "setFeeMultiplier",
      "outputs": [],
      "stateMutability": "nonpayable",
      "type": "function"
    },
    {
      "inputs": [
        {
          "internalType": "address",
          "name": "newOwner",
          "type": "address"
        }
      ],
      "name": "transferOwnership",
      "outputs": [],
      "stateMutability": "nonpayable",
      "type": "function"
    },
    {
      "inputs": [
        {
          "internalType": "int256",
          "name": "lat",
          "type": "int256"
        },
        {
          "internalType": "int256",
          "name": "lng",
          "type": "int256"
        },
        {
          "internalType": "enum DoneWeatherOracle.WeatherCondition",
          "name": "condition",
          "type": "uint8"
        },
        {
          "internalType": "int256",
          "name": "temperature",
          "type": "int256"
        }
      ],
      "name": "updateWeather",
      "outputs": [],
      "stateMutability": "nonpayable",
      "type": "function"
    },
    {
      "inputs": [
        {
          "internalType": "bytes32",
          "name": "",
          "type": "bytes32"
        }
      ],
      "name": "weatherByLocation",
      "outputs": [
        {
          "internalType": "enum DoneWeatherOracle.WeatherCondition",
          "name": "condition",
          "type": "uint8"
        },
        {
          "internalType": "int256",
          "name": "temperature",
          "type": "int256"
        },
        {
          "internalType": "uint256",
          "name": "timestamp",
          "type": "uint256"
        },
        {
          "internalType": "bool",
          "name": "isExtreme",
          "type": "bool"
        }
      ],
      "stateMutability": "view",
      "type": "function"
    }
  ],
  "bytecode": "0x60806040818152346100925760008054336001600160a01b0319821681178355614e209392916001600160a01b03167f8be0079c531659141344cd1fd0a4f28419497f9722a3daafe3b4186f6b6457e08380a380805260026020526127108083832055600182528282205560028152612ee08282205560038152613a98828220556004815220556108ae90816100988239f35b600080fdfe60406080815260048036101561001457600080fd5b600091823560e01c80630ee24eb51461062c5780636e7121ea146105e5578063715018a61461058b57806373a70c951461056657806382c34c00146103a757806389ac41471461038a5780638da5cb5b1461035e578063a163bb34146101f7578063b14954721461019a578063b4fed851146101655763f2fde38b1461009957600080fd5b34610161576020366003190112610161576001600160a01b0382358181169391929084900361015d576100ca610736565b831561010b57505082546001600160a01b0319811683178455167f8be0079c531659141344cd1fd0a4f28419497f9722a3daafe3b4186f6b6457e08380a380f35b906020608492519162461bcd60e51b8352820152602660248201527f4f776e61626c653a206e6577206f776e657220697320746865207a65726f206160448201526564647265737360d01b6064820152fd5b8480fd5b8280fd5b5090346101615760203660031901126101615735916005831015610197575061018f60209261071d565b549051908152f35b80fd5b5091346101975782600319360112610197578135916024356005811015610161576101c49061071d565b54928381029381850414901517156101e457602083612710865191048152f35b634e487b7160e01b825260119052602490fd5b5082346101975761020736610702565b8351906020820192835284820152838152610221816107c0565b5190208152600160205281812091805161023a8161078e565b60ff845416600581101561034b57815260018401546020820190815260028501549160ff600385830197858952015416926060820193151584521561031657855161546081018091116103035742116102c857519360058510156102b55750906102b19291519451905115159151948594856106db565b0390f35b634e487b7160e01b815260218752602490fd5b835162461bcd60e51b8152602081890152601560248201527415d9585d1a195c8819185d18481bdd5d19185d1959605a1b6044820152606490fd5b634e487b7160e01b865260118852602486fd5b835162461bcd60e51b8152602081890152600f60248201526e4e6f2077656174686572206461746160881b6044820152606490fd5b634e487b7160e01b845260218652602484fd5b838234610386578160031936011261038657905490516001600160a01b039091168152602090f35b5080fd5b83823461038657816003193601126103865760209051610e108152f35b50346101615760803660031901126101615760443590600582101561056257606435926103d2610736565b8151602081019082358252602435848201528381526103f0816107c0565b51902093848652600160205282862060028101908154610e10810180911161054f574210610517578584149388851561050a575b85156104fd575b85156104f1575b6104de575086927f2d8ad5c85a5d74efd5d7c128c8983740fd094513a6e05422dfa23c66e203c04b92600360609360ff19928382541660ff8c16178255846001830155429055018615159181541660ff8316179055865191610494838a6106b8565b602083015286820152a26104a6578380f35b7f471a175649bde76243e3014f049c8436d156b107daf12e3dbfc66747fad160e6916104d66020925180926106b8565ba23880808380f35b634e487b7160e01b895260219052602488fd5b610fa085139550610432565b6103e7198512955061042b565b5060038714945088610424565b845162461bcd60e51b81526020818601526012602482015271546f6f20736f6f6e20746f2075706461746560701b6044820152606490fd5b634e487b7160e01b895260118552602489fd5b8380fd5b8382346103865760209061058261057c36610702565b906107dc565b90519015158152f35b83346101975780600319360112610197576105a4610736565b80546001600160a01b03198116825581906001600160a01b03167f8be0079c531659141344cd1fd0a4f28419497f9722a3daafe3b4186f6b6457e08280a380f35b50903461016157602036600319011261016157918192358152600160205220906102b160ff8354169160018401549360ff60036002830154920154169151948594856106db565b50903461016157816003193601126101615780359060058210156105625760243592610656610736565b831561066b5750506106679061071d565b5580f35b906020608492519162461bcd60e51b8352820152602160248201527f4d756c7469706c696572206d7573742062652067726561746572207468616e206044820152600360fc1b6064820152fd5b9060058210156106c55752565b634e487b7160e01b600052602160045260246000fd5b92606092959491956106f18560808101986106b8565b602085015260408401521515910152565b6040906003190112610718576004359060243590565b600080fd5b60058110156106c5576000526002602052604060002090565b6000546001600160a01b0316330361074a57565b606460405162461bcd60e51b815260206004820152602060248201527f4f776e61626c653a2063616c6c6572206973206e6f7420746865206f776e65726044820152fd5b6080810190811067ffffffffffffffff8211176107aa57604052565b634e487b7160e01b600052604160045260246000fd5b6060810190811067ffffffffffffffff8211176107aa57604052565b60409182519060208201928352838201528281526107f9816107c0565b51902090600091825260016020528082208151906108168261078e565b60ff81541692600584101561086457838352600182015460208401526002820154908301526003015460ff16151560609091018190526108605760041461085d5750600190565b90565b5090565b634e487b7160e01b85526021600452602485fdfea2646970667358221220d8687b483aa269baefddfa2ccff54dbe96455db6fb637d473b3eb5bd1479909a64736f6c63430008140033",
  "linkReferences": {},
  "deployedLinkReferences": {}
}