{
  "_format": "hh-sol-artifact-1",
  "contractName": "DoneGPSOracle",
  "sourceName": "contracts/oracles/DoneGPSOracle.sol",
  "abi": [
    {
      "inputs": [],
      "stateMutability": "nonpayable",
      "type": "constructor"
    },
    {
      "anonymous": false,
      "inputs": [
        {
          "indexed": true,
          "internalType": "uint256",
          "name": "orderId",
          "type": "uint256"
        },
        {
          "indexed": false,
          "internalType": "uint256",
          "name": "distance",
          "type": "uint256"
        },
        {
          "indexed": false,
          "internalType": "bool",
          "name": "verified",
          "type": "bool"
        }
      ],
      "name": "DeliveryVerified",
      "type": "event"
    },
    {
      "anonymous": false,
      "inputs": [
        {
          "indexed": true,
          "internalType": "uint256",
          "name": "orderId",
          "type": "uint256"
        },
        {
          "indexed": false,
          "internalType": "int256",
          "name": "lat",
          "type": "int256"
        },
        {
          "indexed": false,
          "internalType": "int256",
          "name": "lng",
          "type": "int256"
        },
        {
          "indexed": false,
          "internalType": "uint256",
          "name": "timestamp",
          "type": "uint256"
        }
      ],
      "name": "LocationUpdated",
      "type": "event"
    },
    {
      "anonymous": false,
      "inputs": [
        {
          "indexed": true,
          "internalType": "bytes32",
          "name": "role",
          "type": "bytes32"
        },
        {
          "indexed": true,
          "internalType": "bytes32",
          "name": "previousAdminRole",
          "type": "bytes32"
        },
        {
          "indexed": true,
          "internalType": "bytes32",
          "name": "newAdminRole",
          "type": "bytes32"
        }
      ],
      "name": "RoleAdminChanged",
      "type": "event"
    },
    {
      "anonymous": false,
      "inputs": [
        {
          "indexed": true,
          "internalType": "bytes32",
          "name": "role",
          "type": "bytes32"
        },
        {
          "indexed": true,
          "internalType": "address",
          "name": "account",
          "type": "address"
        },
        {
          "indexed": true,
          "internalType": "address",
          "name": "sender",
          "type": "address"
        }
      ],
      "name": "RoleGranted",
      "type": "event"
    },
    {
      "anonymous": false,
      "inputs": [
        {
          "indexed": true,
          "internalType": "bytes32",
          "name": "role",
          "type": "bytes32"
        },
        {
          "indexed": true,
          "internalType": "address",
          "name": "account",
          "type": "address"
        },
        {
          "indexed": true,
          "internalType": "address",
          "name": "sender",
          "type": "address"
        }
      ],
      "name": "RoleRevoked",
      "type": "event"
    },
    {
      "anonymous": false,
      "inputs": [
        {
          "indexed": true,
          "internalType": "uint256",
          "name": "orderId",
          "type": "uint256"
        },
        {
          "indexed": false,
          "internalType": "uint256",
          "name": "totalDistance",
          "type": "uint256"
        },
        {
          "indexed": false,
          "internalType": "uint256",
          "name": "duration",
          "type": "uint256"
        }
      ],
      "name": "RouteCompleted",
      "type": "event"
    },
    {
      "inputs": [],
      "name": "DEFAULT_ADMIN_ROLE",
      "outputs": [
        {
          "internalType": "bytes32",
          "name": "",
          "type": "bytes32"
        }
      ],
      "stateMutability": "view",
      "type": "function"
    },
    {
      "inputs": [],
      "name": "DELIVERER_ROLE",
      "outputs": [
        {
          "internalType": "bytes32",
          "name": "",
          "type": "bytes32"
        }
      ],
      "stateMutability": "view",
      "type": "function"
    },
    {
      "inputs": [],
      "name": "DELIVERY_RADIUS",
      "outputs": [
        {
          "internalType": "uint256",
          "name": "",
          "type": "uint256"
        }
      ],
      "stateMutability": "view",
      "type": "function"
    },
    {
      "inputs": [],
      "name": "EARTH_RADIUS",
      "outputs": [
        {
          "internalType": "uint256",
          "name": "",
          "type": "uint256"
        }
      ],
      "stateMutability": "view",
      "type": "function"
    },
    {
      "inputs": [],
      "name": "ORACLE_ROLE",
      "outputs": [
        {
          "internalType": "bytes32",
          "name": "",
          "type": "bytes32"
        }
      ],
      "stateMutability": "view",
      "type": "function"
    },
    {
      "inputs": [
        {
          "internalType": "int256",
          "name": "lat1",
          "type": "int256"
        },
        {
          "internalType": "int256",
          "name": "lng1",
          "type": "int256"
        },
        {
          "internalType": "int256",
          "name": "lat2",
          "type": "int256"
        },
        {
          "internalType": "int256",
          "name": "lng2",
          "type": "int256"
        }
      ],
      "name": "calculateDistance",
      "outputs": [
        {
          "internalType": "uint256",
          "name": "",
          "type": "uint256"
        }
      ],
      "stateMutability": "pure",
      "type": "function"
    },
    {
      "inputs": [
        {
          "internalType": "uint256",
          "name": "",
          "type": "uint256"
        }
      ],
      "name": "currentLocations",
      "outputs": [
        {
          "internalType": "int256",
          "name": "latitude",
          "type": "int256"
        },
        {
          "internalType": "int256",
          "name": "longitude",
          "type": "int256"
        },
        {
          "internalType": "uint256",
          "name": "timestamp",
          "type": "uint256"
        },
        {
          "internalType": "address",
          "name": "deliverer",
          "type": "address"
        },
        {
          "internalType": "bool",
          "name": "verified",
          "type": "bool"
        }
      ],
      "stateMutability": "view",
      "type": "function"
    },
    {
      "inputs": [],
      "name": "deliveryRadius",
      "outputs": [
        {
          "internalType": "uint256",
          "name": "",
          "type": "uint256"
        }
      ],
      "stateMutability": "view",
      "type": "function"
    },
    {
      "inputs": [
        {
          "internalType": "uint256",
          "name": "",
          "type": "uint256"
        }
      ],
      "name": "deliveryRoutes",
      "outputs": [
        {
          "internalType": "uint256",
          "name": "orderId",
          "type": "uint256"
        },
        {
          "internalType": "uint256",
          "name": "totalDistance",
          "type": "uint256"
        },
        {
          "internalType": "uint256",
          "name": "startTime",
          "type": "uint256"
        },
        {
          "internalType": "uint256",
          "name": "endTime",
          "type": "uint256"
        }
      ],
      "stateMutability": "view",
      "type": "function"
    },
    {
      "inputs": [
        {
          "internalType": "uint256",
          "name": "orderId",
          "type": "uint256"
        }
      ],
      "name": "getDeliveryRoute",
      "outputs": [
        {
          "components": [
            {
              "internalType": "int256",
              "name": "latitude",
              "type": "int256"
            },
            {
              "internalType": "int256",
              "name": "longitude",
              "type": "int256"
            },
            {
              "internalType": "uint256",
              "name": "timestamp",
              "type": "uint256"
            },
            {
              "internalType": "address",
              "name": "deliverer",
              "type": "address"
            },
            {
              "internalType": "bool",
              "name": "verified",
              "type": "bool"
            }
          ],
          "internalType": "struct DoneGPSOracle.GPSLocation[]",
          "name": "locations",
          "type": "tuple[]"
        },
        {
          "internalType": "uint256",
          "name": "totalDistance",
          "type": "uint256"
        },
        {
          "internalType": "uint256",
          "name": "startTime",
          "type": "uint256"
        },
        {
          "internalType": "uint256",
          "name": "endTime",
          "type": "uint256"
        }
      ],
      "stateMutability": "view",
      "type": "function"
    },
    {
      "inputs": [
        {
          "internalType": "bytes32",
          "name": "role",
          "type": "bytes32"
        }
      ],
      "name": "getRoleAdmin",
      "outputs": [
        {
          "internalType": "bytes32",
          "name": "",
          "type": "bytes32"
        }
      ],
      "stateMutability": "view",
      "type": "function"
    },
    {
      "inputs": [
        {
          "internalType": "bytes32",
          "name": "role",
          "type": "bytes32"
        },
        {
          "internalType": "address",
          "name": "account",
          "type": "address"
        }
      ],
      "name": "grantRole",
      "outputs": [],
      "stateMutability": "nonpayable",
      "type": "function"
    },
    {
      "inputs": [
        {
          "internalType": "bytes32",
          "name": "role",
          "type": "bytes32"
        },
        {
          "internalType": "address",
          "name": "account",
          "type": "address"
        }
      ],
      "name": "hasRole",
      "outputs": [
        {
          "internalType": "bool",
          "name": "",
          "type": "bool"
        }
      ],
      "stateMutability": "view",
      "type": "function"
    },
    {
      "inputs": [
        {
          "internalType": "bytes32",
          "name": "role",
          "type": "bytes32"
        },
        {
          "internalType": "address",
          "name": "account",
          "type": "address"
        }
      ],
      "name": "renounceRole",
      "outputs": [],
      "stateMutability": "nonpayable",
      "type": "function"
    },
    {
      "inputs": [
        {
          "internalType": "bytes32",
          "name": "role",
          "type": "bytes32"
        },
        {
          "internalType": "address",
          "name": "account",
          "type": "address"
        }
      ],
      "name": "revokeRole",
      "outputs": [],
      "stateMutability": "nonpayable",
      "type": "function"
    },
    {
      "inputs": [
        {
          "internalType": "uint256",
          "name": "newRadius",
          "type": "uint256"
        }
      ],
      "name": "setDeliveryRadius",
      "outputs": [],
      "stateMutability": "nonpayable",
      "type": "function"
    },
    {
      "inputs": [
        {
          "internalType": "bytes4",
          "name": "interfaceId",
          "type": "bytes4"
        }
      ],
      "name": "supportsInterface",
      "outputs": [
        {
          "internalType": "bool",
          "name": "",
          "type": "bool"
        }
      ],
      "stateMutability": "view",
      "type": "function"
    },
    {
      "inputs": [
        {
          "internalType": "uint256",
          "name": "orderId",
          "type": "uint256"
        },
        {
          "internalType": "int256",
          "name": "lat",
          "type": "int256"
        },
        {
          "internalType": "int256",
          "name": "lng",
          "type": "int256"
        }
      ],
      "name": "updateLocation",
      "outputs": [],
      "stateMutability": "nonpayable",
      "type": "function"
    },
    {
      "inputs": [
        {
          "internalType": "uint256",
          "name": "orderId",
          "type": "uint256"
        },
        {
          "internalType": "int256",
          "name": "clientLat",
          "type": "int256"
        },
        {
          "internalType": "int256",
          "name": "clientLng",
          "type": "int256"
        }
      ],
      "name": "verifyDelivery",
      "outputs": [
        {
          "internalType": "bool",
          "name": "",
          "type": "bool"
        }
      ],
      "stateMutability": "view",
      "type": "function"
    }
  ],
  "bytecode": "0x608080604052346100a657600180553360009081527fad3228b676f7d3cd4284a5443f17f1962b36e491b30a40b2405849e597ba5fb5602052604081205460ff1615610058575b50606460045561147a90816100ac8239f35b808052806020526040812033825260205260408120600160ff19825416179055339033907f2f8788117e7eff1d82e926ec794901d17c78024a50270940304540a733656f0d8180a438610046565b600080fdfe60806040908082526004908136101561001757600080fd5b600090813560e01c90816301ffc9a714610dc75750806307e2cea514610d8c5780631271852514610d5857806316e0f22114610d3a578063248a9ca314610d0f5780632f2ff15d14610c7157806336568abe14610bea5780634d077cd5146107fe578063650c6441146107c35780637bbf344b146106565780637cd86e46146103b557806391d148541461037b5780639cb5961e1461031c578063a217fddf14610301578063c6fab3b3146102b9578063d547741f14610285578063eddb63e314610262578063f1e678f5146102425763f2fe8e0d146100f657600080fd5b3461023f576020908160031936011261023f5782358152600282528381208451936101208561103f565b815485526001958683019485549067ffffffffffffffff821161022c5782519591610151600582901b83018861108d565b808752818701809884528284208b85925b84841061020a575050505050858189015260028501549182848a015260038601549460609686888c0152015496876080809b0152845199808b0191818c525180925260a0808c019a93915b8383106101c95750505050508780995001528501528301520390f35b845180518d5280870151878e015288810151898e0152808b01516001600160a01b03168b8e015281015115158c8201529a81019a93850193918d01916101ad565b858991610219859d999d6112c9565b8152019201920191908c90999599610162565b634e487b7160e01b865260418452602486fd5b80fd5b50823461025e578160031936011261025e576020905160648152f35b5080fd5b5091903461028157826003193601126102815760209250549051908152f35b8280fd5b50823461025e5760016102b6916102b161029e36610e1b565b9390928387528660205286200154610e60565b6110af565b80f35b50919034610281576020366003190112610281578160809382358152600260205220805492600282015492600383015492015492815194855260208501528301526060820152f35b50823461025e578160031936011261025e5751908152602090f35b50919034610281576020366003190112610281578160a09360ff9235815260036020522091825492600181015491600360028301549201549281519586526020860152840152600180851b0381166060840152831c1615156080820152f35b50823461025e5760ff8160209361039136610e1b565b9082528186528282206001600160a01b039091168252855220549151911615158152f35b509134610281576103c536610e46565b91947f68e79a7bf1e0bc45d0a330c573bc367f9cf464fd326078812f301165fbda4ef195868252602096828852858320338452885260ff8684205416156104765750938181969561041b935260038852206112c9565b848101511561044057805190860151610435939291611381565b905410159051908152f35b845162461bcd60e51b8152808501879052601060248201526f4e6f206c6f636174696f6e206461746160801b6044820152606490fd5b93505090506104843361114a565b9183519061049182611071565b6042825286820192606036853782511561064357603084538251906001918210156106305790607860218501536041915b8183116105c557505050610584578361055460488895610576956105459560449a995196879361051c8b86019b76020b1b1b2b9b9a1b7b73a3937b61d1030b1b1b7bab73a1604d1b8d52825192839160378901910161101c565b8401917001034b99036b4b9b9b4b733903937b6329607d1b60378401525180938684019061101c565b0103602881018552018361108d565b5195869462461bcd60e51b86528501525180928160248601528585019061101c565b601f01601f19168101030190fd5b606485878087519262461bcd60e51b845283015260248201527f537472696e67733a20686578206c656e67746820696e73756666696369656e746044820152fd5b909192600f8116601081101561061d576f181899199a1a9b1b9c1cb0b131b232b360811b901a6105f58587611123565b53881c92801561060a576000190191906104c2565b634e487b7160e01b825260118952602482fd5b634e487b7160e01b835260328a52602483fd5b634e487b7160e01b815260328852602490fd5b634e487b7160e01b815260328752602490fd5b50919034610281576020806003193601126107bf57813592848052848252808520338652825260ff8186205416156106d55783156106945750505580f35b5162461bcd60e51b815291820152601d60248201527f526164697573206d7573742062652067726561746572207468616e2030000000604482015260649150fd5b8290856106e13361114a565b90808351906106ef82611071565b6042825286820192606036853782511561064357603084538251906001918210156106305790607860218501536041915b81831161077a57505050610584578361055460488895610576956105459560449a995196879361051c8b86019b76020b1b1b2b9b9a1b7b73a3937b61d1030b1b1b7bab73a1604d1b8d52825192839160378901910161101c565b909192600f8116601081101561061d576f181899199a1a9b1b9c1cb0b131b232b360811b901a6107aa8587611123565b53881c92801561060a57600019019190610720565b8380fd5b50823461025e578160031936011261025e57602090517f0ed49e6e204153e12a484763dde9d7b8b19d4be20e3bdb7fefb9dec0a08f51868152f35b5091346102815761080e36610e46565b7f0ed49e6e204153e12a484763dde9d7b8b19d4be20e3bdb7fefb9dec0a08f518693919293808752602090878252838820338952825260ff848920541615610b005750600260019681885414610abd5781885563055d4a7f1986121580610aaf575b15610a7957630aba94ff1984121580610a6b575b15610a345784516108948161103f565b86815284848201524286820152336060820152896080820152878a52600384526108c081878c20611259565b82845288868b20805415610a26575b0180549068010000000000000000821015610a1357906108f3918b820181556112ad565b610a01579061090191611259565b86895281835287858a200154888111610950575b505083519485525083015242908201527f7957846783e9c0d33b6321d6f75a1bd7f3d159c11b9a3604a4984041064da8c090606090a2805580f35b6000198101908082116109ee57888b5283855289878c200190600119019182116109ee578761098c6109866109989489946112ad565b506112c9565b86815191015190611381565b91878a52808452858a20019081549283018093116109db5750558160607f7957846783e9c0d33b6321d6f75a1bd7f3d159c11b9a3604a4984041064da8c0610915565b634e487b7160e01b8a5260119052602489fd5b634e487b7160e01b8b526011835260248bfd5b634e487b7160e01b8b528a835260248bfd5b634e487b7160e01b8c526041845260248cfd5b8981554260038201556108cf565b845162461bcd60e51b81529081018390526011602482015270496e76616c6964206c6f6e67697475646560781b6044820152606490fd5b50630aba9500841315610884565b845162461bcd60e51b8152908101839052601060248201526f496e76616c6964206c6174697475646560801b6044820152606490fd5b5063055d4a80861315610870565b845162461bcd60e51b8152908101839052601f60248201527f5265656e7472616e637947756172643a207265656e7472616e742063616c6c006044820152606490fd5b83879189610b0d3361114a565b91835190610b1a82611071565b6042825286820192606036853782511561064357603084538251906001918210156106305790607860218501536041915b818311610ba557505050610584578361055460488895610576956105459560449a995196879361051c8b86019b76020b1b1b2b9b9a1b7b73a3937b61d1030b1b1b7bab73a1604d1b8d52825192839160378901910161101c565b909192600f8116601081101561061d576f181899199a1a9b1b9c1cb0b131b232b360811b901a610bd58587611123565b53881c92801561060a57600019019190610b4b565b50903461025e57610bfa36610e1b565b91336001600160a01b03841603610c165750906102b6916110af565b608490602086519162461bcd60e51b8352820152602f60248201527f416363657373436f6e74726f6c3a2063616e206f6e6c792072656e6f756e636560448201526e103937b632b9903337b91039b2b63360891b6064820152fd5b50823461025e57610c8136610e1b565b909182845283602052610c9960018286200154610e60565b82845260208481528185206001600160a01b039093168086529290528084205460ff1615610cc5578380f35b828452836020528084208285526020528320600160ff1982541617905533917f2f8788117e7eff1d82e926ec794901d17c78024a50270940304540a733656f0d8480a48180808380f35b5091903461028157602036600319011261028157816020936001923581528085522001549051908152f35b50823461025e578160031936011261025e5760209051626136b88152f35b5082903461023f57608036600319011261023f5750610d8560209260643590604435906024359035611381565b9051908152f35b50823461025e578160031936011261025e57602090517f68e79a7bf1e0bc45d0a330c573bc367f9cf464fd326078812f301165fbda4ef18152f35b90508234610281576020366003190112610281573563ffffffff60e01b81168091036102815760209250637965db0b60e01b8114908115610e0a575b5015158152f35b6301ffc9a760e01b14905083610e03565b6040906003190112610e4157600435906024356001600160a01b0381168103610e415790565b600080fd5b6060906003190112610e4157600435906024359060443590565b60008181526020818152604092838320338452825260ff848420541615610e875750505050565b610e903361114a565b90845190610e9d82611071565b6042825283820194606036873782511561100857603086538251906001918210156110085790607860218501536041915b818311610f9a57505050610f585784610f346048610576936044979851988991610f258984019876020b1b1b2b9b9a1b7b73a3937b61d1030b1b1b7bab73a1604d1b8a5261051c815180928d60378901910161101c565b0103602881018952018761108d565b5194859362461bcd60e51b855260048501525180928160248601528585019061101c565b60648386519062461bcd60e51b825280600483015260248201527f537472696e67733a20686578206c656e67746820696e73756666696369656e746044820152fd5b909192600f81166010811015610ff4576f181899199a1a9b1b9c1cb0b131b232b360811b901a610fca8587611123565b5360041c928015610fe057600019019190610ece565b634e487b7160e01b82526011600452602482fd5b634e487b7160e01b83526032600452602483fd5b634e487b7160e01b81526032600452602490fd5b60005b83811061102f5750506000910152565b818101518382015260200161101f565b60a0810190811067ffffffffffffffff82111761105b57604052565b634e487b7160e01b600052604160045260246000fd5b6080810190811067ffffffffffffffff82111761105b57604052565b90601f8019910116810190811067ffffffffffffffff82111761105b57604052565b9060009180835282602052604083209160018060a01b03169182845260205260ff6040842054166110df57505050565b80835282602052604083208284526020526040832060ff1981541690557ff6391f5c32d9c69d2a47ea670b442974b53935d1edc7fd64eb21e047a839171b339380a4565b908151811015611134570160200190565b634e487b7160e01b600052603260045260246000fd5b604051906060820182811067ffffffffffffffff82111761105b57604052602a82526020820160403682378251156111345760309053815160019081101561113457607860218401536029905b8082116111eb5750506111a75790565b606460405162461bcd60e51b815260206004820152602060248201527f537472696e67733a20686578206c656e67746820696e73756666696369656e746044820152fd5b9091600f81166010811015611244576f181899199a1a9b1b9c1cb0b131b232b360811b901a61121a8486611123565b5360041c91801561122f576000190190611197565b60246000634e487b7160e01b81526011600452fd5b60246000634e487b7160e01b81526032600452fd5b600390825181556020830151600182015560408301516002820155019060018060a01b03606082015116825491608060ff60a01b910151151560a01b16916affffffffffffffffffffff60a81b1617179055565b80548210156111345760005260206000209060021b0190600090565b906040516112d68161103f565b825481526001830154602082015260028301546040820152600392909201546001600160a01b038116606084015260a01c60ff1615156080830152565b8181039291600013801582851316918412161761132c57565b634e487b7160e01b600052601160045260246000fd5b818102929160008212600160ff1b82141661132c57818405149015171561132c57565b9190916000838201938412911290801582169115161761132c57565b61139f6113ad926113996113a6936113b39796611313565b94611313565b9280611342565b9180611342565b90611365565b600060018201906001821281841290801582169115161761143057506002908190059082600160ff1b81145b8484126113ed575050505090565b929350909183801561141a576000198114821661132c576114118185928505611365565b059291906113df565b634e487b7160e01b600052601260045260246000fd5b634e487b7160e01b81526011600452602490fdfea264697066735822122062b9fe5557fd2615fc87c1521290b5479b6997a97c53b4759ab2f29b5b3c402d64736f6c63430008140033",
  "linkReferences": {},
  "deployedLinkReferences": {}
}