{"contracts/DoneOrderManager.sol":{"DoneOrderManager":{"abi":[{"inputs":[{"internalType":"address","name":"_paymentSplitterAddress","type":"address"},{"internalType":"address","name":"_tokenAddress","type":"address"},{"internalType":"address","name":"_stakingAddress","type":"address"},{"internalType":"address payable","name":"_platformWallet","type":"address"}],"stateMutability":"nonpayable","type":"constructor"},{"anonymous":false,"inputs":[{"indexed":true,"internalType":"uint256","name":"orderId","type":"uint256"},{"indexed":true,"internalType":"address","name":"deliverer","type":"address"}],"name":"DelivererAssigned","type":"event"},{"anonymous":false,"inputs":[{"indexed":true,"internalType":"uint256","name":"orderId","type":"uint256"},{"indexed":true,"internalType":"address","name":"client","type":"address"}],"name":"DeliveryConfirmed","type":"event"},{"anonymous":false,"inputs":[{"indexed":true,"internalType":"uint256","name":"orderId","type":"uint256"},{"indexed":true,"internalType":"address","name":"opener","type":"address"}],"name":"DisputeOpened","type":"event"},{"anonymous":false,"inputs":[{"indexed":true,"internalType":"uint256","name":"orderId","type":"uint256"},{"indexed":false,"internalType":"address","name":"winner","type":"address"},{"indexed":false,"internalType":"uint256","name":"amount","type":"uint256"}],"name":"DisputeResolved","type":"event"},{"anonymous":false,"inputs":[{"indexed":true,"internalType":"uint256","name":"orderId","type":"uint256"},{"indexed":true,"internalType":"address","name":"client","type":"address"},{"indexed":true,"internalType":"address","name":"restaurant","type":"address"},{"indexed":false,"internalType":"uint256","name":"totalAmount","type":"uint256"}],"name":"OrderCreated","type":"event"},{"anonymous":false,"inputs":[{"indexed":false,"internalType":"address","name":"account","type":"address"}],"name":"Paused","type":"event"},{"anonymous":false,"inputs":[{"indexed":true,"internalType":"uint256","name":"orderId","type":"uint256"},{"indexed":true,"internalType":"address","name":"deliverer","type":"address"}],"name":"PickupConfirmed","type":"event"},{"anonymous":false,"inputs":[{"indexed":true,"internalType":"uint256","name":"orderId","type":"uint256"},{"indexed":true,"internalType":"address","name":"restaurant","type":"address"}],"name":"PreparationConfirmed","type":"event"},{"anonymous":false,"inputs":[{"indexed":true,"internalType":"bytes32","name":"role","type":"bytes32"},{"indexed":true,"internalType":"bytes32","name":"previousAdminRole","type":"bytes32"},{"indexed":true,"internalType":"bytes32","name":"newAdminRole","type":"bytes32"}],"name":"RoleAdminChanged","type":"event"},{"anonymous":false,"inputs":[{"indexed":true,"internalType":"bytes32","name":"role","type":"bytes32"},{"indexed":true,"internalType":"address","name":"account","type":"address"},{"indexed":true,"internalType":"address","name":"sender","type":"address"}],"name":"RoleGranted","type":"event"},{"anonymous":false,"inputs":[{"indexed":true,"internalType":"bytes32","name":"role","type":"bytes32"},{"indexed":true,"internalType":"address","name":"account","type":"address"},{"indexed":true,"internalType":"address","name":"sender","type":"address"}],"name":"RoleRevoked","type":"event"},{"anonymous":false,"inputs":[{"indexed":false,"internalType":"address","name":"account","type":"address"}],"name":"Unpaused","type":"event"},{"inputs":[],"name":"ARBITRATOR_ROLE","outputs":[{"internalType":"bytes32","name":"","type":"bytes32"}],"stateMutability":"view","type":"function"},{"inputs":[],"name":"CLIENT_ROLE","outputs":[{"internalType":"bytes32","name":"","type":"bytes32"}],"stateMutability":"view","type":"function"},{"inputs":[],"name":"DEFAULT_ADMIN_ROLE","outputs":[{"internalType":"bytes32","name":"","type":"bytes32"}],"stateMutability":"view","type":"function"},{"inputs":[],"name":"DELIVERER_ROLE","outputs":[{"internalType":"bytes32","name":"","type":"bytes32"}],"stateMutability":"view","type":"function"},{"inputs":[],"name":"PLATFORM_FEE_PERCENT","outputs":[{"internalType":"uint256","name":"","type":"uint256"}],"stateMutability":"view","type":"function"},{"inputs":[],"name":"PLATFORM_ROLE","outputs":[{"internalType":"bytes32","name":"","type":"bytes32"}],"stateMutability":"view","type":"function"},{"inputs":[],"name":"RESTAURANT_ROLE","outputs":[{"internalType":"bytes32","name":"","type":"bytes32"}],"stateMutability":"view","type":"function"},{"inputs":[{"internalType":"uint256","name":"_orderId","type":"uint256"},{"internalType":"address payable","name":"_deliverer","type":"address"}],"name":"assignDeliverer","outputs":[],"stateMutability":"nonpayable","type":"function"},{"inputs":[{"internalType":"uint256","name":"baseFee","type":"uint256"},{"internalType":"int256","name":"lat","type":"int256"},{"internalType":"int256","name":"lng","type":"int256"}],"name":"calculateDynamicDeliveryFee","outputs":[{"internalType":"uint256","name":"","type":"uint256"}],"stateMutability":"view","type":"function"},{"inputs":[{"internalType":"int256","name":"lat","type":"int256"},{"internalType":"int256","name":"lng","type":"int256"}],"name":"canDeliverAtLocation","outputs":[{"internalType":"bool","name":"","type":"bool"}],"stateMutability":"view","type":"function"},{"inputs":[{"internalType":"address","name":"","type":"address"},{"internalType":"uint256","name":"","type":"uint256"}],"name":"clientOrders","outputs":[{"internalType":"uint256","name":"","type":"uint256"}],"stateMutability":"view","type":"function"},{"inputs":[{"internalType":"uint256","name":"_orderId","type":"uint256"}],"name":"confirmDelivery","outputs":[],"stateMutability":"nonpayable","type":"function"},{"inputs":[{"internalType":"uint256","name":"_orderId","type":"uint256"},{"internalType":"int256","name":"clientLat","type":"int256"},{"internalType":"int256","name":"clientLng","type":"int256"}],"name":"confirmDeliveryWithGPS","outputs":[],"stateMutability":"nonpayable","type":"function"},{"inputs":[{"internalType":"uint256","name":"_orderId","type":"uint256"}],"name":"confirmPickup","outputs":[],"stateMutability":"nonpayable","type":"function"},{"inputs":[{"internalType":"uint256","name":"_orderId","type":"uint256"}],"name":"confirmPreparation","outputs":[],"stateMutability":"nonpayable","type":"function"},{"inputs":[{"internalType":"uint256","name":"usdAmount","type":"uint256"}],"name":"convertUSDToMatic","outputs":[{"internalType":"uint256","name":"","type":"uint256"}],"stateMutability":"nonpayable","type":"function"},{"inputs":[{"internalType":"address payable","name":"_restaurant","type":"address"},{"internalType":"uint256","name":"_foodPrice","type":"uint256"},{"internalType":"uint256","name":"_deliveryFee","type":"uint256"},{"internalType":"string","name":"_ipfsHash","type":"string"}],"name":"createOrder","outputs":[{"internalType":"uint256","name":"","type":"uint256"}],"stateMutability":"payable","type":"function"},{"inputs":[{"internalType":"address","name":"","type":"address"},{"internalType":"uint256","name":"","type":"uint256"}],"name":"delivererOrders","outputs":[{"internalType":"uint256","name":"","type":"uint256"}],"stateMutability":"view","type":"function"},{"inputs":[{"internalType":"address","name":"_client","type":"address"}],"name":"getClientOrders","outputs":[{"internalType":"uint256[]","name":"","type":"uint256[]"}],"stateMutability":"view","type":"function"},{"inputs":[{"internalType":"address","name":"_deliverer","type":"address"}],"name":"getDelivererOrders","outputs":[{"internalType":"uint256[]","name":"","type":"uint256[]"}],"stateMutability":"view","type":"function"},{"inputs":[{"internalType":"uint256","name":"_orderId","type":"uint256"}],"name":"getOrder","outputs":[{"components":[{"internalType":"uint256","name":"id","type":"uint256"},{"internalType":"address payable","name":"client","type":"address"},{"internalType":"address payable","name":"restaurant","type":"address"},{"internalType":"address payable","name":"deliverer","type":"address"},{"internalType":"uint256","name":"foodPrice","type":"uint256"},{"internalType":"uint256","name":"deliveryFee","type":"uint256"},{"internalType":"uint256","name":"platformFee","type":"uint256"},{"internalType":"uint256","name":"totalAmount","type":"uint256"},{"internalType":"enum DoneOrderManager.OrderStatus","name":"status","type":"uint8"},{"internalType":"string","name":"ipfsHash","type":"string"},{"internalType":"uint256","name":"createdAt","type":"uint256"},{"internalType":"bool","name":"disputed","type":"bool"},{"internalType":"bool","name":"delivered","type":"bool"}],"internalType":"struct DoneOrderManager.Order","name":"","type":"tuple"}],"stateMutability":"view","type":"function"},{"inputs":[{"internalType":"address","name":"_restaurant","type":"address"}],"name":"getRestaurantOrders","outputs":[{"internalType":"uint256[]","name":"","type":"uint256[]"}],"stateMutability":"view","type":"function"},{"inputs":[{"internalType":"bytes32","name":"role","type":"bytes32"}],"name":"getRoleAdmin","outputs":[{"internalType":"bytes32","name":"","type":"bytes32"}],"stateMutability":"view","type":"function"},{"inputs":[],"name":"getTotalOrders","outputs":[{"internalType":"uint256","name":"","type":"uint256"}],"stateMutability":"view","type":"function"},{"inputs":[],"name":"gpsOracle","outputs":[{"internalType":"contract DoneGPSOracle","name":"","type":"address"}],"stateMutability":"view","type":"function"},{"inputs":[{"internalType":"bytes32","name":"role","type":"bytes32"},{"internalType":"address","name":"account","type":"address"}],"name":"grantRole","outputs":[],"stateMutability":"nonpayable","type":"function"},{"inputs":[{"internalType":"bytes32","name":"role","type":"bytes32"},{"internalType":"address","name":"account","type":"address"}],"name":"hasRole","outputs":[{"internalType":"bool","name":"","type":"bool"}],"stateMutability":"view","type":"function"},{"inputs":[{"internalType":"uint256","name":"_orderId","type":"uint256"}],"name":"openDispute","outputs":[],"stateMutability":"nonpayable","type":"function"},{"inputs":[],"name":"orderCounter","outputs":[{"internalType":"uint256","name":"","type":"uint256"}],"stateMutability":"view","type":"function"},{"inputs":[{"internalType":"uint256","name":"","type":"uint256"}],"name":"orders","outputs":[{"internalType":"uint256","name":"id","type":"uint256"},{"internalType":"address payable","name":"client","type":"address"},{"internalType":"address payable","name":"restaurant","type":"address"},{"internalType":"address payable","name":"deliverer","type":"address"},{"internalType":"uint256","name":"foodPrice","type":"uint256"},{"internalType":"uint256","name":"deliveryFee","type":"uint256"},{"internalType":"uint256","name":"platformFee","type":"uint256"},{"internalType":"uint256","name":"totalAmount","type":"uint256"},{"internalType":"enum DoneOrderManager.OrderStatus","name":"status","type":"uint8"},{"internalType":"string","name":"ipfsHash","type":"string"},{"internalType":"uint256","name":"createdAt","type":"uint256"},{"internalType":"bool","name":"disputed","type":"bool"},{"internalType":"bool","name":"delivered","type":"bool"}],"stateMutability":"view","type":"function"},{"inputs":[],"name":"pause","outputs":[],"stateMutability":"nonpayable","type":"function"},{"inputs":[],"name":"paused","outputs":[{"internalType":"bool","name":"","type":"bool"}],"stateMutability":"view","type":"function"},{"inputs":[],"name":"paymentSplitterAddress","outputs":[{"internalType":"address","name":"","type":"address"}],"stateMutability":"view","type":"function"},{"inputs":[],"name":"platformWallet","outputs":[{"internalType":"address payable","name":"","type":"address"}],"stateMutability":"view","type":"function"},{"inputs":[],"name":"priceOracle","outputs":[{"internalType":"contract DonePriceOracle","name":"","type":"address"}],"stateMutability":"view","type":"function"},{"inputs":[{"internalType":"bytes32","name":"role","type":"bytes32"},{"internalType":"address","name":"account","type":"address"}],"name":"renounceRole","outputs":[],"stateMutability":"nonpayable","type":"function"},{"inputs":[{"internalType":"uint256","name":"_orderId","type":"uint256"},{"internalType":"address payable","name":"_winner","type":"address"},{"internalType":"uint256","name":"_refundPercent","type":"uint256"}],"name":"resolveDispute","outputs":[],"stateMutability":"nonpayable","type":"function"},{"inputs":[{"internalType":"address","name":"","type":"address"},{"internalType":"uint256","name":"","type":"uint256"}],"name":"restaurantOrders","outputs":[{"internalType":"uint256","name":"","type":"uint256"}],"stateMutability":"view","type":"function"},{"inputs":[{"internalType":"bytes32","name":"role","type":"bytes32"},{"internalType":"address","name":"account","type":"address"}],"name":"revokeRole","outputs":[],"stateMutability":"nonpayable","type":"function"},{"inputs":[{"internalType":"address","name":"_oracle","type":"address"}],"name":"setGPSOracle","outputs":[],"stateMutability":"nonpayable","type":"function"},{"inputs":[{"internalType":"address","name":"_oracle","type":"address"}],"name":"setPriceOracle","outputs":[],"stateMutability":"nonpayable","type":"function"},{"inputs":[{"internalType":"address","name":"_oracle","type":"address"}],"name":"setWeatherOracle","outputs":[],"stateMutability":"nonpayable","type":"function"},{"inputs":[],"name":"stakingContract","outputs":[{"internalType":"contract DoneStaking","name":"","type":"address"}],"stateMutability":"view","type":"function"},{"inputs":[{"internalType":"bytes4","name":"interfaceId","type":"bytes4"}],"name":"supportsInterface","outputs":[{"internalType":"bool","name":"","type":"bool"}],"stateMutability":"view","type":"function"},{"inputs":[],"name":"tokenContract","outputs":[{"internalType":"contract DoneToken","name":"","type":"address"}],"stateMutability":"view","type":"function"},{"inputs":[],"name":"unpause","outputs":[],"stateMutability":"nonpayable","type":"function"},{"inputs":[{"internalType":"address payable","name":"newWallet","type":"address"}],"name":"updatePlatformWallet","outputs":[],"stateMutability":"nonpayable","type":"function"},{"inputs":[],"name":"weatherOracle","outputs":[{"internalType":"contract DoneWeatherOracle","name":"","type":"address"}],"stateMutability":"view","type":"function"}],"evm":{"bytecode":{"linkReferences":{},"object":"6080346200031f57601f620032f138819003918201601f191683019291906001600160401b03841183851017620003245781608092849260409687528339810103126200031f5762000051816200033a565b602091620000618382016200033a565b6060620000708684016200033a565b9201516001600160a01b0380821693918490036200031f57600180558060ff1995866002541660025516928315620002e8578116918215620002b457169081156200027e5783156200023a5760018060a01b03199283600854161760085582600954161760095581600a541617600a55600b541617600b55600090818052818352838220338352835260ff84832054161562000204575b7f797343f8d6a29aafeb3aaf0910a8973e0081c60c2f6c1f775cd9f76ea348fc1e808352828452848320338452845260ff858420541615620001cc575b507f16ceee8289685dd2a02b9c8ae81d2df373176ce53519e6284e2a2950d6546ffa92838352828152848320338452815260ff85842054161562000192575b8451612f819081620003508239f35b83835282815284832090338452526001848320918254161790553391600080516020620032d1833981519152339280a43880808062000183565b808352828452848320338452845284832060018382541617905533903390600080516020620032d18339815191528580a43862000144565b8180528183528382203383528352838220600182825416179055333383600080516020620032d18339815191528180a462000107565b865162461bcd60e51b815260048101879052601760248201527f496e76616c696420706c6174666f726d2077616c6c65740000000000000000006044820152606490fd5b865162461bcd60e51b815260048101879052600f60248201526e496e76616c6964207374616b696e6760881b6044820152606490fd5b875162461bcd60e51b815260048101889052600d60248201526c24b73b30b634b2103a37b5b2b760991b6044820152606490fd5b875162461bcd60e51b815260048101889052601060248201526f24b73b30b634b21039b83634ba3a32b960811b6044820152606490fd5b600080fd5b634e487b7160e01b600052604160045260246000fd5b51906001600160a01b03821682036200031f5756fe608080604052600436101561001357600080fd5b600090813560e01c90816301ffc9a71461264357508063033794e2146123db57806318b09f261461238f578063248a9ca3146123635780632630c12f1461233a57806327d00fb0146121ed5780632a9514df146121c45780632f2ff15d1461211457806336568abe14612081578063375f16a714610a0e5780633f4ba83a14611fec5780633feea18b14611cd757806340dc7e0f14611c8f57806340eb8194146117cc578063480b22df14611759578063489487801461157f578063495ac47e146115445780634fd7e997146114d1578063530e784f1461148557806354662713146113db57806355a373d6146113b2578063560d52d4146113965780635c975abb14611373578063608b341a1461132b578063650c6441146112f0578063671f1fb71461122b57806370824c5c146111f057806378b5eef91461116d5780637ee94ef1146111445780638456cb59146110e95780638ec86b9a14610f9c578063911eeb9114610f4657806391d1485414610efb5780639a7110fe14610ed25780639c17e43914610bed5780639cea078714610bb2578063a217fddf14610b96578063a85c38ef14610aaa578063ada4ef3014610a2c578063b789bf5214610a0e578063bbd90440146109c2578063d09ef241146107b0578063d33bcb55146104f2578063d547741f146104b2578063eae6f65214610477578063ee99205c1461044e578063fa2af9da146104255763fd84cb971461023157600080fd5b34610422576020366003190112610422576004359061024e612dd1565b610256612d8d565b818152600460205260408120916001830160018060a01b0361027c818354163314612e70565b600885019485549560ff8716600681101561040e5786976102a4600360049399989914612e27565b60ff1916179055600b810161010061ff0019825416179055816008541660078201548360028401541691846003850154169085600b541693813b1561040a57604051636f191a1560e01b8152600481018b90526001600160a01b0391821660248201529281166044840152939093166064820152918691839160849183915af19081156103ff5785916103eb575b50506004600a910154049081610371575b8333867f64a783c6150854ae756454311c7625a965c757996ba8cc1a8c6205380f3372508380a36001805580f35b806009541692541690823b156103e7576040516340c10f1960e01b81526001600160a01b0392909216600483015260248201529082908290604490829084905af180156103dc576103c4575b8080610343565b6103cd906126f6565b6103d85781386103bd565b5080fd5b6040513d84823e3d90fd5b8380fd5b6103f4906126f6565b6103e7578338610332565b6040513d87823e3d90fd5b8880fd5b634e487b7160e01b87526021600452602487fd5b80fd5b5034610422578060031936011261042257600b546040516001600160a01b039091168152602090f35b5034610422578060031936011261042257600a546040516001600160a01b039091168152602090f35b503461042257806003193601126104225760206040517fa5ff3ec7a96cdbba4d2d5172d66bbc73c6db3885f29b21be5da9fa7a7c0252328152f35b5034610422576040366003190112610422576104ef6004356104d26126c8565b90808452836020526104ea6001604086200154612ab4565b612bb2565b80f35b5034610422576020806003193601126103d85760043590610511612d8d565b7f0ed49e6e204153e12a484763dde9d7b8b19d4be20e3bdb7fefb9dec0a08f51868060005260008252604060002033600052825260ff604060002054161561061657508183526004815260408320903360018060a01b03600384015416036105d95750600801805460ff811660068110156105c55790610595600260039314612e27565b60ff191617905533907f7f44dc96dfe82556f254203e555fa87ce76986f76eb50fc73d105558207ebb588380a380f35b634e487b7160e01b85526021600452602485fd5b6064906040519062461bcd60e51b8252600482015260166024820152752737ba1030b9b9b4b3b732b2103232b634bb32b932b960511b6044820152fd5b9061062033612c44565b9160405161062d8161273d565b6042815282810191606036843781511561079a5760308353815160019081101561079a57607860218401536041905b8082116107405750506106fd576106c9936106d892604892604051968793600080516020612f2c833981519152888601526106a0815180928a6037890191016128bf565b8401917001034b99036b4b9b9b4b733903937b6329607d1b6037840152518093868401906128bf565b01036028810185520183612759565b6106f960405192839262461bcd60e51b8452600484015260248301906128e2565b0390fd5b6064836040519062461bcd60e51b825280600483015260248201527f537472696e67733a20686578206c656e67746820696e73756666696369656e746044820152fd5b9091600f8116601081101561079a576f181899199a1a9b1b9c1cb0b131b232b360811b901a61076f8486612c33565b5360041c91801561078457600019019061065c565b634e487b7160e01b600052601160045260246000fd5b634e487b7160e01b600052603260045260246000fd5b5034610422576020366003190112610422578060409161018083516107d481612720565b82815282602082015282858201528260608201528260808201528260a08201528260c08201528260e08201528261010082015260606101208201528261014082015282610160820152015260043581526004602052206040519061083782612720565b8054825260018101546001600160a01b039081166020840152600282015481166040840152600382015416606083015260048101546080830152600581015460a083015260068082015460c0840152600782015460e0840152600882015460ff16908110156109ac5760ff91600b916101008501526108b86009820161280c565b610120850152600a8101546101408501520154818116151561016084015260081c1615156101808201526040518091602082528051602083015260018060a01b03602082015116604083015260018060a01b03604082015116606083015260018060a01b036060820151166080830152608081015160a083015260a081015160c083015260c081015160e083015260e08101516101008301526109656101008201516101208401906128b2565b6101208101516101806109876101a092836101408701526101c08601906128e2565b9261014081015161016086015261016081015115158286015201511515908301520390f35b634e487b7160e01b600052602160045260246000fd5b5034610422576020366003190112610422576109dc6126b2565b6109e4612907565b6001600160a01b03166109f8811515612eee565b6001600160601b0360a01b600c541617600c5580f35b50346104225780600319360112610422576020600354604051908152f35b503461042257602036600319011261042257610a466126b2565b610a4e612907565b6001600160a01b03168015610a73576001600160601b0360a01b600b541617600b5580f35b60405162461bcd60e51b815260206004820152600f60248201526e496e76616c6964206164647265737360881b6044820152606490fd5b50346104225760203660031901126104225760043581526004602052604090208054600160a01b600190039182600182015416928060028301541690600383015416600483015460058401546006850154600786015491600887015460ff169360098801610b179061280c565b95600a89015498600b0154976040519b8c9b8c5260208c015260408b015260608a0152608089015260a088015260c087015260e08601526101008501610b5c916128b2565b6101a0806101208601528401610b71916128e2565b9161014084015260ff8116151561016084015260081c60ff1615156101808301520390f35b5034610422578060031936011261042257602090604051908152f35b503461042257806003193601126104225760206040517f16ceee8289685dd2a02b9c8ae81d2df373176ce53519e6284e2a2950d6546ffa8152f35b50346104225760603660031901126104225760043590610c0b6126c8565b3360009081527f124a13b16867194fc8fe1b97be0d668b89ac2a8dd77d418cf4feefa89864a62660209081526040909120546044359492907f16ceee8289685dd2a02b9c8ae81d2df373176ce53519e6284e2a2950d6546ffa9060ff1615610e045750610c76612dd1565b610c7e612d8d565b828452600482526040842094600b86019060ff82541615610dd25760648111610d9b57600787015481810291818304149015171561078457606490049285808080876001600160a01b0388165af13d15610d96573d610cdc8161277b565b90610cea6040519283612759565b815287833d92013e5b15610d60575060087fdf0baf5489595ea17a097d16827d60793e2f57f3b85a982e5d7e02838b841ee69495960160ff19906004828254161790558154169055610d566040519283928360209093929193604081019460018060a01b031681520152565b0390a26001805580f35b6064906040519062461bcd60e51b82526004820152600f60248201526e151c985b9cd9995c8819985a5b1959608a1b6044820152fd5b610cf3565b60405162461bcd60e51b815260048101859052600f60248201526e125b9d985b1a59081c195c98d95b9d608a1b6044820152606490fd5b60405162461bcd60e51b815260048101859052600a6024820152694e6f206469737075746560b01b6044820152606490fd5b82610e0e33612c44565b91604051610e1b8161273d565b6042815282810191606036843781511561079a5760308353815160019081101561079a57607860218401536041905b808211610e8e5750506106fd576106c9936106d892604892604051968793600080516020612f2c833981519152888601526106a0815180928a6037890191016128bf565b9091600f8116601081101561079a576f181899199a1a9b1b9c1cb0b131b232b360811b901a610ebd8486612c33565b5360041c918015610784576000190190610e4a565b50346104225780600319360112610422576008546040516001600160a01b039091168152602090f35b5034610422576040366003190112610422576040610f176126c8565b91600435815280602052209060018060a01b0316600052602052602060ff604060002054166040519015158152f35b503461042257604036600319011261042257610f606126b2565b6001600160a01b0316815260056020526040812080546024359290831015610422576020610f8e84846126de565b90546040519160031b1c8152f35b503461042257610fab36612698565b600e549293926001600160a01b03169190610fc7831515612ea9565b60405191632858eecd60e21b835260048301526024820152608081604481855afa9081156110de578391611091575b50604051936358a4aa3960e11b85526004850152600581101561107d57604484602093819360248301525afa908115611071579061103a575b602090604051908152f35b506020813d8211611069575b8161105360209383612759565b81010312611064576020905161102f565b600080fd5b3d9150611046565b604051903d90823e3d90fd5b634e487b7160e01b83526021600452602483fd5b90506080813d82116110d6575b816110ab60809383612759565b810103126110d25780519060058210156103e75760606110cb9101612e63565b5038610ff6565b8280fd5b3d915061109e565b6040513d85823e3d90fd5b5034610422578060031936011261042257611102612907565b61110a612d8d565b600160ff1960025416176002557f62e78cea01bee320cd4e420270b5ea74000d11b0c9f74754ebdbfc544b05a2586020604051338152a180f35b5034610422578060031936011261042257600e546040516001600160a01b039091168152602090f35b5034610422576020806003193601126103d8576001600160a01b036111906126b2565b1682526007815260408220916040518092808554928381520194835280832092905b8282106111d9576111d5856111c981890382612759565b60405191829182612797565b0390f35b8354865294850194600193840193909101906111b2565b503461042257806003193601126104225760206040517f797343f8d6a29aafeb3aaf0910a8973e0081c60c2f6c1f775cd9f76ea348fc1e8152f35b5034610422576020908160031936011261042257600d546001600160a01b031680156112b45782829160246040518094819363149fba6d60e31b835260043560048401525af19182156110715791611287575b50604051908152f35b90508181813d83116112ad575b61129e8183612759565b8101031261106457513861127e565b503d611294565b60405162461bcd60e51b8152600481018490526014602482015273141c9a58d9481bdc9858db19481b9bdd081cd95d60621b6044820152606490fd5b503461042257806003193601126104225760206040517f0ed49e6e204153e12a484763dde9d7b8b19d4be20e3bdb7fefb9dec0a08f51868152f35b5034610422576040366003190112610422576113456126b2565b6001600160a01b0316815260066020526040812080546024359290831015610422576020610f8e84846126de565b5034610422578060031936011261042257602060ff600254166040519015158152f35b50346104225780600319360112610422576020604051600a8152f35b50346104225780600319360112610422576009546040516001600160a01b039091168152602090f35b503461042257604036600319011261042257600e54604491906020906001600160a01b031661140b811515612ea9565b604051938480926373a70c9560e01b8252600435600483015260243560248301525afa908115611071578091611449575b6020826040519015158152f35b90506020823d821161147d575b8161146360209383612759565b810103126104225750611477602091612e63565b3861143c565b3d9150611456565b50346104225760203660031901126104225761149f6126b2565b6114a7612907565b6001600160a01b03166114bb811515612eee565b6001600160601b0360a01b600d541617600d5580f35b5034610422576020806003193601126103d8576001600160a01b036114f46126b2565b1682526006815260408220916040518092808554928381520194835280832092905b82821061152d576111d5856111c981890382612759565b835486529485019460019384019390910190611516565b503461042257806003193601126104225760206040517fc2cb5479d14cfa18e53b560bfea0d9d05effc64c2108615d5a1b26e7756a206c8152f35b5034610422576020806003193601126103d8576004359061159e612d8d565b7fc2cb5479d14cfa18e53b560bfea0d9d05effc64c2108615d5a1b26e7756a206c8060005260008252604060002033600052825260ff604060002054161561168b57508183526004815260408320903360018060a01b03600284015416036116505750600801805460ff811660068110156105c5579061162060019215612e27565b60ff191617905533907fdf416c9f8f1ee29cca4d03a1e8adf858a49c550a3e222a6c9efd293e868f17928380a380f35b6064906040519062461bcd60e51b825260048201526014602482015273139bdd081bdc99195c881c995cdd185d5c985b9d60621b6044820152fd5b9061169533612c44565b916040516116a28161273d565b6042815282810191606036843781511561079a5760308353815160019081101561079a57607860218401536041905b8082116117155750506106fd576106c9936106d892604892604051968793600080516020612f2c833981519152888601526106a0815180928a6037890191016128bf565b9091600f8116601081101561079a576f181899199a1a9b1b9c1cb0b131b232b360811b901a6117448486612c33565b5360041c9180156107845760001901906116d1565b5034610422576020806003193601126103d8576001600160a01b0361177c6126b2565b1682526005815260408220916040518092808554928381520194835280832092905b8282106117b5576111d5856111c981890382612759565b83548652948501946001938401939091019061179e565b506080366003190112610422576117e16126b2565b906064359067ffffffffffffffff8211610422573660238301121561042257816004013561180e8161277b565b9261181c6040519485612759565b81845236602483830101116110d2578183926024602093018387013784010152611844612dd1565b61184c612d8d565b7fc2cb5479d14cfa18e53b560bfea0d9d05effc64c2108615d5a1b26e7756a206c8152602081815260408083206001600160a01b0386166000908152925290205460ff1615611c5957600a60243502926024358404600a14602435151715611c0d576118c8606485046118c3604435602435612c26565b612c26565b91823403611c2157600354936000198514611c0d57600185016003556064604051966118f388612720565b60018701885233602089015260018060a01b0385166040890152836060890152602435608089015260443560a08901520460c08701528360e08701528161010087015261012086015242610140860152806101608601528061018086015260018401815260046020526040812094805186556001860160018060a01b03602083015116906001600160601b0360a01b91828254161790556002870160018060a01b0360408401511682825416179055600387019060018060a01b03606084015116908254161790556080810151600487015560a0810151600587015560c0810151600687015560e08101516007870155600886016101008201516006811015611bf95760ff8019835416911617905561012081015195865167ffffffffffffffff8111611be557611a2760098301546127d2565b97601f8911611ba0575b602098508890601f8311600114611b2d57918086959492600b94611ad79892611b22575b50508160011b916000199060031b1c19161760098201555b610140830151600a820155019061016081015115159060ff61ff006101808554930151151560081b1692169061ffff19161717905533815260058652611ab96001860160408320612d53565b6001600160a01b038316815260068652604090206001850190612d53565b6040519182526001600160a01b031690339060018401907ff9e17940e547201709f9aaacdec8ab3566601c60d8f5affb54f74b79b0b50b13908690a460018055600160405191018152f35b015190503880611a55565b9060098401865289862091865b601f1985168110611b89575092611ad796959492600192600b9583601f19811610611b70575b505050811b016009820155611a6d565b015160001960f88460031b161c19169055388080611b60565b91928b600181928685015181550194019201611b3a565b60098301855260208520601f830160051c810160208410611bde575b601f8b0160051c82018110611bd2575050611a31565b60008155600101611bbc565b5080611bbc565b634e487b7160e01b84526041600452602484fd5b634e487b7160e01b84526021600452602484fd5b634e487b7160e01b82526011600452602482fd5b60405162461bcd60e51b815260206004820152601060248201526f0a0c2f2dacadce840dad2e6dac2e8c6d60831b6044820152606490fd5b60405162461bcd60e51b815260206004820152600e60248201526d139bdd081c995cdd185d5c985b9d60921b6044820152606490fd5b503461042257604036600319011261042257611ca96126b2565b6001600160a01b0316815260076020526040812080546024359290831015610422576020610f8e84846126de565b503461042257604036600319011261042257600435611cf46126c8565b90611cfd612d8d565b3360009081527e4137ac999875a62b0381e65f8832c0a903cf25418dd0c40107411aa55dc68760209081526040909120547f797343f8d6a29aafeb3aaf0910a8973e0081c60c2f6c1f775cd9f76ea348fc1e9060ff1615611f1e5750818452600481526040842060018060a01b03809416937f0ed49e6e204153e12a484763dde9d7b8b19d4be20e3bdb7fefb9dec0a08f518686528583526040862085600052835260ff6040600020541615611ee95782602491600a541660405192838092630c2effa360e31b82528960048301525afa908115611ede578691611ea5575b5015611e7357600881019081549060ff82166006811015611e5f57916003600292611e0d6001600798979614612e27565b0180546001600160a01b0319168817905560ff19161790558385525260408320611e38908290612d53565b7f1a2b7c51d6c4ddc1e23b7d2be28c6650c749c873214a7b408242f74577c5dedf8380a380f35b634e487b7160e01b88526021600452602488fd5b60405162461bcd60e51b815260048101839052600a602482015269139bdd081cdd185ad95960b21b6044820152606490fd5b90508281813d8311611ed7575b611ebc8183612759565b81010312611ed357611ecd90612e63565b38611ddc565b8580fd5b503d611eb2565b6040513d88823e3d90fd5b60405162461bcd60e51b815260048101849052600d60248201526c2737ba103232b634bb32b932b960991b6044820152606490fd5b90611f2833612c44565b91604051611f358161273d565b6042815282810191606036843781511561079a5760308353815160019081101561079a57607860218401536041905b808211611fa85750506106fd576106c9936106d892604892604051968793600080516020612f2c833981519152888601526106a0815180928a6037890191016128bf565b9091600f8116601081101561079a576f181899199a1a9b1b9c1cb0b131b232b360811b901a611fd78486612c33565b5360041c918015610784576000190190611f64565b5034610422578060031936011261042257612005612907565b60025460ff8116156120455760ff19166002557f5db9ee0a495bf2e6ff9c91a7834c1ba4fdd244a5e8aa4e537bd38aeae4b073aa6020604051338152a180f35b60405162461bcd60e51b815260206004820152601460248201527314185d5cd8589b194e881b9bdd081c185d5cd95960621b6044820152606490fd5b50346104225760403660031901126104225761209b6126c8565b336001600160a01b038216036120b7576104ef90600435612bb2565b60405162461bcd60e51b815260206004820152602f60248201527f416363657373436f6e74726f6c3a2063616e206f6e6c792072656e6f756e636560448201526e103937b632b9903337b91039b2b63360891b6064820152608490fd5b5034610422576040366003190112610422576004356121316126c8565b818352826020526121486001604085200154612ab4565b81835282602052604083209060018060a01b0316908160005260205260ff6040600020541615612176578280f35b8183528260205260408320816000526020526040600020600160ff1982541617905533917f2f8788117e7eff1d82e926ec794901d17c78024a50270940304540a733656f0d8480a438808280f35b5034610422578060031936011261042257600c546040516001600160a01b039091168152602090f35b50346104225760203660031901126104225760043561220a612d8d565b8082526004602052604082206001810154336001600160a01b0391821614908115612329575b8115612319575b50156122e6576008810190815460ff811660068110156122d25760041461229957600b600592019060ff19916001838254161790551617905533907f44f3c3ed15c708331582bc379d28659a58f183a563abe41aa4c8889db469f71c8380a380f35b60405162461bcd60e51b8152602060048201526011602482015270105b1c9958591e4819195b1a5d995c9959607a1b6044820152606490fd5b634e487b7160e01b86526021600452602486fd5b60405162461bcd60e51b815260206004820152600b60248201526a139bdd08185b1b1bddd95960aa1b6044820152606490fd5b9050600382015416331438612237565b809150600283015416331490612230565b5034610422578060031936011261042257600d546040516001600160a01b039091168152602090f35b503461042257602036600319011261042257600160406020926004358152808452200154604051908152f35b5034610422576020366003190112610422576123a96126b2565b6123b1612907565b6001600160a01b03166123c5811515612eee565b6001600160601b0360a01b600e541617600e5580f35b5034610422576123ea36612698565b6123f693929193612dd1565b6123fe612d8d565b600c546001600160a01b03908116918215612609578385526020956004875260408620966001880194612435858754163314612e70565b600889019384549360ff851660068110156125f55784929161245b600360649314612e27565b6040519485938492633e6c372360e11b84528d6004850152602484015260448301525afa9081156125ea5788916125b1575b501561257e575060ff19166004179055600b858101805461ff001916610100179055600854600787015460028801546003890154935485169392851692851691908516833b1561040a57604051636f191a1560e01b8152600481018990526001600160a01b039182166024820152928116604484015293909316606482015291869183916084918391905af180156103ff57612565575b50600a600485969594950154049081610371578333867f64a783c6150854ae756454311c7625a965c757996ba8cc1a8c6205380f3372508380a36001805580f35b6004959394612575600a926126f6565b94939550612524565b6064906040519062461bcd60e51b82526004820152600c60248201526b23a8299d103a37b7903330b960a11b6044820152fd5b90508181813d83116125e3575b6125c88183612759565b810103126125df576125d990612e63565b3861248d565b8780fd5b503d6125be565b6040513d8a823e3d90fd5b634e487b7160e01b8b52602160045260248bfd5b60405162461bcd60e51b815260206004820152601260248201527111d414c81bdc9858db19481b9bdd081cd95d60721b6044820152606490fd5b9050346103d85760203660031901126103d85760043563ffffffff60e01b81168091036110d25760209250637965db0b60e01b8114908115612687575b5015158152f35b6301ffc9a760e01b14905038612680565b606090600319011261106457600435906024359060443590565b600435906001600160a01b038216820361106457565b602435906001600160a01b038216820361106457565b805482101561079a5760005260206000200190600090565b67ffffffffffffffff811161270a57604052565b634e487b7160e01b600052604160045260246000fd5b6101a0810190811067ffffffffffffffff82111761270a57604052565b6080810190811067ffffffffffffffff82111761270a57604052565b90601f8019910116810190811067ffffffffffffffff82111761270a57604052565b67ffffffffffffffff811161270a57601f01601f191660200190565b6020908160408183019282815285518094520193019160005b8281106127be575050505090565b8351855293810193928101926001016127b0565b90600182811c92168015612802575b60208310146127ec57565b634e487b7160e01b600052602260045260246000fd5b91607f16916127e1565b9060405191826000825492612820846127d2565b90818452600194858116908160001461288f575060011461284c575b505061284a92500383612759565b565b9093915060005260209081600020936000915b81831061287757505061284a9350820101388061283c565b8554888401850152948501948794509183019161285f565b91505061284a94506020925060ff191682840152151560051b820101388061283c565b9060068210156109ac5752565b60005b8381106128d25750506000910152565b81810151838201526020016128c2565b906020916128fb815180928185528580860191016128bf565b601f01601f1916010190565b3360009081527fad3228b676f7d3cd4284a5443f17f1962b36e491b30a40b2405849e597ba5fb5602090815260408083205490929060ff161561294957505050565b61295233612c44565b90808451906129608261273d565b60428252848201926060368537825115612aa05760308453825190600191821015612aa05790607860218501536041915b818311612a4657505050612a045760486106f99386936129e8936129d99851988993600080516020612f2c8339815191528a8601526106a0815180928c6037890191016128bf565b01036028810187520185612759565b5192839262461bcd60e51b8452600484015260248301906128e2565b60648486519062461bcd60e51b825280600483015260248201527f537472696e67733a20686578206c656e67746820696e73756666696369656e746044820152fd5b909192600f81166010811015612a8c576f181899199a1a9b1b9c1cb0b131b232b360811b901a612a768587612c33565b5360041c928015611c0d57600019019190612991565b634e487b7160e01b83526032600452602483fd5b634e487b7160e01b81526032600452602490fd5b600090808252602090828252604092838120338252835260ff848220541615612add5750505050565b612ae633612c44565b91845190612af38261273d565b60428252848201926060368537825115612aa05760308453825190600191821015612aa05790607860218501536041915b818311612b6c57505050612a045760486106f99386936129e8936129d99851988993600080516020612f2c8339815191528a8601526106a0815180928c6037890191016128bf565b909192600f81166010811015612a8c576f181899199a1a9b1b9c1cb0b131b232b360811b901a612b9c8587612c33565b5360041c928015611c0d57600019019190612b24565b9060009180835282602052604083209160018060a01b03169182845260205260ff604084205416612be257505050565b80835282602052604083208284526020526040832060ff1981541690557ff6391f5c32d9c69d2a47ea670b442974b53935d1edc7fd64eb21e047a839171b339380a4565b9190820180921161078457565b90815181101561079a570160200190565b604051906060820182811067ffffffffffffffff82111761270a57604052602a825260208201604036823782511561079a5760309053815160019081101561079a57607860218401536029905b808211612ce5575050612ca15790565b606460405162461bcd60e51b815260206004820152602060248201527f537472696e67733a20686578206c656e67746820696e73756666696369656e746044820152fd5b9091600f81166010811015612d3e576f181899199a1a9b1b9c1cb0b131b232b360811b901a612d148486612c33565b5360041c918015612d29576000190190612c91565b60246000634e487b7160e01b81526011600452fd5b60246000634e487b7160e01b81526032600452fd5b80546801000000000000000081101561270a57612d75916001820181556126de565b819291549060031b91821b91600019901b1916179055565b60ff60025416612d9957565b60405162461bcd60e51b815260206004820152601060248201526f14185d5cd8589b194e881c185d5cd95960821b6044820152606490fd5b600260015414612de2576002600155565b60405162461bcd60e51b815260206004820152601f60248201527f5265656e7472616e637947756172643a207265656e7472616e742063616c6c006044820152606490fd5b15612e2e57565b60405162461bcd60e51b815260206004820152600d60248201526c496e76616c696420737461746560981b6044820152606490fd5b5190811515820361106457565b15612e7757565b60405162461bcd60e51b815260206004820152600a602482015269139bdd0818db1a595b9d60b21b6044820152606490fd5b15612eb057565b60405162461bcd60e51b815260206004820152601660248201527515d9585d1a195c881bdc9858db19481b9bdd081cd95d60521b6044820152606490fd5b15612ef557565b60405162461bcd60e51b815260206004820152600e60248201526d496e76616c6964206f7261636c6560901b6044820152606490fdfe416363657373436f6e74726f6c3a206163636f756e7420000000000000000000a26469706673582212204983c395667aaa6742aaf7cf293227bdb48dfef08abc05eb2b56fa92ff01071864736f6c634300081400332f8788117e7eff1d82e926ec794901d17c78024a50270940304540a733656f0d","opcodes":"PUSH1 0x80 CALLVALUE PUSH3 0x31F JUMPI PUSH1 0x1F PUSH3 0x32F1 CODESIZE DUP2 SWAP1 SUB SWAP2 DUP3 ADD PUSH1 0x1F NOT AND DUP4 ADD SWAP3 SWAP2 SWAP1 PUSH1 0x1 PUSH1 0x1 PUSH1 0x40 SHL SUB DUP5 GT DUP4 DUP6 LT OR PUSH3 0x324 JUMPI DUP2 PUSH1 0x80 SWAP3 DUP5 SWAP3 PUSH1 0x40 SWAP7 DUP8 MSTORE DUP4 CODECOPY DUP2 ADD SUB SLT PUSH3 0x31F JUMPI PUSH3 0x51 DUP2 PUSH3 0x33A JUMP JUMPDEST PUSH1 0x20 SWAP2 PUSH3 0x61 DUP4 DUP3 ADD PUSH3 0x33A JUMP JUMPDEST PUSH1 0x60 PUSH3 0x70 DUP7 DUP5 ADD PUSH3 0x33A JUMP JUMPDEST SWAP3 ADD MLOAD PUSH1 0x1 PUSH1 0x1 PUSH1 0xA0 SHL SUB DUP1 DUP3 AND SWAP4 SWAP2 DUP5 SWAP1 SUB PUSH3 0x31F JUMPI PUSH1 0x1 DUP1 SSTORE DUP1 PUSH1 0xFF NOT SWAP6 DUP7 PUSH1 0x2 SLOAD AND PUSH1 0x2 SSTORE AND SWAP3 DUP4 ISZERO PUSH3 0x2E8 JUMPI DUP2 AND SWAP2 DUP3 ISZERO PUSH3 0x2B4 JUMPI AND SWAP1 DUP2 ISZERO PUSH3 0x27E JUMPI DUP4 ISZERO PUSH3 0x23A JUMPI PUSH1 0x1 DUP1 PUSH1 0xA0 SHL SUB NOT SWAP3 DUP4 PUSH1 0x8 SLOAD AND OR PUSH1 0x8 SSTORE DUP3 PUSH1 0x9 SLOAD AND OR PUSH1 0x9 SSTORE DUP2 PUSH1 0xA SLOAD AND OR PUSH1 0xA SSTORE PUSH1 0xB SLOAD AND OR PUSH1 0xB SSTORE PUSH1 0x0 SWAP1 DUP2 DUP1 MSTORE DUP2 DUP4 MSTORE DUP4 DUP3 KECCAK256 CALLER DUP4 MSTORE DUP4 MSTORE PUSH1 0xFF DUP5 DUP4 KECCAK256 SLOAD AND ISZERO PUSH3 0x204 JUMPI JUMPDEST PUSH32 0x797343F8D6A29AAFEB3AAF0910A8973E0081C60C2F6C1F775CD9F76EA348FC1E DUP1 DUP4 MSTORE DUP3 DUP5 MSTORE DUP5 DUP4 KECCAK256 CALLER DUP5 MSTORE DUP5 MSTORE PUSH1 0xFF DUP6 DUP5 KECCAK256 SLOAD AND ISZERO PUSH3 0x1CC JUMPI JUMPDEST POP PUSH32 0x16CEEE8289685DD2A02B9C8AE81D2DF373176CE53519E6284E2A2950D6546FFA SWAP3 DUP4 DUP4 MSTORE DUP3 DUP2 MSTORE DUP5 DUP4 KECCAK256 CALLER DUP5 MSTORE DUP2 MSTORE PUSH1 0xFF DUP6 DUP5 KECCAK256 SLOAD AND ISZERO PUSH3 0x192 JUMPI JUMPDEST DUP5 MLOAD PUSH2 0x2F81 SWAP1 DUP2 PUSH3 0x350 DUP3 CODECOPY RETURN JUMPDEST DUP4 DUP4 MSTORE DUP3 DUP2 MSTORE DUP5 DUP4 KECCAK256 SWAP1 CALLER DUP5 MSTORE MSTORE PUSH1 0x1 DUP5 DUP4 KECCAK256 SWAP2 DUP3 SLOAD AND OR SWAP1 SSTORE CALLER SWAP2 PUSH1 0x0 DUP1 MLOAD PUSH1 0x20 PUSH3 0x32D1 DUP4 CODECOPY DUP2 MLOAD SWAP2 MSTORE CALLER SWAP3 DUP1 LOG4 CODESIZE DUP1 DUP1 DUP1 PUSH3 0x183 JUMP JUMPDEST DUP1 DUP4 MSTORE DUP3 DUP5 MSTORE DUP5 DUP4 KECCAK256 CALLER DUP5 MSTORE DUP5 MSTORE DUP5 DUP4 KECCAK256 PUSH1 0x1 DUP4 DUP3 SLOAD AND OR SWAP1 SSTORE CALLER SWAP1 CALLER SWAP1 PUSH1 0x0 DUP1 MLOAD PUSH1 0x20 PUSH3 0x32D1 DUP4 CODECOPY DUP2 MLOAD SWAP2 MSTORE DUP6 DUP1 LOG4 CODESIZE PUSH3 0x144 JUMP JUMPDEST DUP2 DUP1 MSTORE DUP2 DUP4 MSTORE DUP4 DUP3 KECCAK256 CALLER DUP4 MSTORE DUP4 MSTORE DUP4 DUP3 KECCAK256 PUSH1 0x1 DUP3 DUP3 SLOAD AND OR SWAP1 SSTORE CALLER CALLER DUP4 PUSH1 0x0 DUP1 MLOAD PUSH1 0x20 PUSH3 0x32D1 DUP4 CODECOPY DUP2 MLOAD SWAP2 MSTORE DUP2 DUP1 LOG4 PUSH3 0x107 JUMP JUMPDEST DUP7 MLOAD PUSH3 0x461BCD PUSH1 0xE5 SHL DUP2 MSTORE PUSH1 0x4 DUP2 ADD DUP8 SWAP1 MSTORE PUSH1 0x17 PUSH1 0x24 DUP3 ADD MSTORE PUSH32 0x496E76616C696420706C6174666F726D2077616C6C6574000000000000000000 PUSH1 0x44 DUP3 ADD MSTORE PUSH1 0x64 SWAP1 REVERT JUMPDEST DUP7 MLOAD PUSH3 0x461BCD PUSH1 0xE5 SHL DUP2 MSTORE PUSH1 0x4 DUP2 ADD DUP8 SWAP1 MSTORE PUSH1 0xF PUSH1 0x24 DUP3 ADD MSTORE PUSH15 0x496E76616C6964207374616B696E67 PUSH1 0x88 SHL PUSH1 0x44 DUP3 ADD MSTORE PUSH1 0x64 SWAP1 REVERT JUMPDEST DUP8 MLOAD PUSH3 0x461BCD PUSH1 0xE5 SHL DUP2 MSTORE PUSH1 0x4 DUP2 ADD DUP9 SWAP1 MSTORE PUSH1 0xD PUSH1 0x24 DUP3 ADD MSTORE PUSH13 0x24B73B30B634B2103A37B5B2B7 PUSH1 0x99 SHL PUSH1 0x44 DUP3 ADD MSTORE PUSH1 0x64 SWAP1 REVERT JUMPDEST DUP8 MLOAD PUSH3 0x461BCD PUSH1 0xE5 SHL DUP2 MSTORE PUSH1 0x4 DUP2 ADD DUP9 SWAP1 MSTORE PUSH1 0x10 PUSH1 0x24 DUP3 ADD MSTORE PUSH16 0x24B73B30B634B21039B83634BA3A32B9 PUSH1 0x81 SHL PUSH1 0x44 DUP3 ADD MSTORE PUSH1 0x64 SWAP1 REVERT JUMPDEST PUSH1 0x0 DUP1 REVERT JUMPDEST PUSH4 0x4E487B71 PUSH1 0xE0 SHL PUSH1 0x0 MSTORE PUSH1 0x41 PUSH1 0x4 MSTORE PUSH1 0x24 PUSH1 0x0 REVERT JUMPDEST MLOAD SWAP1 PUSH1 0x1 PUSH1 0x1 PUSH1 0xA0 SHL SUB DUP3 AND DUP3 SUB PUSH3 0x31F JUMPI JUMP INVALID PUSH1 0x80 DUP1 PUSH1 0x40 MSTORE PUSH1 0x4 CALLDATASIZE LT ISZERO PUSH2 0x13 JUMPI PUSH1 0x0 DUP1 REVERT JUMPDEST PUSH1 0x0 SWAP1 DUP2 CALLDATALOAD PUSH1 0xE0 SHR SWAP1 DUP2 PUSH4 0x1FFC9A7 EQ PUSH2 0x2643 JUMPI POP DUP1 PUSH4 0x33794E2 EQ PUSH2 0x23DB JUMPI DUP1 PUSH4 0x18B09F26 EQ PUSH2 0x238F JUMPI DUP1 PUSH4 0x248A9CA3 EQ PUSH2 0x2363 JUMPI DUP1 PUSH4 0x2630C12F EQ PUSH2 0x233A JUMPI DUP1 PUSH4 0x27D00FB0 EQ PUSH2 0x21ED JUMPI DUP1 PUSH4 0x2A9514DF EQ PUSH2 0x21C4 JUMPI DUP1 PUSH4 0x2F2FF15D EQ PUSH2 0x2114 JUMPI DUP1 PUSH4 0x36568ABE EQ PUSH2 0x2081 JUMPI DUP1 PUSH4 0x375F16A7 EQ PUSH2 0xA0E JUMPI DUP1 PUSH4 0x3F4BA83A EQ PUSH2 0x1FEC JUMPI DUP1 PUSH4 0x3FEEA18B EQ PUSH2 0x1CD7 JUMPI DUP1 PUSH4 0x40DC7E0F EQ PUSH2 0x1C8F JUMPI DUP1 PUSH4 0x40EB8194 EQ PUSH2 0x17CC JUMPI DUP1 PUSH4 0x480B22DF EQ PUSH2 0x1759 JUMPI DUP1 PUSH4 0x48948780 EQ PUSH2 0x157F JUMPI DUP1 PUSH4 0x495AC47E EQ PUSH2 0x1544 JUMPI DUP1 PUSH4 0x4FD7E997 EQ PUSH2 0x14D1 JUMPI DUP1 PUSH4 0x530E784F EQ PUSH2 0x1485 JUMPI DUP1 PUSH4 0x54662713 EQ PUSH2 0x13DB JUMPI DUP1 PUSH4 0x55A373D6 EQ PUSH2 0x13B2 JUMPI DUP1 PUSH4 0x560D52D4 EQ PUSH2 0x1396 JUMPI DUP1 PUSH4 0x5C975ABB EQ PUSH2 0x1373 JUMPI DUP1 PUSH4 0x608B341A EQ PUSH2 0x132B JUMPI DUP1 PUSH4 0x650C6441 EQ PUSH2 0x12F0 JUMPI DUP1 PUSH4 0x671F1FB7 EQ PUSH2 0x122B JUMPI DUP1 PUSH4 0x70824C5C EQ PUSH2 0x11F0 JUMPI DUP1 PUSH4 0x78B5EEF9 EQ PUSH2 0x116D JUMPI DUP1 PUSH4 0x7EE94EF1 EQ PUSH2 0x1144 JUMPI DUP1 PUSH4 0x8456CB59 EQ PUSH2 0x10E9 JUMPI DUP1 PUSH4 0x8EC86B9A EQ PUSH2 0xF9C JUMPI DUP1 PUSH4 0x911EEB91 EQ PUSH2 0xF46 JUMPI DUP1 PUSH4 0x91D14854 EQ PUSH2 0xEFB JUMPI DUP1 PUSH4 0x9A7110FE EQ PUSH2 0xED2 JUMPI DUP1 PUSH4 0x9C17E439 EQ PUSH2 0xBED JUMPI DUP1 PUSH4 0x9CEA0787 EQ PUSH2 0xBB2 JUMPI DUP1 PUSH4 0xA217FDDF EQ PUSH2 0xB96 JUMPI DUP1 PUSH4 0xA85C38EF EQ PUSH2 0xAAA JUMPI DUP1 PUSH4 0xADA4EF30 EQ PUSH2 0xA2C JUMPI DUP1 PUSH4 0xB789BF52 EQ PUSH2 0xA0E JUMPI DUP1 PUSH4 0xBBD90440 EQ PUSH2 0x9C2 JUMPI DUP1 PUSH4 0xD09EF241 EQ PUSH2 0x7B0 JUMPI DUP1 PUSH4 0xD33BCB55 EQ PUSH2 0x4F2 JUMPI DUP1 PUSH4 0xD547741F EQ PUSH2 0x4B2 JUMPI DUP1 PUSH4 0xEAE6F652 EQ PUSH2 0x477 JUMPI DUP1 PUSH4 0xEE99205C EQ PUSH2 0x44E JUMPI DUP1 PUSH4 0xFA2AF9DA EQ PUSH2 0x425 JUMPI PUSH4 0xFD84CB97 EQ PUSH2 0x231 JUMPI PUSH1 0x0 DUP1 REVERT JUMPDEST CALLVALUE PUSH2 0x422 JUMPI PUSH1 0x20 CALLDATASIZE PUSH1 0x3 NOT ADD SLT PUSH2 0x422 JUMPI PUSH1 0x4 CALLDATALOAD SWAP1 PUSH2 0x24E PUSH2 0x2DD1 JUMP JUMPDEST PUSH2 0x256 PUSH2 0x2D8D JUMP JUMPDEST DUP2 DUP2 MSTORE PUSH1 0x4 PUSH1 0x20 MSTORE PUSH1 0x40 DUP2 KECCAK256 SWAP2 PUSH1 0x1 DUP4 ADD PUSH1 0x1 DUP1 PUSH1 0xA0 SHL SUB PUSH2 0x27C DUP2 DUP4 SLOAD AND CALLER EQ PUSH2 0x2E70 JUMP JUMPDEST PUSH1 0x8 DUP6 ADD SWAP5 DUP6 SLOAD SWAP6 PUSH1 0xFF DUP8 AND PUSH1 0x6 DUP2 LT ISZERO PUSH2 0x40E JUMPI DUP7 SWAP8 PUSH2 0x2A4 PUSH1 0x3 PUSH1 0x4 SWAP4 SWAP10 SWAP9 SWAP10 EQ PUSH2 0x2E27 JUMP JUMPDEST PUSH1 0xFF NOT AND OR SWAP1 SSTORE PUSH1 0xB DUP2 ADD PUSH2 0x100 PUSH2 0xFF00 NOT DUP3 SLOAD AND OR SWAP1 SSTORE DUP2 PUSH1 0x8 SLOAD AND PUSH1 0x7 DUP3 ADD SLOAD DUP4 PUSH1 0x2 DUP5 ADD SLOAD AND SWAP2 DUP5 PUSH1 0x3 DUP6 ADD SLOAD AND SWAP1 DUP6 PUSH1 0xB SLOAD AND SWAP4 DUP2 EXTCODESIZE ISZERO PUSH2 0x40A JUMPI PUSH1 0x40 MLOAD PUSH4 0x6F191A15 PUSH1 0xE0 SHL DUP2 MSTORE PUSH1 0x4 DUP2 ADD DUP12 SWAP1 MSTORE PUSH1 0x1 PUSH1 0x1 PUSH1 0xA0 SHL SUB SWAP2 DUP3 AND PUSH1 0x24 DUP3 ADD MSTORE SWAP3 DUP2 AND PUSH1 0x44 DUP5 ADD MSTORE SWAP4 SWAP1 SWAP4 AND PUSH1 0x64 DUP3 ADD MSTORE SWAP2 DUP7 SWAP2 DUP4 SWAP2 PUSH1 0x84 SWAP2 DUP4 SWAP2 GAS CALL SWAP1 DUP2 ISZERO PUSH2 0x3FF JUMPI DUP6 SWAP2 PUSH2 0x3EB JUMPI JUMPDEST POP POP PUSH1 0x4 PUSH1 0xA SWAP2 ADD SLOAD DIV SWAP1 DUP2 PUSH2 0x371 JUMPI JUMPDEST DUP4 CALLER DUP7 PUSH32 0x64A783C6150854AE756454311C7625A965C757996BA8CC1A8C6205380F337250 DUP4 DUP1 LOG3 PUSH1 0x1 DUP1 SSTORE DUP1 RETURN JUMPDEST DUP1 PUSH1 0x9 SLOAD AND SWAP3 SLOAD AND SWAP1 DUP3 EXTCODESIZE ISZERO PUSH2 0x3E7 JUMPI PUSH1 0x40 MLOAD PUSH4 0x40C10F19 PUSH1 0xE0 SHL DUP2 MSTORE PUSH1 0x1 PUSH1 0x1 PUSH1 0xA0 SHL SUB SWAP3 SWAP1 SWAP3 AND PUSH1 0x4 DUP4 ADD MSTORE PUSH1 0x24 DUP3 ADD MSTORE SWAP1 DUP3 SWAP1 DUP3 SWAP1 PUSH1 0x44 SWAP1 DUP3 SWAP1 DUP5 SWAP1 GAS CALL DUP1 ISZERO PUSH2 0x3DC JUMPI PUSH2 0x3C4 JUMPI JUMPDEST DUP1 DUP1 PUSH2 0x343 JUMP JUMPDEST PUSH2 0x3CD SWAP1 PUSH2 0x26F6 JUMP JUMPDEST PUSH2 0x3D8 JUMPI DUP2 CODESIZE PUSH2 0x3BD JUMP JUMPDEST POP DUP1 REVERT JUMPDEST PUSH1 0x40 MLOAD RETURNDATASIZE DUP5 DUP3 RETURNDATACOPY RETURNDATASIZE SWAP1 REVERT JUMPDEST DUP4 DUP1 REVERT JUMPDEST PUSH2 0x3F4 SWAP1 PUSH2 0x26F6 JUMP JUMPDEST PUSH2 0x3E7 JUMPI DUP4 CODESIZE PUSH2 0x332 JUMP JUMPDEST PUSH1 0x40 MLOAD RETURNDATASIZE DUP8 DUP3 RETURNDATACOPY RETURNDATASIZE SWAP1 REVERT JUMPDEST DUP9 DUP1 REVERT JUMPDEST PUSH4 0x4E487B71 PUSH1 0xE0 SHL DUP8 MSTORE PUSH1 0x21 PUSH1 0x4 MSTORE PUSH1 0x24 DUP8 REVERT JUMPDEST DUP1 REVERT JUMPDEST POP CALLVALUE PUSH2 0x422 JUMPI DUP1 PUSH1 0x3 NOT CALLDATASIZE ADD SLT PUSH2 0x422 JUMPI PUSH1 0xB SLOAD PUSH1 0x40 MLOAD PUSH1 0x1 PUSH1 0x1 PUSH1 0xA0 SHL SUB SWAP1 SWAP2 AND DUP2 MSTORE PUSH1 0x20 SWAP1 RETURN JUMPDEST POP CALLVALUE PUSH2 0x422 JUMPI DUP1 PUSH1 0x3 NOT CALLDATASIZE ADD SLT PUSH2 0x422 JUMPI PUSH1 0xA SLOAD PUSH1 0x40 MLOAD PUSH1 0x1 PUSH1 0x1 PUSH1 0xA0 SHL SUB SWAP1 SWAP2 AND DUP2 MSTORE PUSH1 0x20 SWAP1 RETURN JUMPDEST POP CALLVALUE PUSH2 0x422 JUMPI DUP1 PUSH1 0x3 NOT CALLDATASIZE ADD SLT PUSH2 0x422 JUMPI PUSH1 0x20 PUSH1 0x40 MLOAD PUSH32 0xA5FF3EC7A96CDBBA4D2D5172D66BBC73C6DB3885F29B21BE5DA9FA7A7C025232 DUP2 MSTORE RETURN JUMPDEST POP CALLVALUE PUSH2 0x422 JUMPI PUSH1 0x40 CALLDATASIZE PUSH1 0x3 NOT ADD SLT PUSH2 0x422 JUMPI PUSH2 0x4EF PUSH1 0x4 CALLDATALOAD PUSH2 0x4D2 PUSH2 0x26C8 JUMP JUMPDEST SWAP1 DUP1 DUP5 MSTORE DUP4 PUSH1 0x20 MSTORE PUSH2 0x4EA PUSH1 0x1 PUSH1 0x40 DUP7 KECCAK256 ADD SLOAD PUSH2 0x2AB4 JUMP JUMPDEST PUSH2 0x2BB2 JUMP JUMPDEST DUP1 RETURN JUMPDEST POP CALLVALUE PUSH2 0x422 JUMPI PUSH1 0x20 DUP1 PUSH1 0x3 NOT CALLDATASIZE ADD SLT PUSH2 0x3D8 JUMPI PUSH1 0x4 CALLDATALOAD SWAP1 PUSH2 0x511 PUSH2 0x2D8D JUMP JUMPDEST PUSH32 0xED49E6E204153E12A484763DDE9D7B8B19D4BE20E3BDB7FEFB9DEC0A08F5186 DUP1 PUSH1 0x0 MSTORE PUSH1 0x0 DUP3 MSTORE PUSH1 0x40 PUSH1 0x0 KECCAK256 CALLER PUSH1 0x0 MSTORE DUP3 MSTORE PUSH1 0xFF PUSH1 0x40 PUSH1 0x0 KECCAK256 SLOAD AND ISZERO PUSH2 0x616 JUMPI POP DUP2 DUP4 MSTORE PUSH1 0x4 DUP2 MSTORE PUSH1 0x40 DUP4 KECCAK256 SWAP1 CALLER PUSH1 0x1 DUP1 PUSH1 0xA0 SHL SUB PUSH1 0x3 DUP5 ADD SLOAD AND SUB PUSH2 0x5D9 JUMPI POP PUSH1 0x8 ADD DUP1 SLOAD PUSH1 0xFF DUP2 AND PUSH1 0x6 DUP2 LT ISZERO PUSH2 0x5C5 JUMPI SWAP1 PUSH2 0x595 PUSH1 0x2 PUSH1 0x3 SWAP4 EQ PUSH2 0x2E27 JUMP JUMPDEST PUSH1 0xFF NOT AND OR SWAP1 SSTORE CALLER SWAP1 PUSH32 0x7F44DC96DFE82556F254203E555FA87CE76986F76EB50FC73D105558207EBB58 DUP4 DUP1 LOG3 DUP1 RETURN JUMPDEST PUSH4 0x4E487B71 PUSH1 0xE0 SHL DUP6 MSTORE PUSH1 0x21 PUSH1 0x4 MSTORE PUSH1 0x24 DUP6 REVERT JUMPDEST PUSH1 0x64 SWAP1 PUSH1 0x40 MLOAD SWAP1 PUSH3 0x461BCD PUSH1 0xE5 SHL DUP3 MSTORE PUSH1 0x4 DUP3 ADD MSTORE PUSH1 0x16 PUSH1 0x24 DUP3 ADD MSTORE PUSH22 0x2737BA1030B9B9B4B3B732B2103232B634BB32B932B9 PUSH1 0x51 SHL PUSH1 0x44 DUP3 ADD MSTORE REVERT JUMPDEST SWAP1 PUSH2 0x620 CALLER PUSH2 0x2C44 JUMP JUMPDEST SWAP2 PUSH1 0x40 MLOAD PUSH2 0x62D DUP2 PUSH2 0x273D JUMP JUMPDEST PUSH1 0x42 DUP2 MSTORE DUP3 DUP2 ADD SWAP2 PUSH1 0x60 CALLDATASIZE DUP5 CALLDATACOPY DUP2 MLOAD ISZERO PUSH2 0x79A JUMPI PUSH1 0x30 DUP4 MSTORE8 DUP2 MLOAD PUSH1 0x1 SWAP1 DUP2 LT ISZERO PUSH2 0x79A JUMPI PUSH1 0x78 PUSH1 0x21 DUP5 ADD MSTORE8 PUSH1 0x41 SWAP1 JUMPDEST DUP1 DUP3 GT PUSH2 0x740 JUMPI POP POP PUSH2 0x6FD JUMPI PUSH2 0x6C9 SWAP4 PUSH2 0x6D8 SWAP3 PUSH1 0x48 SWAP3 PUSH1 0x40 MLOAD SWAP7 DUP8 SWAP4 PUSH1 0x0 DUP1 MLOAD PUSH1 0x20 PUSH2 0x2F2C DUP4 CODECOPY DUP2 MLOAD SWAP2 MSTORE DUP9 DUP7 ADD MSTORE PUSH2 0x6A0 DUP2 MLOAD DUP1 SWAP3 DUP11 PUSH1 0x37 DUP10 ADD SWAP2 ADD PUSH2 0x28BF JUMP JUMPDEST DUP5 ADD SWAP2 PUSH17 0x1034B99036B4B9B9B4B733903937B6329 PUSH1 0x7D SHL PUSH1 0x37 DUP5 ADD MSTORE MLOAD DUP1 SWAP4 DUP7 DUP5 ADD SWAP1 PUSH2 0x28BF JUMP JUMPDEST ADD SUB PUSH1 0x28 DUP2 ADD DUP6 MSTORE ADD DUP4 PUSH2 0x2759 JUMP JUMPDEST PUSH2 0x6F9 PUSH1 0x40 MLOAD SWAP3 DUP4 SWAP3 PUSH3 0x461BCD PUSH1 0xE5 SHL DUP5 MSTORE PUSH1 0x4 DUP5 ADD MSTORE PUSH1 0x24 DUP4 ADD SWAP1 PUSH2 0x28E2 JUMP JUMPDEST SUB SWAP1 REVERT JUMPDEST PUSH1 0x64 DUP4 PUSH1 0x40 MLOAD SWAP1 PUSH3 0x461BCD PUSH1 0xE5 SHL DUP3 MSTORE DUP1 PUSH1 0x4 DUP4 ADD MSTORE PUSH1 0x24 DUP3 ADD MSTORE PUSH32 0x537472696E67733A20686578206C656E67746820696E73756666696369656E74 PUSH1 0x44 DUP3 ADD MSTORE REVERT JUMPDEST SWAP1 SWAP2 PUSH1 0xF DUP2 AND PUSH1 0x10 DUP2 LT ISZERO PUSH2 0x79A JUMPI PUSH16 0x181899199A1A9B1B9C1CB0B131B232B3 PUSH1 0x81 SHL SWAP1 BYTE PUSH2 0x76F DUP5 DUP7 PUSH2 0x2C33 JUMP JUMPDEST MSTORE8 PUSH1 0x4 SHR SWAP2 DUP1 ISZERO PUSH2 0x784 JUMPI PUSH1 0x0 NOT ADD SWAP1 PUSH2 0x65C JUMP JUMPDEST PUSH4 0x4E487B71 PUSH1 0xE0 SHL PUSH1 0x0 MSTORE PUSH1 0x11 PUSH1 0x4 MSTORE PUSH1 0x24 PUSH1 0x0 REVERT JUMPDEST PUSH4 0x4E487B71 PUSH1 0xE0 SHL PUSH1 0x0 MSTORE PUSH1 0x32 PUSH1 0x4 MSTORE PUSH1 0x24 PUSH1 0x0 REVERT JUMPDEST POP CALLVALUE PUSH2 0x422 JUMPI PUSH1 0x20 CALLDATASIZE PUSH1 0x3 NOT ADD SLT PUSH2 0x422 JUMPI DUP1 PUSH1 0x40 SWAP2 PUSH2 0x180 DUP4 MLOAD PUSH2 0x7D4 DUP2 PUSH2 0x2720 JUMP JUMPDEST DUP3 DUP2 MSTORE DUP3 PUSH1 0x20 DUP3 ADD MSTORE DUP3 DUP6 DUP3 ADD MSTORE DUP3 PUSH1 0x60 DUP3 ADD MSTORE DUP3 PUSH1 0x80 DUP3 ADD MSTORE DUP3 PUSH1 0xA0 DUP3 ADD MSTORE DUP3 PUSH1 0xC0 DUP3 ADD MSTORE DUP3 PUSH1 0xE0 DUP3 ADD MSTORE DUP3 PUSH2 0x100 DUP3 ADD MSTORE PUSH1 0x60 PUSH2 0x120 DUP3 ADD MSTORE DUP3 PUSH2 0x140 DUP3 ADD MSTORE DUP3 PUSH2 0x160 DUP3 ADD MSTORE ADD MSTORE PUSH1 0x4 CALLDATALOAD DUP2 MSTORE PUSH1 0x4 PUSH1 0x20 MSTORE KECCAK256 PUSH1 0x40 MLOAD SWAP1 PUSH2 0x837 DUP3 PUSH2 0x2720 JUMP JUMPDEST DUP1 SLOAD DUP3 MSTORE PUSH1 0x1 DUP2 ADD SLOAD PUSH1 0x1 PUSH1 0x1 PUSH1 0xA0 SHL SUB SWAP1 DUP2 AND PUSH1 0x20 DUP5 ADD MSTORE PUSH1 0x2 DUP3 ADD SLOAD DUP2 AND PUSH1 0x40 DUP5 ADD MSTORE PUSH1 0x3 DUP3 ADD SLOAD AND PUSH1 0x60 DUP4 ADD MSTORE PUSH1 0x4 DUP2 ADD SLOAD PUSH1 0x80 DUP4 ADD MSTORE PUSH1 0x5 DUP2 ADD SLOAD PUSH1 0xA0 DUP4 ADD MSTORE PUSH1 0x6 DUP1 DUP3 ADD SLOAD PUSH1 0xC0 DUP5 ADD MSTORE PUSH1 0x7 DUP3 ADD SLOAD PUSH1 0xE0 DUP5 ADD MSTORE PUSH1 0x8 DUP3 ADD SLOAD PUSH1 0xFF AND SWAP1 DUP2 LT ISZERO PUSH2 0x9AC JUMPI PUSH1 0xFF SWAP2 PUSH1 0xB SWAP2 PUSH2 0x100 DUP6 ADD MSTORE PUSH2 0x8B8 PUSH1 0x9 DUP3 ADD PUSH2 0x280C JUMP JUMPDEST PUSH2 0x120 DUP6 ADD MSTORE PUSH1 0xA DUP2 ADD SLOAD PUSH2 0x140 DUP6 ADD MSTORE ADD SLOAD DUP2 DUP2 AND ISZERO ISZERO PUSH2 0x160 DUP5 ADD MSTORE PUSH1 0x8 SHR AND ISZERO ISZERO PUSH2 0x180 DUP3 ADD MSTORE PUSH1 0x40 MLOAD DUP1 SWAP2 PUSH1 0x20 DUP3 MSTORE DUP1 MLOAD PUSH1 0x20 DUP4 ADD MSTORE PUSH1 0x1 DUP1 PUSH1 0xA0 SHL SUB PUSH1 0x20 DUP3 ADD MLOAD AND PUSH1 0x40 DUP4 ADD MSTORE PUSH1 0x1 DUP1 PUSH1 0xA0 SHL SUB PUSH1 0x40 DUP3 ADD MLOAD AND PUSH1 0x60 DUP4 ADD MSTORE PUSH1 0x1 DUP1 PUSH1 0xA0 SHL SUB PUSH1 0x60 DUP3 ADD MLOAD AND PUSH1 0x80 DUP4 ADD MSTORE PUSH1 0x80 DUP2 ADD MLOAD PUSH1 0xA0 DUP4 ADD MSTORE PUSH1 0xA0 DUP2 ADD MLOAD PUSH1 0xC0 DUP4 ADD MSTORE PUSH1 0xC0 DUP2 ADD MLOAD PUSH1 0xE0 DUP4 ADD MSTORE PUSH1 0xE0 DUP2 ADD MLOAD PUSH2 0x100 DUP4 ADD MSTORE PUSH2 0x965 PUSH2 0x100 DUP3 ADD MLOAD PUSH2 0x120 DUP5 ADD SWAP1 PUSH2 0x28B2 JUMP JUMPDEST PUSH2 0x120 DUP2 ADD MLOAD PUSH2 0x180 PUSH2 0x987 PUSH2 0x1A0 SWAP3 DUP4 PUSH2 0x140 DUP8 ADD MSTORE PUSH2 0x1C0 DUP7 ADD SWAP1 PUSH2 0x28E2 JUMP JUMPDEST SWAP3 PUSH2 0x140 DUP2 ADD MLOAD PUSH2 0x160 DUP7 ADD MSTORE PUSH2 0x160 DUP2 ADD MLOAD ISZERO ISZERO DUP3 DUP7 ADD MSTORE ADD MLOAD ISZERO ISZERO SWAP1 DUP4 ADD MSTORE SUB SWAP1 RETURN JUMPDEST PUSH4 0x4E487B71 PUSH1 0xE0 SHL PUSH1 0x0 MSTORE PUSH1 0x21 PUSH1 0x4 MSTORE PUSH1 0x24 PUSH1 0x0 REVERT JUMPDEST POP CALLVALUE PUSH2 0x422 JUMPI PUSH1 0x20 CALLDATASIZE PUSH1 0x3 NOT ADD SLT PUSH2 0x422 JUMPI PUSH2 0x9DC PUSH2 0x26B2 JUMP JUMPDEST PUSH2 0x9E4 PUSH2 0x2907 JUMP JUMPDEST PUSH1 0x1 PUSH1 0x1 PUSH1 0xA0 SHL SUB AND PUSH2 0x9F8 DUP2 ISZERO ISZERO PUSH2 0x2EEE JUMP JUMPDEST PUSH1 0x1 PUSH1 0x1 PUSH1 0x60 SHL SUB PUSH1 0xA0 SHL PUSH1 0xC SLOAD AND OR PUSH1 0xC SSTORE DUP1 RETURN JUMPDEST POP CALLVALUE PUSH2 0x422 JUMPI DUP1 PUSH1 0x3 NOT CALLDATASIZE ADD SLT PUSH2 0x422 JUMPI PUSH1 0x20 PUSH1 0x3 SLOAD PUSH1 0x40 MLOAD SWAP1 DUP2 MSTORE RETURN JUMPDEST POP CALLVALUE PUSH2 0x422 JUMPI PUSH1 0x20 CALLDATASIZE PUSH1 0x3 NOT ADD SLT PUSH2 0x422 JUMPI PUSH2 0xA46 PUSH2 0x26B2 JUMP JUMPDEST PUSH2 0xA4E PUSH2 0x2907 JUMP JUMPDEST PUSH1 0x1 PUSH1 0x1 PUSH1 0xA0 SHL SUB AND DUP1 ISZERO PUSH2 0xA73 JUMPI PUSH1 0x1 PUSH1 0x1 PUSH1 0x60 SHL SUB PUSH1 0xA0 SHL PUSH1 0xB SLOAD AND OR PUSH1 0xB SSTORE DUP1 RETURN JUMPDEST PUSH1 0x40 MLOAD PUSH3 0x461BCD PUSH1 0xE5 SHL DUP2 MSTORE PUSH1 0x20 PUSH1 0x4 DUP3 ADD MSTORE PUSH1 0xF PUSH1 0x24 DUP3 ADD MSTORE PUSH15 0x496E76616C69642061646472657373 PUSH1 0x88 SHL PUSH1 0x44 DUP3 ADD MSTORE PUSH1 0x64 SWAP1 REVERT JUMPDEST POP CALLVALUE PUSH2 0x422 JUMPI PUSH1 0x20 CALLDATASIZE PUSH1 0x3 NOT ADD SLT PUSH2 0x422 JUMPI PUSH1 0x4 CALLDATALOAD DUP2 MSTORE PUSH1 0x4 PUSH1 0x20 MSTORE PUSH1 0x40 SWAP1 KECCAK256 DUP1 SLOAD PUSH1 0x1 PUSH1 0xA0 SHL PUSH1 0x1 SWAP1 SUB SWAP2 DUP3 PUSH1 0x1 DUP3 ADD SLOAD AND SWAP3 DUP1 PUSH1 0x2 DUP4 ADD SLOAD AND SWAP1 PUSH1 0x3 DUP4 ADD SLOAD AND PUSH1 0x4 DUP4 ADD SLOAD PUSH1 0x5 DUP5 ADD SLOAD PUSH1 0x6 DUP6 ADD SLOAD PUSH1 0x7 DUP7 ADD SLOAD SWAP2 PUSH1 0x8 DUP8 ADD SLOAD PUSH1 0xFF AND SWAP4 PUSH1 0x9 DUP9 ADD PUSH2 0xB17 SWAP1 PUSH2 0x280C JUMP JUMPDEST SWAP6 PUSH1 0xA DUP10 ADD SLOAD SWAP9 PUSH1 0xB ADD SLOAD SWAP8 PUSH1 0x40 MLOAD SWAP12 DUP13 SWAP12 DUP13 MSTORE PUSH1 0x20 DUP13 ADD MSTORE PUSH1 0x40 DUP12 ADD MSTORE PUSH1 0x60 DUP11 ADD MSTORE PUSH1 0x80 DUP10 ADD MSTORE PUSH1 0xA0 DUP9 ADD MSTORE PUSH1 0xC0 DUP8 ADD MSTORE PUSH1 0xE0 DUP7 ADD MSTORE PUSH2 0x100 DUP6 ADD PUSH2 0xB5C SWAP2 PUSH2 0x28B2 JUMP JUMPDEST PUSH2 0x1A0 DUP1 PUSH2 0x120 DUP7 ADD MSTORE DUP5 ADD PUSH2 0xB71 SWAP2 PUSH2 0x28E2 JUMP JUMPDEST SWAP2 PUSH2 0x140 DUP5 ADD MSTORE PUSH1 0xFF DUP2 AND ISZERO ISZERO PUSH2 0x160 DUP5 ADD MSTORE PUSH1 0x8 SHR PUSH1 0xFF AND ISZERO ISZERO PUSH2 0x180 DUP4 ADD MSTORE SUB SWAP1 RETURN JUMPDEST POP CALLVALUE PUSH2 0x422 JUMPI DUP1 PUSH1 0x3 NOT CALLDATASIZE ADD SLT PUSH2 0x422 JUMPI PUSH1 0x20 SWAP1 PUSH1 0x40 MLOAD SWAP1 DUP2 MSTORE RETURN JUMPDEST POP CALLVALUE PUSH2 0x422 JUMPI DUP1 PUSH1 0x3 NOT CALLDATASIZE ADD SLT PUSH2 0x422 JUMPI PUSH1 0x20 PUSH1 0x40 MLOAD PUSH32 0x16CEEE8289685DD2A02B9C8AE81D2DF373176CE53519E6284E2A2950D6546FFA DUP2 MSTORE RETURN JUMPDEST POP CALLVALUE PUSH2 0x422 JUMPI PUSH1 0x60 CALLDATASIZE PUSH1 0x3 NOT ADD SLT PUSH2 0x422 JUMPI PUSH1 0x4 CALLDATALOAD SWAP1 PUSH2 0xC0B PUSH2 0x26C8 JUMP JUMPDEST CALLER PUSH1 0x0 SWAP1 DUP2 MSTORE PUSH32 0x124A13B16867194FC8FE1B97BE0D668B89AC2A8DD77D418CF4FEEFA89864A626 PUSH1 0x20 SWAP1 DUP2 MSTORE PUSH1 0x40 SWAP1 SWAP2 KECCAK256 SLOAD PUSH1 0x44 CALLDATALOAD SWAP5 SWAP3 SWAP1 PUSH32 0x16CEEE8289685DD2A02B9C8AE81D2DF373176CE53519E6284E2A2950D6546FFA SWAP1 PUSH1 0xFF AND ISZERO PUSH2 0xE04 JUMPI POP PUSH2 0xC76 PUSH2 0x2DD1 JUMP JUMPDEST PUSH2 0xC7E PUSH2 0x2D8D JUMP JUMPDEST DUP3 DUP5 MSTORE PUSH1 0x4 DUP3 MSTORE PUSH1 0x40 DUP5 KECCAK256 SWAP5 PUSH1 0xB DUP7 ADD SWAP1 PUSH1 0xFF DUP3 SLOAD AND ISZERO PUSH2 0xDD2 JUMPI PUSH1 0x64 DUP2 GT PUSH2 0xD9B JUMPI PUSH1 0x7 DUP8 ADD SLOAD DUP2 DUP2 MUL SWAP2 DUP2 DUP4 DIV EQ SWAP1 ISZERO OR ISZERO PUSH2 0x784 JUMPI PUSH1 0x64 SWAP1 DIV SWAP3 DUP6 DUP1 DUP1 DUP1 DUP8 PUSH1 0x1 PUSH1 0x1 PUSH1 0xA0 SHL SUB DUP9 AND GAS CALL RETURNDATASIZE ISZERO PUSH2 0xD96 JUMPI RETURNDATASIZE PUSH2 0xCDC DUP2 PUSH2 0x277B JUMP JUMPDEST SWAP1 PUSH2 0xCEA PUSH1 0x40 MLOAD SWAP3 DUP4 PUSH2 0x2759 JUMP JUMPDEST DUP2 MSTORE DUP8 DUP4 RETURNDATASIZE SWAP3 ADD RETURNDATACOPY JUMPDEST ISZERO PUSH2 0xD60 JUMPI POP PUSH1 0x8 PUSH32 0xDF0BAF5489595EA17A097D16827D60793E2F57F3B85A982E5D7E02838B841EE6 SWAP5 SWAP6 SWAP7 ADD PUSH1 0xFF NOT SWAP1 PUSH1 0x4 DUP3 DUP3 SLOAD AND OR SWAP1 SSTORE DUP2 SLOAD AND SWAP1 SSTORE PUSH2 0xD56 PUSH1 0x40 MLOAD SWAP3 DUP4 SWAP3 DUP4 PUSH1 0x20 SWAP1 SWAP4 SWAP3 SWAP2 SWAP4 PUSH1 0x40 DUP2 ADD SWAP5 PUSH1 0x1 DUP1 PUSH1 0xA0 SHL SUB AND DUP2 MSTORE ADD MSTORE JUMP JUMPDEST SUB SWAP1 LOG2 PUSH1 0x1 DUP1 SSTORE DUP1 RETURN JUMPDEST PUSH1 0x64 SWAP1 PUSH1 0x40 MLOAD SWAP1 PUSH3 0x461BCD PUSH1 0xE5 SHL DUP3 MSTORE PUSH1 0x4 DUP3 ADD MSTORE PUSH1 0xF PUSH1 0x24 DUP3 ADD MSTORE PUSH15 0x151C985B9CD9995C8819985A5B1959 PUSH1 0x8A SHL PUSH1 0x44 DUP3 ADD MSTORE REVERT JUMPDEST PUSH2 0xCF3 JUMP JUMPDEST PUSH1 0x40 MLOAD PUSH3 0x461BCD PUSH1 0xE5 SHL DUP2 MSTORE PUSH1 0x4 DUP2 ADD DUP6 SWAP1 MSTORE PUSH1 0xF PUSH1 0x24 DUP3 ADD MSTORE PUSH15 0x125B9D985B1A59081C195C98D95B9D PUSH1 0x8A SHL PUSH1 0x44 DUP3 ADD MSTORE PUSH1 0x64 SWAP1 REVERT JUMPDEST PUSH1 0x40 MLOAD PUSH3 0x461BCD PUSH1 0xE5 SHL DUP2 MSTORE PUSH1 0x4 DUP2 ADD DUP6 SWAP1 MSTORE PUSH1 0xA PUSH1 0x24 DUP3 ADD MSTORE PUSH10 0x4E6F2064697370757465 PUSH1 0xB0 SHL PUSH1 0x44 DUP3 ADD MSTORE PUSH1 0x64 SWAP1 REVERT JUMPDEST DUP3 PUSH2 0xE0E CALLER PUSH2 0x2C44 JUMP JUMPDEST SWAP2 PUSH1 0x40 MLOAD PUSH2 0xE1B DUP2 PUSH2 0x273D JUMP JUMPDEST PUSH1 0x42 DUP2 MSTORE DUP3 DUP2 ADD SWAP2 PUSH1 0x60 CALLDATASIZE DUP5 CALLDATACOPY DUP2 MLOAD ISZERO PUSH2 0x79A JUMPI PUSH1 0x30 DUP4 MSTORE8 DUP2 MLOAD PUSH1 0x1 SWAP1 DUP2 LT ISZERO PUSH2 0x79A JUMPI PUSH1 0x78 PUSH1 0x21 DUP5 ADD MSTORE8 PUSH1 0x41 SWAP1 JUMPDEST DUP1 DUP3 GT PUSH2 0xE8E JUMPI POP POP PUSH2 0x6FD JUMPI PUSH2 0x6C9 SWAP4 PUSH2 0x6D8 SWAP3 PUSH1 0x48 SWAP3 PUSH1 0x40 MLOAD SWAP7 DUP8 SWAP4 PUSH1 0x0 DUP1 MLOAD PUSH1 0x20 PUSH2 0x2F2C DUP4 CODECOPY DUP2 MLOAD SWAP2 MSTORE DUP9 DUP7 ADD MSTORE PUSH2 0x6A0 DUP2 MLOAD DUP1 SWAP3 DUP11 PUSH1 0x37 DUP10 ADD SWAP2 ADD PUSH2 0x28BF JUMP JUMPDEST SWAP1 SWAP2 PUSH1 0xF DUP2 AND PUSH1 0x10 DUP2 LT ISZERO PUSH2 0x79A JUMPI PUSH16 0x181899199A1A9B1B9C1CB0B131B232B3 PUSH1 0x81 SHL SWAP1 BYTE PUSH2 0xEBD DUP5 DUP7 PUSH2 0x2C33 JUMP JUMPDEST MSTORE8 PUSH1 0x4 SHR SWAP2 DUP1 ISZERO PUSH2 0x784 JUMPI PUSH1 0x0 NOT ADD SWAP1 PUSH2 0xE4A JUMP JUMPDEST POP CALLVALUE PUSH2 0x422 JUMPI DUP1 PUSH1 0x3 NOT CALLDATASIZE ADD SLT PUSH2 0x422 JUMPI PUSH1 0x8 SLOAD PUSH1 0x40 MLOAD PUSH1 0x1 PUSH1 0x1 PUSH1 0xA0 SHL SUB SWAP1 SWAP2 AND DUP2 MSTORE PUSH1 0x20 SWAP1 RETURN JUMPDEST POP CALLVALUE PUSH2 0x422 JUMPI PUSH1 0x40 CALLDATASIZE PUSH1 0x3 NOT ADD SLT PUSH2 0x422 JUMPI PUSH1 0x40 PUSH2 0xF17 PUSH2 0x26C8 JUMP JUMPDEST SWAP2 PUSH1 0x4 CALLDATALOAD DUP2 MSTORE DUP1 PUSH1 0x20 MSTORE KECCAK256 SWAP1 PUSH1 0x1 DUP1 PUSH1 0xA0 SHL SUB AND PUSH1 0x0 MSTORE PUSH1 0x20 MSTORE PUSH1 0x20 PUSH1 0xFF PUSH1 0x40 PUSH1 0x0 KECCAK256 SLOAD AND PUSH1 0x40 MLOAD SWAP1 ISZERO ISZERO DUP2 MSTORE RETURN JUMPDEST POP CALLVALUE PUSH2 0x422 JUMPI PUSH1 0x40 CALLDATASIZE PUSH1 0x3 NOT ADD SLT PUSH2 0x422 JUMPI PUSH2 0xF60 PUSH2 0x26B2 JUMP JUMPDEST PUSH1 0x1 PUSH1 0x1 PUSH1 0xA0 SHL SUB AND DUP2 MSTORE PUSH1 0x5 PUSH1 0x20 MSTORE PUSH1 0x40 DUP2 KECCAK256 DUP1 SLOAD PUSH1 0x24 CALLDATALOAD SWAP3 SWAP1 DUP4 LT ISZERO PUSH2 0x422 JUMPI PUSH1 0x20 PUSH2 0xF8E DUP5 DUP5 PUSH2 0x26DE JUMP JUMPDEST SWAP1 SLOAD PUSH1 0x40 MLOAD SWAP2 PUSH1 0x3 SHL SHR DUP2 MSTORE RETURN JUMPDEST POP CALLVALUE PUSH2 0x422 JUMPI PUSH2 0xFAB CALLDATASIZE PUSH2 0x2698 JUMP JUMPDEST PUSH1 0xE SLOAD SWAP3 SWAP4 SWAP3 PUSH1 0x1 PUSH1 0x1 PUSH1 0xA0 SHL SUB AND SWAP2 SWAP1 PUSH2 0xFC7 DUP4 ISZERO ISZERO PUSH2 0x2EA9 JUMP JUMPDEST PUSH1 0x40 MLOAD SWAP2 PUSH4 0x2858EECD PUSH1 0xE2 SHL DUP4 MSTORE PUSH1 0x4 DUP4 ADD MSTORE PUSH1 0x24 DUP3 ADD MSTORE PUSH1 0x80 DUP2 PUSH1 0x44 DUP2 DUP6 GAS STATICCALL SWAP1 DUP2 ISZERO PUSH2 0x10DE JUMPI DUP4 SWAP2 PUSH2 0x1091 JUMPI JUMPDEST POP PUSH1 0x40 MLOAD SWAP4 PUSH4 0x58A4AA39 PUSH1 0xE1 SHL DUP6 MSTORE PUSH1 0x4 DUP6 ADD MSTORE PUSH1 0x5 DUP2 LT ISZERO PUSH2 0x107D JUMPI PUSH1 0x44 DUP5 PUSH1 0x20 SWAP4 DUP2 SWAP4 PUSH1 0x24 DUP4 ADD MSTORE GAS STATICCALL SWAP1 DUP2 ISZERO PUSH2 0x1071 JUMPI SWAP1 PUSH2 0x103A JUMPI JUMPDEST PUSH1 0x20 SWAP1 PUSH1 0x40 MLOAD SWAP1 DUP2 MSTORE RETURN JUMPDEST POP PUSH1 0x20 DUP2 RETURNDATASIZE DUP3 GT PUSH2 0x1069 JUMPI JUMPDEST DUP2 PUSH2 0x1053 PUSH1 0x20 SWAP4 DUP4 PUSH2 0x2759 JUMP JUMPDEST DUP2 ADD SUB SLT PUSH2 0x1064 JUMPI PUSH1 0x20 SWAP1 MLOAD PUSH2 0x102F JUMP JUMPDEST PUSH1 0x0 DUP1 REVERT JUMPDEST RETURNDATASIZE SWAP2 POP PUSH2 0x1046 JUMP JUMPDEST PUSH1 0x40 MLOAD SWAP1 RETURNDATASIZE SWAP1 DUP3 RETURNDATACOPY RETURNDATASIZE SWAP1 REVERT JUMPDEST PUSH4 0x4E487B71 PUSH1 0xE0 SHL DUP4 MSTORE PUSH1 0x21 PUSH1 0x4 MSTORE PUSH1 0x24 DUP4 REVERT JUMPDEST SWAP1 POP PUSH1 0x80 DUP2 RETURNDATASIZE DUP3 GT PUSH2 0x10D6 JUMPI JUMPDEST DUP2 PUSH2 0x10AB PUSH1 0x80 SWAP4 DUP4 PUSH2 0x2759 JUMP JUMPDEST DUP2 ADD SUB SLT PUSH2 0x10D2 JUMPI DUP1 MLOAD SWAP1 PUSH1 0x5 DUP3 LT ISZERO PUSH2 0x3E7 JUMPI PUSH1 0x60 PUSH2 0x10CB SWAP2 ADD PUSH2 0x2E63 JUMP JUMPDEST POP CODESIZE PUSH2 0xFF6 JUMP JUMPDEST DUP3 DUP1 REVERT JUMPDEST RETURNDATASIZE SWAP2 POP PUSH2 0x109E JUMP JUMPDEST PUSH1 0x40 MLOAD RETURNDATASIZE DUP6 DUP3 RETURNDATACOPY RETURNDATASIZE SWAP1 REVERT JUMPDEST POP CALLVALUE PUSH2 0x422 JUMPI DUP1 PUSH1 0x3 NOT CALLDATASIZE ADD SLT PUSH2 0x422 JUMPI PUSH2 0x1102 PUSH2 0x2907 JUMP JUMPDEST PUSH2 0x110A PUSH2 0x2D8D JUMP JUMPDEST PUSH1 0x1 PUSH1 0xFF NOT PUSH1 0x2 SLOAD AND OR PUSH1 0x2 SSTORE PUSH32 0x62E78CEA01BEE320CD4E420270B5EA74000D11B0C9F74754EBDBFC544B05A258 PUSH1 0x20 PUSH1 0x40 MLOAD CALLER DUP2 MSTORE LOG1 DUP1 RETURN JUMPDEST POP CALLVALUE PUSH2 0x422 JUMPI DUP1 PUSH1 0x3 NOT CALLDATASIZE ADD SLT PUSH2 0x422 JUMPI PUSH1 0xE SLOAD PUSH1 0x40 MLOAD PUSH1 0x1 PUSH1 0x1 PUSH1 0xA0 SHL SUB SWAP1 SWAP2 AND DUP2 MSTORE PUSH1 0x20 SWAP1 RETURN JUMPDEST POP CALLVALUE PUSH2 0x422 JUMPI PUSH1 0x20 DUP1 PUSH1 0x3 NOT CALLDATASIZE ADD SLT PUSH2 0x3D8 JUMPI PUSH1 0x1 PUSH1 0x1 PUSH1 0xA0 SHL SUB PUSH2 0x1190 PUSH2 0x26B2 JUMP JUMPDEST AND DUP3 MSTORE PUSH1 0x7 DUP2 MSTORE PUSH1 0x40 DUP3 KECCAK256 SWAP2 PUSH1 0x40 MLOAD DUP1 SWAP3 DUP1 DUP6 SLOAD SWAP3 DUP4 DUP2 MSTORE ADD SWAP5 DUP4 MSTORE DUP1 DUP4 KECCAK256 SWAP3 SWAP1 JUMPDEST DUP3 DUP3 LT PUSH2 0x11D9 JUMPI PUSH2 0x11D5 DUP6 PUSH2 0x11C9 DUP2 DUP10 SUB DUP3 PUSH2 0x2759 JUMP JUMPDEST PUSH1 0x40 MLOAD SWAP2 DUP3 SWAP2 DUP3 PUSH2 0x2797 JUMP JUMPDEST SUB SWAP1 RETURN JUMPDEST DUP4 SLOAD DUP7 MSTORE SWAP5 DUP6 ADD SWAP5 PUSH1 0x1 SWAP4 DUP5 ADD SWAP4 SWAP1 SWAP2 ADD SWAP1 PUSH2 0x11B2 JUMP JUMPDEST POP CALLVALUE PUSH2 0x422 JUMPI DUP1 PUSH1 0x3 NOT CALLDATASIZE ADD SLT PUSH2 0x422 JUMPI PUSH1 0x20 PUSH1 0x40 MLOAD PUSH32 0x797343F8D6A29AAFEB3AAF0910A8973E0081C60C2F6C1F775CD9F76EA348FC1E DUP2 MSTORE RETURN JUMPDEST POP CALLVALUE PUSH2 0x422 JUMPI PUSH1 0x20 SWAP1 DUP2 PUSH1 0x3 NOT CALLDATASIZE ADD SLT PUSH2 0x422 JUMPI PUSH1 0xD SLOAD PUSH1 0x1 PUSH1 0x1 PUSH1 0xA0 SHL SUB AND DUP1 ISZERO PUSH2 0x12B4 JUMPI DUP3 DUP3 SWAP2 PUSH1 0x24 PUSH1 0x40 MLOAD DUP1 SWAP5 DUP2 SWAP4 PUSH4 0x149FBA6D PUSH1 0xE3 SHL DUP4 MSTORE PUSH1 0x4 CALLDATALOAD PUSH1 0x4 DUP5 ADD MSTORE GAS CALL SWAP2 DUP3 ISZERO PUSH2 0x1071 JUMPI SWAP2 PUSH2 0x1287 JUMPI JUMPDEST POP PUSH1 0x40 MLOAD SWAP1 DUP2 MSTORE RETURN JUMPDEST SWAP1 POP DUP2 DUP2 DUP2 RETURNDATASIZE DUP4 GT PUSH2 0x12AD JUMPI JUMPDEST PUSH2 0x129E DUP2 DUP4 PUSH2 0x2759 JUMP JUMPDEST DUP2 ADD SUB SLT PUSH2 0x1064 JUMPI MLOAD CODESIZE PUSH2 0x127E JUMP JUMPDEST POP RETURNDATASIZE PUSH2 0x1294 JUMP JUMPDEST PUSH1 0x40 MLOAD PUSH3 0x461BCD PUSH1 0xE5 SHL DUP2 MSTORE PUSH1 0x4 DUP2 ADD DUP5 SWAP1 MSTORE PUSH1 0x14 PUSH1 0x24 DUP3 ADD MSTORE PUSH20 0x141C9A58D9481BDC9858DB19481B9BDD081CD95D PUSH1 0x62 SHL PUSH1 0x44 DUP3 ADD MSTORE PUSH1 0x64 SWAP1 REVERT JUMPDEST POP CALLVALUE PUSH2 0x422 JUMPI DUP1 PUSH1 0x3 NOT CALLDATASIZE ADD SLT PUSH2 0x422 JUMPI PUSH1 0x20 PUSH1 0x40 MLOAD PUSH32 0xED49E6E204153E12A484763DDE9D7B8B19D4BE20E3BDB7FEFB9DEC0A08F5186 DUP2 MSTORE RETURN JUMPDEST POP CALLVALUE PUSH2 0x422 JUMPI PUSH1 0x40 CALLDATASIZE PUSH1 0x3 NOT ADD SLT PUSH2 0x422 JUMPI PUSH2 0x1345 PUSH2 0x26B2 JUMP JUMPDEST PUSH1 0x1 PUSH1 0x1 PUSH1 0xA0 SHL SUB AND DUP2 MSTORE PUSH1 0x6 PUSH1 0x20 MSTORE PUSH1 0x40 DUP2 KECCAK256 DUP1 SLOAD PUSH1 0x24 CALLDATALOAD SWAP3 SWAP1 DUP4 LT ISZERO PUSH2 0x422 JUMPI PUSH1 0x20 PUSH2 0xF8E DUP5 DUP5 PUSH2 0x26DE JUMP JUMPDEST POP CALLVALUE PUSH2 0x422 JUMPI DUP1 PUSH1 0x3 NOT CALLDATASIZE ADD SLT PUSH2 0x422 JUMPI PUSH1 0x20 PUSH1 0xFF PUSH1 0x2 SLOAD AND PUSH1 0x40 MLOAD SWAP1 ISZERO ISZERO DUP2 MSTORE RETURN JUMPDEST POP CALLVALUE PUSH2 0x422 JUMPI DUP1 PUSH1 0x3 NOT CALLDATASIZE ADD SLT PUSH2 0x422 JUMPI PUSH1 0x20 PUSH1 0x40 MLOAD PUSH1 0xA DUP2 MSTORE RETURN JUMPDEST POP CALLVALUE PUSH2 0x422 JUMPI DUP1 PUSH1 0x3 NOT CALLDATASIZE ADD SLT PUSH2 0x422 JUMPI PUSH1 0x9 SLOAD PUSH1 0x40 MLOAD PUSH1 0x1 PUSH1 0x1 PUSH1 0xA0 SHL SUB SWAP1 SWAP2 AND DUP2 MSTORE PUSH1 0x20 SWAP1 RETURN JUMPDEST POP CALLVALUE PUSH2 0x422 JUMPI PUSH1 0x40 CALLDATASIZE PUSH1 0x3 NOT ADD SLT PUSH2 0x422 JUMPI PUSH1 0xE SLOAD PUSH1 0x44 SWAP2 SWAP1 PUSH1 0x20 SWAP1 PUSH1 0x1 PUSH1 0x1 PUSH1 0xA0 SHL SUB AND PUSH2 0x140B DUP2 ISZERO ISZERO PUSH2 0x2EA9 JUMP JUMPDEST PUSH1 0x40 MLOAD SWAP4 DUP5 DUP1 SWAP3 PUSH4 0x73A70C95 PUSH1 0xE0 SHL DUP3 MSTORE PUSH1 0x4 CALLDATALOAD PUSH1 0x4 DUP4 ADD MSTORE PUSH1 0x24 CALLDATALOAD PUSH1 0x24 DUP4 ADD MSTORE GAS STATICCALL SWAP1 DUP2 ISZERO PUSH2 0x1071 JUMPI DUP1 SWAP2 PUSH2 0x1449 JUMPI JUMPDEST PUSH1 0x20 DUP3 PUSH1 0x40 MLOAD SWAP1 ISZERO ISZERO DUP2 MSTORE RETURN JUMPDEST SWAP1 POP PUSH1 0x20 DUP3 RETURNDATASIZE DUP3 GT PUSH2 0x147D JUMPI JUMPDEST DUP2 PUSH2 0x1463 PUSH1 0x20 SWAP4 DUP4 PUSH2 0x2759 JUMP JUMPDEST DUP2 ADD SUB SLT PUSH2 0x422 JUMPI POP PUSH2 0x1477 PUSH1 0x20 SWAP2 PUSH2 0x2E63 JUMP JUMPDEST CODESIZE PUSH2 0x143C JUMP JUMPDEST RETURNDATASIZE SWAP2 POP PUSH2 0x1456 JUMP JUMPDEST POP CALLVALUE PUSH2 0x422 JUMPI PUSH1 0x20 CALLDATASIZE PUSH1 0x3 NOT ADD SLT PUSH2 0x422 JUMPI PUSH2 0x149F PUSH2 0x26B2 JUMP JUMPDEST PUSH2 0x14A7 PUSH2 0x2907 JUMP JUMPDEST PUSH1 0x1 PUSH1 0x1 PUSH1 0xA0 SHL SUB AND PUSH2 0x14BB DUP2 ISZERO ISZERO PUSH2 0x2EEE JUMP JUMPDEST PUSH1 0x1 PUSH1 0x1 PUSH1 0x60 SHL SUB PUSH1 0xA0 SHL PUSH1 0xD SLOAD AND OR PUSH1 0xD SSTORE DUP1 RETURN JUMPDEST POP CALLVALUE PUSH2 0x422 JUMPI PUSH1 0x20 DUP1 PUSH1 0x3 NOT CALLDATASIZE ADD SLT PUSH2 0x3D8 JUMPI PUSH1 0x1 PUSH1 0x1 PUSH1 0xA0 SHL SUB PUSH2 0x14F4 PUSH2 0x26B2 JUMP JUMPDEST AND DUP3 MSTORE PUSH1 0x6 DUP2 MSTORE PUSH1 0x40 DUP3 KECCAK256 SWAP2 PUSH1 0x40 MLOAD DUP1 SWAP3 DUP1 DUP6 SLOAD SWAP3 DUP4 DUP2 MSTORE ADD SWAP5 DUP4 MSTORE DUP1 DUP4 KECCAK256 SWAP3 SWAP1 JUMPDEST DUP3 DUP3 LT PUSH2 0x152D JUMPI PUSH2 0x11D5 DUP6 PUSH2 0x11C9 DUP2 DUP10 SUB DUP3 PUSH2 0x2759 JUMP JUMPDEST DUP4 SLOAD DUP7 MSTORE SWAP5 DUP6 ADD SWAP5 PUSH1 0x1 SWAP4 DUP5 ADD SWAP4 SWAP1 SWAP2 ADD SWAP1 PUSH2 0x1516 JUMP JUMPDEST POP CALLVALUE PUSH2 0x422 JUMPI DUP1 PUSH1 0x3 NOT CALLDATASIZE ADD SLT PUSH2 0x422 JUMPI PUSH1 0x20 PUSH1 0x40 MLOAD PUSH32 0xC2CB5479D14CFA18E53B560BFEA0D9D05EFFC64C2108615D5A1B26E7756A206C DUP2 MSTORE RETURN JUMPDEST POP CALLVALUE PUSH2 0x422 JUMPI PUSH1 0x20 DUP1 PUSH1 0x3 NOT CALLDATASIZE ADD SLT PUSH2 0x3D8 JUMPI PUSH1 0x4 CALLDATALOAD SWAP1 PUSH2 0x159E PUSH2 0x2D8D JUMP JUMPDEST PUSH32 0xC2CB5479D14CFA18E53B560BFEA0D9D05EFFC64C2108615D5A1B26E7756A206C DUP1 PUSH1 0x0 MSTORE PUSH1 0x0 DUP3 MSTORE PUSH1 0x40 PUSH1 0x0 KECCAK256 CALLER PUSH1 0x0 MSTORE DUP3 MSTORE PUSH1 0xFF PUSH1 0x40 PUSH1 0x0 KECCAK256 SLOAD AND ISZERO PUSH2 0x168B JUMPI POP DUP2 DUP4 MSTORE PUSH1 0x4 DUP2 MSTORE PUSH1 0x40 DUP4 KECCAK256 SWAP1 CALLER PUSH1 0x1 DUP1 PUSH1 0xA0 SHL SUB PUSH1 0x2 DUP5 ADD SLOAD AND SUB PUSH2 0x1650 JUMPI POP PUSH1 0x8 ADD DUP1 SLOAD PUSH1 0xFF DUP2 AND PUSH1 0x6 DUP2 LT ISZERO PUSH2 0x5C5 JUMPI SWAP1 PUSH2 0x1620 PUSH1 0x1 SWAP3 ISZERO PUSH2 0x2E27 JUMP JUMPDEST PUSH1 0xFF NOT AND OR SWAP1 SSTORE CALLER SWAP1 PUSH32 0xDF416C9F8F1EE29CCA4D03A1E8ADF858A49C550A3E222A6C9EFD293E868F1792 DUP4 DUP1 LOG3 DUP1 RETURN JUMPDEST PUSH1 0x64 SWAP1 PUSH1 0x40 MLOAD SWAP1 PUSH3 0x461BCD PUSH1 0xE5 SHL DUP3 MSTORE PUSH1 0x4 DUP3 ADD MSTORE PUSH1 0x14 PUSH1 0x24 DUP3 ADD MSTORE PUSH20 0x139BDD081BDC99195C881C995CDD185D5C985B9D PUSH1 0x62 SHL PUSH1 0x44 DUP3 ADD MSTORE REVERT JUMPDEST SWAP1 PUSH2 0x1695 CALLER PUSH2 0x2C44 JUMP JUMPDEST SWAP2 PUSH1 0x40 MLOAD PUSH2 0x16A2 DUP2 PUSH2 0x273D JUMP JUMPDEST PUSH1 0x42 DUP2 MSTORE DUP3 DUP2 ADD SWAP2 PUSH1 0x60 CALLDATASIZE DUP5 CALLDATACOPY DUP2 MLOAD ISZERO PUSH2 0x79A JUMPI PUSH1 0x30 DUP4 MSTORE8 DUP2 MLOAD PUSH1 0x1 SWAP1 DUP2 LT ISZERO PUSH2 0x79A JUMPI PUSH1 0x78 PUSH1 0x21 DUP5 ADD MSTORE8 PUSH1 0x41 SWAP1 JUMPDEST DUP1 DUP3 GT PUSH2 0x1715 JUMPI POP POP PUSH2 0x6FD JUMPI PUSH2 0x6C9 SWAP4 PUSH2 0x6D8 SWAP3 PUSH1 0x48 SWAP3 PUSH1 0x40 MLOAD SWAP7 DUP8 SWAP4 PUSH1 0x0 DUP1 MLOAD PUSH1 0x20 PUSH2 0x2F2C DUP4 CODECOPY DUP2 MLOAD SWAP2 MSTORE DUP9 DUP7 ADD MSTORE PUSH2 0x6A0 DUP2 MLOAD DUP1 SWAP3 DUP11 PUSH1 0x37 DUP10 ADD SWAP2 ADD PUSH2 0x28BF JUMP JUMPDEST SWAP1 SWAP2 PUSH1 0xF DUP2 AND PUSH1 0x10 DUP2 LT ISZERO PUSH2 0x79A JUMPI PUSH16 0x181899199A1A9B1B9C1CB0B131B232B3 PUSH1 0x81 SHL SWAP1 BYTE PUSH2 0x1744 DUP5 DUP7 PUSH2 0x2C33 JUMP JUMPDEST MSTORE8 PUSH1 0x4 SHR SWAP2 DUP1 ISZERO PUSH2 0x784 JUMPI PUSH1 0x0 NOT ADD SWAP1 PUSH2 0x16D1 JUMP JUMPDEST POP CALLVALUE PUSH2 0x422 JUMPI PUSH1 0x20 DUP1 PUSH1 0x3 NOT CALLDATASIZE ADD SLT PUSH2 0x3D8 JUMPI PUSH1 0x1 PUSH1 0x1 PUSH1 0xA0 SHL SUB PUSH2 0x177C PUSH2 0x26B2 JUMP JUMPDEST AND DUP3 MSTORE PUSH1 0x5 DUP2 MSTORE PUSH1 0x40 DUP3 KECCAK256 SWAP2 PUSH1 0x40 MLOAD DUP1 SWAP3 DUP1 DUP6 SLOAD SWAP3 DUP4 DUP2 MSTORE ADD SWAP5 DUP4 MSTORE DUP1 DUP4 KECCAK256 SWAP3 SWAP1 JUMPDEST DUP3 DUP3 LT PUSH2 0x17B5 JUMPI PUSH2 0x11D5 DUP6 PUSH2 0x11C9 DUP2 DUP10 SUB DUP3 PUSH2 0x2759 JUMP JUMPDEST DUP4 SLOAD DUP7 MSTORE SWAP5 DUP6 ADD SWAP5 PUSH1 0x1 SWAP4 DUP5 ADD SWAP4 SWAP1 SWAP2 ADD SWAP1 PUSH2 0x179E JUMP JUMPDEST POP PUSH1 0x80 CALLDATASIZE PUSH1 0x3 NOT ADD SLT PUSH2 0x422 JUMPI PUSH2 0x17E1 PUSH2 0x26B2 JUMP JUMPDEST SWAP1 PUSH1 0x64 CALLDATALOAD SWAP1 PUSH8 0xFFFFFFFFFFFFFFFF DUP3 GT PUSH2 0x422 JUMPI CALLDATASIZE PUSH1 0x23 DUP4 ADD SLT ISZERO PUSH2 0x422 JUMPI DUP2 PUSH1 0x4 ADD CALLDATALOAD PUSH2 0x180E DUP2 PUSH2 0x277B JUMP JUMPDEST SWAP3 PUSH2 0x181C PUSH1 0x40 MLOAD SWAP5 DUP6 PUSH2 0x2759 JUMP JUMPDEST DUP2 DUP5 MSTORE CALLDATASIZE PUSH1 0x24 DUP4 DUP4 ADD ADD GT PUSH2 0x10D2 JUMPI DUP2 DUP4 SWAP3 PUSH1 0x24 PUSH1 0x20 SWAP4 ADD DUP4 DUP8 ADD CALLDATACOPY DUP5 ADD ADD MSTORE PUSH2 0x1844 PUSH2 0x2DD1 JUMP JUMPDEST PUSH2 0x184C PUSH2 0x2D8D JUMP JUMPDEST PUSH32 0xC2CB5479D14CFA18E53B560BFEA0D9D05EFFC64C2108615D5A1B26E7756A206C DUP2 MSTORE PUSH1 0x20 DUP2 DUP2 MSTORE PUSH1 0x40 DUP1 DUP4 KECCAK256 PUSH1 0x1 PUSH1 0x1 PUSH1 0xA0 SHL SUB DUP7 AND PUSH1 0x0 SWAP1 DUP2 MSTORE SWAP3 MSTORE SWAP1 KECCAK256 SLOAD PUSH1 0xFF AND ISZERO PUSH2 0x1C59 JUMPI PUSH1 0xA PUSH1 0x24 CALLDATALOAD MUL SWAP3 PUSH1 0x24 CALLDATALOAD DUP5 DIV PUSH1 0xA EQ PUSH1 0x24 CALLDATALOAD ISZERO OR ISZERO PUSH2 0x1C0D JUMPI PUSH2 0x18C8 PUSH1 0x64 DUP6 DIV PUSH2 0x18C3 PUSH1 0x44 CALLDATALOAD PUSH1 0x24 CALLDATALOAD PUSH2 0x2C26 JUMP JUMPDEST PUSH2 0x2C26 JUMP JUMPDEST SWAP2 DUP3 CALLVALUE SUB PUSH2 0x1C21 JUMPI PUSH1 0x3 SLOAD SWAP4 PUSH1 0x0 NOT DUP6 EQ PUSH2 0x1C0D JUMPI PUSH1 0x1 DUP6 ADD PUSH1 0x3 SSTORE PUSH1 0x64 PUSH1 0x40 MLOAD SWAP7 PUSH2 0x18F3 DUP9 PUSH2 0x2720 JUMP JUMPDEST PUSH1 0x1 DUP8 ADD DUP9 MSTORE CALLER PUSH1 0x20 DUP10 ADD MSTORE PUSH1 0x1 DUP1 PUSH1 0xA0 SHL SUB DUP6 AND PUSH1 0x40 DUP10 ADD MSTORE DUP4 PUSH1 0x60 DUP10 ADD MSTORE PUSH1 0x24 CALLDATALOAD PUSH1 0x80 DUP10 ADD MSTORE PUSH1 0x44 CALLDATALOAD PUSH1 0xA0 DUP10 ADD MSTORE DIV PUSH1 0xC0 DUP8 ADD MSTORE DUP4 PUSH1 0xE0 DUP8 ADD MSTORE DUP2 PUSH2 0x100 DUP8 ADD MSTORE PUSH2 0x120 DUP7 ADD MSTORE TIMESTAMP PUSH2 0x140 DUP7 ADD MSTORE DUP1 PUSH2 0x160 DUP7 ADD MSTORE DUP1 PUSH2 0x180 DUP7 ADD MSTORE PUSH1 0x1 DUP5 ADD DUP2 MSTORE PUSH1 0x4 PUSH1 0x20 MSTORE PUSH1 0x40 DUP2 KECCAK256 SWAP5 DUP1 MLOAD DUP7 SSTORE PUSH1 0x1 DUP7 ADD PUSH1 0x1 DUP1 PUSH1 0xA0 SHL SUB PUSH1 0x20 DUP4 ADD MLOAD AND SWAP1 PUSH1 0x1 PUSH1 0x1 PUSH1 0x60 SHL SUB PUSH1 0xA0 SHL SWAP2 DUP3 DUP3 SLOAD AND OR SWAP1 SSTORE PUSH1 0x2 DUP8 ADD PUSH1 0x1 DUP1 PUSH1 0xA0 SHL SUB PUSH1 0x40 DUP5 ADD MLOAD AND DUP3 DUP3 SLOAD AND OR SWAP1 SSTORE PUSH1 0x3 DUP8 ADD SWAP1 PUSH1 0x1 DUP1 PUSH1 0xA0 SHL SUB PUSH1 0x60 DUP5 ADD MLOAD AND SWAP1 DUP3 SLOAD AND OR SWAP1 SSTORE PUSH1 0x80 DUP2 ADD MLOAD PUSH1 0x4 DUP8 ADD SSTORE PUSH1 0xA0 DUP2 ADD MLOAD PUSH1 0x5 DUP8 ADD SSTORE PUSH1 0xC0 DUP2 ADD MLOAD PUSH1 0x6 DUP8 ADD SSTORE PUSH1 0xE0 DUP2 ADD MLOAD PUSH1 0x7 DUP8 ADD SSTORE PUSH1 0x8 DUP7 ADD PUSH2 0x100 DUP3 ADD MLOAD PUSH1 0x6 DUP2 LT ISZERO PUSH2 0x1BF9 JUMPI PUSH1 0xFF DUP1 NOT DUP4 SLOAD AND SWAP2 AND OR SWAP1 SSTORE PUSH2 0x120 DUP2 ADD MLOAD SWAP6 DUP7 MLOAD PUSH8 0xFFFFFFFFFFFFFFFF DUP2 GT PUSH2 0x1BE5 JUMPI PUSH2 0x1A27 PUSH1 0x9 DUP4 ADD SLOAD PUSH2 0x27D2 JUMP JUMPDEST SWAP8 PUSH1 0x1F DUP10 GT PUSH2 0x1BA0 JUMPI JUMPDEST PUSH1 0x20 SWAP9 POP DUP9 SWAP1 PUSH1 0x1F DUP4 GT PUSH1 0x1 EQ PUSH2 0x1B2D JUMPI SWAP2 DUP1 DUP7 SWAP6 SWAP5 SWAP3 PUSH1 0xB SWAP5 PUSH2 0x1AD7 SWAP9 SWAP3 PUSH2 0x1B22 JUMPI JUMPDEST POP POP DUP2 PUSH1 0x1 SHL SWAP2 PUSH1 0x0 NOT SWAP1 PUSH1 0x3 SHL SHR NOT AND OR PUSH1 0x9 DUP3 ADD SSTORE JUMPDEST PUSH2 0x140 DUP4 ADD MLOAD PUSH1 0xA DUP3 ADD SSTORE ADD SWAP1 PUSH2 0x160 DUP2 ADD MLOAD ISZERO ISZERO SWAP1 PUSH1 0xFF PUSH2 0xFF00 PUSH2 0x180 DUP6 SLOAD SWAP4 ADD MLOAD ISZERO ISZERO PUSH1 0x8 SHL AND SWAP3 AND SWAP1 PUSH2 0xFFFF NOT AND OR OR SWAP1 SSTORE CALLER DUP2 MSTORE PUSH1 0x5 DUP7 MSTORE PUSH2 0x1AB9 PUSH1 0x1 DUP7 ADD PUSH1 0x40 DUP4 KECCAK256 PUSH2 0x2D53 JUMP JUMPDEST PUSH1 0x1 PUSH1 0x1 PUSH1 0xA0 SHL SUB DUP4 AND DUP2 MSTORE PUSH1 0x6 DUP7 MSTORE PUSH1 0x40 SWAP1 KECCAK256 PUSH1 0x1 DUP6 ADD SWAP1 PUSH2 0x2D53 JUMP JUMPDEST PUSH1 0x40 MLOAD SWAP2 DUP3 MSTORE PUSH1 0x1 PUSH1 0x1 PUSH1 0xA0 SHL SUB AND SWAP1 CALLER SWAP1 PUSH1 0x1 DUP5 ADD SWAP1 PUSH32 0xF9E17940E547201709F9AAACDEC8AB3566601C60D8F5AFFB54F74B79B0B50B13 SWAP1 DUP7 SWAP1 LOG4 PUSH1 0x1 DUP1 SSTORE PUSH1 0x1 PUSH1 0x40 MLOAD SWAP2 ADD DUP2 MSTORE RETURN JUMPDEST ADD MLOAD SWAP1 POP CODESIZE DUP1 PUSH2 0x1A55 JUMP JUMPDEST SWAP1 PUSH1 0x9 DUP5 ADD DUP7 MSTORE DUP10 DUP7 KECCAK256 SWAP2 DUP7 JUMPDEST PUSH1 0x1F NOT DUP6 AND DUP2 LT PUSH2 0x1B89 JUMPI POP SWAP3 PUSH2 0x1AD7 SWAP7 SWAP6 SWAP5 SWAP3 PUSH1 0x1 SWAP3 PUSH1 0xB SWAP6 DUP4 PUSH1 0x1F NOT DUP2 AND LT PUSH2 0x1B70 JUMPI JUMPDEST POP POP POP DUP2 SHL ADD PUSH1 0x9 DUP3 ADD SSTORE PUSH2 0x1A6D JUMP JUMPDEST ADD MLOAD PUSH1 0x0 NOT PUSH1 0xF8 DUP5 PUSH1 0x3 SHL AND SHR NOT AND SWAP1 SSTORE CODESIZE DUP1 DUP1 PUSH2 0x1B60 JUMP JUMPDEST SWAP2 SWAP3 DUP12 PUSH1 0x1 DUP2 SWAP3 DUP7 DUP6 ADD MLOAD DUP2 SSTORE ADD SWAP5 ADD SWAP3 ADD PUSH2 0x1B3A JUMP JUMPDEST PUSH1 0x9 DUP4 ADD DUP6 MSTORE PUSH1 0x20 DUP6 KECCAK256 PUSH1 0x1F DUP4 ADD PUSH1 0x5 SHR DUP2 ADD PUSH1 0x20 DUP5 LT PUSH2 0x1BDE JUMPI JUMPDEST PUSH1 0x1F DUP12 ADD PUSH1 0x5 SHR DUP3 ADD DUP2 LT PUSH2 0x1BD2 JUMPI POP POP PUSH2 0x1A31 JUMP JUMPDEST PUSH1 0x0 DUP2 SSTORE PUSH1 0x1 ADD PUSH2 0x1BBC JUMP JUMPDEST POP DUP1 PUSH2 0x1BBC JUMP JUMPDEST PUSH4 0x4E487B71 PUSH1 0xE0 SHL DUP5 MSTORE PUSH1 0x41 PUSH1 0x4 MSTORE PUSH1 0x24 DUP5 REVERT JUMPDEST PUSH4 0x4E487B71 PUSH1 0xE0 SHL DUP5 MSTORE PUSH1 0x21 PUSH1 0x4 MSTORE PUSH1 0x24 DUP5 REVERT JUMPDEST PUSH4 0x4E487B71 PUSH1 0xE0 SHL DUP3 MSTORE PUSH1 0x11 PUSH1 0x4 MSTORE PUSH1 0x24 DUP3 REVERT JUMPDEST PUSH1 0x40 MLOAD PUSH3 0x461BCD PUSH1 0xE5 SHL DUP2 MSTORE PUSH1 0x20 PUSH1 0x4 DUP3 ADD MSTORE PUSH1 0x10 PUSH1 0x24 DUP3 ADD MSTORE PUSH16 0xA0C2F2DACADCE840DAD2E6DAC2E8C6D PUSH1 0x83 SHL PUSH1 0x44 DUP3 ADD MSTORE PUSH1 0x64 SWAP1 REVERT JUMPDEST PUSH1 0x40 MLOAD PUSH3 0x461BCD PUSH1 0xE5 SHL DUP2 MSTORE PUSH1 0x20 PUSH1 0x4 DUP3 ADD MSTORE PUSH1 0xE PUSH1 0x24 DUP3 ADD MSTORE PUSH14 0x139BDD081C995CDD185D5C985B9D PUSH1 0x92 SHL PUSH1 0x44 DUP3 ADD MSTORE PUSH1 0x64 SWAP1 REVERT JUMPDEST POP CALLVALUE PUSH2 0x422 JUMPI PUSH1 0x40 CALLDATASIZE PUSH1 0x3 NOT ADD SLT PUSH2 0x422 JUMPI PUSH2 0x1CA9 PUSH2 0x26B2 JUMP JUMPDEST PUSH1 0x1 PUSH1 0x1 PUSH1 0xA0 SHL SUB AND DUP2 MSTORE PUSH1 0x7 PUSH1 0x20 MSTORE PUSH1 0x40 DUP2 KECCAK256 DUP1 SLOAD PUSH1 0x24 CALLDATALOAD SWAP3 SWAP1 DUP4 LT ISZERO PUSH2 0x422 JUMPI PUSH1 0x20 PUSH2 0xF8E DUP5 DUP5 PUSH2 0x26DE JUMP JUMPDEST POP CALLVALUE PUSH2 0x422 JUMPI PUSH1 0x40 CALLDATASIZE PUSH1 0x3 NOT ADD SLT PUSH2 0x422 JUMPI PUSH1 0x4 CALLDATALOAD PUSH2 0x1CF4 PUSH2 0x26C8 JUMP JUMPDEST SWAP1 PUSH2 0x1CFD PUSH2 0x2D8D JUMP JUMPDEST CALLER PUSH1 0x0 SWAP1 DUP2 MSTORE PUSH31 0x4137AC999875A62B0381E65F8832C0A903CF25418DD0C40107411AA55DC687 PUSH1 0x20 SWAP1 DUP2 MSTORE PUSH1 0x40 SWAP1 SWAP2 KECCAK256 SLOAD PUSH32 0x797343F8D6A29AAFEB3AAF0910A8973E0081C60C2F6C1F775CD9F76EA348FC1E SWAP1 PUSH1 0xFF AND ISZERO PUSH2 0x1F1E JUMPI POP DUP2 DUP5 MSTORE PUSH1 0x4 DUP2 MSTORE PUSH1 0x40 DUP5 KECCAK256 PUSH1 0x1 DUP1 PUSH1 0xA0 SHL SUB DUP1 SWAP5 AND SWAP4 PUSH32 0xED49E6E204153E12A484763DDE9D7B8B19D4BE20E3BDB7FEFB9DEC0A08F5186 DUP7 MSTORE DUP6 DUP4 MSTORE PUSH1 0x40 DUP7 KECCAK256 DUP6 PUSH1 0x0 MSTORE DUP4 MSTORE PUSH1 0xFF PUSH1 0x40 PUSH1 0x0 KECCAK256 SLOAD AND ISZERO PUSH2 0x1EE9 JUMPI DUP3 PUSH1 0x24 SWAP2 PUSH1 0xA SLOAD AND PUSH1 0x40 MLOAD SWAP3 DUP4 DUP1 SWAP3 PUSH4 0xC2EFFA3 PUSH1 0xE3 SHL DUP3 MSTORE DUP10 PUSH1 0x4 DUP4 ADD MSTORE GAS STATICCALL SWAP1 DUP2 ISZERO PUSH2 0x1EDE JUMPI DUP7 SWAP2 PUSH2 0x1EA5 JUMPI JUMPDEST POP ISZERO PUSH2 0x1E73 JUMPI PUSH1 0x8 DUP2 ADD SWAP1 DUP2 SLOAD SWAP1 PUSH1 0xFF DUP3 AND PUSH1 0x6 DUP2 LT ISZERO PUSH2 0x1E5F JUMPI SWAP2 PUSH1 0x3 PUSH1 0x2 SWAP3 PUSH2 0x1E0D PUSH1 0x1 PUSH1 0x7 SWAP9 SWAP8 SWAP7 EQ PUSH2 0x2E27 JUMP JUMPDEST ADD DUP1 SLOAD PUSH1 0x1 PUSH1 0x1 PUSH1 0xA0 SHL SUB NOT AND DUP9 OR SWAP1 SSTORE PUSH1 0xFF NOT AND OR SWAP1 SSTORE DUP4 DUP6 MSTORE MSTORE PUSH1 0x40 DUP4 KECCAK256 PUSH2 0x1E38 SWAP1 DUP3 SWAP1 PUSH2 0x2D53 JUMP JUMPDEST PUSH32 0x1A2B7C51D6C4DDC1E23B7D2BE28C6650C749C873214A7B408242F74577C5DEDF DUP4 DUP1 LOG3 DUP1 RETURN JUMPDEST PUSH4 0x4E487B71 PUSH1 0xE0 SHL DUP9 MSTORE PUSH1 0x21 PUSH1 0x4 MSTORE PUSH1 0x24 DUP9 REVERT JUMPDEST PUSH1 0x40 MLOAD PUSH3 0x461BCD PUSH1 0xE5 SHL DUP2 MSTORE PUSH1 0x4 DUP2 ADD DUP4 SWAP1 MSTORE PUSH1 0xA PUSH1 0x24 DUP3 ADD MSTORE PUSH10 0x139BDD081CDD185AD959 PUSH1 0xB2 SHL PUSH1 0x44 DUP3 ADD MSTORE PUSH1 0x64 SWAP1 REVERT JUMPDEST SWAP1 POP DUP3 DUP2 DUP2 RETURNDATASIZE DUP4 GT PUSH2 0x1ED7 JUMPI JUMPDEST PUSH2 0x1EBC DUP2 DUP4 PUSH2 0x2759 JUMP JUMPDEST DUP2 ADD SUB SLT PUSH2 0x1ED3 JUMPI PUSH2 0x1ECD SWAP1 PUSH2 0x2E63 JUMP JUMPDEST CODESIZE PUSH2 0x1DDC JUMP JUMPDEST DUP6 DUP1 REVERT JUMPDEST POP RETURNDATASIZE PUSH2 0x1EB2 JUMP JUMPDEST PUSH1 0x40 MLOAD RETURNDATASIZE DUP9 DUP3 RETURNDATACOPY RETURNDATASIZE SWAP1 REVERT JUMPDEST PUSH1 0x40 MLOAD PUSH3 0x461BCD PUSH1 0xE5 SHL DUP2 MSTORE PUSH1 0x4 DUP2 ADD DUP5 SWAP1 MSTORE PUSH1 0xD PUSH1 0x24 DUP3 ADD MSTORE PUSH13 0x2737BA103232B634BB32B932B9 PUSH1 0x99 SHL PUSH1 0x44 DUP3 ADD MSTORE PUSH1 0x64 SWAP1 REVERT JUMPDEST SWAP1 PUSH2 0x1F28 CALLER PUSH2 0x2C44 JUMP JUMPDEST SWAP2 PUSH1 0x40 MLOAD PUSH2 0x1F35 DUP2 PUSH2 0x273D JUMP JUMPDEST PUSH1 0x42 DUP2 MSTORE DUP3 DUP2 ADD SWAP2 PUSH1 0x60 CALLDATASIZE DUP5 CALLDATACOPY DUP2 MLOAD ISZERO PUSH2 0x79A JUMPI PUSH1 0x30 DUP4 MSTORE8 DUP2 MLOAD PUSH1 0x1 SWAP1 DUP2 LT ISZERO PUSH2 0x79A JUMPI PUSH1 0x78 PUSH1 0x21 DUP5 ADD MSTORE8 PUSH1 0x41 SWAP1 JUMPDEST DUP1 DUP3 GT PUSH2 0x1FA8 JUMPI POP POP PUSH2 0x6FD JUMPI PUSH2 0x6C9 SWAP4 PUSH2 0x6D8 SWAP3 PUSH1 0x48 SWAP3 PUSH1 0x40 MLOAD SWAP7 DUP8 SWAP4 PUSH1 0x0 DUP1 MLOAD PUSH1 0x20 PUSH2 0x2F2C DUP4 CODECOPY DUP2 MLOAD SWAP2 MSTORE DUP9 DUP7 ADD MSTORE PUSH2 0x6A0 DUP2 MLOAD DUP1 SWAP3 DUP11 PUSH1 0x37 DUP10 ADD SWAP2 ADD PUSH2 0x28BF JUMP JUMPDEST SWAP1 SWAP2 PUSH1 0xF DUP2 AND PUSH1 0x10 DUP2 LT ISZERO PUSH2 0x79A JUMPI PUSH16 0x181899199A1A9B1B9C1CB0B131B232B3 PUSH1 0x81 SHL SWAP1 BYTE PUSH2 0x1FD7 DUP5 DUP7 PUSH2 0x2C33 JUMP JUMPDEST MSTORE8 PUSH1 0x4 SHR SWAP2 DUP1 ISZERO PUSH2 0x784 JUMPI PUSH1 0x0 NOT ADD SWAP1 PUSH2 0x1F64 JUMP JUMPDEST POP CALLVALUE PUSH2 0x422 JUMPI DUP1 PUSH1 0x3 NOT CALLDATASIZE ADD SLT PUSH2 0x422 JUMPI PUSH2 0x2005 PUSH2 0x2907 JUMP JUMPDEST PUSH1 0x2 SLOAD PUSH1 0xFF DUP2 AND ISZERO PUSH2 0x2045 JUMPI PUSH1 0xFF NOT AND PUSH1 0x2 SSTORE PUSH32 0x5DB9EE0A495BF2E6FF9C91A7834C1BA4FDD244A5E8AA4E537BD38AEAE4B073AA PUSH1 0x20 PUSH1 0x40 MLOAD CALLER DUP2 MSTORE LOG1 DUP1 RETURN JUMPDEST PUSH1 0x40 MLOAD PUSH3 0x461BCD PUSH1 0xE5 SHL DUP2 MSTORE PUSH1 0x20 PUSH1 0x4 DUP3 ADD MSTORE PUSH1 0x14 PUSH1 0x24 DUP3 ADD MSTORE PUSH20 0x14185D5CD8589B194E881B9BDD081C185D5CD959 PUSH1 0x62 SHL PUSH1 0x44 DUP3 ADD MSTORE PUSH1 0x64 SWAP1 REVERT JUMPDEST POP CALLVALUE PUSH2 0x422 JUMPI PUSH1 0x40 CALLDATASIZE PUSH1 0x3 NOT ADD SLT PUSH2 0x422 JUMPI PUSH2 0x209B PUSH2 0x26C8 JUMP JUMPDEST CALLER PUSH1 0x1 PUSH1 0x1 PUSH1 0xA0 SHL SUB DUP3 AND SUB PUSH2 0x20B7 JUMPI PUSH2 0x4EF SWAP1 PUSH1 0x4 CALLDATALOAD PUSH2 0x2BB2 JUMP JUMPDEST PUSH1 0x40 MLOAD PUSH3 0x461BCD PUSH1 0xE5 SHL DUP2 MSTORE PUSH1 0x20 PUSH1 0x4 DUP3 ADD MSTORE PUSH1 0x2F PUSH1 0x24 DUP3 ADD MSTORE PUSH32 0x416363657373436F6E74726F6C3A2063616E206F6E6C792072656E6F756E6365 PUSH1 0x44 DUP3 ADD MSTORE PUSH15 0x103937B632B9903337B91039B2B633 PUSH1 0x89 SHL PUSH1 0x64 DUP3 ADD MSTORE PUSH1 0x84 SWAP1 REVERT JUMPDEST POP CALLVALUE PUSH2 0x422 JUMPI PUSH1 0x40 CALLDATASIZE PUSH1 0x3 NOT ADD SLT PUSH2 0x422 JUMPI PUSH1 0x4 CALLDATALOAD PUSH2 0x2131 PUSH2 0x26C8 JUMP JUMPDEST DUP2 DUP4 MSTORE DUP3 PUSH1 0x20 MSTORE PUSH2 0x2148 PUSH1 0x1 PUSH1 0x40 DUP6 KECCAK256 ADD SLOAD PUSH2 0x2AB4 JUMP JUMPDEST DUP2 DUP4 MSTORE DUP3 PUSH1 0x20 MSTORE PUSH1 0x40 DUP4 KECCAK256 SWAP1 PUSH1 0x1 DUP1 PUSH1 0xA0 SHL SUB AND SWAP1 DUP2 PUSH1 0x0 MSTORE PUSH1 0x20 MSTORE PUSH1 0xFF PUSH1 0x40 PUSH1 0x0 KECCAK256 SLOAD AND ISZERO PUSH2 0x2176 JUMPI DUP3 DUP1 RETURN JUMPDEST DUP2 DUP4 MSTORE DUP3 PUSH1 0x20 MSTORE PUSH1 0x40 DUP4 KECCAK256 DUP2 PUSH1 0x0 MSTORE PUSH1 0x20 MSTORE PUSH1 0x40 PUSH1 0x0 KECCAK256 PUSH1 0x1 PUSH1 0xFF NOT DUP3 SLOAD AND OR SWAP1 SSTORE CALLER SWAP2 PUSH32 0x2F8788117E7EFF1D82E926EC794901D17C78024A50270940304540A733656F0D DUP5 DUP1 LOG4 CODESIZE DUP1 DUP3 DUP1 RETURN JUMPDEST POP CALLVALUE PUSH2 0x422 JUMPI DUP1 PUSH1 0x3 NOT CALLDATASIZE ADD SLT PUSH2 0x422 JUMPI PUSH1 0xC SLOAD PUSH1 0x40 MLOAD PUSH1 0x1 PUSH1 0x1 PUSH1 0xA0 SHL SUB SWAP1 SWAP2 AND DUP2 MSTORE PUSH1 0x20 SWAP1 RETURN JUMPDEST POP CALLVALUE PUSH2 0x422 JUMPI PUSH1 0x20 CALLDATASIZE PUSH1 0x3 NOT ADD SLT PUSH2 0x422 JUMPI PUSH1 0x4 CALLDATALOAD PUSH2 0x220A PUSH2 0x2D8D JUMP JUMPDEST DUP1 DUP3 MSTORE PUSH1 0x4 PUSH1 0x20 MSTORE PUSH1 0x40 DUP3 KECCAK256 PUSH1 0x1 DUP2 ADD SLOAD CALLER PUSH1 0x1 PUSH1 0x1 PUSH1 0xA0 SHL SUB SWAP2 DUP3 AND EQ SWAP1 DUP2 ISZERO PUSH2 0x2329 JUMPI JUMPDEST DUP2 ISZERO PUSH2 0x2319 JUMPI JUMPDEST POP ISZERO PUSH2 0x22E6 JUMPI PUSH1 0x8 DUP2 ADD SWAP1 DUP2 SLOAD PUSH1 0xFF DUP2 AND PUSH1 0x6 DUP2 LT ISZERO PUSH2 0x22D2 JUMPI PUSH1 0x4 EQ PUSH2 0x2299 JUMPI PUSH1 0xB PUSH1 0x5 SWAP3 ADD SWAP1 PUSH1 0xFF NOT SWAP2 PUSH1 0x1 DUP4 DUP3 SLOAD AND OR SWAP1 SSTORE AND OR SWAP1 SSTORE CALLER SWAP1 PUSH32 0x44F3C3ED15C708331582BC379D28659A58F183A563ABE41AA4C8889DB469F71C DUP4 DUP1 LOG3 DUP1 RETURN JUMPDEST PUSH1 0x40 MLOAD PUSH3 0x461BCD PUSH1 0xE5 SHL DUP2 MSTORE PUSH1 0x20 PUSH1 0x4 DUP3 ADD MSTORE PUSH1 0x11 PUSH1 0x24 DUP3 ADD MSTORE PUSH17 0x105B1C9958591E4819195B1A5D995C9959 PUSH1 0x7A SHL PUSH1 0x44 DUP3 ADD MSTORE PUSH1 0x64 SWAP1 REVERT JUMPDEST PUSH4 0x4E487B71 PUSH1 0xE0 SHL DUP7 MSTORE PUSH1 0x21 PUSH1 0x4 MSTORE PUSH1 0x24 DUP7 REVERT JUMPDEST PUSH1 0x40 MLOAD PUSH3 0x461BCD PUSH1 0xE5 SHL DUP2 MSTORE PUSH1 0x20 PUSH1 0x4 DUP3 ADD MSTORE PUSH1 0xB PUSH1 0x24 DUP3 ADD MSTORE PUSH11 0x139BDD08185B1B1BDDD959 PUSH1 0xAA SHL PUSH1 0x44 DUP3 ADD MSTORE PUSH1 0x64 SWAP1 REVERT JUMPDEST SWAP1 POP PUSH1 0x3 DUP3 ADD SLOAD AND CALLER EQ CODESIZE PUSH2 0x2237 JUMP JUMPDEST DUP1 SWAP2 POP PUSH1 0x2 DUP4 ADD SLOAD AND CALLER EQ SWAP1 PUSH2 0x2230 JUMP JUMPDEST POP CALLVALUE PUSH2 0x422 JUMPI DUP1 PUSH1 0x3 NOT CALLDATASIZE ADD SLT PUSH2 0x422 JUMPI PUSH1 0xD SLOAD PUSH1 0x40 MLOAD PUSH1 0x1 PUSH1 0x1 PUSH1 0xA0 SHL SUB SWAP1 SWAP2 AND DUP2 MSTORE PUSH1 0x20 SWAP1 RETURN JUMPDEST POP CALLVALUE PUSH2 0x422 JUMPI PUSH1 0x20 CALLDATASIZE PUSH1 0x3 NOT ADD SLT PUSH2 0x422 JUMPI PUSH1 0x1 PUSH1 0x40 PUSH1 0x20 SWAP3 PUSH1 0x4 CALLDATALOAD DUP2 MSTORE DUP1 DUP5 MSTORE KECCAK256 ADD SLOAD PUSH1 0x40 MLOAD SWAP1 DUP2 MSTORE RETURN JUMPDEST POP CALLVALUE PUSH2 0x422 JUMPI PUSH1 0x20 CALLDATASIZE PUSH1 0x3 NOT ADD SLT PUSH2 0x422 JUMPI PUSH2 0x23A9 PUSH2 0x26B2 JUMP JUMPDEST PUSH2 0x23B1 PUSH2 0x2907 JUMP JUMPDEST PUSH1 0x1 PUSH1 0x1 PUSH1 0xA0 SHL SUB AND PUSH2 0x23C5 DUP2 ISZERO ISZERO PUSH2 0x2EEE JUMP JUMPDEST PUSH1 0x1 PUSH1 0x1 PUSH1 0x60 SHL SUB PUSH1 0xA0 SHL PUSH1 0xE SLOAD AND OR PUSH1 0xE SSTORE DUP1 RETURN JUMPDEST POP CALLVALUE PUSH2 0x422 JUMPI PUSH2 0x23EA CALLDATASIZE PUSH2 0x2698 JUMP JUMPDEST PUSH2 0x23F6 SWAP4 SWAP3 SWAP2 SWAP4 PUSH2 0x2DD1 JUMP JUMPDEST PUSH2 0x23FE PUSH2 0x2D8D JUMP JUMPDEST PUSH1 0xC SLOAD PUSH1 0x1 PUSH1 0x1 PUSH1 0xA0 SHL SUB SWAP1 DUP2 AND SWAP2 DUP3 ISZERO PUSH2 0x2609 JUMPI DUP4 DUP6 MSTORE PUSH1 0x20 SWAP6 PUSH1 0x4 DUP8 MSTORE PUSH1 0x40 DUP7 KECCAK256 SWAP7 PUSH1 0x1 DUP9 ADD SWAP5 PUSH2 0x2435 DUP6 DUP8 SLOAD AND CALLER EQ PUSH2 0x2E70 JUMP JUMPDEST PUSH1 0x8 DUP10 ADD SWAP4 DUP5 SLOAD SWAP4 PUSH1 0xFF DUP6 AND PUSH1 0x6 DUP2 LT ISZERO PUSH2 0x25F5 JUMPI DUP5 SWAP3 SWAP2 PUSH2 0x245B PUSH1 0x3 PUSH1 0x64 SWAP4 EQ PUSH2 0x2E27 JUMP JUMPDEST PUSH1 0x40 MLOAD SWAP5 DUP6 SWAP4 DUP5 SWAP3 PUSH4 0x3E6C3723 PUSH1 0xE1 SHL DUP5 MSTORE DUP14 PUSH1 0x4 DUP6 ADD MSTORE PUSH1 0x24 DUP5 ADD MSTORE PUSH1 0x44 DUP4 ADD MSTORE GAS STATICCALL SWAP1 DUP2 ISZERO PUSH2 0x25EA JUMPI DUP9 SWAP2 PUSH2 0x25B1 JUMPI JUMPDEST POP ISZERO PUSH2 0x257E JUMPI POP PUSH1 0xFF NOT AND PUSH1 0x4 OR SWAP1 SSTORE PUSH1 0xB DUP6 DUP2 ADD DUP1 SLOAD PUSH2 0xFF00 NOT AND PUSH2 0x100 OR SWAP1 SSTORE PUSH1 0x8 SLOAD PUSH1 0x7 DUP8 ADD SLOAD PUSH1 0x2 DUP9 ADD SLOAD PUSH1 0x3 DUP10 ADD SLOAD SWAP4 SLOAD DUP6 AND SWAP4 SWAP3 DUP6 AND SWAP3 DUP6 AND SWAP2 SWAP1 DUP6 AND DUP4 EXTCODESIZE ISZERO PUSH2 0x40A JUMPI PUSH1 0x40 MLOAD PUSH4 0x6F191A15 PUSH1 0xE0 SHL DUP2 MSTORE PUSH1 0x4 DUP2 ADD DUP10 SWAP1 MSTORE PUSH1 0x1 PUSH1 0x1 PUSH1 0xA0 SHL SUB SWAP2 DUP3 AND PUSH1 0x24 DUP3 ADD MSTORE SWAP3 DUP2 AND PUSH1 0x44 DUP5 ADD MSTORE SWAP4 SWAP1 SWAP4 AND PUSH1 0x64 DUP3 ADD MSTORE SWAP2 DUP7 SWAP2 DUP4 SWAP2 PUSH1 0x84 SWAP2 DUP4 SWAP2 SWAP1 GAS CALL DUP1 ISZERO PUSH2 0x3FF JUMPI PUSH2 0x2565 JUMPI JUMPDEST POP PUSH1 0xA PUSH1 0x4 DUP6 SWAP7 SWAP6 SWAP5 SWAP6 ADD SLOAD DIV SWAP1 DUP2 PUSH2 0x371 JUMPI DUP4 CALLER DUP7 PUSH32 0x64A783C6150854AE756454311C7625A965C757996BA8CC1A8C6205380F337250 DUP4 DUP1 LOG3 PUSH1 0x1 DUP1 SSTORE DUP1 RETURN JUMPDEST PUSH1 0x4 SWAP6 SWAP4 SWAP5 PUSH2 0x2575 PUSH1 0xA SWAP3 PUSH2 0x26F6 JUMP JUMPDEST SWAP5 SWAP4 SWAP6 POP PUSH2 0x2524 JUMP JUMPDEST PUSH1 0x64 SWAP1 PUSH1 0x40 MLOAD SWAP1 PUSH3 0x461BCD PUSH1 0xE5 SHL DUP3 MSTORE PUSH1 0x4 DUP3 ADD MSTORE PUSH1 0xC PUSH1 0x24 DUP3 ADD MSTORE PUSH12 0x23A8299D103A37B7903330B9 PUSH1 0xA1 SHL PUSH1 0x44 DUP3 ADD MSTORE REVERT JUMPDEST SWAP1 POP DUP2 DUP2 DUP2 RETURNDATASIZE DUP4 GT PUSH2 0x25E3 JUMPI JUMPDEST PUSH2 0x25C8 DUP2 DUP4 PUSH2 0x2759 JUMP JUMPDEST DUP2 ADD SUB SLT PUSH2 0x25DF JUMPI PUSH2 0x25D9 SWAP1 PUSH2 0x2E63 JUMP JUMPDEST CODESIZE PUSH2 0x248D JUMP JUMPDEST DUP8 DUP1 REVERT JUMPDEST POP RETURNDATASIZE PUSH2 0x25BE JUMP JUMPDEST PUSH1 0x40 MLOAD RETURNDATASIZE DUP11 DUP3 RETURNDATACOPY RETURNDATASIZE SWAP1 REVERT JUMPDEST PUSH4 0x4E487B71 PUSH1 0xE0 SHL DUP12 MSTORE PUSH1 0x21 PUSH1 0x4 MSTORE PUSH1 0x24 DUP12 REVERT JUMPDEST PUSH1 0x40 MLOAD PUSH3 0x461BCD PUSH1 0xE5 SHL DUP2 MSTORE PUSH1 0x20 PUSH1 0x4 DUP3 ADD MSTORE PUSH1 0x12 PUSH1 0x24 DUP3 ADD MSTORE PUSH18 0x11D414C81BDC9858DB19481B9BDD081CD95D PUSH1 0x72 SHL PUSH1 0x44 DUP3 ADD MSTORE PUSH1 0x64 SWAP1 REVERT JUMPDEST SWAP1 POP CALLVALUE PUSH2 0x3D8 JUMPI PUSH1 0x20 CALLDATASIZE PUSH1 0x3 NOT ADD SLT PUSH2 0x3D8 JUMPI PUSH1 0x4 CALLDATALOAD PUSH4 0xFFFFFFFF PUSH1 0xE0 SHL DUP2 AND DUP1 SWAP2 SUB PUSH2 0x10D2 JUMPI PUSH1 0x20 SWAP3 POP PUSH4 0x7965DB0B PUSH1 0xE0 SHL DUP2 EQ SWAP1 DUP2 ISZERO PUSH2 0x2687 JUMPI JUMPDEST POP ISZERO ISZERO DUP2 MSTORE RETURN JUMPDEST PUSH4 0x1FFC9A7 PUSH1 0xE0 SHL EQ SWAP1 POP CODESIZE PUSH2 0x2680 JUMP JUMPDEST PUSH1 0x60 SWAP1 PUSH1 0x3 NOT ADD SLT PUSH2 0x1064 JUMPI PUSH1 0x4 CALLDATALOAD SWAP1 PUSH1 0x24 CALLDATALOAD SWAP1 PUSH1 0x44 CALLDATALOAD SWAP1 JUMP JUMPDEST PUSH1 0x4 CALLDATALOAD SWAP1 PUSH1 0x1 PUSH1 0x1 PUSH1 0xA0 SHL SUB DUP3 AND DUP3 SUB PUSH2 0x1064 JUMPI JUMP JUMPDEST PUSH1 0x24 CALLDATALOAD SWAP1 PUSH1 0x1 PUSH1 0x1 PUSH1 0xA0 SHL SUB DUP3 AND DUP3 SUB PUSH2 0x1064 JUMPI JUMP JUMPDEST DUP1 SLOAD DUP3 LT ISZERO PUSH2 0x79A JUMPI PUSH1 0x0 MSTORE PUSH1 0x20 PUSH1 0x0 KECCAK256 ADD SWAP1 PUSH1 0x0 SWAP1 JUMP JUMPDEST PUSH8 0xFFFFFFFFFFFFFFFF DUP2 GT PUSH2 0x270A JUMPI PUSH1 0x40 MSTORE JUMP JUMPDEST PUSH4 0x4E487B71 PUSH1 0xE0 SHL PUSH1 0x0 MSTORE PUSH1 0x41 PUSH1 0x4 MSTORE PUSH1 0x24 PUSH1 0x0 REVERT JUMPDEST PUSH2 0x1A0 DUP2 ADD SWAP1 DUP2 LT PUSH8 0xFFFFFFFFFFFFFFFF DUP3 GT OR PUSH2 0x270A JUMPI PUSH1 0x40 MSTORE JUMP JUMPDEST PUSH1 0x80 DUP2 ADD SWAP1 DUP2 LT PUSH8 0xFFFFFFFFFFFFFFFF DUP3 GT OR PUSH2 0x270A JUMPI PUSH1 0x40 MSTORE JUMP JUMPDEST SWAP1 PUSH1 0x1F DUP1 NOT SWAP2 ADD AND DUP2 ADD SWAP1 DUP2 LT PUSH8 0xFFFFFFFFFFFFFFFF DUP3 GT OR PUSH2 0x270A JUMPI PUSH1 0x40 MSTORE JUMP JUMPDEST PUSH8 0xFFFFFFFFFFFFFFFF DUP2 GT PUSH2 0x270A JUMPI PUSH1 0x1F ADD PUSH1 0x1F NOT AND PUSH1 0x20 ADD SWAP1 JUMP JUMPDEST PUSH1 0x20 SWAP1 DUP2 PUSH1 0x40 DUP2 DUP4 ADD SWAP3 DUP3 DUP2 MSTORE DUP6 MLOAD DUP1 SWAP5 MSTORE ADD SWAP4 ADD SWAP2 PUSH1 0x0 JUMPDEST DUP3 DUP2 LT PUSH2 0x27BE JUMPI POP POP POP POP SWAP1 JUMP JUMPDEST DUP4 MLOAD DUP6 MSTORE SWAP4 DUP2 ADD SWAP4 SWAP3 DUP2 ADD SWAP3 PUSH1 0x1 ADD PUSH2 0x27B0 JUMP JUMPDEST SWAP1 PUSH1 0x1 DUP3 DUP2 SHR SWAP3 AND DUP1 ISZERO PUSH2 0x2802 JUMPI JUMPDEST PUSH1 0x20 DUP4 LT EQ PUSH2 0x27EC JUMPI JUMP JUMPDEST PUSH4 0x4E487B71 PUSH1 0xE0 SHL PUSH1 0x0 MSTORE PUSH1 0x22 PUSH1 0x4 MSTORE PUSH1 0x24 PUSH1 0x0 REVERT JUMPDEST SWAP2 PUSH1 0x7F AND SWAP2 PUSH2 0x27E1 JUMP JUMPDEST SWAP1 PUSH1 0x40 MLOAD SWAP2 DUP3 PUSH1 0x0 DUP3 SLOAD SWAP3 PUSH2 0x2820 DUP5 PUSH2 0x27D2 JUMP JUMPDEST SWAP1 DUP2 DUP5 MSTORE PUSH1 0x1 SWAP5 DUP6 DUP2 AND SWAP1 DUP2 PUSH1 0x0 EQ PUSH2 0x288F JUMPI POP PUSH1 0x1 EQ PUSH2 0x284C JUMPI JUMPDEST POP POP PUSH2 0x284A SWAP3 POP SUB DUP4 PUSH2 0x2759 JUMP JUMPDEST JUMP JUMPDEST SWAP1 SWAP4 SWAP2 POP PUSH1 0x0 MSTORE PUSH1 0x20 SWAP1 DUP2 PUSH1 0x0 KECCAK256 SWAP4 PUSH1 0x0 SWAP2 JUMPDEST DUP2 DUP4 LT PUSH2 0x2877 JUMPI POP POP PUSH2 0x284A SWAP4 POP DUP3 ADD ADD CODESIZE DUP1 PUSH2 0x283C JUMP JUMPDEST DUP6 SLOAD DUP9 DUP5 ADD DUP6 ADD MSTORE SWAP5 DUP6 ADD SWAP5 DUP8 SWAP5 POP SWAP2 DUP4 ADD SWAP2 PUSH2 0x285F JUMP JUMPDEST SWAP2 POP POP PUSH2 0x284A SWAP5 POP PUSH1 0x20 SWAP3 POP PUSH1 0xFF NOT AND DUP3 DUP5 ADD MSTORE ISZERO ISZERO PUSH1 0x5 SHL DUP3 ADD ADD CODESIZE DUP1 PUSH2 0x283C JUMP JUMPDEST SWAP1 PUSH1 0x6 DUP3 LT ISZERO PUSH2 0x9AC JUMPI MSTORE JUMP JUMPDEST PUSH1 0x0 JUMPDEST DUP4 DUP2 LT PUSH2 0x28D2 JUMPI POP POP PUSH1 0x0 SWAP2 ADD MSTORE JUMP JUMPDEST DUP2 DUP2 ADD MLOAD DUP4 DUP3 ADD MSTORE PUSH1 0x20 ADD PUSH2 0x28C2 JUMP JUMPDEST SWAP1 PUSH1 0x20 SWAP2 PUSH2 0x28FB DUP2 MLOAD DUP1 SWAP3 DUP2 DUP6 MSTORE DUP6 DUP1 DUP7 ADD SWAP2 ADD PUSH2 0x28BF JUMP JUMPDEST PUSH1 0x1F ADD PUSH1 0x1F NOT AND ADD ADD SWAP1 JUMP JUMPDEST CALLER PUSH1 0x0 SWAP1 DUP2 MSTORE PUSH32 0xAD3228B676F7D3CD4284A5443F17F1962B36E491B30A40B2405849E597BA5FB5 PUSH1 0x20 SWAP1 DUP2 MSTORE PUSH1 0x40 DUP1 DUP4 KECCAK256 SLOAD SWAP1 SWAP3 SWAP1 PUSH1 0xFF AND ISZERO PUSH2 0x2949 JUMPI POP POP POP JUMP JUMPDEST PUSH2 0x2952 CALLER PUSH2 0x2C44 JUMP JUMPDEST SWAP1 DUP1 DUP5 MLOAD SWAP1 PUSH2 0x2960 DUP3 PUSH2 0x273D JUMP JUMPDEST PUSH1 0x42 DUP3 MSTORE DUP5 DUP3 ADD SWAP3 PUSH1 0x60 CALLDATASIZE DUP6 CALLDATACOPY DUP3 MLOAD ISZERO PUSH2 0x2AA0 JUMPI PUSH1 0x30 DUP5 MSTORE8 DUP3 MLOAD SWAP1 PUSH1 0x1 SWAP2 DUP3 LT ISZERO PUSH2 0x2AA0 JUMPI SWAP1 PUSH1 0x78 PUSH1 0x21 DUP6 ADD MSTORE8 PUSH1 0x41 SWAP2 JUMPDEST DUP2 DUP4 GT PUSH2 0x2A46 JUMPI POP POP POP PUSH2 0x2A04 JUMPI PUSH1 0x48 PUSH2 0x6F9 SWAP4 DUP7 SWAP4 PUSH2 0x29E8 SWAP4 PUSH2 0x29D9 SWAP9 MLOAD SWAP9 DUP10 SWAP4 PUSH1 0x0 DUP1 MLOAD PUSH1 0x20 PUSH2 0x2F2C DUP4 CODECOPY DUP2 MLOAD SWAP2 MSTORE DUP11 DUP7 ADD MSTORE PUSH2 0x6A0 DUP2 MLOAD DUP1 SWAP3 DUP13 PUSH1 0x37 DUP10 ADD SWAP2 ADD PUSH2 0x28BF JUMP JUMPDEST ADD SUB PUSH1 0x28 DUP2 ADD DUP8 MSTORE ADD DUP6 PUSH2 0x2759 JUMP JUMPDEST MLOAD SWAP3 DUP4 SWAP3 PUSH3 0x461BCD PUSH1 0xE5 SHL DUP5 MSTORE PUSH1 0x4 DUP5 ADD MSTORE PUSH1 0x24 DUP4 ADD SWAP1 PUSH2 0x28E2 JUMP JUMPDEST PUSH1 0x64 DUP5 DUP7 MLOAD SWAP1 PUSH3 0x461BCD PUSH1 0xE5 SHL DUP3 MSTORE DUP1 PUSH1 0x4 DUP4 ADD MSTORE PUSH1 0x24 DUP3 ADD MSTORE PUSH32 0x537472696E67733A20686578206C656E67746820696E73756666696369656E74 PUSH1 0x44 DUP3 ADD MSTORE REVERT JUMPDEST SWAP1 SWAP2 SWAP3 PUSH1 0xF DUP2 AND PUSH1 0x10 DUP2 LT ISZERO PUSH2 0x2A8C JUMPI PUSH16 0x181899199A1A9B1B9C1CB0B131B232B3 PUSH1 0x81 SHL SWAP1 BYTE PUSH2 0x2A76 DUP6 DUP8 PUSH2 0x2C33 JUMP JUMPDEST MSTORE8 PUSH1 0x4 SHR SWAP3 DUP1 ISZERO PUSH2 0x1C0D JUMPI PUSH1 0x0 NOT ADD SWAP2 SWAP1 PUSH2 0x2991 JUMP JUMPDEST PUSH4 0x4E487B71 PUSH1 0xE0 SHL DUP4 MSTORE PUSH1 0x32 PUSH1 0x4 MSTORE PUSH1 0x24 DUP4 REVERT JUMPDEST PUSH4 0x4E487B71 PUSH1 0xE0 SHL DUP2 MSTORE PUSH1 0x32 PUSH1 0x4 MSTORE PUSH1 0x24 SWAP1 REVERT JUMPDEST PUSH1 0x0 SWAP1 DUP1 DUP3 MSTORE PUSH1 0x20 SWAP1 DUP3 DUP3 MSTORE PUSH1 0x40 SWAP3 DUP4 DUP2 KECCAK256 CALLER DUP3 MSTORE DUP4 MSTORE PUSH1 0xFF DUP5 DUP3 KECCAK256 SLOAD AND ISZERO PUSH2 0x2ADD JUMPI POP POP POP POP JUMP JUMPDEST PUSH2 0x2AE6 CALLER PUSH2 0x2C44 JUMP JUMPDEST SWAP2 DUP5 MLOAD SWAP1 PUSH2 0x2AF3 DUP3 PUSH2 0x273D JUMP JUMPDEST PUSH1 0x42 DUP3 MSTORE DUP5 DUP3 ADD SWAP3 PUSH1 0x60 CALLDATASIZE DUP6 CALLDATACOPY DUP3 MLOAD ISZERO PUSH2 0x2AA0 JUMPI PUSH1 0x30 DUP5 MSTORE8 DUP3 MLOAD SWAP1 PUSH1 0x1 SWAP2 DUP3 LT ISZERO PUSH2 0x2AA0 JUMPI SWAP1 PUSH1 0x78 PUSH1 0x21 DUP6 ADD MSTORE8 PUSH1 0x41 SWAP2 JUMPDEST DUP2 DUP4 GT PUSH2 0x2B6C JUMPI POP POP POP PUSH2 0x2A04 JUMPI PUSH1 0x48 PUSH2 0x6F9 SWAP4 DUP7 SWAP4 PUSH2 0x29E8 SWAP4 PUSH2 0x29D9 SWAP9 MLOAD SWAP9 DUP10 SWAP4 PUSH1 0x0 DUP1 MLOAD PUSH1 0x20 PUSH2 0x2F2C DUP4 CODECOPY DUP2 MLOAD SWAP2 MSTORE DUP11 DUP7 ADD MSTORE PUSH2 0x6A0 DUP2 MLOAD DUP1 SWAP3 DUP13 PUSH1 0x37 DUP10 ADD SWAP2 ADD PUSH2 0x28BF JUMP JUMPDEST SWAP1 SWAP2 SWAP3 PUSH1 0xF DUP2 AND PUSH1 0x10 DUP2 LT ISZERO PUSH2 0x2A8C JUMPI PUSH16 0x181899199A1A9B1B9C1CB0B131B232B3 PUSH1 0x81 SHL SWAP1 BYTE PUSH2 0x2B9C DUP6 DUP8 PUSH2 0x2C33 JUMP JUMPDEST MSTORE8 PUSH1 0x4 SHR SWAP3 DUP1 ISZERO PUSH2 0x1C0D JUMPI PUSH1 0x0 NOT ADD SWAP2 SWAP1 PUSH2 0x2B24 JUMP JUMPDEST SWAP1 PUSH1 0x0 SWAP2 DUP1 DUP4 MSTORE DUP3 PUSH1 0x20 MSTORE PUSH1 0x40 DUP4 KECCAK256 SWAP2 PUSH1 0x1 DUP1 PUSH1 0xA0 SHL SUB AND SWAP2 DUP3 DUP5 MSTORE PUSH1 0x20 MSTORE PUSH1 0xFF PUSH1 0x40 DUP5 KECCAK256 SLOAD AND PUSH2 0x2BE2 JUMPI POP POP POP JUMP JUMPDEST DUP1 DUP4 MSTORE DUP3 PUSH1 0x20 MSTORE PUSH1 0x40 DUP4 KECCAK256 DUP3 DUP5 MSTORE PUSH1 0x20 MSTORE PUSH1 0x40 DUP4 KECCAK256 PUSH1 0xFF NOT DUP2 SLOAD AND SWAP1 SSTORE PUSH32 0xF6391F5C32D9C69D2A47EA670B442974B53935D1EDC7FD64EB21E047A839171B CALLER SWAP4 DUP1 LOG4 JUMP JUMPDEST SWAP2 SWAP1 DUP3 ADD DUP1 SWAP3 GT PUSH2 0x784 JUMPI JUMP JUMPDEST SWAP1 DUP2 MLOAD DUP2 LT ISZERO PUSH2 0x79A JUMPI ADD PUSH1 0x20 ADD SWAP1 JUMP JUMPDEST PUSH1 0x40 MLOAD SWAP1 PUSH1 0x60 DUP3 ADD DUP3 DUP2 LT PUSH8 0xFFFFFFFFFFFFFFFF DUP3 GT OR PUSH2 0x270A JUMPI PUSH1 0x40 MSTORE PUSH1 0x2A DUP3 MSTORE PUSH1 0x20 DUP3 ADD PUSH1 0x40 CALLDATASIZE DUP3 CALLDATACOPY DUP3 MLOAD ISZERO PUSH2 0x79A JUMPI PUSH1 0x30 SWAP1 MSTORE8 DUP2 MLOAD PUSH1 0x1 SWAP1 DUP2 LT ISZERO PUSH2 0x79A JUMPI PUSH1 0x78 PUSH1 0x21 DUP5 ADD MSTORE8 PUSH1 0x29 SWAP1 JUMPDEST DUP1 DUP3 GT PUSH2 0x2CE5 JUMPI POP POP PUSH2 0x2CA1 JUMPI SWAP1 JUMP JUMPDEST PUSH1 0x64 PUSH1 0x40 MLOAD PUSH3 0x461BCD PUSH1 0xE5 SHL DUP2 MSTORE PUSH1 0x20 PUSH1 0x4 DUP3 ADD MSTORE PUSH1 0x20 PUSH1 0x24 DUP3 ADD MSTORE PUSH32 0x537472696E67733A20686578206C656E67746820696E73756666696369656E74 PUSH1 0x44 DUP3 ADD MSTORE REVERT JUMPDEST SWAP1 SWAP2 PUSH1 0xF DUP2 AND PUSH1 0x10 DUP2 LT ISZERO PUSH2 0x2D3E JUMPI PUSH16 0x181899199A1A9B1B9C1CB0B131B232B3 PUSH1 0x81 SHL SWAP1 BYTE PUSH2 0x2D14 DUP5 DUP7 PUSH2 0x2C33 JUMP JUMPDEST MSTORE8 PUSH1 0x4 SHR SWAP2 DUP1 ISZERO PUSH2 0x2D29 JUMPI PUSH1 0x0 NOT ADD SWAP1 PUSH2 0x2C91 JUMP JUMPDEST PUSH1 0x24 PUSH1 0x0 PUSH4 0x4E487B71 PUSH1 0xE0 SHL DUP2 MSTORE PUSH1 0x11 PUSH1 0x4 MSTORE REVERT JUMPDEST PUSH1 0x24 PUSH1 0x0 PUSH4 0x4E487B71 PUSH1 0xE0 SHL DUP2 MSTORE PUSH1 0x32 PUSH1 0x4 MSTORE REVERT JUMPDEST DUP1 SLOAD PUSH9 0x10000000000000000 DUP2 LT ISZERO PUSH2 0x270A JUMPI PUSH2 0x2D75 SWAP2 PUSH1 0x1 DUP3 ADD DUP2 SSTORE PUSH2 0x26DE JUMP JUMPDEST DUP2 SWAP3 SWAP2 SLOAD SWAP1 PUSH1 0x3 SHL SWAP2 DUP3 SHL SWAP2 PUSH1 0x0 NOT SWAP1 SHL NOT AND OR SWAP1 SSTORE JUMP JUMPDEST PUSH1 0xFF PUSH1 0x2 SLOAD AND PUSH2 0x2D99 JUMPI JUMP JUMPDEST PUSH1 0x40 MLOAD PUSH3 0x461BCD PUSH1 0xE5 SHL DUP2 MSTORE PUSH1 0x20 PUSH1 0x4 DUP3 ADD MSTORE PUSH1 0x10 PUSH1 0x24 DUP3 ADD MSTORE PUSH16 0x14185D5CD8589B194E881C185D5CD959 PUSH1 0x82 SHL PUSH1 0x44 DUP3 ADD MSTORE PUSH1 0x64 SWAP1 REVERT JUMPDEST PUSH1 0x2 PUSH1 0x1 SLOAD EQ PUSH2 0x2DE2 JUMPI PUSH1 0x2 PUSH1 0x1 SSTORE JUMP JUMPDEST PUSH1 0x40 MLOAD PUSH3 0x461BCD PUSH1 0xE5 SHL DUP2 MSTORE PUSH1 0x20 PUSH1 0x4 DUP3 ADD MSTORE PUSH1 0x1F PUSH1 0x24 DUP3 ADD MSTORE PUSH32 0x5265656E7472616E637947756172643A207265656E7472616E742063616C6C00 PUSH1 0x44 DUP3 ADD MSTORE PUSH1 0x64 SWAP1 REVERT JUMPDEST ISZERO PUSH2 0x2E2E JUMPI JUMP JUMPDEST PUSH1 0x40 MLOAD PUSH3 0x461BCD PUSH1 0xE5 SHL DUP2 MSTORE PUSH1 0x20 PUSH1 0x4 DUP3 ADD MSTORE PUSH1 0xD PUSH1 0x24 DUP3 ADD MSTORE PUSH13 0x496E76616C6964207374617465 PUSH1 0x98 SHL PUSH1 0x44 DUP3 ADD MSTORE PUSH1 0x64 SWAP1 REVERT JUMPDEST MLOAD SWAP1 DUP2 ISZERO ISZERO DUP3 SUB PUSH2 0x1064 JUMPI JUMP JUMPDEST ISZERO PUSH2 0x2E77 JUMPI JUMP JUMPDEST PUSH1 0x40 MLOAD PUSH3 0x461BCD PUSH1 0xE5 SHL DUP2 MSTORE PUSH1 0x20 PUSH1 0x4 DUP3 ADD MSTORE PUSH1 0xA PUSH1 0x24 DUP3 ADD MSTORE PUSH10 0x139BDD0818DB1A595B9D PUSH1 0xB2 SHL PUSH1 0x44 DUP3 ADD MSTORE PUSH1 0x64 SWAP1 REVERT JUMPDEST ISZERO PUSH2 0x2EB0 JUMPI JUMP JUMPDEST PUSH1 0x40 MLOAD PUSH3 0x461BCD PUSH1 0xE5 SHL DUP2 MSTORE PUSH1 0x20 PUSH1 0x4 DUP3 ADD MSTORE PUSH1 0x16 PUSH1 0x24 DUP3 ADD MSTORE PUSH22 0x15D9585D1A195C881BDC9858DB19481B9BDD081CD95D PUSH1 0x52 SHL PUSH1 0x44 DUP3 ADD MSTORE PUSH1 0x64 SWAP1 REVERT JUMPDEST ISZERO PUSH2 0x2EF5 JUMPI JUMP JUMPDEST PUSH1 0x40 MLOAD PUSH3 0x461BCD PUSH1 0xE5 SHL DUP2 MSTORE PUSH1 0x20 PUSH1 0x4 DUP3 ADD MSTORE PUSH1 0xE PUSH1 0x24 DUP3 ADD MSTORE PUSH14 0x496E76616C6964206F7261636C65 PUSH1 0x90 SHL PUSH1 0x44 DUP3 ADD MSTORE PUSH1 0x64 SWAP1 REVERT INVALID COINBASE PUSH4 0x63657373 NUMBER PUSH16 0x6E74726F6C3A206163636F756E742000 STOP STOP STOP STOP STOP STOP STOP STOP LOG2 PUSH5 0x6970667358 0x22 SLT KECCAK256 0x49 DUP4 0xC3 SWAP6 PUSH7 0x7AAA6742AAF7CF 0x29 ORIGIN 0x27 0xBD 0xB4 DUP14 INVALID CREATE DUP11 0xBC SDIV 0xEB 0x2B JUMP STATICCALL SWAP3 SELFDESTRUCT ADD SMOD XOR PUSH5 0x736F6C6343 STOP ADDMOD EQ STOP CALLER 0x2F DUP8 DUP9 GT PUSH31 0x7EFF1D82E926EC794901D17C78024A50270940304540A733656F0D00000000 "},"methodIdentifiers":{"ARBITRATOR_ROLE()":"9cea0787","CLIENT_ROLE()":"eae6f652","DEFAULT_ADMIN_ROLE()":"a217fddf","DELIVERER_ROLE()":"650c6441","PLATFORM_FEE_PERCENT()":"560d52d4","PLATFORM_ROLE()":"70824c5c","RESTAURANT_ROLE()":"495ac47e","assignDeliverer(uint256,address)":"3feea18b","calculateDynamicDeliveryFee(uint256,int256,int256)":"8ec86b9a","canDeliverAtLocation(int256,int256)":"54662713","clientOrders(address,uint256)":"911eeb91","confirmDelivery(uint256)":"fd84cb97","confirmDeliveryWithGPS(uint256,int256,int256)":"033794e2","confirmPickup(uint256)":"d33bcb55","confirmPreparation(uint256)":"48948780","convertUSDToMatic(uint256)":"671f1fb7","createOrder(address,uint256,uint256,string)":"40eb8194","delivererOrders(address,uint256)":"40dc7e0f","getClientOrders(address)":"480b22df","getDelivererOrders(address)":"78b5eef9","getOrder(uint256)":"d09ef241","getRestaurantOrders(address)":"4fd7e997","getRoleAdmin(bytes32)":"248a9ca3","getTotalOrders()":"375f16a7","gpsOracle()":"2a9514df","grantRole(bytes32,address)":"2f2ff15d","hasRole(bytes32,address)":"91d14854","openDispute(uint256)":"27d00fb0","orderCounter()":"b789bf52","orders(uint256)":"a85c38ef","pause()":"8456cb59","paused()":"5c975abb","paymentSplitterAddress()":"9a7110fe","platformWallet()":"fa2af9da","priceOracle()":"2630c12f","renounceRole(bytes32,address)":"36568abe","resolveDispute(uint256,address,uint256)":"9c17e439","restaurantOrders(address,uint256)":"608b341a","revokeRole(bytes32,address)":"d547741f","setGPSOracle(address)":"bbd90440","setPriceOracle(address)":"530e784f","setWeatherOracle(address)":"18b09f26","stakingContract()":"ee99205c","supportsInterface(bytes4)":"01ffc9a7","tokenContract()":"55a373d6","unpause()":"3f4ba83a","updatePlatformWallet(address)":"ada4ef30","weatherOracle()":"7ee94ef1"}}}}}