{"contracts/oracles/DoneGPSOracle.sol":{"DoneGPSOracle":{"abi":[{"inputs":[],"stateMutability":"nonpayable","type":"constructor"},{"anonymous":false,"inputs":[{"indexed":true,"internalType":"uint256","name":"orderId","type":"uint256"},{"indexed":false,"internalType":"uint256","name":"distance","type":"uint256"},{"indexed":false,"internalType":"bool","name":"verified","type":"bool"}],"name":"DeliveryVerified","type":"event"},{"anonymous":false,"inputs":[{"indexed":true,"internalType":"uint256","name":"orderId","type":"uint256"},{"indexed":false,"internalType":"int256","name":"lat","type":"int256"},{"indexed":false,"internalType":"int256","name":"lng","type":"int256"},{"indexed":false,"internalType":"uint256","name":"timestamp","type":"uint256"}],"name":"LocationUpdated","type":"event"},{"anonymous":false,"inputs":[{"indexed":true,"internalType":"bytes32","name":"role","type":"bytes32"},{"indexed":true,"internalType":"bytes32","name":"previousAdminRole","type":"bytes32"},{"indexed":true,"internalType":"bytes32","name":"newAdminRole","type":"bytes32"}],"name":"RoleAdminChanged","type":"event"},{"anonymous":false,"inputs":[{"indexed":true,"internalType":"bytes32","name":"role","type":"bytes32"},{"indexed":true,"internalType":"address","name":"account","type":"address"},{"indexed":true,"internalType":"address","name":"sender","type":"address"}],"name":"RoleGranted","type":"event"},{"anonymous":false,"inputs":[{"indexed":true,"internalType":"bytes32","name":"role","type":"bytes32"},{"indexed":true,"internalType":"address","name":"account","type":"address"},{"indexed":true,"internalType":"address","name":"sender","type":"address"}],"name":"RoleRevoked","type":"event"},{"anonymous":false,"inputs":[{"indexed":true,"internalType":"uint256","name":"orderId","type":"uint256"},{"indexed":false,"internalType":"uint256","name":"totalDistance","type":"uint256"},{"indexed":false,"internalType":"uint256","name":"duration","type":"uint256"}],"name":"RouteCompleted","type":"event"},{"inputs":[],"name":"DEFAULT_ADMIN_ROLE","outputs":[{"internalType":"bytes32","name":"","type":"bytes32"}],"stateMutability":"view","type":"function"},{"inputs":[],"name":"DELIVERER_ROLE","outputs":[{"internalType":"bytes32","name":"","type":"bytes32"}],"stateMutability":"view","type":"function"},{"inputs":[],"name":"DELIVERY_RADIUS","outputs":[{"internalType":"uint256","name":"","type":"uint256"}],"stateMutability":"view","type":"function"},{"inputs":[],"name":"EARTH_RADIUS","outputs":[{"internalType":"uint256","name":"","type":"uint256"}],"stateMutability":"view","type":"function"},{"inputs":[],"name":"ORACLE_ROLE","outputs":[{"internalType":"bytes32","name":"","type":"bytes32"}],"stateMutability":"view","type":"function"},{"inputs":[{"internalType":"int256","name":"lat1","type":"int256"},{"internalType":"int256","name":"lng1","type":"int256"},{"internalType":"int256","name":"lat2","type":"int256"},{"internalType":"int256","name":"lng2","type":"int256"}],"name":"calculateDistance","outputs":[{"internalType":"uint256","name":"","type":"uint256"}],"stateMutability":"pure","type":"function"},{"inputs":[{"internalType":"uint256","name":"","type":"uint256"}],"name":"currentLocations","outputs":[{"internalType":"int256","name":"latitude","type":"int256"},{"internalType":"int256","name":"longitude","type":"int256"},{"internalType":"uint256","name":"timestamp","type":"uint256"},{"internalType":"address","name":"deliverer","type":"address"},{"internalType":"bool","name":"verified","type":"bool"}],"stateMutability":"view","type":"function"},{"inputs":[],"name":"deliveryRadius","outputs":[{"internalType":"uint256","name":"","type":"uint256"}],"stateMutability":"view","type":"function"},{"inputs":[{"internalType":"uint256","name":"","type":"uint256"}],"name":"deliveryRoutes","outputs":[{"internalType":"uint256","name":"orderId","type":"uint256"},{"internalType":"uint256","name":"totalDistance","type":"uint256"},{"internalType":"uint256","name":"startTime","type":"uint256"},{"internalType":"uint256","name":"endTime","type":"uint256"}],"stateMutability":"view","type":"function"},{"inputs":[{"internalType":"uint256","name":"orderId","type":"uint256"}],"name":"getDeliveryRoute","outputs":[{"components":[{"internalType":"int256","name":"latitude","type":"int256"},{"internalType":"int256","name":"longitude","type":"int256"},{"internalType":"uint256","name":"timestamp","type":"uint256"},{"internalType":"address","name":"deliverer","type":"address"},{"internalType":"bool","name":"verified","type":"bool"}],"internalType":"struct DoneGPSOracle.GPSLocation[]","name":"locations","type":"tuple[]"},{"internalType":"uint256","name":"totalDistance","type":"uint256"},{"internalType":"uint256","name":"startTime","type":"uint256"},{"internalType":"uint256","name":"endTime","type":"uint256"}],"stateMutability":"view","type":"function"},{"inputs":[{"internalType":"bytes32","name":"role","type":"bytes32"}],"name":"getRoleAdmin","outputs":[{"internalType":"bytes32","name":"","type":"bytes32"}],"stateMutability":"view","type":"function"},{"inputs":[{"internalType":"bytes32","name":"role","type":"bytes32"},{"internalType":"address","name":"account","type":"address"}],"name":"grantRole","outputs":[],"stateMutability":"nonpayable","type":"function"},{"inputs":[{"internalType":"bytes32","name":"role","type":"bytes32"},{"internalType":"address","name":"account","type":"address"}],"name":"hasRole","outputs":[{"internalType":"bool","name":"","type":"bool"}],"stateMutability":"view","type":"function"},{"inputs":[{"internalType":"bytes32","name":"role","type":"bytes32"},{"internalType":"address","name":"account","type":"address"}],"name":"renounceRole","outputs":[],"stateMutability":"nonpayable","type":"function"},{"inputs":[{"internalType":"bytes32","name":"role","type":"bytes32"},{"internalType":"address","name":"account","type":"address"}],"name":"revokeRole","outputs":[],"stateMutability":"nonpayable","type":"function"},{"inputs":[{"internalType":"uint256","name":"newRadius","type":"uint256"}],"name":"setDeliveryRadius","outputs":[],"stateMutability":"nonpayable","type":"function"},{"inputs":[{"internalType":"bytes4","name":"interfaceId","type":"bytes4"}],"name":"supportsInterface","outputs":[{"internalType":"bool","name":"","type":"bool"}],"stateMutability":"view","type":"function"},{"inputs":[{"internalType":"uint256","name":"orderId","type":"uint256"},{"internalType":"int256","name":"lat","type":"int256"},{"internalType":"int256","name":"lng","type":"int256"}],"name":"updateLocation","outputs":[],"stateMutability":"nonpayable","type":"function"},{"inputs":[{"internalType":"uint256","name":"orderId","type":"uint256"},{"internalType":"int256","name":"clientLat","type":"int256"},{"internalType":"int256","name":"clientLng","type":"int256"}],"name":"verifyDelivery","outputs":[{"internalType":"bool","name":"","type":"bool"}],"stateMutability":"view","type":"function"}],"evm":{"bytecode":{"linkReferences":{},"object":"608080604052346100a657600180553360009081527fad3228b676f7d3cd4284a5443f17f1962b36e491b30a40b2405849e597ba5fb5602052604081205460ff1615610058575b50606460045561147a90816100ac8239f35b808052806020526040812033825260205260408120600160ff19825416179055339033907f2f8788117e7eff1d82e926ec794901d17c78024a50270940304540a733656f0d8180a438610046565b600080fdfe60806040908082526004908136101561001757600080fd5b600090813560e01c90816301ffc9a714610dc75750806307e2cea514610d8c5780631271852514610d5857806316e0f22114610d3a578063248a9ca314610d0f5780632f2ff15d14610c7157806336568abe14610bea5780634d077cd5146107fe578063650c6441146107c35780637bbf344b146106565780637cd86e46146103b557806391d148541461037b5780639cb5961e1461031c578063a217fddf14610301578063c6fab3b3146102b9578063d547741f14610285578063eddb63e314610262578063f1e678f5146102425763f2fe8e0d146100f657600080fd5b3461023f576020908160031936011261023f5782358152600282528381208451936101208561103f565b815485526001958683019485549067ffffffffffffffff821161022c5782519591610151600582901b83018861108d565b808752818701809884528284208b85925b84841061020a575050505050858189015260028501549182848a015260038601549460609686888c0152015496876080809b0152845199808b0191818c525180925260a0808c019a93915b8383106101c95750505050508780995001528501528301520390f35b845180518d5280870151878e015288810151898e0152808b01516001600160a01b03168b8e015281015115158c8201529a81019a93850193918d01916101ad565b858991610219859d999d6112c9565b8152019201920191908c90999599610162565b634e487b7160e01b865260418452602486fd5b80fd5b50823461025e578160031936011261025e576020905160648152f35b5080fd5b5091903461028157826003193601126102815760209250549051908152f35b8280fd5b50823461025e5760016102b6916102b161029e36610e1b565b9390928387528660205286200154610e60565b6110af565b80f35b50919034610281576020366003190112610281578160809382358152600260205220805492600282015492600383015492015492815194855260208501528301526060820152f35b50823461025e578160031936011261025e5751908152602090f35b50919034610281576020366003190112610281578160a09360ff9235815260036020522091825492600181015491600360028301549201549281519586526020860152840152600180851b0381166060840152831c1615156080820152f35b50823461025e5760ff8160209361039136610e1b565b9082528186528282206001600160a01b039091168252855220549151911615158152f35b509134610281576103c536610e46565b91947f68e79a7bf1e0bc45d0a330c573bc367f9cf464fd326078812f301165fbda4ef195868252602096828852858320338452885260ff8684205416156104765750938181969561041b935260038852206112c9565b848101511561044057805190860151610435939291611381565b905410159051908152f35b845162461bcd60e51b8152808501879052601060248201526f4e6f206c6f636174696f6e206461746160801b6044820152606490fd5b93505090506104843361114a565b9183519061049182611071565b6042825286820192606036853782511561064357603084538251906001918210156106305790607860218501536041915b8183116105c557505050610584578361055460488895610576956105459560449a995196879361051c8b86019b76020b1b1b2b9b9a1b7b73a3937b61d1030b1b1b7bab73a1604d1b8d52825192839160378901910161101c565b8401917001034b99036b4b9b9b4b733903937b6329607d1b60378401525180938684019061101c565b0103602881018552018361108d565b5195869462461bcd60e51b86528501525180928160248601528585019061101c565b601f01601f19168101030190fd5b606485878087519262461bcd60e51b845283015260248201527f537472696e67733a20686578206c656e67746820696e73756666696369656e746044820152fd5b909192600f8116601081101561061d576f181899199a1a9b1b9c1cb0b131b232b360811b901a6105f58587611123565b53881c92801561060a576000190191906104c2565b634e487b7160e01b825260118952602482fd5b634e487b7160e01b835260328a52602483fd5b634e487b7160e01b815260328852602490fd5b634e487b7160e01b815260328752602490fd5b50919034610281576020806003193601126107bf57813592848052848252808520338652825260ff8186205416156106d55783156106945750505580f35b5162461bcd60e51b815291820152601d60248201527f526164697573206d7573742062652067726561746572207468616e2030000000604482015260649150fd5b8290856106e13361114a565b90808351906106ef82611071565b6042825286820192606036853782511561064357603084538251906001918210156106305790607860218501536041915b81831161077a57505050610584578361055460488895610576956105459560449a995196879361051c8b86019b76020b1b1b2b9b9a1b7b73a3937b61d1030b1b1b7bab73a1604d1b8d52825192839160378901910161101c565b909192600f8116601081101561061d576f181899199a1a9b1b9c1cb0b131b232b360811b901a6107aa8587611123565b53881c92801561060a57600019019190610720565b8380fd5b50823461025e578160031936011261025e57602090517f0ed49e6e204153e12a484763dde9d7b8b19d4be20e3bdb7fefb9dec0a08f51868152f35b5091346102815761080e36610e46565b7f0ed49e6e204153e12a484763dde9d7b8b19d4be20e3bdb7fefb9dec0a08f518693919293808752602090878252838820338952825260ff848920541615610b005750600260019681885414610abd5781885563055d4a7f1986121580610aaf575b15610a7957630aba94ff1984121580610a6b575b15610a345784516108948161103f565b86815284848201524286820152336060820152896080820152878a52600384526108c081878c20611259565b82845288868b20805415610a26575b0180549068010000000000000000821015610a1357906108f3918b820181556112ad565b610a01579061090191611259565b86895281835287858a200154888111610950575b505083519485525083015242908201527f7957846783e9c0d33b6321d6f75a1bd7f3d159c11b9a3604a4984041064da8c090606090a2805580f35b6000198101908082116109ee57888b5283855289878c200190600119019182116109ee578761098c6109866109989489946112ad565b506112c9565b86815191015190611381565b91878a52808452858a20019081549283018093116109db5750558160607f7957846783e9c0d33b6321d6f75a1bd7f3d159c11b9a3604a4984041064da8c0610915565b634e487b7160e01b8a5260119052602489fd5b634e487b7160e01b8b526011835260248bfd5b634e487b7160e01b8b528a835260248bfd5b634e487b7160e01b8c526041845260248cfd5b8981554260038201556108cf565b845162461bcd60e51b81529081018390526011602482015270496e76616c6964206c6f6e67697475646560781b6044820152606490fd5b50630aba9500841315610884565b845162461bcd60e51b8152908101839052601060248201526f496e76616c6964206c6174697475646560801b6044820152606490fd5b5063055d4a80861315610870565b845162461bcd60e51b8152908101839052601f60248201527f5265656e7472616e637947756172643a207265656e7472616e742063616c6c006044820152606490fd5b83879189610b0d3361114a565b91835190610b1a82611071565b6042825286820192606036853782511561064357603084538251906001918210156106305790607860218501536041915b818311610ba557505050610584578361055460488895610576956105459560449a995196879361051c8b86019b76020b1b1b2b9b9a1b7b73a3937b61d1030b1b1b7bab73a1604d1b8d52825192839160378901910161101c565b909192600f8116601081101561061d576f181899199a1a9b1b9c1cb0b131b232b360811b901a610bd58587611123565b53881c92801561060a57600019019190610b4b565b50903461025e57610bfa36610e1b565b91336001600160a01b03841603610c165750906102b6916110af565b608490602086519162461bcd60e51b8352820152602f60248201527f416363657373436f6e74726f6c3a2063616e206f6e6c792072656e6f756e636560448201526e103937b632b9903337b91039b2b63360891b6064820152fd5b50823461025e57610c8136610e1b565b909182845283602052610c9960018286200154610e60565b82845260208481528185206001600160a01b039093168086529290528084205460ff1615610cc5578380f35b828452836020528084208285526020528320600160ff1982541617905533917f2f8788117e7eff1d82e926ec794901d17c78024a50270940304540a733656f0d8480a48180808380f35b5091903461028157602036600319011261028157816020936001923581528085522001549051908152f35b50823461025e578160031936011261025e5760209051626136b88152f35b5082903461023f57608036600319011261023f5750610d8560209260643590604435906024359035611381565b9051908152f35b50823461025e578160031936011261025e57602090517f68e79a7bf1e0bc45d0a330c573bc367f9cf464fd326078812f301165fbda4ef18152f35b90508234610281576020366003190112610281573563ffffffff60e01b81168091036102815760209250637965db0b60e01b8114908115610e0a575b5015158152f35b6301ffc9a760e01b14905083610e03565b6040906003190112610e4157600435906024356001600160a01b0381168103610e415790565b600080fd5b6060906003190112610e4157600435906024359060443590565b60008181526020818152604092838320338452825260ff848420541615610e875750505050565b610e903361114a565b90845190610e9d82611071565b6042825283820194606036873782511561100857603086538251906001918210156110085790607860218501536041915b818311610f9a57505050610f585784610f346048610576936044979851988991610f258984019876020b1b1b2b9b9a1b7b73a3937b61d1030b1b1b7bab73a1604d1b8a5261051c815180928d60378901910161101c565b0103602881018952018761108d565b5194859362461bcd60e51b855260048501525180928160248601528585019061101c565b60648386519062461bcd60e51b825280600483015260248201527f537472696e67733a20686578206c656e67746820696e73756666696369656e746044820152fd5b909192600f81166010811015610ff4576f181899199a1a9b1b9c1cb0b131b232b360811b901a610fca8587611123565b5360041c928015610fe057600019019190610ece565b634e487b7160e01b82526011600452602482fd5b634e487b7160e01b83526032600452602483fd5b634e487b7160e01b81526032600452602490fd5b60005b83811061102f5750506000910152565b818101518382015260200161101f565b60a0810190811067ffffffffffffffff82111761105b57604052565b634e487b7160e01b600052604160045260246000fd5b6080810190811067ffffffffffffffff82111761105b57604052565b90601f8019910116810190811067ffffffffffffffff82111761105b57604052565b9060009180835282602052604083209160018060a01b03169182845260205260ff6040842054166110df57505050565b80835282602052604083208284526020526040832060ff1981541690557ff6391f5c32d9c69d2a47ea670b442974b53935d1edc7fd64eb21e047a839171b339380a4565b908151811015611134570160200190565b634e487b7160e01b600052603260045260246000fd5b604051906060820182811067ffffffffffffffff82111761105b57604052602a82526020820160403682378251156111345760309053815160019081101561113457607860218401536029905b8082116111eb5750506111a75790565b606460405162461bcd60e51b815260206004820152602060248201527f537472696e67733a20686578206c656e67746820696e73756666696369656e746044820152fd5b9091600f81166010811015611244576f181899199a1a9b1b9c1cb0b131b232b360811b901a61121a8486611123565b5360041c91801561122f576000190190611197565b60246000634e487b7160e01b81526011600452fd5b60246000634e487b7160e01b81526032600452fd5b600390825181556020830151600182015560408301516002820155019060018060a01b03606082015116825491608060ff60a01b910151151560a01b16916affffffffffffffffffffff60a81b1617179055565b80548210156111345760005260206000209060021b0190600090565b906040516112d68161103f565b825481526001830154602082015260028301546040820152600392909201546001600160a01b038116606084015260a01c60ff1615156080830152565b8181039291600013801582851316918412161761132c57565b634e487b7160e01b600052601160045260246000fd5b818102929160008212600160ff1b82141661132c57818405149015171561132c57565b9190916000838201938412911290801582169115161761132c57565b61139f6113ad926113996113a6936113b39796611313565b94611313565b9280611342565b9180611342565b90611365565b600060018201906001821281841290801582169115161761143057506002908190059082600160ff1b81145b8484126113ed575050505090565b929350909183801561141a576000198114821661132c576114118185928505611365565b059291906113df565b634e487b7160e01b600052601260045260246000fd5b634e487b7160e01b81526011600452602490fdfea264697066735822122062b9fe5557fd2615fc87c1521290b5479b6997a97c53b4759ab2f29b5b3c402d64736f6c63430008140033","opcodes":"PUSH1 0x80 DUP1 PUSH1 0x40 MSTORE CALLVALUE PUSH2 0xA6 JUMPI PUSH1 0x1 DUP1 SSTORE CALLER PUSH1 0x0 SWAP1 DUP2 MSTORE PUSH32 0xAD3228B676F7D3CD4284A5443F17F1962B36E491B30A40B2405849E597BA5FB5 PUSH1 0x20 MSTORE PUSH1 0x40 DUP2 KECCAK256 SLOAD PUSH1 0xFF AND ISZERO PUSH2 0x58 JUMPI JUMPDEST POP PUSH1 0x64 PUSH1 0x4 SSTORE PUSH2 0x147A SWAP1 DUP2 PUSH2 0xAC DUP3 CODECOPY RETURN JUMPDEST DUP1 DUP1 MSTORE DUP1 PUSH1 0x20 MSTORE PUSH1 0x40 DUP2 KECCAK256 CALLER DUP3 MSTORE PUSH1 0x20 MSTORE PUSH1 0x40 DUP2 KECCAK256 PUSH1 0x1 PUSH1 0xFF NOT DUP3 SLOAD AND OR SWAP1 SSTORE CALLER SWAP1 CALLER SWAP1 PUSH32 0x2F8788117E7EFF1D82E926EC794901D17C78024A50270940304540A733656F0D DUP2 DUP1 LOG4 CODESIZE PUSH2 0x46 JUMP JUMPDEST PUSH1 0x0 DUP1 REVERT INVALID PUSH1 0x80 PUSH1 0x40 SWAP1 DUP1 DUP3 MSTORE PUSH1 0x4 SWAP1 DUP2 CALLDATASIZE LT ISZERO PUSH2 0x17 JUMPI PUSH1 0x0 DUP1 REVERT JUMPDEST PUSH1 0x0 SWAP1 DUP2 CALLDATALOAD PUSH1 0xE0 SHR SWAP1 DUP2 PUSH4 0x1FFC9A7 EQ PUSH2 0xDC7 JUMPI POP DUP1 PUSH4 0x7E2CEA5 EQ PUSH2 0xD8C JUMPI DUP1 PUSH4 0x12718525 EQ PUSH2 0xD58 JUMPI DUP1 PUSH4 0x16E0F221 EQ PUSH2 0xD3A JUMPI DUP1 PUSH4 0x248A9CA3 EQ PUSH2 0xD0F JUMPI DUP1 PUSH4 0x2F2FF15D EQ PUSH2 0xC71 JUMPI DUP1 PUSH4 0x36568ABE EQ PUSH2 0xBEA JUMPI DUP1 PUSH4 0x4D077CD5 EQ PUSH2 0x7FE JUMPI DUP1 PUSH4 0x650C6441 EQ PUSH2 0x7C3 JUMPI DUP1 PUSH4 0x7BBF344B EQ PUSH2 0x656 JUMPI DUP1 PUSH4 0x7CD86E46 EQ PUSH2 0x3B5 JUMPI DUP1 PUSH4 0x91D14854 EQ PUSH2 0x37B JUMPI DUP1 PUSH4 0x9CB5961E EQ PUSH2 0x31C JUMPI DUP1 PUSH4 0xA217FDDF EQ PUSH2 0x301 JUMPI DUP1 PUSH4 0xC6FAB3B3 EQ PUSH2 0x2B9 JUMPI DUP1 PUSH4 0xD547741F EQ PUSH2 0x285 JUMPI DUP1 PUSH4 0xEDDB63E3 EQ PUSH2 0x262 JUMPI DUP1 PUSH4 0xF1E678F5 EQ PUSH2 0x242 JUMPI PUSH4 0xF2FE8E0D EQ PUSH2 0xF6 JUMPI PUSH1 0x0 DUP1 REVERT JUMPDEST CALLVALUE PUSH2 0x23F JUMPI PUSH1 0x20 SWAP1 DUP2 PUSH1 0x3 NOT CALLDATASIZE ADD SLT PUSH2 0x23F JUMPI DUP3 CALLDATALOAD DUP2 MSTORE PUSH1 0x2 DUP3 MSTORE DUP4 DUP2 KECCAK256 DUP5 MLOAD SWAP4 PUSH2 0x120 DUP6 PUSH2 0x103F JUMP JUMPDEST DUP2 SLOAD DUP6 MSTORE PUSH1 0x1 SWAP6 DUP7 DUP4 ADD SWAP5 DUP6 SLOAD SWAP1 PUSH8 0xFFFFFFFFFFFFFFFF DUP3 GT PUSH2 0x22C JUMPI DUP3 MLOAD SWAP6 SWAP2 PUSH2 0x151 PUSH1 0x5 DUP3 SWAP1 SHL DUP4 ADD DUP9 PUSH2 0x108D JUMP JUMPDEST DUP1 DUP8 MSTORE DUP2 DUP8 ADD DUP1 SWAP9 DUP5 MSTORE DUP3 DUP5 KECCAK256 DUP12 DUP6 SWAP3 JUMPDEST DUP5 DUP5 LT PUSH2 0x20A JUMPI POP POP POP POP POP DUP6 DUP2 DUP10 ADD MSTORE PUSH1 0x2 DUP6 ADD SLOAD SWAP2 DUP3 DUP5 DUP11 ADD MSTORE PUSH1 0x3 DUP7 ADD SLOAD SWAP5 PUSH1 0x60 SWAP7 DUP7 DUP9 DUP13 ADD MSTORE ADD SLOAD SWAP7 DUP8 PUSH1 0x80 DUP1 SWAP12 ADD MSTORE DUP5 MLOAD SWAP10 DUP1 DUP12 ADD SWAP2 DUP2 DUP13 MSTORE MLOAD DUP1 SWAP3 MSTORE PUSH1 0xA0 DUP1 DUP13 ADD SWAP11 SWAP4 SWAP2 JUMPDEST DUP4 DUP4 LT PUSH2 0x1C9 JUMPI POP POP POP POP POP DUP8 DUP1 SWAP10 POP ADD MSTORE DUP6 ADD MSTORE DUP4 ADD MSTORE SUB SWAP1 RETURN JUMPDEST DUP5 MLOAD DUP1 MLOAD DUP14 MSTORE DUP1 DUP8 ADD MLOAD DUP8 DUP15 ADD MSTORE DUP9 DUP2 ADD MLOAD DUP10 DUP15 ADD MSTORE DUP1 DUP12 ADD MLOAD PUSH1 0x1 PUSH1 0x1 PUSH1 0xA0 SHL SUB AND DUP12 DUP15 ADD MSTORE DUP2 ADD MLOAD ISZERO ISZERO DUP13 DUP3 ADD MSTORE SWAP11 DUP2 ADD SWAP11 SWAP4 DUP6 ADD SWAP4 SWAP2 DUP14 ADD SWAP2 PUSH2 0x1AD JUMP JUMPDEST DUP6 DUP10 SWAP2 PUSH2 0x219 DUP6 SWAP14 SWAP10 SWAP14 PUSH2 0x12C9 JUMP JUMPDEST DUP2 MSTORE ADD SWAP3 ADD SWAP3 ADD SWAP2 SWAP1 DUP13 SWAP1 SWAP10 SWAP6 SWAP10 PUSH2 0x162 JUMP JUMPDEST PUSH4 0x4E487B71 PUSH1 0xE0 SHL DUP7 MSTORE PUSH1 0x41 DUP5 MSTORE PUSH1 0x24 DUP7 REVERT JUMPDEST DUP1 REVERT JUMPDEST POP DUP3 CALLVALUE PUSH2 0x25E JUMPI DUP2 PUSH1 0x3 NOT CALLDATASIZE ADD SLT PUSH2 0x25E JUMPI PUSH1 0x20 SWAP1 MLOAD PUSH1 0x64 DUP2 MSTORE RETURN JUMPDEST POP DUP1 REVERT JUMPDEST POP SWAP2 SWAP1 CALLVALUE PUSH2 0x281 JUMPI DUP3 PUSH1 0x3 NOT CALLDATASIZE ADD SLT PUSH2 0x281 JUMPI PUSH1 0x20 SWAP3 POP SLOAD SWAP1 MLOAD SWAP1 DUP2 MSTORE RETURN JUMPDEST DUP3 DUP1 REVERT JUMPDEST POP DUP3 CALLVALUE PUSH2 0x25E JUMPI PUSH1 0x1 PUSH2 0x2B6 SWAP2 PUSH2 0x2B1 PUSH2 0x29E CALLDATASIZE PUSH2 0xE1B JUMP JUMPDEST SWAP4 SWAP1 SWAP3 DUP4 DUP8 MSTORE DUP7 PUSH1 0x20 MSTORE DUP7 KECCAK256 ADD SLOAD PUSH2 0xE60 JUMP JUMPDEST PUSH2 0x10AF JUMP JUMPDEST DUP1 RETURN JUMPDEST POP SWAP2 SWAP1 CALLVALUE PUSH2 0x281 JUMPI PUSH1 0x20 CALLDATASIZE PUSH1 0x3 NOT ADD SLT PUSH2 0x281 JUMPI DUP2 PUSH1 0x80 SWAP4 DUP3 CALLDATALOAD DUP2 MSTORE PUSH1 0x2 PUSH1 0x20 MSTORE KECCAK256 DUP1 SLOAD SWAP3 PUSH1 0x2 DUP3 ADD SLOAD SWAP3 PUSH1 0x3 DUP4 ADD SLOAD SWAP3 ADD SLOAD SWAP3 DUP2 MLOAD SWAP5 DUP6 MSTORE PUSH1 0x20 DUP6 ADD MSTORE DUP4 ADD MSTORE PUSH1 0x60 DUP3 ADD MSTORE RETURN JUMPDEST POP DUP3 CALLVALUE PUSH2 0x25E JUMPI DUP2 PUSH1 0x3 NOT CALLDATASIZE ADD SLT PUSH2 0x25E JUMPI MLOAD SWAP1 DUP2 MSTORE PUSH1 0x20 SWAP1 RETURN JUMPDEST POP SWAP2 SWAP1 CALLVALUE PUSH2 0x281 JUMPI PUSH1 0x20 CALLDATASIZE PUSH1 0x3 NOT ADD SLT PUSH2 0x281 JUMPI DUP2 PUSH1 0xA0 SWAP4 PUSH1 0xFF SWAP3 CALLDATALOAD DUP2 MSTORE PUSH1 0x3 PUSH1 0x20 MSTORE KECCAK256 SWAP2 DUP3 SLOAD SWAP3 PUSH1 0x1 DUP2 ADD SLOAD SWAP2 PUSH1 0x3 PUSH1 0x2 DUP4 ADD SLOAD SWAP3 ADD SLOAD SWAP3 DUP2 MLOAD SWAP6 DUP7 MSTORE PUSH1 0x20 DUP7 ADD MSTORE DUP5 ADD MSTORE PUSH1 0x1 DUP1 DUP6 SHL SUB DUP2 AND PUSH1 0x60 DUP5 ADD MSTORE DUP4 SHR AND ISZERO ISZERO PUSH1 0x80 DUP3 ADD MSTORE RETURN JUMPDEST POP DUP3 CALLVALUE PUSH2 0x25E JUMPI PUSH1 0xFF DUP2 PUSH1 0x20 SWAP4 PUSH2 0x391 CALLDATASIZE PUSH2 0xE1B JUMP JUMPDEST SWAP1 DUP3 MSTORE DUP2 DUP7 MSTORE DUP3 DUP3 KECCAK256 PUSH1 0x1 PUSH1 0x1 PUSH1 0xA0 SHL SUB SWAP1 SWAP2 AND DUP3 MSTORE DUP6 MSTORE KECCAK256 SLOAD SWAP2 MLOAD SWAP2 AND ISZERO ISZERO DUP2 MSTORE RETURN JUMPDEST POP SWAP2 CALLVALUE PUSH2 0x281 JUMPI PUSH2 0x3C5 CALLDATASIZE PUSH2 0xE46 JUMP JUMPDEST SWAP2 SWAP5 PUSH32 0x68E79A7BF1E0BC45D0A330C573BC367F9CF464FD326078812F301165FBDA4EF1 SWAP6 DUP7 DUP3 MSTORE PUSH1 0x20 SWAP7 DUP3 DUP9 MSTORE DUP6 DUP4 KECCAK256 CALLER DUP5 MSTORE DUP9 MSTORE PUSH1 0xFF DUP7 DUP5 KECCAK256 SLOAD AND ISZERO PUSH2 0x476 JUMPI POP SWAP4 DUP2 DUP2 SWAP7 SWAP6 PUSH2 0x41B SWAP4 MSTORE PUSH1 0x3 DUP9 MSTORE KECCAK256 PUSH2 0x12C9 JUMP JUMPDEST DUP5 DUP2 ADD MLOAD ISZERO PUSH2 0x440 JUMPI DUP1 MLOAD SWAP1 DUP7 ADD MLOAD PUSH2 0x435 SWAP4 SWAP3 SWAP2 PUSH2 0x1381 JUMP JUMPDEST SWAP1 SLOAD LT ISZERO SWAP1 MLOAD SWAP1 DUP2 MSTORE RETURN JUMPDEST DUP5 MLOAD PUSH3 0x461BCD PUSH1 0xE5 SHL DUP2 MSTORE DUP1 DUP6 ADD DUP8 SWAP1 MSTORE PUSH1 0x10 PUSH1 0x24 DUP3 ADD MSTORE PUSH16 0x4E6F206C6F636174696F6E2064617461 PUSH1 0x80 SHL PUSH1 0x44 DUP3 ADD MSTORE PUSH1 0x64 SWAP1 REVERT JUMPDEST SWAP4 POP POP SWAP1 POP PUSH2 0x484 CALLER PUSH2 0x114A JUMP JUMPDEST SWAP2 DUP4 MLOAD SWAP1 PUSH2 0x491 DUP3 PUSH2 0x1071 JUMP JUMPDEST PUSH1 0x42 DUP3 MSTORE DUP7 DUP3 ADD SWAP3 PUSH1 0x60 CALLDATASIZE DUP6 CALLDATACOPY DUP3 MLOAD ISZERO PUSH2 0x643 JUMPI PUSH1 0x30 DUP5 MSTORE8 DUP3 MLOAD SWAP1 PUSH1 0x1 SWAP2 DUP3 LT ISZERO PUSH2 0x630 JUMPI SWAP1 PUSH1 0x78 PUSH1 0x21 DUP6 ADD MSTORE8 PUSH1 0x41 SWAP2 JUMPDEST DUP2 DUP4 GT PUSH2 0x5C5 JUMPI POP POP POP PUSH2 0x584 JUMPI DUP4 PUSH2 0x554 PUSH1 0x48 DUP9 SWAP6 PUSH2 0x576 SWAP6 PUSH2 0x545 SWAP6 PUSH1 0x44 SWAP11 SWAP10 MLOAD SWAP7 DUP8 SWAP4 PUSH2 0x51C DUP12 DUP7 ADD SWAP12 PUSH23 0x20B1B1B2B9B9A1B7B73A3937B61D1030B1B1B7BAB73A1 PUSH1 0x4D SHL DUP14 MSTORE DUP3 MLOAD SWAP3 DUP4 SWAP2 PUSH1 0x37 DUP10 ADD SWAP2 ADD PUSH2 0x101C JUMP JUMPDEST DUP5 ADD SWAP2 PUSH17 0x1034B99036B4B9B9B4B733903937B6329 PUSH1 0x7D SHL PUSH1 0x37 DUP5 ADD MSTORE MLOAD DUP1 SWAP4 DUP7 DUP5 ADD SWAP1 PUSH2 0x101C JUMP JUMPDEST ADD SUB PUSH1 0x28 DUP2 ADD DUP6 MSTORE ADD DUP4 PUSH2 0x108D JUMP JUMPDEST MLOAD SWAP6 DUP7 SWAP5 PUSH3 0x461BCD PUSH1 0xE5 SHL DUP7 MSTORE DUP6 ADD MSTORE MLOAD DUP1 SWAP3 DUP2 PUSH1 0x24 DUP7 ADD MSTORE DUP6 DUP6 ADD SWAP1 PUSH2 0x101C JUMP JUMPDEST PUSH1 0x1F ADD PUSH1 0x1F NOT AND DUP2 ADD SUB ADD SWAP1 REVERT JUMPDEST PUSH1 0x64 DUP6 DUP8 DUP1 DUP8 MLOAD SWAP3 PUSH3 0x461BCD PUSH1 0xE5 SHL DUP5 MSTORE DUP4 ADD MSTORE PUSH1 0x24 DUP3 ADD MSTORE PUSH32 0x537472696E67733A20686578206C656E67746820696E73756666696369656E74 PUSH1 0x44 DUP3 ADD MSTORE REVERT JUMPDEST SWAP1 SWAP2 SWAP3 PUSH1 0xF DUP2 AND PUSH1 0x10 DUP2 LT ISZERO PUSH2 0x61D JUMPI PUSH16 0x181899199A1A9B1B9C1CB0B131B232B3 PUSH1 0x81 SHL SWAP1 BYTE PUSH2 0x5F5 DUP6 DUP8 PUSH2 0x1123 JUMP JUMPDEST MSTORE8 DUP9 SHR SWAP3 DUP1 ISZERO PUSH2 0x60A JUMPI PUSH1 0x0 NOT ADD SWAP2 SWAP1 PUSH2 0x4C2 JUMP JUMPDEST PUSH4 0x4E487B71 PUSH1 0xE0 SHL DUP3 MSTORE PUSH1 0x11 DUP10 MSTORE PUSH1 0x24 DUP3 REVERT JUMPDEST PUSH4 0x4E487B71 PUSH1 0xE0 SHL DUP4 MSTORE PUSH1 0x32 DUP11 MSTORE PUSH1 0x24 DUP4 REVERT JUMPDEST PUSH4 0x4E487B71 PUSH1 0xE0 SHL DUP2 MSTORE PUSH1 0x32 DUP9 MSTORE PUSH1 0x24 SWAP1 REVERT JUMPDEST PUSH4 0x4E487B71 PUSH1 0xE0 SHL DUP2 MSTORE PUSH1 0x32 DUP8 MSTORE PUSH1 0x24 SWAP1 REVERT JUMPDEST POP SWAP2 SWAP1 CALLVALUE PUSH2 0x281 JUMPI PUSH1 0x20 DUP1 PUSH1 0x3 NOT CALLDATASIZE ADD SLT PUSH2 0x7BF JUMPI DUP2 CALLDATALOAD SWAP3 DUP5 DUP1 MSTORE DUP5 DUP3 MSTORE DUP1 DUP6 KECCAK256 CALLER DUP7 MSTORE DUP3 MSTORE PUSH1 0xFF DUP2 DUP7 KECCAK256 SLOAD AND ISZERO PUSH2 0x6D5 JUMPI DUP4 ISZERO PUSH2 0x694 JUMPI POP POP SSTORE DUP1 RETURN JUMPDEST MLOAD PUSH3 0x461BCD PUSH1 0xE5 SHL DUP2 MSTORE SWAP2 DUP3 ADD MSTORE PUSH1 0x1D PUSH1 0x24 DUP3 ADD MSTORE PUSH32 0x526164697573206D7573742062652067726561746572207468616E2030000000 PUSH1 0x44 DUP3 ADD MSTORE PUSH1 0x64 SWAP2 POP REVERT JUMPDEST DUP3 SWAP1 DUP6 PUSH2 0x6E1 CALLER PUSH2 0x114A JUMP JUMPDEST SWAP1 DUP1 DUP4 MLOAD SWAP1 PUSH2 0x6EF DUP3 PUSH2 0x1071 JUMP JUMPDEST PUSH1 0x42 DUP3 MSTORE DUP7 DUP3 ADD SWAP3 PUSH1 0x60 CALLDATASIZE DUP6 CALLDATACOPY DUP3 MLOAD ISZERO PUSH2 0x643 JUMPI PUSH1 0x30 DUP5 MSTORE8 DUP3 MLOAD SWAP1 PUSH1 0x1 SWAP2 DUP3 LT ISZERO PUSH2 0x630 JUMPI SWAP1 PUSH1 0x78 PUSH1 0x21 DUP6 ADD MSTORE8 PUSH1 0x41 SWAP2 JUMPDEST DUP2 DUP4 GT PUSH2 0x77A JUMPI POP POP POP PUSH2 0x584 JUMPI DUP4 PUSH2 0x554 PUSH1 0x48 DUP9 SWAP6 PUSH2 0x576 SWAP6 PUSH2 0x545 SWAP6 PUSH1 0x44 SWAP11 SWAP10 MLOAD SWAP7 DUP8 SWAP4 PUSH2 0x51C DUP12 DUP7 ADD SWAP12 PUSH23 0x20B1B1B2B9B9A1B7B73A3937B61D1030B1B1B7BAB73A1 PUSH1 0x4D SHL DUP14 MSTORE DUP3 MLOAD SWAP3 DUP4 SWAP2 PUSH1 0x37 DUP10 ADD SWAP2 ADD PUSH2 0x101C JUMP JUMPDEST SWAP1 SWAP2 SWAP3 PUSH1 0xF DUP2 AND PUSH1 0x10 DUP2 LT ISZERO PUSH2 0x61D JUMPI PUSH16 0x181899199A1A9B1B9C1CB0B131B232B3 PUSH1 0x81 SHL SWAP1 BYTE PUSH2 0x7AA DUP6 DUP8 PUSH2 0x1123 JUMP JUMPDEST MSTORE8 DUP9 SHR SWAP3 DUP1 ISZERO PUSH2 0x60A JUMPI PUSH1 0x0 NOT ADD SWAP2 SWAP1 PUSH2 0x720 JUMP JUMPDEST DUP4 DUP1 REVERT JUMPDEST POP DUP3 CALLVALUE PUSH2 0x25E JUMPI DUP2 PUSH1 0x3 NOT CALLDATASIZE ADD SLT PUSH2 0x25E JUMPI PUSH1 0x20 SWAP1 MLOAD PUSH32 0xED49E6E204153E12A484763DDE9D7B8B19D4BE20E3BDB7FEFB9DEC0A08F5186 DUP2 MSTORE RETURN JUMPDEST POP SWAP2 CALLVALUE PUSH2 0x281 JUMPI PUSH2 0x80E CALLDATASIZE PUSH2 0xE46 JUMP JUMPDEST PUSH32 0xED49E6E204153E12A484763DDE9D7B8B19D4BE20E3BDB7FEFB9DEC0A08F5186 SWAP4 SWAP2 SWAP3 SWAP4 DUP1 DUP8 MSTORE PUSH1 0x20 SWAP1 DUP8 DUP3 MSTORE DUP4 DUP9 KECCAK256 CALLER DUP10 MSTORE DUP3 MSTORE PUSH1 0xFF DUP5 DUP10 KECCAK256 SLOAD AND ISZERO PUSH2 0xB00 JUMPI POP PUSH1 0x2 PUSH1 0x1 SWAP7 DUP2 DUP9 SLOAD EQ PUSH2 0xABD JUMPI DUP2 DUP9 SSTORE PUSH4 0x55D4A7F NOT DUP7 SLT ISZERO DUP1 PUSH2 0xAAF JUMPI JUMPDEST ISZERO PUSH2 0xA79 JUMPI PUSH4 0xABA94FF NOT DUP5 SLT ISZERO DUP1 PUSH2 0xA6B JUMPI JUMPDEST ISZERO PUSH2 0xA34 JUMPI DUP5 MLOAD PUSH2 0x894 DUP2 PUSH2 0x103F JUMP JUMPDEST DUP7 DUP2 MSTORE DUP5 DUP5 DUP3 ADD MSTORE TIMESTAMP DUP7 DUP3 ADD MSTORE CALLER PUSH1 0x60 DUP3 ADD MSTORE DUP10 PUSH1 0x80 DUP3 ADD MSTORE DUP8 DUP11 MSTORE PUSH1 0x3 DUP5 MSTORE PUSH2 0x8C0 DUP2 DUP8 DUP13 KECCAK256 PUSH2 0x1259 JUMP JUMPDEST DUP3 DUP5 MSTORE DUP9 DUP7 DUP12 KECCAK256 DUP1 SLOAD ISZERO PUSH2 0xA26 JUMPI JUMPDEST ADD DUP1 SLOAD SWAP1 PUSH9 0x10000000000000000 DUP3 LT ISZERO PUSH2 0xA13 JUMPI SWAP1 PUSH2 0x8F3 SWAP2 DUP12 DUP3 ADD DUP2 SSTORE PUSH2 0x12AD JUMP JUMPDEST PUSH2 0xA01 JUMPI SWAP1 PUSH2 0x901 SWAP2 PUSH2 0x1259 JUMP JUMPDEST DUP7 DUP10 MSTORE DUP2 DUP4 MSTORE DUP8 DUP6 DUP11 KECCAK256 ADD SLOAD DUP9 DUP2 GT PUSH2 0x950 JUMPI JUMPDEST POP POP DUP4 MLOAD SWAP5 DUP6 MSTORE POP DUP4 ADD MSTORE TIMESTAMP SWAP1 DUP3 ADD MSTORE PUSH32 0x7957846783E9C0D33B6321D6F75A1BD7F3D159C11B9A3604A4984041064DA8C0 SWAP1 PUSH1 0x60 SWAP1 LOG2 DUP1 SSTORE DUP1 RETURN JUMPDEST PUSH1 0x0 NOT DUP2 ADD SWAP1 DUP1 DUP3 GT PUSH2 0x9EE JUMPI DUP9 DUP12 MSTORE DUP4 DUP6 MSTORE DUP10 DUP8 DUP13 KECCAK256 ADD SWAP1 PUSH1 0x1 NOT ADD SWAP2 DUP3 GT PUSH2 0x9EE JUMPI DUP8 PUSH2 0x98C PUSH2 0x986 PUSH2 0x998 SWAP5 DUP10 SWAP5 PUSH2 0x12AD JUMP JUMPDEST POP PUSH2 0x12C9 JUMP JUMPDEST DUP7 DUP2 MLOAD SWAP2 ADD MLOAD SWAP1 PUSH2 0x1381 JUMP JUMPDEST SWAP2 DUP8 DUP11 MSTORE DUP1 DUP5 MSTORE DUP6 DUP11 KECCAK256 ADD SWAP1 DUP2 SLOAD SWAP3 DUP4 ADD DUP1 SWAP4 GT PUSH2 0x9DB JUMPI POP SSTORE DUP2 PUSH1 0x60 PUSH32 0x7957846783E9C0D33B6321D6F75A1BD7F3D159C11B9A3604A4984041064DA8C0 PUSH2 0x915 JUMP JUMPDEST PUSH4 0x4E487B71 PUSH1 0xE0 SHL DUP11 MSTORE PUSH1 0x11 SWAP1 MSTORE PUSH1 0x24 DUP10 REVERT JUMPDEST PUSH4 0x4E487B71 PUSH1 0xE0 SHL DUP12 MSTORE PUSH1 0x11 DUP4 MSTORE PUSH1 0x24 DUP12 REVERT JUMPDEST PUSH4 0x4E487B71 PUSH1 0xE0 SHL DUP12 MSTORE DUP11 DUP4 MSTORE PUSH1 0x24 DUP12 REVERT JUMPDEST PUSH4 0x4E487B71 PUSH1 0xE0 SHL DUP13 MSTORE PUSH1 0x41 DUP5 MSTORE PUSH1 0x24 DUP13 REVERT JUMPDEST DUP10 DUP2 SSTORE TIMESTAMP PUSH1 0x3 DUP3 ADD SSTORE PUSH2 0x8CF JUMP JUMPDEST DUP5 MLOAD PUSH3 0x461BCD PUSH1 0xE5 SHL DUP2 MSTORE SWAP1 DUP2 ADD DUP4 SWAP1 MSTORE PUSH1 0x11 PUSH1 0x24 DUP3 ADD MSTORE PUSH17 0x496E76616C6964206C6F6E676974756465 PUSH1 0x78 SHL PUSH1 0x44 DUP3 ADD MSTORE PUSH1 0x64 SWAP1 REVERT JUMPDEST POP PUSH4 0xABA9500 DUP5 SGT ISZERO PUSH2 0x884 JUMP JUMPDEST DUP5 MLOAD PUSH3 0x461BCD PUSH1 0xE5 SHL DUP2 MSTORE SWAP1 DUP2 ADD DUP4 SWAP1 MSTORE PUSH1 0x10 PUSH1 0x24 DUP3 ADD MSTORE PUSH16 0x496E76616C6964206C61746974756465 PUSH1 0x80 SHL PUSH1 0x44 DUP3 ADD MSTORE PUSH1 0x64 SWAP1 REVERT JUMPDEST POP PUSH4 0x55D4A80 DUP7 SGT ISZERO PUSH2 0x870 JUMP JUMPDEST DUP5 MLOAD PUSH3 0x461BCD PUSH1 0xE5 SHL DUP2 MSTORE SWAP1 DUP2 ADD DUP4 SWAP1 MSTORE PUSH1 0x1F PUSH1 0x24 DUP3 ADD MSTORE PUSH32 0x5265656E7472616E637947756172643A207265656E7472616E742063616C6C00 PUSH1 0x44 DUP3 ADD MSTORE PUSH1 0x64 SWAP1 REVERT JUMPDEST DUP4 DUP8 SWAP2 DUP10 PUSH2 0xB0D CALLER PUSH2 0x114A JUMP JUMPDEST SWAP2 DUP4 MLOAD SWAP1 PUSH2 0xB1A DUP3 PUSH2 0x1071 JUMP JUMPDEST PUSH1 0x42 DUP3 MSTORE DUP7 DUP3 ADD SWAP3 PUSH1 0x60 CALLDATASIZE DUP6 CALLDATACOPY DUP3 MLOAD ISZERO PUSH2 0x643 JUMPI PUSH1 0x30 DUP5 MSTORE8 DUP3 MLOAD SWAP1 PUSH1 0x1 SWAP2 DUP3 LT ISZERO PUSH2 0x630 JUMPI SWAP1 PUSH1 0x78 PUSH1 0x21 DUP6 ADD MSTORE8 PUSH1 0x41 SWAP2 JUMPDEST DUP2 DUP4 GT PUSH2 0xBA5 JUMPI POP POP POP PUSH2 0x584 JUMPI DUP4 PUSH2 0x554 PUSH1 0x48 DUP9 SWAP6 PUSH2 0x576 SWAP6 PUSH2 0x545 SWAP6 PUSH1 0x44 SWAP11 SWAP10 MLOAD SWAP7 DUP8 SWAP4 PUSH2 0x51C DUP12 DUP7 ADD SWAP12 PUSH23 0x20B1B1B2B9B9A1B7B73A3937B61D1030B1B1B7BAB73A1 PUSH1 0x4D SHL DUP14 MSTORE DUP3 MLOAD SWAP3 DUP4 SWAP2 PUSH1 0x37 DUP10 ADD SWAP2 ADD PUSH2 0x101C JUMP JUMPDEST SWAP1 SWAP2 SWAP3 PUSH1 0xF DUP2 AND PUSH1 0x10 DUP2 LT ISZERO PUSH2 0x61D JUMPI PUSH16 0x181899199A1A9B1B9C1CB0B131B232B3 PUSH1 0x81 SHL SWAP1 BYTE PUSH2 0xBD5 DUP6 DUP8 PUSH2 0x1123 JUMP JUMPDEST MSTORE8 DUP9 SHR SWAP3 DUP1 ISZERO PUSH2 0x60A JUMPI PUSH1 0x0 NOT ADD SWAP2 SWAP1 PUSH2 0xB4B JUMP JUMPDEST POP SWAP1 CALLVALUE PUSH2 0x25E JUMPI PUSH2 0xBFA CALLDATASIZE PUSH2 0xE1B JUMP JUMPDEST SWAP2 CALLER PUSH1 0x1 PUSH1 0x1 PUSH1 0xA0 SHL SUB DUP5 AND SUB PUSH2 0xC16 JUMPI POP SWAP1 PUSH2 0x2B6 SWAP2 PUSH2 0x10AF JUMP JUMPDEST PUSH1 0x84 SWAP1 PUSH1 0x20 DUP7 MLOAD SWAP2 PUSH3 0x461BCD PUSH1 0xE5 SHL DUP4 MSTORE DUP3 ADD MSTORE PUSH1 0x2F PUSH1 0x24 DUP3 ADD MSTORE PUSH32 0x416363657373436F6E74726F6C3A2063616E206F6E6C792072656E6F756E6365 PUSH1 0x44 DUP3 ADD MSTORE PUSH15 0x103937B632B9903337B91039B2B633 PUSH1 0x89 SHL PUSH1 0x64 DUP3 ADD MSTORE REVERT JUMPDEST POP DUP3 CALLVALUE PUSH2 0x25E JUMPI PUSH2 0xC81 CALLDATASIZE PUSH2 0xE1B JUMP JUMPDEST SWAP1 SWAP2 DUP3 DUP5 MSTORE DUP4 PUSH1 0x20 MSTORE PUSH2 0xC99 PUSH1 0x1 DUP3 DUP7 KECCAK256 ADD SLOAD PUSH2 0xE60 JUMP JUMPDEST DUP3 DUP5 MSTORE PUSH1 0x20 DUP5 DUP2 MSTORE DUP2 DUP6 KECCAK256 PUSH1 0x1 PUSH1 0x1 PUSH1 0xA0 SHL SUB SWAP1 SWAP4 AND DUP1 DUP7 MSTORE SWAP3 SWAP1 MSTORE DUP1 DUP5 KECCAK256 SLOAD PUSH1 0xFF AND ISZERO PUSH2 0xCC5 JUMPI DUP4 DUP1 RETURN JUMPDEST DUP3 DUP5 MSTORE DUP4 PUSH1 0x20 MSTORE DUP1 DUP5 KECCAK256 DUP3 DUP6 MSTORE PUSH1 0x20 MSTORE DUP4 KECCAK256 PUSH1 0x1 PUSH1 0xFF NOT DUP3 SLOAD AND OR SWAP1 SSTORE CALLER SWAP2 PUSH32 0x2F8788117E7EFF1D82E926EC794901D17C78024A50270940304540A733656F0D DUP5 DUP1 LOG4 DUP2 DUP1 DUP1 DUP4 DUP1 RETURN JUMPDEST POP SWAP2 SWAP1 CALLVALUE PUSH2 0x281 JUMPI PUSH1 0x20 CALLDATASIZE PUSH1 0x3 NOT ADD SLT PUSH2 0x281 JUMPI DUP2 PUSH1 0x20 SWAP4 PUSH1 0x1 SWAP3 CALLDATALOAD DUP2 MSTORE DUP1 DUP6 MSTORE KECCAK256 ADD SLOAD SWAP1 MLOAD SWAP1 DUP2 MSTORE RETURN JUMPDEST POP DUP3 CALLVALUE PUSH2 0x25E JUMPI DUP2 PUSH1 0x3 NOT CALLDATASIZE ADD SLT PUSH2 0x25E JUMPI PUSH1 0x20 SWAP1 MLOAD PUSH3 0x6136B8 DUP2 MSTORE RETURN JUMPDEST POP DUP3 SWAP1 CALLVALUE PUSH2 0x23F JUMPI PUSH1 0x80 CALLDATASIZE PUSH1 0x3 NOT ADD SLT PUSH2 0x23F JUMPI POP PUSH2 0xD85 PUSH1 0x20 SWAP3 PUSH1 0x64 CALLDATALOAD SWAP1 PUSH1 0x44 CALLDATALOAD SWAP1 PUSH1 0x24 CALLDATALOAD SWAP1 CALLDATALOAD PUSH2 0x1381 JUMP JUMPDEST SWAP1 MLOAD SWAP1 DUP2 MSTORE RETURN JUMPDEST POP DUP3 CALLVALUE PUSH2 0x25E JUMPI DUP2 PUSH1 0x3 NOT CALLDATASIZE ADD SLT PUSH2 0x25E JUMPI PUSH1 0x20 SWAP1 MLOAD PUSH32 0x68E79A7BF1E0BC45D0A330C573BC367F9CF464FD326078812F301165FBDA4EF1 DUP2 MSTORE RETURN JUMPDEST SWAP1 POP DUP3 CALLVALUE PUSH2 0x281 JUMPI PUSH1 0x20 CALLDATASIZE PUSH1 0x3 NOT ADD SLT PUSH2 0x281 JUMPI CALLDATALOAD PUSH4 0xFFFFFFFF PUSH1 0xE0 SHL DUP2 AND DUP1 SWAP2 SUB PUSH2 0x281 JUMPI PUSH1 0x20 SWAP3 POP PUSH4 0x7965DB0B PUSH1 0xE0 SHL DUP2 EQ SWAP1 DUP2 ISZERO PUSH2 0xE0A JUMPI JUMPDEST POP ISZERO ISZERO DUP2 MSTORE RETURN JUMPDEST PUSH4 0x1FFC9A7 PUSH1 0xE0 SHL EQ SWAP1 POP DUP4 PUSH2 0xE03 JUMP JUMPDEST PUSH1 0x40 SWAP1 PUSH1 0x3 NOT ADD SLT PUSH2 0xE41 JUMPI PUSH1 0x4 CALLDATALOAD SWAP1 PUSH1 0x24 CALLDATALOAD PUSH1 0x1 PUSH1 0x1 PUSH1 0xA0 SHL SUB DUP2 AND DUP2 SUB PUSH2 0xE41 JUMPI SWAP1 JUMP JUMPDEST PUSH1 0x0 DUP1 REVERT JUMPDEST PUSH1 0x60 SWAP1 PUSH1 0x3 NOT ADD SLT PUSH2 0xE41 JUMPI PUSH1 0x4 CALLDATALOAD SWAP1 PUSH1 0x24 CALLDATALOAD SWAP1 PUSH1 0x44 CALLDATALOAD SWAP1 JUMP JUMPDEST PUSH1 0x0 DUP2 DUP2 MSTORE PUSH1 0x20 DUP2 DUP2 MSTORE PUSH1 0x40 SWAP3 DUP4 DUP4 KECCAK256 CALLER DUP5 MSTORE DUP3 MSTORE PUSH1 0xFF DUP5 DUP5 KECCAK256 SLOAD AND ISZERO PUSH2 0xE87 JUMPI POP POP POP POP JUMP JUMPDEST PUSH2 0xE90 CALLER PUSH2 0x114A JUMP JUMPDEST SWAP1 DUP5 MLOAD SWAP1 PUSH2 0xE9D DUP3 PUSH2 0x1071 JUMP JUMPDEST PUSH1 0x42 DUP3 MSTORE DUP4 DUP3 ADD SWAP5 PUSH1 0x60 CALLDATASIZE DUP8 CALLDATACOPY DUP3 MLOAD ISZERO PUSH2 0x1008 JUMPI PUSH1 0x30 DUP7 MSTORE8 DUP3 MLOAD SWAP1 PUSH1 0x1 SWAP2 DUP3 LT ISZERO PUSH2 0x1008 JUMPI SWAP1 PUSH1 0x78 PUSH1 0x21 DUP6 ADD MSTORE8 PUSH1 0x41 SWAP2 JUMPDEST DUP2 DUP4 GT PUSH2 0xF9A JUMPI POP POP POP PUSH2 0xF58 JUMPI DUP5 PUSH2 0xF34 PUSH1 0x48 PUSH2 0x576 SWAP4 PUSH1 0x44 SWAP8 SWAP9 MLOAD SWAP9 DUP10 SWAP2 PUSH2 0xF25 DUP10 DUP5 ADD SWAP9 PUSH23 0x20B1B1B2B9B9A1B7B73A3937B61D1030B1B1B7BAB73A1 PUSH1 0x4D SHL DUP11 MSTORE PUSH2 0x51C DUP2 MLOAD DUP1 SWAP3 DUP14 PUSH1 0x37 DUP10 ADD SWAP2 ADD PUSH2 0x101C JUMP JUMPDEST ADD SUB PUSH1 0x28 DUP2 ADD DUP10 MSTORE ADD DUP8 PUSH2 0x108D JUMP JUMPDEST MLOAD SWAP5 DUP6 SWAP4 PUSH3 0x461BCD PUSH1 0xE5 SHL DUP6 MSTORE PUSH1 0x4 DUP6 ADD MSTORE MLOAD DUP1 SWAP3 DUP2 PUSH1 0x24 DUP7 ADD MSTORE DUP6 DUP6 ADD SWAP1 PUSH2 0x101C JUMP JUMPDEST PUSH1 0x64 DUP4 DUP7 MLOAD SWAP1 PUSH3 0x461BCD PUSH1 0xE5 SHL DUP3 MSTORE DUP1 PUSH1 0x4 DUP4 ADD MSTORE PUSH1 0x24 DUP3 ADD MSTORE PUSH32 0x537472696E67733A20686578206C656E67746820696E73756666696369656E74 PUSH1 0x44 DUP3 ADD MSTORE REVERT JUMPDEST SWAP1 SWAP2 SWAP3 PUSH1 0xF DUP2 AND PUSH1 0x10 DUP2 LT ISZERO PUSH2 0xFF4 JUMPI PUSH16 0x181899199A1A9B1B9C1CB0B131B232B3 PUSH1 0x81 SHL SWAP1 BYTE PUSH2 0xFCA DUP6 DUP8 PUSH2 0x1123 JUMP JUMPDEST MSTORE8 PUSH1 0x4 SHR SWAP3 DUP1 ISZERO PUSH2 0xFE0 JUMPI PUSH1 0x0 NOT ADD SWAP2 SWAP1 PUSH2 0xECE JUMP JUMPDEST PUSH4 0x4E487B71 PUSH1 0xE0 SHL DUP3 MSTORE PUSH1 0x11 PUSH1 0x4 MSTORE PUSH1 0x24 DUP3 REVERT JUMPDEST PUSH4 0x4E487B71 PUSH1 0xE0 SHL DUP4 MSTORE PUSH1 0x32 PUSH1 0x4 MSTORE PUSH1 0x24 DUP4 REVERT JUMPDEST PUSH4 0x4E487B71 PUSH1 0xE0 SHL DUP2 MSTORE PUSH1 0x32 PUSH1 0x4 MSTORE PUSH1 0x24 SWAP1 REVERT JUMPDEST PUSH1 0x0 JUMPDEST DUP4 DUP2 LT PUSH2 0x102F JUMPI POP POP PUSH1 0x0 SWAP2 ADD MSTORE JUMP JUMPDEST DUP2 DUP2 ADD MLOAD DUP4 DUP3 ADD MSTORE PUSH1 0x20 ADD PUSH2 0x101F JUMP JUMPDEST PUSH1 0xA0 DUP2 ADD SWAP1 DUP2 LT PUSH8 0xFFFFFFFFFFFFFFFF DUP3 GT OR PUSH2 0x105B JUMPI PUSH1 0x40 MSTORE JUMP JUMPDEST PUSH4 0x4E487B71 PUSH1 0xE0 SHL PUSH1 0x0 MSTORE PUSH1 0x41 PUSH1 0x4 MSTORE PUSH1 0x24 PUSH1 0x0 REVERT JUMPDEST PUSH1 0x80 DUP2 ADD SWAP1 DUP2 LT PUSH8 0xFFFFFFFFFFFFFFFF DUP3 GT OR PUSH2 0x105B JUMPI PUSH1 0x40 MSTORE JUMP JUMPDEST SWAP1 PUSH1 0x1F DUP1 NOT SWAP2 ADD AND DUP2 ADD SWAP1 DUP2 LT PUSH8 0xFFFFFFFFFFFFFFFF DUP3 GT OR PUSH2 0x105B JUMPI PUSH1 0x40 MSTORE JUMP JUMPDEST SWAP1 PUSH1 0x0 SWAP2 DUP1 DUP4 MSTORE DUP3 PUSH1 0x20 MSTORE PUSH1 0x40 DUP4 KECCAK256 SWAP2 PUSH1 0x1 DUP1 PUSH1 0xA0 SHL SUB AND SWAP2 DUP3 DUP5 MSTORE PUSH1 0x20 MSTORE PUSH1 0xFF PUSH1 0x40 DUP5 KECCAK256 SLOAD AND PUSH2 0x10DF JUMPI POP POP POP JUMP JUMPDEST DUP1 DUP4 MSTORE DUP3 PUSH1 0x20 MSTORE PUSH1 0x40 DUP4 KECCAK256 DUP3 DUP5 MSTORE PUSH1 0x20 MSTORE PUSH1 0x40 DUP4 KECCAK256 PUSH1 0xFF NOT DUP2 SLOAD AND SWAP1 SSTORE PUSH32 0xF6391F5C32D9C69D2A47EA670B442974B53935D1EDC7FD64EB21E047A839171B CALLER SWAP4 DUP1 LOG4 JUMP JUMPDEST SWAP1 DUP2 MLOAD DUP2 LT ISZERO PUSH2 0x1134 JUMPI ADD PUSH1 0x20 ADD SWAP1 JUMP JUMPDEST PUSH4 0x4E487B71 PUSH1 0xE0 SHL PUSH1 0x0 MSTORE PUSH1 0x32 PUSH1 0x4 MSTORE PUSH1 0x24 PUSH1 0x0 REVERT JUMPDEST PUSH1 0x40 MLOAD SWAP1 PUSH1 0x60 DUP3 ADD DUP3 DUP2 LT PUSH8 0xFFFFFFFFFFFFFFFF DUP3 GT OR PUSH2 0x105B JUMPI PUSH1 0x40 MSTORE PUSH1 0x2A DUP3 MSTORE PUSH1 0x20 DUP3 ADD PUSH1 0x40 CALLDATASIZE DUP3 CALLDATACOPY DUP3 MLOAD ISZERO PUSH2 0x1134 JUMPI PUSH1 0x30 SWAP1 MSTORE8 DUP2 MLOAD PUSH1 0x1 SWAP1 DUP2 LT ISZERO PUSH2 0x1134 JUMPI PUSH1 0x78 PUSH1 0x21 DUP5 ADD MSTORE8 PUSH1 0x29 SWAP1 JUMPDEST DUP1 DUP3 GT PUSH2 0x11EB JUMPI POP POP PUSH2 0x11A7 JUMPI SWAP1 JUMP JUMPDEST PUSH1 0x64 PUSH1 0x40 MLOAD PUSH3 0x461BCD PUSH1 0xE5 SHL DUP2 MSTORE PUSH1 0x20 PUSH1 0x4 DUP3 ADD MSTORE PUSH1 0x20 PUSH1 0x24 DUP3 ADD MSTORE PUSH32 0x537472696E67733A20686578206C656E67746820696E73756666696369656E74 PUSH1 0x44 DUP3 ADD MSTORE REVERT JUMPDEST SWAP1 SWAP2 PUSH1 0xF DUP2 AND PUSH1 0x10 DUP2 LT ISZERO PUSH2 0x1244 JUMPI PUSH16 0x181899199A1A9B1B9C1CB0B131B232B3 PUSH1 0x81 SHL SWAP1 BYTE PUSH2 0x121A DUP5 DUP7 PUSH2 0x1123 JUMP JUMPDEST MSTORE8 PUSH1 0x4 SHR SWAP2 DUP1 ISZERO PUSH2 0x122F JUMPI PUSH1 0x0 NOT ADD SWAP1 PUSH2 0x1197 JUMP JUMPDEST PUSH1 0x24 PUSH1 0x0 PUSH4 0x4E487B71 PUSH1 0xE0 SHL DUP2 MSTORE PUSH1 0x11 PUSH1 0x4 MSTORE REVERT JUMPDEST PUSH1 0x24 PUSH1 0x0 PUSH4 0x4E487B71 PUSH1 0xE0 SHL DUP2 MSTORE PUSH1 0x32 PUSH1 0x4 MSTORE REVERT JUMPDEST PUSH1 0x3 SWAP1 DUP3 MLOAD DUP2 SSTORE PUSH1 0x20 DUP4 ADD MLOAD PUSH1 0x1 DUP3 ADD SSTORE PUSH1 0x40 DUP4 ADD MLOAD PUSH1 0x2 DUP3 ADD SSTORE ADD SWAP1 PUSH1 0x1 DUP1 PUSH1 0xA0 SHL SUB PUSH1 0x60 DUP3 ADD MLOAD AND DUP3 SLOAD SWAP2 PUSH1 0x80 PUSH1 0xFF PUSH1 0xA0 SHL SWAP2 ADD MLOAD ISZERO ISZERO PUSH1 0xA0 SHL AND SWAP2 PUSH11 0xFFFFFFFFFFFFFFFFFFFFFF PUSH1 0xA8 SHL AND OR OR SWAP1 SSTORE JUMP JUMPDEST DUP1 SLOAD DUP3 LT ISZERO PUSH2 0x1134 JUMPI PUSH1 0x0 MSTORE PUSH1 0x20 PUSH1 0x0 KECCAK256 SWAP1 PUSH1 0x2 SHL ADD SWAP1 PUSH1 0x0 SWAP1 JUMP JUMPDEST SWAP1 PUSH1 0x40 MLOAD PUSH2 0x12D6 DUP2 PUSH2 0x103F JUMP JUMPDEST DUP3 SLOAD DUP2 MSTORE PUSH1 0x1 DUP4 ADD SLOAD PUSH1 0x20 DUP3 ADD MSTORE PUSH1 0x2 DUP4 ADD SLOAD PUSH1 0x40 DUP3 ADD MSTORE PUSH1 0x3 SWAP3 SWAP1 SWAP3 ADD SLOAD PUSH1 0x1 PUSH1 0x1 PUSH1 0xA0 SHL SUB DUP2 AND PUSH1 0x60 DUP5 ADD MSTORE PUSH1 0xA0 SHR PUSH1 0xFF AND ISZERO ISZERO PUSH1 0x80 DUP4 ADD MSTORE JUMP JUMPDEST DUP2 DUP2 SUB SWAP3 SWAP2 PUSH1 0x0 SGT DUP1 ISZERO DUP3 DUP6 SGT AND SWAP2 DUP5 SLT AND OR PUSH2 0x132C JUMPI JUMP JUMPDEST PUSH4 0x4E487B71 PUSH1 0xE0 SHL PUSH1 0x0 MSTORE PUSH1 0x11 PUSH1 0x4 MSTORE PUSH1 0x24 PUSH1 0x0 REVERT JUMPDEST DUP2 DUP2 MUL SWAP3 SWAP2 PUSH1 0x0 DUP3 SLT PUSH1 0x1 PUSH1 0xFF SHL DUP3 EQ AND PUSH2 0x132C JUMPI DUP2 DUP5 SDIV EQ SWAP1 ISZERO OR ISZERO PUSH2 0x132C JUMPI JUMP JUMPDEST SWAP2 SWAP1 SWAP2 PUSH1 0x0 DUP4 DUP3 ADD SWAP4 DUP5 SLT SWAP2 SLT SWAP1 DUP1 ISZERO DUP3 AND SWAP2 ISZERO AND OR PUSH2 0x132C JUMPI JUMP JUMPDEST PUSH2 0x139F PUSH2 0x13AD SWAP3 PUSH2 0x1399 PUSH2 0x13A6 SWAP4 PUSH2 0x13B3 SWAP8 SWAP7 PUSH2 0x1313 JUMP JUMPDEST SWAP5 PUSH2 0x1313 JUMP JUMPDEST SWAP3 DUP1 PUSH2 0x1342 JUMP JUMPDEST SWAP2 DUP1 PUSH2 0x1342 JUMP JUMPDEST SWAP1 PUSH2 0x1365 JUMP JUMPDEST PUSH1 0x0 PUSH1 0x1 DUP3 ADD SWAP1 PUSH1 0x1 DUP3 SLT DUP2 DUP5 SLT SWAP1 DUP1 ISZERO DUP3 AND SWAP2 ISZERO AND OR PUSH2 0x1430 JUMPI POP PUSH1 0x2 SWAP1 DUP2 SWAP1 SDIV SWAP1 DUP3 PUSH1 0x1 PUSH1 0xFF SHL DUP2 EQ JUMPDEST DUP5 DUP5 SLT PUSH2 0x13ED JUMPI POP POP POP POP SWAP1 JUMP JUMPDEST SWAP3 SWAP4 POP SWAP1 SWAP2 DUP4 DUP1 ISZERO PUSH2 0x141A JUMPI PUSH1 0x0 NOT DUP2 EQ DUP3 AND PUSH2 0x132C JUMPI PUSH2 0x1411 DUP2 DUP6 SWAP3 DUP6 SDIV PUSH2 0x1365 JUMP JUMPDEST SDIV SWAP3 SWAP2 SWAP1 PUSH2 0x13DF JUMP JUMPDEST PUSH4 0x4E487B71 PUSH1 0xE0 SHL PUSH1 0x0 MSTORE PUSH1 0x12 PUSH1 0x4 MSTORE PUSH1 0x24 PUSH1 0x0 REVERT JUMPDEST PUSH4 0x4E487B71 PUSH1 0xE0 SHL DUP2 MSTORE PUSH1 0x11 PUSH1 0x4 MSTORE PUSH1 0x24 SWAP1 REVERT INVALID LOG2 PUSH5 0x6970667358 0x22 SLT KECCAK256 PUSH3 0xB9FE55 JUMPI REVERT 0x26 ISZERO 0xFC DUP8 0xC1 MSTORE SLT SWAP1 0xB5 SELFBALANCE SWAP12 PUSH10 0x97A97C53B4759AB2F29B JUMPDEST EXTCODECOPY BLOCKHASH 0x2D PUSH5 0x736F6C6343 STOP ADDMOD EQ STOP CALLER "},"methodIdentifiers":{"DEFAULT_ADMIN_ROLE()":"a217fddf","DELIVERER_ROLE()":"650c6441","DELIVERY_RADIUS()":"f1e678f5","EARTH_RADIUS()":"16e0f221","ORACLE_ROLE()":"07e2cea5","calculateDistance(int256,int256,int256,int256)":"12718525","currentLocations(uint256)":"9cb5961e","deliveryRadius()":"eddb63e3","deliveryRoutes(uint256)":"c6fab3b3","getDeliveryRoute(uint256)":"f2fe8e0d","getRoleAdmin(bytes32)":"248a9ca3","grantRole(bytes32,address)":"2f2ff15d","hasRole(bytes32,address)":"91d14854","renounceRole(bytes32,address)":"36568abe","revokeRole(bytes32,address)":"d547741f","setDeliveryRadius(uint256)":"7bbf344b","supportsInterface(bytes4)":"01ffc9a7","updateLocation(uint256,int256,int256)":"4d077cd5","verifyDelivery(uint256,int256,int256)":"7cd86e46"}}}}}