{"contracts/DoneToken.sol":{"DoneToken":{"abi":[{"inputs":[],"stateMutability":"nonpayable","type":"constructor"},{"anonymous":false,"inputs":[{"indexed":true,"internalType":"address","name":"owner","type":"address"},{"indexed":true,"internalType":"address","name":"spender","type":"address"},{"indexed":false,"internalType":"uint256","name":"value","type":"uint256"}],"name":"Approval","type":"event"},{"anonymous":false,"inputs":[{"indexed":true,"internalType":"bytes32","name":"role","type":"bytes32"},{"indexed":true,"internalType":"bytes32","name":"previousAdminRole","type":"bytes32"},{"indexed":true,"internalType":"bytes32","name":"newAdminRole","type":"bytes32"}],"name":"RoleAdminChanged","type":"event"},{"anonymous":false,"inputs":[{"indexed":true,"internalType":"bytes32","name":"role","type":"bytes32"},{"indexed":true,"internalType":"address","name":"account","type":"address"},{"indexed":true,"internalType":"address","name":"sender","type":"address"}],"name":"RoleGranted","type":"event"},{"anonymous":false,"inputs":[{"indexed":true,"internalType":"bytes32","name":"role","type":"bytes32"},{"indexed":true,"internalType":"address","name":"account","type":"address"},{"indexed":true,"internalType":"address","name":"sender","type":"address"}],"name":"RoleRevoked","type":"event"},{"anonymous":false,"inputs":[{"indexed":true,"internalType":"address","name":"from","type":"address"},{"indexed":true,"internalType":"address","name":"to","type":"address"},{"indexed":false,"internalType":"uint256","name":"value","type":"uint256"}],"name":"Transfer","type":"event"},{"inputs":[],"name":"DEFAULT_ADMIN_ROLE","outputs":[{"internalType":"bytes32","name":"","type":"bytes32"}],"stateMutability":"view","type":"function"},{"inputs":[],"name":"MINTER_ROLE","outputs":[{"internalType":"bytes32","name":"","type":"bytes32"}],"stateMutability":"view","type":"function"},{"inputs":[{"internalType":"address","name":"owner","type":"address"},{"internalType":"address","name":"spender","type":"address"}],"name":"allowance","outputs":[{"internalType":"uint256","name":"","type":"uint256"}],"stateMutability":"view","type":"function"},{"inputs":[{"internalType":"address","name":"spender","type":"address"},{"internalType":"uint256","name":"amount","type":"uint256"}],"name":"approve","outputs":[{"internalType":"bool","name":"","type":"bool"}],"stateMutability":"nonpayable","type":"function"},{"inputs":[{"internalType":"address","name":"account","type":"address"}],"name":"balanceOf","outputs":[{"internalType":"uint256","name":"","type":"uint256"}],"stateMutability":"view","type":"function"},{"inputs":[{"internalType":"uint256","name":"amount","type":"uint256"}],"name":"burn","outputs":[],"stateMutability":"nonpayable","type":"function"},{"inputs":[{"internalType":"address","name":"account","type":"address"},{"internalType":"uint256","name":"amount","type":"uint256"}],"name":"burnFrom","outputs":[],"stateMutability":"nonpayable","type":"function"},{"inputs":[{"internalType":"uint256","name":"foodPrice","type":"uint256"}],"name":"calculateReward","outputs":[{"internalType":"uint256","name":"","type":"uint256"}],"stateMutability":"pure","type":"function"},{"inputs":[],"name":"decimals","outputs":[{"internalType":"uint8","name":"","type":"uint8"}],"stateMutability":"view","type":"function"},{"inputs":[{"internalType":"address","name":"spender","type":"address"},{"internalType":"uint256","name":"subtractedValue","type":"uint256"}],"name":"decreaseAllowance","outputs":[{"internalType":"bool","name":"","type":"bool"}],"stateMutability":"nonpayable","type":"function"},{"inputs":[{"internalType":"bytes32","name":"role","type":"bytes32"}],"name":"getRoleAdmin","outputs":[{"internalType":"bytes32","name":"","type":"bytes32"}],"stateMutability":"view","type":"function"},{"inputs":[{"internalType":"bytes32","name":"role","type":"bytes32"},{"internalType":"address","name":"account","type":"address"}],"name":"grantRole","outputs":[],"stateMutability":"nonpayable","type":"function"},{"inputs":[{"internalType":"bytes32","name":"role","type":"bytes32"},{"internalType":"address","name":"account","type":"address"}],"name":"hasRole","outputs":[{"internalType":"bool","name":"","type":"bool"}],"stateMutability":"view","type":"function"},{"inputs":[{"internalType":"address","name":"spender","type":"address"},{"internalType":"uint256","name":"addedValue","type":"uint256"}],"name":"increaseAllowance","outputs":[{"internalType":"bool","name":"","type":"bool"}],"stateMutability":"nonpayable","type":"function"},{"inputs":[{"internalType":"address","name":"to","type":"address"},{"internalType":"uint256","name":"amount","type":"uint256"}],"name":"mint","outputs":[],"stateMutability":"nonpayable","type":"function"},{"inputs":[],"name":"name","outputs":[{"internalType":"string","name":"","type":"string"}],"stateMutability":"view","type":"function"},{"inputs":[{"internalType":"bytes32","name":"role","type":"bytes32"},{"internalType":"address","name":"account","type":"address"}],"name":"renounceRole","outputs":[],"stateMutability":"nonpayable","type":"function"},{"inputs":[{"internalType":"bytes32","name":"role","type":"bytes32"},{"internalType":"address","name":"account","type":"address"}],"name":"revokeRole","outputs":[],"stateMutability":"nonpayable","type":"function"},{"inputs":[{"internalType":"bytes4","name":"interfaceId","type":"bytes4"}],"name":"supportsInterface","outputs":[{"internalType":"bool","name":"","type":"bool"}],"stateMutability":"view","type":"function"},{"inputs":[],"name":"symbol","outputs":[{"internalType":"string","name":"","type":"string"}],"stateMutability":"view","type":"function"},{"inputs":[],"name":"totalSupply","outputs":[{"internalType":"uint256","name":"","type":"uint256"}],"stateMutability":"view","type":"function"},{"inputs":[{"internalType":"address","name":"to","type":"address"},{"internalType":"uint256","name":"amount","type":"uint256"}],"name":"transfer","outputs":[{"internalType":"bool","name":"","type":"bool"}],"stateMutability":"nonpayable","type":"function"},{"inputs":[{"internalType":"address","name":"from","type":"address"},{"internalType":"address","name":"to","type":"address"},{"internalType":"uint256","name":"amount","type":"uint256"}],"name":"transferFrom","outputs":[{"internalType":"bool","name":"","type":"bool"}],"stateMutability":"nonpayable","type":"function"}],"evm":{"bytecode":{"linkReferences":{},"object":"6080346200041b576001600160401b03906040908082018381118282101762000405578252600a8152602090692227a722902a37b5b2b760b11b82820152825193838501858110828211176200040557845260049081865263444f4e4560e01b848701528251818111620003f0576003908154906001958683811c93168015620003e5575b88841014620003d0578190601f938481116200037a575b508890848311600114620003135760009262000307575b505060001982851b1c191690861b1782555b8751928311620002f25783548581811c91168015620002e7575b87821014620002d25781811162000287575b50859083116001146200021b578293949596976000936200020f575b505082851b92600019911b1c19161790555b60008052600582528260002033600052825260ff83600020541615620001d2575b7f9f2df0fed2c77648de5860a4cc508cd0818c85b8b8a1ab4ceeef8d981c8956a69182600052600581528360002033600052815260ff8460002054161562000191575b83516114369081620004218239f35b826000526005815283600020903360005252826000209060ff198254161790553390339060008051602062001857833981519152600080a438808062000182565b600080526005825282600020336000528252826000208160ff1982541617905533336000600080516020620018578339815191528180a46200013f565b0151915038806200010c565b90601f1983169184600052866000209260005b81811062000271575098848798999a9796971062000256575b50505050811b0190556200011e565b01519060f884600019921b161c191690553880808062000247565b8a8301518555938701939188019188016200022e565b84600052866000208280860160051c820192898710620002c8575b0160051c019086905b828110620002bb575050620000f0565b60008155018690620002ab565b92508192620002a2565b602285634e487b7160e01b6000525260246000fd5b90607f1690620000de565b604184634e487b7160e01b6000525260246000fd5b015190503880620000b2565b90889350601f19831691866000528a6000209260005b8c8282106200036357505084116200034a575b505050811b018255620000c4565b015160001983871b60f8161c191690553880806200033c565b8385015186558c9790950194938401930162000329565b90915084600052886000208480850160051c8201928b8610620003c6575b918a91869594930160051c01915b828110620003b65750506200009b565b600081558594508a9101620003a6565b9250819262000398565b602286634e487b7160e01b6000525260246000fd5b92607f169262000084565b604183634e487b7160e01b6000525260246000fd5b634e487b7160e01b600052604160045260246000fd5b600080fdfe608060408181526004918236101561001657600080fd5b600092833560e01c91826301ffc9a714610be65750816306fdde0314610af1578163095ea7b314610ac757816318160ddd14610aa857816323b872dd146109de578163248a9ca3146109b35781632f2ff15d14610906578163313ce567146108ea57816336568abe14610858578163395093511461080857816340c10f191461054757816342966c681461052957816370a08231146104f257816379cc67901461044b57816391d148541461040457816395d89b4114610301578163a217fddf146102e6578163a457c2d714610241578163a9059cbb14610210578163d2d7231f146101eb578163d5391393146101b0578163d547741f1461016d575063dd62ed3e1461012257600080fd5b346101695780600319360112610169578060209261013e610c88565b610146610ca3565b6001600160a01b0391821683526001865283832091168252845220549051908152f35b5080fd5b919050346101ac57806003193601126101ac576101a991356101a46001610192610ca3565b93838752600560205286200154610cb9565b610eba565b80f35b8280fd5b505034610169578160031936011261016957602090517f9f2df0fed2c77648de5860a4cc508cd0818c85b8b8a1ab4ceeef8d981c8956a68152f35b9050823461020d57602036600319011261020d5750600a602092519135048152f35b80fd5b50503461016957806003193601126101695760209061023a610230610c88565b6024359033610f53565b5160018152f35b9050823461020d578260031936011261020d5761025c610c88565b918360243592338152600160205281812060018060a01b03861682526020522054908282106102955760208561023a85850387336110c1565b608490602086519162461bcd60e51b8352820152602560248201527f45524332303a2064656372656173656420616c6c6f77616e63652062656c6f77604482015264207a65726f60d81b6064820152fd5b50503461016957816003193601126101695751908152602090f35b838334610169578160031936011261016957805191809380549160019083821c928285169485156103fa575b60209586861081146103e7578589529081156103c3575060011461036b575b610367878761035d828c0383610e98565b5191829182610c5c565b0390f35b81529295507f8a35acfbc15ff81a39ae7d344fd709f28e8600b4aa8c65c6b64bfe7fe36bd19b5b8284106103b057505050826103679461035d9282010194868061034c565b8054868501880152928601928101610392565b60ff19168887015250505050151560051b830101925061035d82610367868061034c565b634e487b7160e01b845260228352602484fd5b93607f169361032d565b9050346101ac57816003193601126101ac578160209360ff92610425610ca3565b90358252600586528282206001600160a01b039091168252855220549151911615158152f35b838334610169578060031936011261016957610465610c88565b6001600160a01b038116835260016020908152828420338552905281832054602435928382106104c257508281039081116104af57906104aa6101a9939233836110c1565b6112f9565b634e487b7160e01b845260118552602484fd5b5162461bcd60e51b8152602081870152600b60248201526a139bdd08185b1b1bddd95960aa1b6044820152606490fd5b5050346101695760203660031901126101695760209181906001600160a01b0361051a610c88565b16815280845220549051908152f35b839034610169576020366003190112610169576101a99035336112f9565b9050346101ac57816003193601126101ac57610561610c88565b906024928335917f9f2df0fed2c77648de5860a4cc508cd0818c85b8b8a1ab4ceeef8d981c8956a69384875260209460058652838820338952865260ff84892054161561064657506001600160a01b0316948515610606575050918185936105ec7fddf252ad1be2c89b69c2b068fc378daa952ba7f163c4a11628f55a4df523b3ef94600254610f30565b60025585855284835280852082815401905551908152a380f35b601f9085606494519362461bcd60e51b85528401528201527f45524332303a206d696e7420746f20746865207a65726f2061646472657373006044820152fd5b859150868891610655336111ea565b909186519261066384610e66565b604284528584019460603687378451156107f657603086538451906001918210156107e45790607860218701536041915b81831161077b5750505061073a5750610736938693610722936107136048946106ea9a519a8576020b1b1b2b9b9a1b7b73a3937b61d1030b1b1b7bab73a1604d1b8d978801528251928391603789019101610c39565b8401917001034b99036b4b9b9b4b733903937b6329607d1b603784015251809386840190610c39565b01036028810187520185610e98565b5162461bcd60e51b81529283928301610c5c565b0390fd5b9250505081606494519362461bcd60e51b85528401528201527f537472696e67733a20686578206c656e67746820696e73756666696369656e746044820152fd5b909192600f811660108110156107d2576f181899199a1a9b1b9c1cb0b131b232b360811b901a6107ab85896111c3565b53891c9280156107c057600019019190610694565b634e487b7160e01b825260118a528482fd5b634e487b7160e01b835260328b528583fd5b634e487b7160e01b8152603289528390fd5b634e487b7160e01b8152603288529050fd5b50503461016957806003193601126101695761023a60209261085161082b610c88565b338352600186528483206001600160a01b03821684528652918490205460243590610f30565b90336110c1565b83915034610169578260031936011261016957610873610ca3565b90336001600160a01b0383160361088f57906101a99135610eba565b608490602085519162461bcd60e51b8352820152602f60248201527f416363657373436f6e74726f6c3a2063616e206f6e6c792072656e6f756e636560448201526e103937b632b9903337b91039b2b63360891b6064820152fd5b5050346101695781600319360112610169576020905160128152f35b9050346101ac57816003193601126101ac573590610922610ca3565b90828452600560205261093a60018286200154610cb9565b828452600560209081528185206001600160a01b039093168086529290528084205460ff1615610968578380f35b82845260056020528084208285526020528320600160ff1982541617905533917f2f8788117e7eff1d82e926ec794901d17c78024a50270940304540a733656f0d8480a43880808380f35b9050346101ac5760203660031901126101ac5781602093600192358152600585522001549051908152f35b83915034610169576060366003190112610169576109fa610c88565b610a02610ca3565b91846044359460018060a01b038416815260016020528181203382526020522054906000198203610a3c575b60208661023a878787610f53565b848210610a655750918391610a5a6020969561023a950333836110c1565b919394819350610a2e565b606490602087519162461bcd60e51b8352820152601d60248201527f45524332303a20696e73756666696369656e7420616c6c6f77616e63650000006044820152fd5b5050346101695781600319360112610169576020906002549051908152f35b50503461016957806003193601126101695760209061023a610ae7610c88565b60243590336110c1565b919050346101ac57826003193601126101ac57805191836003549060019082821c928281168015610bdc575b6020958686108214610bc95750848852908115610ba75750600114610b4e575b610367868661035d828b0383610e98565b929550600383527fc2575a0e9e593c00f959f8c92f12db2869c3395a3b0502d05e2516446f71f85b5b828410610b9457505050826103679461035d928201019438610b3d565b8054868501880152928601928101610b77565b60ff191687860152505050151560051b830101925061035d8261036738610b3d565b634e487b7160e01b845260229052602483fd5b93607f1693610b1d565b8491346101ac5760203660031901126101ac573563ffffffff60e01b81168091036101ac5760209250637965db0b60e01b8114908115610c28575b5015158152f35b6301ffc9a760e01b14905083610c21565b60005b838110610c4c5750506000910152565b8181015183820152602001610c3c565b60409160208252610c7c8151809281602086015260208686019101610c39565b601f01601f1916010190565b600435906001600160a01b0382168203610c9e57565b600080fd5b602435906001600160a01b0382168203610c9e57565b600081815260209060058252604092838220338352835260ff848320541615610ce25750505050565b610ceb336111ea565b845191610cf783610e66565b60428352848301936060368637835115610e525760308553835190600191821015610e525790607860218601536041915b818311610de457505050610da2576106ea938593610d8c93610d7d6048946107369951988576020b1b1b2b9b9a1b7b73a3937b61d1030b1b1b7bab73a1604d1b8b978801528251928391603789019101610c39565b01036028810185520183610e98565b5162461bcd60e51b815291829160048301610c5c565b60648486519062461bcd60e51b825280600483015260248201527f537472696e67733a20686578206c656e67746820696e73756666696369656e746044820152fd5b909192600f81166010811015610e3e576f181899199a1a9b1b9c1cb0b131b232b360811b901a610e1485886111c3565b5360041c928015610e2a57600019019190610d28565b634e487b7160e01b82526011600452602482fd5b634e487b7160e01b83526032600452602483fd5b634e487b7160e01b81526032600452602490fd5b6080810190811067ffffffffffffffff821117610e8257604052565b634e487b7160e01b600052604160045260246000fd5b90601f8019910116810190811067ffffffffffffffff821117610e8257604052565b906000918083526005602052604083209160018060a01b03169182845260205260ff604084205416610eeb57505050565b8083526005602052604083208284526020526040832060ff1981541690557ff6391f5c32d9c69d2a47ea670b442974b53935d1edc7fd64eb21e047a839171b339380a4565b91908201809211610f3d57565b634e487b7160e01b600052601160045260246000fd5b6001600160a01b0390811691821561106e571691821561101d57600082815280602052604081205491808310610fc957604082827fddf252ad1be2c89b69c2b068fc378daa952ba7f163c4a11628f55a4df523b3ef958760209652828652038282205586815220818154019055604051908152a3565b60405162461bcd60e51b815260206004820152602660248201527f45524332303a207472616e7366657220616d6f756e7420657863656564732062604482015265616c616e636560d01b6064820152608490fd5b60405162461bcd60e51b815260206004820152602360248201527f45524332303a207472616e7366657220746f20746865207a65726f206164647260448201526265737360e81b6064820152608490fd5b60405162461bcd60e51b815260206004820152602560248201527f45524332303a207472616e736665722066726f6d20746865207a65726f206164604482015264647265737360d81b6064820152608490fd5b6001600160a01b0390811691821561117257169182156111225760207f8c5be1e5ebec7d5bd14f71427d1e84f3dd0314c0f7b2291e5b200ac8c7c3b925918360005260018252604060002085600052825280604060002055604051908152a3565b60405162461bcd60e51b815260206004820152602260248201527f45524332303a20617070726f766520746f20746865207a65726f206164647265604482015261737360f01b6064820152608490fd5b60405162461bcd60e51b8152602060048201526024808201527f45524332303a20617070726f76652066726f6d20746865207a65726f206164646044820152637265737360e01b6064820152608490fd5b9081518110156111d4570160200190565b634e487b7160e01b600052603260045260246000fd5b604051906060820182811067ffffffffffffffff821117610e8257604052602a82526020820160403682378251156111d4576030905381516001908110156111d457607860218401536029905b80821161128b5750506112475790565b606460405162461bcd60e51b815260206004820152602060248201527f537472696e67733a20686578206c656e67746820696e73756666696369656e746044820152fd5b9091600f811660108110156112e4576f181899199a1a9b1b9c1cb0b131b232b360811b901a6112ba84866111c3565b5360041c9180156112cf576000190190611237565b60246000634e487b7160e01b81526011600452fd5b60246000634e487b7160e01b81526032600452fd5b6001600160a01b031680156113b15760009181835282602052604083205481811061136157817fddf252ad1be2c89b69c2b068fc378daa952ba7f163c4a11628f55a4df523b3ef926020928587528684520360408620558060025403600255604051908152a3565b60405162461bcd60e51b815260206004820152602260248201527f45524332303a206275726e20616d6f756e7420657863656564732062616c616e604482015261636560f01b6064820152608490fd5b60405162461bcd60e51b815260206004820152602160248201527f45524332303a206275726e2066726f6d20746865207a65726f206164647265736044820152607360f81b6064820152608490fdfea2646970667358221220ea5031393c9cda62641959856acae4c0f1ee57b76413545b0425aad18e4876aa64736f6c634300081400332f8788117e7eff1d82e926ec794901d17c78024a50270940304540a733656f0d","opcodes":"PUSH1 0x80 CALLVALUE PUSH3 0x41B JUMPI PUSH1 0x1 PUSH1 0x1 PUSH1 0x40 SHL SUB SWAP1 PUSH1 0x40 SWAP1 DUP1 DUP3 ADD DUP4 DUP2 GT DUP3 DUP3 LT OR PUSH3 0x405 JUMPI DUP3 MSTORE PUSH1 0xA DUP2 MSTORE PUSH1 0x20 SWAP1 PUSH10 0x2227A722902A37B5B2B7 PUSH1 0xB1 SHL DUP3 DUP3 ADD MSTORE DUP3 MLOAD SWAP4 DUP4 DUP6 ADD DUP6 DUP2 LT DUP3 DUP3 GT OR PUSH3 0x405 JUMPI DUP5 MSTORE PUSH1 0x4 SWAP1 DUP2 DUP7 MSTORE PUSH4 0x444F4E45 PUSH1 0xE0 SHL DUP5 DUP8 ADD MSTORE DUP3 MLOAD DUP2 DUP2 GT PUSH3 0x3F0 JUMPI PUSH1 0x3 SWAP1 DUP2 SLOAD SWAP1 PUSH1 0x1 SWAP6 DUP7 DUP4 DUP2 SHR SWAP4 AND DUP1 ISZERO PUSH3 0x3E5 JUMPI JUMPDEST DUP9 DUP5 LT EQ PUSH3 0x3D0 JUMPI DUP2 SWAP1 PUSH1 0x1F SWAP4 DUP5 DUP2 GT PUSH3 0x37A JUMPI JUMPDEST POP DUP9 SWAP1 DUP5 DUP4 GT PUSH1 0x1 EQ PUSH3 0x313 JUMPI PUSH1 0x0 SWAP3 PUSH3 0x307 JUMPI JUMPDEST POP POP PUSH1 0x0 NOT DUP3 DUP6 SHL SHR NOT AND SWAP1 DUP7 SHL OR DUP3 SSTORE JUMPDEST DUP8 MLOAD SWAP3 DUP4 GT PUSH3 0x2F2 JUMPI DUP4 SLOAD DUP6 DUP2 DUP2 SHR SWAP2 AND DUP1 ISZERO PUSH3 0x2E7 JUMPI JUMPDEST DUP8 DUP3 LT EQ PUSH3 0x2D2 JUMPI DUP2 DUP2 GT PUSH3 0x287 JUMPI JUMPDEST POP DUP6 SWAP1 DUP4 GT PUSH1 0x1 EQ PUSH3 0x21B JUMPI DUP3 SWAP4 SWAP5 SWAP6 SWAP7 SWAP8 PUSH1 0x0 SWAP4 PUSH3 0x20F JUMPI JUMPDEST POP POP DUP3 DUP6 SHL SWAP3 PUSH1 0x0 NOT SWAP2 SHL SHR NOT AND OR SWAP1 SSTORE JUMPDEST PUSH1 0x0 DUP1 MSTORE PUSH1 0x5 DUP3 MSTORE DUP3 PUSH1 0x0 KECCAK256 CALLER PUSH1 0x0 MSTORE DUP3 MSTORE PUSH1 0xFF DUP4 PUSH1 0x0 KECCAK256 SLOAD AND ISZERO PUSH3 0x1D2 JUMPI JUMPDEST PUSH32 0x9F2DF0FED2C77648DE5860A4CC508CD0818C85B8B8A1AB4CEEEF8D981C8956A6 SWAP2 DUP3 PUSH1 0x0 MSTORE PUSH1 0x5 DUP2 MSTORE DUP4 PUSH1 0x0 KECCAK256 CALLER PUSH1 0x0 MSTORE DUP2 MSTORE PUSH1 0xFF DUP5 PUSH1 0x0 KECCAK256 SLOAD AND ISZERO PUSH3 0x191 JUMPI JUMPDEST DUP4 MLOAD PUSH2 0x1436 SWAP1 DUP2 PUSH3 0x421 DUP3 CODECOPY RETURN JUMPDEST DUP3 PUSH1 0x0 MSTORE PUSH1 0x5 DUP2 MSTORE DUP4 PUSH1 0x0 KECCAK256 SWAP1 CALLER PUSH1 0x0 MSTORE MSTORE DUP3 PUSH1 0x0 KECCAK256 SWAP1 PUSH1 0xFF NOT DUP3 SLOAD AND OR SWAP1 SSTORE CALLER SWAP1 CALLER SWAP1 PUSH1 0x0 DUP1 MLOAD PUSH1 0x20 PUSH3 0x1857 DUP4 CODECOPY DUP2 MLOAD SWAP2 MSTORE PUSH1 0x0 DUP1 LOG4 CODESIZE DUP1 DUP1 PUSH3 0x182 JUMP JUMPDEST PUSH1 0x0 DUP1 MSTORE PUSH1 0x5 DUP3 MSTORE DUP3 PUSH1 0x0 KECCAK256 CALLER PUSH1 0x0 MSTORE DUP3 MSTORE DUP3 PUSH1 0x0 KECCAK256 DUP2 PUSH1 0xFF NOT DUP3 SLOAD AND OR SWAP1 SSTORE CALLER CALLER PUSH1 0x0 PUSH1 0x0 DUP1 MLOAD PUSH1 0x20 PUSH3 0x1857 DUP4 CODECOPY DUP2 MLOAD SWAP2 MSTORE DUP2 DUP1 LOG4 PUSH3 0x13F JUMP JUMPDEST ADD MLOAD SWAP2 POP CODESIZE DUP1 PUSH3 0x10C JUMP JUMPDEST SWAP1 PUSH1 0x1F NOT DUP4 AND SWAP2 DUP5 PUSH1 0x0 MSTORE DUP7 PUSH1 0x0 KECCAK256 SWAP3 PUSH1 0x0 JUMPDEST DUP2 DUP2 LT PUSH3 0x271 JUMPI POP SWAP9 DUP5 DUP8 SWAP9 SWAP10 SWAP11 SWAP8 SWAP7 SWAP8 LT PUSH3 0x256 JUMPI JUMPDEST POP POP POP POP DUP2 SHL ADD SWAP1 SSTORE PUSH3 0x11E JUMP JUMPDEST ADD MLOAD SWAP1 PUSH1 0xF8 DUP5 PUSH1 0x0 NOT SWAP3 SHL AND SHR NOT AND SWAP1 SSTORE CODESIZE DUP1 DUP1 DUP1 PUSH3 0x247 JUMP JUMPDEST DUP11 DUP4 ADD MLOAD DUP6 SSTORE SWAP4 DUP8 ADD SWAP4 SWAP2 DUP9 ADD SWAP2 DUP9 ADD PUSH3 0x22E JUMP JUMPDEST DUP5 PUSH1 0x0 MSTORE DUP7 PUSH1 0x0 KECCAK256 DUP3 DUP1 DUP7 ADD PUSH1 0x5 SHR DUP3 ADD SWAP3 DUP10 DUP8 LT PUSH3 0x2C8 JUMPI JUMPDEST ADD PUSH1 0x5 SHR ADD SWAP1 DUP7 SWAP1 JUMPDEST DUP3 DUP2 LT PUSH3 0x2BB JUMPI POP POP PUSH3 0xF0 JUMP JUMPDEST PUSH1 0x0 DUP2 SSTORE ADD DUP7 SWAP1 PUSH3 0x2AB JUMP JUMPDEST SWAP3 POP DUP2 SWAP3 PUSH3 0x2A2 JUMP JUMPDEST PUSH1 0x22 DUP6 PUSH4 0x4E487B71 PUSH1 0xE0 SHL PUSH1 0x0 MSTORE MSTORE PUSH1 0x24 PUSH1 0x0 REVERT JUMPDEST SWAP1 PUSH1 0x7F AND SWAP1 PUSH3 0xDE JUMP JUMPDEST PUSH1 0x41 DUP5 PUSH4 0x4E487B71 PUSH1 0xE0 SHL PUSH1 0x0 MSTORE MSTORE PUSH1 0x24 PUSH1 0x0 REVERT JUMPDEST ADD MLOAD SWAP1 POP CODESIZE DUP1 PUSH3 0xB2 JUMP JUMPDEST SWAP1 DUP9 SWAP4 POP PUSH1 0x1F NOT DUP4 AND SWAP2 DUP7 PUSH1 0x0 MSTORE DUP11 PUSH1 0x0 KECCAK256 SWAP3 PUSH1 0x0 JUMPDEST DUP13 DUP3 DUP3 LT PUSH3 0x363 JUMPI POP POP DUP5 GT PUSH3 0x34A JUMPI JUMPDEST POP POP POP DUP2 SHL ADD DUP3 SSTORE PUSH3 0xC4 JUMP JUMPDEST ADD MLOAD PUSH1 0x0 NOT DUP4 DUP8 SHL PUSH1 0xF8 AND SHR NOT AND SWAP1 SSTORE CODESIZE DUP1 DUP1 PUSH3 0x33C JUMP JUMPDEST DUP4 DUP6 ADD MLOAD DUP7 SSTORE DUP13 SWAP8 SWAP1 SWAP6 ADD SWAP5 SWAP4 DUP5 ADD SWAP4 ADD PUSH3 0x329 JUMP JUMPDEST SWAP1 SWAP2 POP DUP5 PUSH1 0x0 MSTORE DUP9 PUSH1 0x0 KECCAK256 DUP5 DUP1 DUP6 ADD PUSH1 0x5 SHR DUP3 ADD SWAP3 DUP12 DUP7 LT PUSH3 0x3C6 JUMPI JUMPDEST SWAP2 DUP11 SWAP2 DUP7 SWAP6 SWAP5 SWAP4 ADD PUSH1 0x5 SHR ADD SWAP2 JUMPDEST DUP3 DUP2 LT PUSH3 0x3B6 JUMPI POP POP PUSH3 0x9B JUMP JUMPDEST PUSH1 0x0 DUP2 SSTORE DUP6 SWAP5 POP DUP11 SWAP2 ADD PUSH3 0x3A6 JUMP JUMPDEST SWAP3 POP DUP2 SWAP3 PUSH3 0x398 JUMP JUMPDEST PUSH1 0x22 DUP7 PUSH4 0x4E487B71 PUSH1 0xE0 SHL PUSH1 0x0 MSTORE MSTORE PUSH1 0x24 PUSH1 0x0 REVERT JUMPDEST SWAP3 PUSH1 0x7F AND SWAP3 PUSH3 0x84 JUMP JUMPDEST PUSH1 0x41 DUP4 PUSH4 0x4E487B71 PUSH1 0xE0 SHL PUSH1 0x0 MSTORE MSTORE PUSH1 0x24 PUSH1 0x0 REVERT JUMPDEST PUSH4 0x4E487B71 PUSH1 0xE0 SHL PUSH1 0x0 MSTORE PUSH1 0x41 PUSH1 0x4 MSTORE PUSH1 0x24 PUSH1 0x0 REVERT JUMPDEST PUSH1 0x0 DUP1 REVERT INVALID PUSH1 0x80 PUSH1 0x40 DUP2 DUP2 MSTORE PUSH1 0x4 SWAP2 DUP3 CALLDATASIZE LT ISZERO PUSH2 0x16 JUMPI PUSH1 0x0 DUP1 REVERT JUMPDEST PUSH1 0x0 SWAP3 DUP4 CALLDATALOAD PUSH1 0xE0 SHR SWAP2 DUP3 PUSH4 0x1FFC9A7 EQ PUSH2 0xBE6 JUMPI POP DUP2 PUSH4 0x6FDDE03 EQ PUSH2 0xAF1 JUMPI DUP2 PUSH4 0x95EA7B3 EQ PUSH2 0xAC7 JUMPI DUP2 PUSH4 0x18160DDD EQ PUSH2 0xAA8 JUMPI DUP2 PUSH4 0x23B872DD EQ PUSH2 0x9DE JUMPI DUP2 PUSH4 0x248A9CA3 EQ PUSH2 0x9B3 JUMPI DUP2 PUSH4 0x2F2FF15D EQ PUSH2 0x906 JUMPI DUP2 PUSH4 0x313CE567 EQ PUSH2 0x8EA JUMPI DUP2 PUSH4 0x36568ABE EQ PUSH2 0x858 JUMPI DUP2 PUSH4 0x39509351 EQ PUSH2 0x808 JUMPI DUP2 PUSH4 0x40C10F19 EQ PUSH2 0x547 JUMPI DUP2 PUSH4 0x42966C68 EQ PUSH2 0x529 JUMPI DUP2 PUSH4 0x70A08231 EQ PUSH2 0x4F2 JUMPI DUP2 PUSH4 0x79CC6790 EQ PUSH2 0x44B JUMPI DUP2 PUSH4 0x91D14854 EQ PUSH2 0x404 JUMPI DUP2 PUSH4 0x95D89B41 EQ PUSH2 0x301 JUMPI DUP2 PUSH4 0xA217FDDF EQ PUSH2 0x2E6 JUMPI DUP2 PUSH4 0xA457C2D7 EQ PUSH2 0x241 JUMPI DUP2 PUSH4 0xA9059CBB EQ PUSH2 0x210 JUMPI DUP2 PUSH4 0xD2D7231F EQ PUSH2 0x1EB JUMPI DUP2 PUSH4 0xD5391393 EQ PUSH2 0x1B0 JUMPI DUP2 PUSH4 0xD547741F EQ PUSH2 0x16D JUMPI POP PUSH4 0xDD62ED3E EQ PUSH2 0x122 JUMPI PUSH1 0x0 DUP1 REVERT JUMPDEST CALLVALUE PUSH2 0x169 JUMPI DUP1 PUSH1 0x3 NOT CALLDATASIZE ADD SLT PUSH2 0x169 JUMPI DUP1 PUSH1 0x20 SWAP3 PUSH2 0x13E PUSH2 0xC88 JUMP JUMPDEST PUSH2 0x146 PUSH2 0xCA3 JUMP JUMPDEST PUSH1 0x1 PUSH1 0x1 PUSH1 0xA0 SHL SUB SWAP2 DUP3 AND DUP4 MSTORE PUSH1 0x1 DUP7 MSTORE DUP4 DUP4 KECCAK256 SWAP2 AND DUP3 MSTORE DUP5 MSTORE KECCAK256 SLOAD SWAP1 MLOAD SWAP1 DUP2 MSTORE RETURN JUMPDEST POP DUP1 REVERT JUMPDEST SWAP2 SWAP1 POP CALLVALUE PUSH2 0x1AC JUMPI DUP1 PUSH1 0x3 NOT CALLDATASIZE ADD SLT PUSH2 0x1AC JUMPI PUSH2 0x1A9 SWAP2 CALLDATALOAD PUSH2 0x1A4 PUSH1 0x1 PUSH2 0x192 PUSH2 0xCA3 JUMP JUMPDEST SWAP4 DUP4 DUP8 MSTORE PUSH1 0x5 PUSH1 0x20 MSTORE DUP7 KECCAK256 ADD SLOAD PUSH2 0xCB9 JUMP JUMPDEST PUSH2 0xEBA JUMP JUMPDEST DUP1 RETURN JUMPDEST DUP3 DUP1 REVERT JUMPDEST POP POP CALLVALUE PUSH2 0x169 JUMPI DUP2 PUSH1 0x3 NOT CALLDATASIZE ADD SLT PUSH2 0x169 JUMPI PUSH1 0x20 SWAP1 MLOAD PUSH32 0x9F2DF0FED2C77648DE5860A4CC508CD0818C85B8B8A1AB4CEEEF8D981C8956A6 DUP2 MSTORE RETURN JUMPDEST SWAP1 POP DUP3 CALLVALUE PUSH2 0x20D JUMPI PUSH1 0x20 CALLDATASIZE PUSH1 0x3 NOT ADD SLT PUSH2 0x20D JUMPI POP PUSH1 0xA PUSH1 0x20 SWAP3 MLOAD SWAP2 CALLDATALOAD DIV DUP2 MSTORE RETURN JUMPDEST DUP1 REVERT JUMPDEST POP POP CALLVALUE PUSH2 0x169 JUMPI DUP1 PUSH1 0x3 NOT CALLDATASIZE ADD SLT PUSH2 0x169 JUMPI PUSH1 0x20 SWAP1 PUSH2 0x23A PUSH2 0x230 PUSH2 0xC88 JUMP JUMPDEST PUSH1 0x24 CALLDATALOAD SWAP1 CALLER PUSH2 0xF53 JUMP JUMPDEST MLOAD PUSH1 0x1 DUP2 MSTORE RETURN JUMPDEST SWAP1 POP DUP3 CALLVALUE PUSH2 0x20D JUMPI DUP3 PUSH1 0x3 NOT CALLDATASIZE ADD SLT PUSH2 0x20D JUMPI PUSH2 0x25C PUSH2 0xC88 JUMP JUMPDEST SWAP2 DUP4 PUSH1 0x24 CALLDATALOAD SWAP3 CALLER DUP2 MSTORE PUSH1 0x1 PUSH1 0x20 MSTORE DUP2 DUP2 KECCAK256 PUSH1 0x1 DUP1 PUSH1 0xA0 SHL SUB DUP7 AND DUP3 MSTORE PUSH1 0x20 MSTORE KECCAK256 SLOAD SWAP1 DUP3 DUP3 LT PUSH2 0x295 JUMPI PUSH1 0x20 DUP6 PUSH2 0x23A DUP6 DUP6 SUB DUP8 CALLER PUSH2 0x10C1 JUMP JUMPDEST PUSH1 0x84 SWAP1 PUSH1 0x20 DUP7 MLOAD SWAP2 PUSH3 0x461BCD PUSH1 0xE5 SHL DUP4 MSTORE DUP3 ADD MSTORE PUSH1 0x25 PUSH1 0x24 DUP3 ADD MSTORE PUSH32 0x45524332303A2064656372656173656420616C6C6F77616E63652062656C6F77 PUSH1 0x44 DUP3 ADD MSTORE PUSH5 0x207A65726F PUSH1 0xD8 SHL PUSH1 0x64 DUP3 ADD MSTORE REVERT JUMPDEST POP POP CALLVALUE PUSH2 0x169 JUMPI DUP2 PUSH1 0x3 NOT CALLDATASIZE ADD SLT PUSH2 0x169 JUMPI MLOAD SWAP1 DUP2 MSTORE PUSH1 0x20 SWAP1 RETURN JUMPDEST DUP4 DUP4 CALLVALUE PUSH2 0x169 JUMPI DUP2 PUSH1 0x3 NOT CALLDATASIZE ADD SLT PUSH2 0x169 JUMPI DUP1 MLOAD SWAP2 DUP1 SWAP4 DUP1 SLOAD SWAP2 PUSH1 0x1 SWAP1 DUP4 DUP3 SHR SWAP3 DUP3 DUP6 AND SWAP5 DUP6 ISZERO PUSH2 0x3FA JUMPI JUMPDEST PUSH1 0x20 SWAP6 DUP7 DUP7 LT DUP2 EQ PUSH2 0x3E7 JUMPI DUP6 DUP10 MSTORE SWAP1 DUP2 ISZERO PUSH2 0x3C3 JUMPI POP PUSH1 0x1 EQ PUSH2 0x36B JUMPI JUMPDEST PUSH2 0x367 DUP8 DUP8 PUSH2 0x35D DUP3 DUP13 SUB DUP4 PUSH2 0xE98 JUMP JUMPDEST MLOAD SWAP2 DUP3 SWAP2 DUP3 PUSH2 0xC5C JUMP JUMPDEST SUB SWAP1 RETURN JUMPDEST DUP2 MSTORE SWAP3 SWAP6 POP PUSH32 0x8A35ACFBC15FF81A39AE7D344FD709F28E8600B4AA8C65C6B64BFE7FE36BD19B JUMPDEST DUP3 DUP5 LT PUSH2 0x3B0 JUMPI POP POP POP DUP3 PUSH2 0x367 SWAP5 PUSH2 0x35D SWAP3 DUP3 ADD ADD SWAP5 DUP7 DUP1 PUSH2 0x34C JUMP JUMPDEST DUP1 SLOAD DUP7 DUP6 ADD DUP9 ADD MSTORE SWAP3 DUP7 ADD SWAP3 DUP2 ADD PUSH2 0x392 JUMP JUMPDEST PUSH1 0xFF NOT AND DUP9 DUP8 ADD MSTORE POP POP POP POP ISZERO ISZERO PUSH1 0x5 SHL DUP4 ADD ADD SWAP3 POP PUSH2 0x35D DUP3 PUSH2 0x367 DUP7 DUP1 PUSH2 0x34C JUMP JUMPDEST PUSH4 0x4E487B71 PUSH1 0xE0 SHL DUP5 MSTORE PUSH1 0x22 DUP4 MSTORE PUSH1 0x24 DUP5 REVERT JUMPDEST SWAP4 PUSH1 0x7F AND SWAP4 PUSH2 0x32D JUMP JUMPDEST SWAP1 POP CALLVALUE PUSH2 0x1AC JUMPI DUP2 PUSH1 0x3 NOT CALLDATASIZE ADD SLT PUSH2 0x1AC JUMPI DUP2 PUSH1 0x20 SWAP4 PUSH1 0xFF SWAP3 PUSH2 0x425 PUSH2 0xCA3 JUMP JUMPDEST SWAP1 CALLDATALOAD DUP3 MSTORE PUSH1 0x5 DUP7 MSTORE DUP3 DUP3 KECCAK256 PUSH1 0x1 PUSH1 0x1 PUSH1 0xA0 SHL SUB SWAP1 SWAP2 AND DUP3 MSTORE DUP6 MSTORE KECCAK256 SLOAD SWAP2 MLOAD SWAP2 AND ISZERO ISZERO DUP2 MSTORE RETURN JUMPDEST DUP4 DUP4 CALLVALUE PUSH2 0x169 JUMPI DUP1 PUSH1 0x3 NOT CALLDATASIZE ADD SLT PUSH2 0x169 JUMPI PUSH2 0x465 PUSH2 0xC88 JUMP JUMPDEST PUSH1 0x1 PUSH1 0x1 PUSH1 0xA0 SHL SUB DUP2 AND DUP4 MSTORE PUSH1 0x1 PUSH1 0x20 SWAP1 DUP2 MSTORE DUP3 DUP5 KECCAK256 CALLER DUP6 MSTORE SWAP1 MSTORE DUP2 DUP4 KECCAK256 SLOAD PUSH1 0x24 CALLDATALOAD SWAP3 DUP4 DUP3 LT PUSH2 0x4C2 JUMPI POP DUP3 DUP2 SUB SWAP1 DUP2 GT PUSH2 0x4AF JUMPI SWAP1 PUSH2 0x4AA PUSH2 0x1A9 SWAP4 SWAP3 CALLER DUP4 PUSH2 0x10C1 JUMP JUMPDEST PUSH2 0x12F9 JUMP JUMPDEST PUSH4 0x4E487B71 PUSH1 0xE0 SHL DUP5 MSTORE PUSH1 0x11 DUP6 MSTORE PUSH1 0x24 DUP5 REVERT JUMPDEST MLOAD PUSH3 0x461BCD PUSH1 0xE5 SHL DUP2 MSTORE PUSH1 0x20 DUP2 DUP8 ADD MSTORE PUSH1 0xB PUSH1 0x24 DUP3 ADD MSTORE PUSH11 0x139BDD08185B1B1BDDD959 PUSH1 0xAA SHL PUSH1 0x44 DUP3 ADD MSTORE PUSH1 0x64 SWAP1 REVERT JUMPDEST POP POP CALLVALUE PUSH2 0x169 JUMPI PUSH1 0x20 CALLDATASIZE PUSH1 0x3 NOT ADD SLT PUSH2 0x169 JUMPI PUSH1 0x20 SWAP2 DUP2 SWAP1 PUSH1 0x1 PUSH1 0x1 PUSH1 0xA0 SHL SUB PUSH2 0x51A PUSH2 0xC88 JUMP JUMPDEST AND DUP2 MSTORE DUP1 DUP5 MSTORE KECCAK256 SLOAD SWAP1 MLOAD SWAP1 DUP2 MSTORE RETURN JUMPDEST DUP4 SWAP1 CALLVALUE PUSH2 0x169 JUMPI PUSH1 0x20 CALLDATASIZE PUSH1 0x3 NOT ADD SLT PUSH2 0x169 JUMPI PUSH2 0x1A9 SWAP1 CALLDATALOAD CALLER PUSH2 0x12F9 JUMP JUMPDEST SWAP1 POP CALLVALUE PUSH2 0x1AC JUMPI DUP2 PUSH1 0x3 NOT CALLDATASIZE ADD SLT PUSH2 0x1AC JUMPI PUSH2 0x561 PUSH2 0xC88 JUMP JUMPDEST SWAP1 PUSH1 0x24 SWAP3 DUP4 CALLDATALOAD SWAP2 PUSH32 0x9F2DF0FED2C77648DE5860A4CC508CD0818C85B8B8A1AB4CEEEF8D981C8956A6 SWAP4 DUP5 DUP8 MSTORE PUSH1 0x20 SWAP5 PUSH1 0x5 DUP7 MSTORE DUP4 DUP9 KECCAK256 CALLER DUP10 MSTORE DUP7 MSTORE PUSH1 0xFF DUP5 DUP10 KECCAK256 SLOAD AND ISZERO PUSH2 0x646 JUMPI POP PUSH1 0x1 PUSH1 0x1 PUSH1 0xA0 SHL SUB AND SWAP5 DUP6 ISZERO PUSH2 0x606 JUMPI POP POP SWAP2 DUP2 DUP6 SWAP4 PUSH2 0x5EC PUSH32 0xDDF252AD1BE2C89B69C2B068FC378DAA952BA7F163C4A11628F55A4DF523B3EF SWAP5 PUSH1 0x2 SLOAD PUSH2 0xF30 JUMP JUMPDEST PUSH1 0x2 SSTORE DUP6 DUP6 MSTORE DUP5 DUP4 MSTORE DUP1 DUP6 KECCAK256 DUP3 DUP2 SLOAD ADD SWAP1 SSTORE MLOAD SWAP1 DUP2 MSTORE LOG3 DUP1 RETURN JUMPDEST PUSH1 0x1F SWAP1 DUP6 PUSH1 0x64 SWAP5 MLOAD SWAP4 PUSH3 0x461BCD PUSH1 0xE5 SHL DUP6 MSTORE DUP5 ADD MSTORE DUP3 ADD MSTORE PUSH32 0x45524332303A206D696E7420746F20746865207A65726F206164647265737300 PUSH1 0x44 DUP3 ADD MSTORE REVERT JUMPDEST DUP6 SWAP2 POP DUP7 DUP9 SWAP2 PUSH2 0x655 CALLER PUSH2 0x11EA JUMP JUMPDEST SWAP1 SWAP2 DUP7 MLOAD SWAP3 PUSH2 0x663 DUP5 PUSH2 0xE66 JUMP JUMPDEST PUSH1 0x42 DUP5 MSTORE DUP6 DUP5 ADD SWAP5 PUSH1 0x60 CALLDATASIZE DUP8 CALLDATACOPY DUP5 MLOAD ISZERO PUSH2 0x7F6 JUMPI PUSH1 0x30 DUP7 MSTORE8 DUP5 MLOAD SWAP1 PUSH1 0x1 SWAP2 DUP3 LT ISZERO PUSH2 0x7E4 JUMPI SWAP1 PUSH1 0x78 PUSH1 0x21 DUP8 ADD MSTORE8 PUSH1 0x41 SWAP2 JUMPDEST DUP2 DUP4 GT PUSH2 0x77B JUMPI POP POP POP PUSH2 0x73A JUMPI POP PUSH2 0x736 SWAP4 DUP7 SWAP4 PUSH2 0x722 SWAP4 PUSH2 0x713 PUSH1 0x48 SWAP5 PUSH2 0x6EA SWAP11 MLOAD SWAP11 DUP6 PUSH23 0x20B1B1B2B9B9A1B7B73A3937B61D1030B1B1B7BAB73A1 PUSH1 0x4D SHL DUP14 SWAP8 DUP9 ADD MSTORE DUP3 MLOAD SWAP3 DUP4 SWAP2 PUSH1 0x37 DUP10 ADD SWAP2 ADD PUSH2 0xC39 JUMP JUMPDEST DUP5 ADD SWAP2 PUSH17 0x1034B99036B4B9B9B4B733903937B6329 PUSH1 0x7D SHL PUSH1 0x37 DUP5 ADD MSTORE MLOAD DUP1 SWAP4 DUP7 DUP5 ADD SWAP1 PUSH2 0xC39 JUMP JUMPDEST ADD SUB PUSH1 0x28 DUP2 ADD DUP8 MSTORE ADD DUP6 PUSH2 0xE98 JUMP JUMPDEST MLOAD PUSH3 0x461BCD PUSH1 0xE5 SHL DUP2 MSTORE SWAP3 DUP4 SWAP3 DUP4 ADD PUSH2 0xC5C JUMP JUMPDEST SUB SWAP1 REVERT JUMPDEST SWAP3 POP POP POP DUP2 PUSH1 0x64 SWAP5 MLOAD SWAP4 PUSH3 0x461BCD PUSH1 0xE5 SHL DUP6 MSTORE DUP5 ADD MSTORE DUP3 ADD MSTORE PUSH32 0x537472696E67733A20686578206C656E67746820696E73756666696369656E74 PUSH1 0x44 DUP3 ADD MSTORE REVERT JUMPDEST SWAP1 SWAP2 SWAP3 PUSH1 0xF DUP2 AND PUSH1 0x10 DUP2 LT ISZERO PUSH2 0x7D2 JUMPI PUSH16 0x181899199A1A9B1B9C1CB0B131B232B3 PUSH1 0x81 SHL SWAP1 BYTE PUSH2 0x7AB DUP6 DUP10 PUSH2 0x11C3 JUMP JUMPDEST MSTORE8 DUP10 SHR SWAP3 DUP1 ISZERO PUSH2 0x7C0 JUMPI PUSH1 0x0 NOT ADD SWAP2 SWAP1 PUSH2 0x694 JUMP JUMPDEST PUSH4 0x4E487B71 PUSH1 0xE0 SHL DUP3 MSTORE PUSH1 0x11 DUP11 MSTORE DUP5 DUP3 REVERT JUMPDEST PUSH4 0x4E487B71 PUSH1 0xE0 SHL DUP4 MSTORE PUSH1 0x32 DUP12 MSTORE DUP6 DUP4 REVERT JUMPDEST PUSH4 0x4E487B71 PUSH1 0xE0 SHL DUP2 MSTORE PUSH1 0x32 DUP10 MSTORE DUP4 SWAP1 REVERT JUMPDEST PUSH4 0x4E487B71 PUSH1 0xE0 SHL DUP2 MSTORE PUSH1 0x32 DUP9 MSTORE SWAP1 POP REVERT JUMPDEST POP POP CALLVALUE PUSH2 0x169 JUMPI DUP1 PUSH1 0x3 NOT CALLDATASIZE ADD SLT PUSH2 0x169 JUMPI PUSH2 0x23A PUSH1 0x20 SWAP3 PUSH2 0x851 PUSH2 0x82B PUSH2 0xC88 JUMP JUMPDEST CALLER DUP4 MSTORE PUSH1 0x1 DUP7 MSTORE DUP5 DUP4 KECCAK256 PUSH1 0x1 PUSH1 0x1 PUSH1 0xA0 SHL SUB DUP3 AND DUP5 MSTORE DUP7 MSTORE SWAP2 DUP5 SWAP1 KECCAK256 SLOAD PUSH1 0x24 CALLDATALOAD SWAP1 PUSH2 0xF30 JUMP JUMPDEST SWAP1 CALLER PUSH2 0x10C1 JUMP JUMPDEST DUP4 SWAP2 POP CALLVALUE PUSH2 0x169 JUMPI DUP3 PUSH1 0x3 NOT CALLDATASIZE ADD SLT PUSH2 0x169 JUMPI PUSH2 0x873 PUSH2 0xCA3 JUMP JUMPDEST SWAP1 CALLER PUSH1 0x1 PUSH1 0x1 PUSH1 0xA0 SHL SUB DUP4 AND SUB PUSH2 0x88F JUMPI SWAP1 PUSH2 0x1A9 SWAP2 CALLDATALOAD PUSH2 0xEBA JUMP JUMPDEST PUSH1 0x84 SWAP1 PUSH1 0x20 DUP6 MLOAD SWAP2 PUSH3 0x461BCD PUSH1 0xE5 SHL DUP4 MSTORE DUP3 ADD MSTORE PUSH1 0x2F PUSH1 0x24 DUP3 ADD MSTORE PUSH32 0x416363657373436F6E74726F6C3A2063616E206F6E6C792072656E6F756E6365 PUSH1 0x44 DUP3 ADD MSTORE PUSH15 0x103937B632B9903337B91039B2B633 PUSH1 0x89 SHL PUSH1 0x64 DUP3 ADD MSTORE REVERT JUMPDEST POP POP CALLVALUE PUSH2 0x169 JUMPI DUP2 PUSH1 0x3 NOT CALLDATASIZE ADD SLT PUSH2 0x169 JUMPI PUSH1 0x20 SWAP1 MLOAD PUSH1 0x12 DUP2 MSTORE RETURN JUMPDEST SWAP1 POP CALLVALUE PUSH2 0x1AC JUMPI DUP2 PUSH1 0x3 NOT CALLDATASIZE ADD SLT PUSH2 0x1AC JUMPI CALLDATALOAD SWAP1 PUSH2 0x922 PUSH2 0xCA3 JUMP JUMPDEST SWAP1 DUP3 DUP5 MSTORE PUSH1 0x5 PUSH1 0x20 MSTORE PUSH2 0x93A PUSH1 0x1 DUP3 DUP7 KECCAK256 ADD SLOAD PUSH2 0xCB9 JUMP JUMPDEST DUP3 DUP5 MSTORE PUSH1 0x5 PUSH1 0x20 SWAP1 DUP2 MSTORE DUP2 DUP6 KECCAK256 PUSH1 0x1 PUSH1 0x1 PUSH1 0xA0 SHL SUB SWAP1 SWAP4 AND DUP1 DUP7 MSTORE SWAP3 SWAP1 MSTORE DUP1 DUP5 KECCAK256 SLOAD PUSH1 0xFF AND ISZERO PUSH2 0x968 JUMPI DUP4 DUP1 RETURN JUMPDEST DUP3 DUP5 MSTORE PUSH1 0x5 PUSH1 0x20 MSTORE DUP1 DUP5 KECCAK256 DUP3 DUP6 MSTORE PUSH1 0x20 MSTORE DUP4 KECCAK256 PUSH1 0x1 PUSH1 0xFF NOT DUP3 SLOAD AND OR SWAP1 SSTORE CALLER SWAP2 PUSH32 0x2F8788117E7EFF1D82E926EC794901D17C78024A50270940304540A733656F0D DUP5 DUP1 LOG4 CODESIZE DUP1 DUP1 DUP4 DUP1 RETURN JUMPDEST SWAP1 POP CALLVALUE PUSH2 0x1AC JUMPI PUSH1 0x20 CALLDATASIZE PUSH1 0x3 NOT ADD SLT PUSH2 0x1AC JUMPI DUP2 PUSH1 0x20 SWAP4 PUSH1 0x1 SWAP3 CALLDATALOAD DUP2 MSTORE PUSH1 0x5 DUP6 MSTORE KECCAK256 ADD SLOAD SWAP1 MLOAD SWAP1 DUP2 MSTORE RETURN JUMPDEST DUP4 SWAP2 POP CALLVALUE PUSH2 0x169 JUMPI PUSH1 0x60 CALLDATASIZE PUSH1 0x3 NOT ADD SLT PUSH2 0x169 JUMPI PUSH2 0x9FA PUSH2 0xC88 JUMP JUMPDEST PUSH2 0xA02 PUSH2 0xCA3 JUMP JUMPDEST SWAP2 DUP5 PUSH1 0x44 CALLDATALOAD SWAP5 PUSH1 0x1 DUP1 PUSH1 0xA0 SHL SUB DUP5 AND DUP2 MSTORE PUSH1 0x1 PUSH1 0x20 MSTORE DUP2 DUP2 KECCAK256 CALLER DUP3 MSTORE PUSH1 0x20 MSTORE KECCAK256 SLOAD SWAP1 PUSH1 0x0 NOT DUP3 SUB PUSH2 0xA3C JUMPI JUMPDEST PUSH1 0x20 DUP7 PUSH2 0x23A DUP8 DUP8 DUP8 PUSH2 0xF53 JUMP JUMPDEST DUP5 DUP3 LT PUSH2 0xA65 JUMPI POP SWAP2 DUP4 SWAP2 PUSH2 0xA5A PUSH1 0x20 SWAP7 SWAP6 PUSH2 0x23A SWAP6 SUB CALLER DUP4 PUSH2 0x10C1 JUMP JUMPDEST SWAP2 SWAP4 SWAP5 DUP2 SWAP4 POP PUSH2 0xA2E JUMP JUMPDEST PUSH1 0x64 SWAP1 PUSH1 0x20 DUP8 MLOAD SWAP2 PUSH3 0x461BCD PUSH1 0xE5 SHL DUP4 MSTORE DUP3 ADD MSTORE PUSH1 0x1D PUSH1 0x24 DUP3 ADD MSTORE PUSH32 0x45524332303A20696E73756666696369656E7420616C6C6F77616E6365000000 PUSH1 0x44 DUP3 ADD MSTORE REVERT JUMPDEST POP POP CALLVALUE PUSH2 0x169 JUMPI DUP2 PUSH1 0x3 NOT CALLDATASIZE ADD SLT PUSH2 0x169 JUMPI PUSH1 0x20 SWAP1 PUSH1 0x2 SLOAD SWAP1 MLOAD SWAP1 DUP2 MSTORE RETURN JUMPDEST POP POP CALLVALUE PUSH2 0x169 JUMPI DUP1 PUSH1 0x3 NOT CALLDATASIZE ADD SLT PUSH2 0x169 JUMPI PUSH1 0x20 SWAP1 PUSH2 0x23A PUSH2 0xAE7 PUSH2 0xC88 JUMP JUMPDEST PUSH1 0x24 CALLDATALOAD SWAP1 CALLER PUSH2 0x10C1 JUMP JUMPDEST SWAP2 SWAP1 POP CALLVALUE PUSH2 0x1AC JUMPI DUP3 PUSH1 0x3 NOT CALLDATASIZE ADD SLT PUSH2 0x1AC JUMPI DUP1 MLOAD SWAP2 DUP4 PUSH1 0x3 SLOAD SWAP1 PUSH1 0x1 SWAP1 DUP3 DUP3 SHR SWAP3 DUP3 DUP2 AND DUP1 ISZERO PUSH2 0xBDC JUMPI JUMPDEST PUSH1 0x20 SWAP6 DUP7 DUP7 LT DUP3 EQ PUSH2 0xBC9 JUMPI POP DUP5 DUP9 MSTORE SWAP1 DUP2 ISZERO PUSH2 0xBA7 JUMPI POP PUSH1 0x1 EQ PUSH2 0xB4E JUMPI JUMPDEST PUSH2 0x367 DUP7 DUP7 PUSH2 0x35D DUP3 DUP12 SUB DUP4 PUSH2 0xE98 JUMP JUMPDEST SWAP3 SWAP6 POP PUSH1 0x3 DUP4 MSTORE PUSH32 0xC2575A0E9E593C00F959F8C92F12DB2869C3395A3B0502D05E2516446F71F85B JUMPDEST DUP3 DUP5 LT PUSH2 0xB94 JUMPI POP POP POP DUP3 PUSH2 0x367 SWAP5 PUSH2 0x35D SWAP3 DUP3 ADD ADD SWAP5 CODESIZE PUSH2 0xB3D JUMP JUMPDEST DUP1 SLOAD DUP7 DUP6 ADD DUP9 ADD MSTORE SWAP3 DUP7 ADD SWAP3 DUP2 ADD PUSH2 0xB77 JUMP JUMPDEST PUSH1 0xFF NOT AND DUP8 DUP7 ADD MSTORE POP POP POP ISZERO ISZERO PUSH1 0x5 SHL DUP4 ADD ADD SWAP3 POP PUSH2 0x35D DUP3 PUSH2 0x367 CODESIZE PUSH2 0xB3D JUMP JUMPDEST PUSH4 0x4E487B71 PUSH1 0xE0 SHL DUP5 MSTORE PUSH1 0x22 SWAP1 MSTORE PUSH1 0x24 DUP4 REVERT JUMPDEST SWAP4 PUSH1 0x7F AND SWAP4 PUSH2 0xB1D JUMP JUMPDEST DUP5 SWAP2 CALLVALUE PUSH2 0x1AC JUMPI PUSH1 0x20 CALLDATASIZE PUSH1 0x3 NOT ADD SLT PUSH2 0x1AC JUMPI CALLDATALOAD PUSH4 0xFFFFFFFF PUSH1 0xE0 SHL DUP2 AND DUP1 SWAP2 SUB PUSH2 0x1AC JUMPI PUSH1 0x20 SWAP3 POP PUSH4 0x7965DB0B PUSH1 0xE0 SHL DUP2 EQ SWAP1 DUP2 ISZERO PUSH2 0xC28 JUMPI JUMPDEST POP ISZERO ISZERO DUP2 MSTORE RETURN JUMPDEST PUSH4 0x1FFC9A7 PUSH1 0xE0 SHL EQ SWAP1 POP DUP4 PUSH2 0xC21 JUMP JUMPDEST PUSH1 0x0 JUMPDEST DUP4 DUP2 LT PUSH2 0xC4C JUMPI POP POP PUSH1 0x0 SWAP2 ADD MSTORE JUMP JUMPDEST DUP2 DUP2 ADD MLOAD DUP4 DUP3 ADD MSTORE PUSH1 0x20 ADD PUSH2 0xC3C JUMP JUMPDEST PUSH1 0x40 SWAP2 PUSH1 0x20 DUP3 MSTORE PUSH2 0xC7C DUP2 MLOAD DUP1 SWAP3 DUP2 PUSH1 0x20 DUP7 ADD MSTORE PUSH1 0x20 DUP7 DUP7 ADD SWAP2 ADD PUSH2 0xC39 JUMP JUMPDEST PUSH1 0x1F ADD PUSH1 0x1F NOT AND ADD ADD SWAP1 JUMP JUMPDEST PUSH1 0x4 CALLDATALOAD SWAP1 PUSH1 0x1 PUSH1 0x1 PUSH1 0xA0 SHL SUB DUP3 AND DUP3 SUB PUSH2 0xC9E JUMPI JUMP JUMPDEST PUSH1 0x0 DUP1 REVERT JUMPDEST PUSH1 0x24 CALLDATALOAD SWAP1 PUSH1 0x1 PUSH1 0x1 PUSH1 0xA0 SHL SUB DUP3 AND DUP3 SUB PUSH2 0xC9E JUMPI JUMP JUMPDEST PUSH1 0x0 DUP2 DUP2 MSTORE PUSH1 0x20 SWAP1 PUSH1 0x5 DUP3 MSTORE PUSH1 0x40 SWAP3 DUP4 DUP3 KECCAK256 CALLER DUP4 MSTORE DUP4 MSTORE PUSH1 0xFF DUP5 DUP4 KECCAK256 SLOAD AND ISZERO PUSH2 0xCE2 JUMPI POP POP POP POP JUMP JUMPDEST PUSH2 0xCEB CALLER PUSH2 0x11EA JUMP JUMPDEST DUP5 MLOAD SWAP2 PUSH2 0xCF7 DUP4 PUSH2 0xE66 JUMP JUMPDEST PUSH1 0x42 DUP4 MSTORE DUP5 DUP4 ADD SWAP4 PUSH1 0x60 CALLDATASIZE DUP7 CALLDATACOPY DUP4 MLOAD ISZERO PUSH2 0xE52 JUMPI PUSH1 0x30 DUP6 MSTORE8 DUP4 MLOAD SWAP1 PUSH1 0x1 SWAP2 DUP3 LT ISZERO PUSH2 0xE52 JUMPI SWAP1 PUSH1 0x78 PUSH1 0x21 DUP7 ADD MSTORE8 PUSH1 0x41 SWAP2 JUMPDEST DUP2 DUP4 GT PUSH2 0xDE4 JUMPI POP POP POP PUSH2 0xDA2 JUMPI PUSH2 0x6EA SWAP4 DUP6 SWAP4 PUSH2 0xD8C SWAP4 PUSH2 0xD7D PUSH1 0x48 SWAP5 PUSH2 0x736 SWAP10 MLOAD SWAP9 DUP6 PUSH23 0x20B1B1B2B9B9A1B7B73A3937B61D1030B1B1B7BAB73A1 PUSH1 0x4D SHL DUP12 SWAP8 DUP9 ADD MSTORE DUP3 MLOAD SWAP3 DUP4 SWAP2 PUSH1 0x37 DUP10 ADD SWAP2 ADD PUSH2 0xC39 JUMP JUMPDEST ADD SUB PUSH1 0x28 DUP2 ADD DUP6 MSTORE ADD DUP4 PUSH2 0xE98 JUMP JUMPDEST MLOAD PUSH3 0x461BCD PUSH1 0xE5 SHL DUP2 MSTORE SWAP2 DUP3 SWAP2 PUSH1 0x4 DUP4 ADD PUSH2 0xC5C JUMP JUMPDEST PUSH1 0x64 DUP5 DUP7 MLOAD SWAP1 PUSH3 0x461BCD PUSH1 0xE5 SHL DUP3 MSTORE DUP1 PUSH1 0x4 DUP4 ADD MSTORE PUSH1 0x24 DUP3 ADD MSTORE PUSH32 0x537472696E67733A20686578206C656E67746820696E73756666696369656E74 PUSH1 0x44 DUP3 ADD MSTORE REVERT JUMPDEST SWAP1 SWAP2 SWAP3 PUSH1 0xF DUP2 AND PUSH1 0x10 DUP2 LT ISZERO PUSH2 0xE3E JUMPI PUSH16 0x181899199A1A9B1B9C1CB0B131B232B3 PUSH1 0x81 SHL SWAP1 BYTE PUSH2 0xE14 DUP6 DUP9 PUSH2 0x11C3 JUMP JUMPDEST MSTORE8 PUSH1 0x4 SHR SWAP3 DUP1 ISZERO PUSH2 0xE2A JUMPI PUSH1 0x0 NOT ADD SWAP2 SWAP1 PUSH2 0xD28 JUMP JUMPDEST PUSH4 0x4E487B71 PUSH1 0xE0 SHL DUP3 MSTORE PUSH1 0x11 PUSH1 0x4 MSTORE PUSH1 0x24 DUP3 REVERT JUMPDEST PUSH4 0x4E487B71 PUSH1 0xE0 SHL DUP4 MSTORE PUSH1 0x32 PUSH1 0x4 MSTORE PUSH1 0x24 DUP4 REVERT JUMPDEST PUSH4 0x4E487B71 PUSH1 0xE0 SHL DUP2 MSTORE PUSH1 0x32 PUSH1 0x4 MSTORE PUSH1 0x24 SWAP1 REVERT JUMPDEST PUSH1 0x80 DUP2 ADD SWAP1 DUP2 LT PUSH8 0xFFFFFFFFFFFFFFFF DUP3 GT OR PUSH2 0xE82 JUMPI PUSH1 0x40 MSTORE JUMP JUMPDEST PUSH4 0x4E487B71 PUSH1 0xE0 SHL PUSH1 0x0 MSTORE PUSH1 0x41 PUSH1 0x4 MSTORE PUSH1 0x24 PUSH1 0x0 REVERT JUMPDEST SWAP1 PUSH1 0x1F DUP1 NOT SWAP2 ADD AND DUP2 ADD SWAP1 DUP2 LT PUSH8 0xFFFFFFFFFFFFFFFF DUP3 GT OR PUSH2 0xE82 JUMPI PUSH1 0x40 MSTORE JUMP JUMPDEST SWAP1 PUSH1 0x0 SWAP2 DUP1 DUP4 MSTORE PUSH1 0x5 PUSH1 0x20 MSTORE PUSH1 0x40 DUP4 KECCAK256 SWAP2 PUSH1 0x1 DUP1 PUSH1 0xA0 SHL SUB AND SWAP2 DUP3 DUP5 MSTORE PUSH1 0x20 MSTORE PUSH1 0xFF PUSH1 0x40 DUP5 KECCAK256 SLOAD AND PUSH2 0xEEB JUMPI POP POP POP JUMP JUMPDEST DUP1 DUP4 MSTORE PUSH1 0x5 PUSH1 0x20 MSTORE PUSH1 0x40 DUP4 KECCAK256 DUP3 DUP5 MSTORE PUSH1 0x20 MSTORE PUSH1 0x40 DUP4 KECCAK256 PUSH1 0xFF NOT DUP2 SLOAD AND SWAP1 SSTORE PUSH32 0xF6391F5C32D9C69D2A47EA670B442974B53935D1EDC7FD64EB21E047A839171B CALLER SWAP4 DUP1 LOG4 JUMP JUMPDEST SWAP2 SWAP1 DUP3 ADD DUP1 SWAP3 GT PUSH2 0xF3D JUMPI JUMP JUMPDEST PUSH4 0x4E487B71 PUSH1 0xE0 SHL PUSH1 0x0 MSTORE PUSH1 0x11 PUSH1 0x4 MSTORE PUSH1 0x24 PUSH1 0x0 REVERT JUMPDEST PUSH1 0x1 PUSH1 0x1 PUSH1 0xA0 SHL SUB SWAP1 DUP2 AND SWAP2 DUP3 ISZERO PUSH2 0x106E JUMPI AND SWAP2 DUP3 ISZERO PUSH2 0x101D JUMPI PUSH1 0x0 DUP3 DUP2 MSTORE DUP1 PUSH1 0x20 MSTORE PUSH1 0x40 DUP2 KECCAK256 SLOAD SWAP2 DUP1 DUP4 LT PUSH2 0xFC9 JUMPI PUSH1 0x40 DUP3 DUP3 PUSH32 0xDDF252AD1BE2C89B69C2B068FC378DAA952BA7F163C4A11628F55A4DF523B3EF SWAP6 DUP8 PUSH1 0x20 SWAP7 MSTORE DUP3 DUP7 MSTORE SUB DUP3 DUP3 KECCAK256 SSTORE DUP7 DUP2 MSTORE KECCAK256 DUP2 DUP2 SLOAD ADD SWAP1 SSTORE PUSH1 0x40 MLOAD SWAP1 DUP2 MSTORE LOG3 JUMP JUMPDEST PUSH1 0x40 MLOAD PUSH3 0x461BCD PUSH1 0xE5 SHL DUP2 MSTORE PUSH1 0x20 PUSH1 0x4 DUP3 ADD MSTORE PUSH1 0x26 PUSH1 0x24 DUP3 ADD MSTORE PUSH32 0x45524332303A207472616E7366657220616D6F756E7420657863656564732062 PUSH1 0x44 DUP3 ADD MSTORE PUSH6 0x616C616E6365 PUSH1 0xD0 SHL PUSH1 0x64 DUP3 ADD MSTORE PUSH1 0x84 SWAP1 REVERT JUMPDEST PUSH1 0x40 MLOAD PUSH3 0x461BCD PUSH1 0xE5 SHL DUP2 MSTORE PUSH1 0x20 PUSH1 0x4 DUP3 ADD MSTORE PUSH1 0x23 PUSH1 0x24 DUP3 ADD MSTORE PUSH32 0x45524332303A207472616E7366657220746F20746865207A65726F2061646472 PUSH1 0x44 DUP3 ADD MSTORE PUSH3 0x657373 PUSH1 0xE8 SHL PUSH1 0x64 DUP3 ADD MSTORE PUSH1 0x84 SWAP1 REVERT JUMPDEST PUSH1 0x40 MLOAD PUSH3 0x461BCD PUSH1 0xE5 SHL DUP2 MSTORE PUSH1 0x20 PUSH1 0x4 DUP3 ADD MSTORE PUSH1 0x25 PUSH1 0x24 DUP3 ADD MSTORE PUSH32 0x45524332303A207472616E736665722066726F6D20746865207A65726F206164 PUSH1 0x44 DUP3 ADD MSTORE PUSH5 0x6472657373 PUSH1 0xD8 SHL PUSH1 0x64 DUP3 ADD MSTORE PUSH1 0x84 SWAP1 REVERT JUMPDEST PUSH1 0x1 PUSH1 0x1 PUSH1 0xA0 SHL SUB SWAP1 DUP2 AND SWAP2 DUP3 ISZERO PUSH2 0x1172 JUMPI AND SWAP2 DUP3 ISZERO PUSH2 0x1122 JUMPI PUSH1 0x20 PUSH32 0x8C5BE1E5EBEC7D5BD14F71427D1E84F3DD0314C0F7B2291E5B200AC8C7C3B925 SWAP2 DUP4 PUSH1 0x0 MSTORE PUSH1 0x1 DUP3 MSTORE PUSH1 0x40 PUSH1 0x0 KECCAK256 DUP6 PUSH1 0x0 MSTORE DUP3 MSTORE DUP1 PUSH1 0x40 PUSH1 0x0 KECCAK256 SSTORE PUSH1 0x40 MLOAD SWAP1 DUP2 MSTORE LOG3 JUMP JUMPDEST PUSH1 0x40 MLOAD PUSH3 0x461BCD PUSH1 0xE5 SHL DUP2 MSTORE PUSH1 0x20 PUSH1 0x4 DUP3 ADD MSTORE PUSH1 0x22 PUSH1 0x24 DUP3 ADD MSTORE PUSH32 0x45524332303A20617070726F766520746F20746865207A65726F206164647265 PUSH1 0x44 DUP3 ADD MSTORE PUSH2 0x7373 PUSH1 0xF0 SHL PUSH1 0x64 DUP3 ADD MSTORE PUSH1 0x84 SWAP1 REVERT JUMPDEST PUSH1 0x40 MLOAD PUSH3 0x461BCD PUSH1 0xE5 SHL DUP2 MSTORE PUSH1 0x20 PUSH1 0x4 DUP3 ADD MSTORE PUSH1 0x24 DUP1 DUP3 ADD MSTORE PUSH32 0x45524332303A20617070726F76652066726F6D20746865207A65726F20616464 PUSH1 0x44 DUP3 ADD MSTORE PUSH4 0x72657373 PUSH1 0xE0 SHL PUSH1 0x64 DUP3 ADD MSTORE PUSH1 0x84 SWAP1 REVERT JUMPDEST SWAP1 DUP2 MLOAD DUP2 LT ISZERO PUSH2 0x11D4 JUMPI ADD PUSH1 0x20 ADD SWAP1 JUMP JUMPDEST PUSH4 0x4E487B71 PUSH1 0xE0 SHL PUSH1 0x0 MSTORE PUSH1 0x32 PUSH1 0x4 MSTORE PUSH1 0x24 PUSH1 0x0 REVERT JUMPDEST PUSH1 0x40 MLOAD SWAP1 PUSH1 0x60 DUP3 ADD DUP3 DUP2 LT PUSH8 0xFFFFFFFFFFFFFFFF DUP3 GT OR PUSH2 0xE82 JUMPI PUSH1 0x40 MSTORE PUSH1 0x2A DUP3 MSTORE PUSH1 0x20 DUP3 ADD PUSH1 0x40 CALLDATASIZE DUP3 CALLDATACOPY DUP3 MLOAD ISZERO PUSH2 0x11D4 JUMPI PUSH1 0x30 SWAP1 MSTORE8 DUP2 MLOAD PUSH1 0x1 SWAP1 DUP2 LT ISZERO PUSH2 0x11D4 JUMPI PUSH1 0x78 PUSH1 0x21 DUP5 ADD MSTORE8 PUSH1 0x29 SWAP1 JUMPDEST DUP1 DUP3 GT PUSH2 0x128B JUMPI POP POP PUSH2 0x1247 JUMPI SWAP1 JUMP JUMPDEST PUSH1 0x64 PUSH1 0x40 MLOAD PUSH3 0x461BCD PUSH1 0xE5 SHL DUP2 MSTORE PUSH1 0x20 PUSH1 0x4 DUP3 ADD MSTORE PUSH1 0x20 PUSH1 0x24 DUP3 ADD MSTORE PUSH32 0x537472696E67733A20686578206C656E67746820696E73756666696369656E74 PUSH1 0x44 DUP3 ADD MSTORE REVERT JUMPDEST SWAP1 SWAP2 PUSH1 0xF DUP2 AND PUSH1 0x10 DUP2 LT ISZERO PUSH2 0x12E4 JUMPI PUSH16 0x181899199A1A9B1B9C1CB0B131B232B3 PUSH1 0x81 SHL SWAP1 BYTE PUSH2 0x12BA DUP5 DUP7 PUSH2 0x11C3 JUMP JUMPDEST MSTORE8 PUSH1 0x4 SHR SWAP2 DUP1 ISZERO PUSH2 0x12CF JUMPI PUSH1 0x0 NOT ADD SWAP1 PUSH2 0x1237 JUMP JUMPDEST PUSH1 0x24 PUSH1 0x0 PUSH4 0x4E487B71 PUSH1 0xE0 SHL DUP2 MSTORE PUSH1 0x11 PUSH1 0x4 MSTORE REVERT JUMPDEST PUSH1 0x24 PUSH1 0x0 PUSH4 0x4E487B71 PUSH1 0xE0 SHL DUP2 MSTORE PUSH1 0x32 PUSH1 0x4 MSTORE REVERT JUMPDEST PUSH1 0x1 PUSH1 0x1 PUSH1 0xA0 SHL SUB AND DUP1 ISZERO PUSH2 0x13B1 JUMPI PUSH1 0x0 SWAP2 DUP2 DUP4 MSTORE DUP3 PUSH1 0x20 MSTORE PUSH1 0x40 DUP4 KECCAK256 SLOAD DUP2 DUP2 LT PUSH2 0x1361 JUMPI DUP2 PUSH32 0xDDF252AD1BE2C89B69C2B068FC378DAA952BA7F163C4A11628F55A4DF523B3EF SWAP3 PUSH1 0x20 SWAP3 DUP6 DUP8 MSTORE DUP7 DUP5 MSTORE SUB PUSH1 0x40 DUP7 KECCAK256 SSTORE DUP1 PUSH1 0x2 SLOAD SUB PUSH1 0x2 SSTORE PUSH1 0x40 MLOAD SWAP1 DUP2 MSTORE LOG3 JUMP JUMPDEST PUSH1 0x40 MLOAD PUSH3 0x461BCD PUSH1 0xE5 SHL DUP2 MSTORE PUSH1 0x20 PUSH1 0x4 DUP3 ADD MSTORE PUSH1 0x22 PUSH1 0x24 DUP3 ADD MSTORE PUSH32 0x45524332303A206275726E20616D6F756E7420657863656564732062616C616E PUSH1 0x44 DUP3 ADD MSTORE PUSH2 0x6365 PUSH1 0xF0 SHL PUSH1 0x64 DUP3 ADD MSTORE PUSH1 0x84 SWAP1 REVERT JUMPDEST PUSH1 0x40 MLOAD PUSH3 0x461BCD PUSH1 0xE5 SHL DUP2 MSTORE PUSH1 0x20 PUSH1 0x4 DUP3 ADD MSTORE PUSH1 0x21 PUSH1 0x24 DUP3 ADD MSTORE PUSH32 0x45524332303A206275726E2066726F6D20746865207A65726F20616464726573 PUSH1 0x44 DUP3 ADD MSTORE PUSH1 0x73 PUSH1 0xF8 SHL PUSH1 0x64 DUP3 ADD MSTORE PUSH1 0x84 SWAP1 REVERT INVALID LOG2 PUSH5 0x6970667358 0x22 SLT KECCAK256 0xEA POP BALANCE CODECOPY EXTCODECOPY SWAP13 0xDA PUSH3 0x641959 DUP6 PUSH11 0xCAE4C0F1EE57B76413545B DIV 0x25 0xAA 0xD1 DUP15 BASEFEE PUSH23 0xAA64736F6C634300081400332F8788117E7EFF1D82E926 0xEC PUSH26 0x4901D17C78024A50270940304540A733656F0D00000000000000 "},"methodIdentifiers":{"DEFAULT_ADMIN_ROLE()":"a217fddf","MINTER_ROLE()":"d5391393","allowance(address,address)":"dd62ed3e","approve(address,uint256)":"095ea7b3","balanceOf(address)":"70a08231","burn(uint256)":"42966c68","burnFrom(address,uint256)":"79cc6790","calculateReward(uint256)":"d2d7231f","decimals()":"313ce567","decreaseAllowance(address,uint256)":"a457c2d7","getRoleAdmin(bytes32)":"248a9ca3","grantRole(bytes32,address)":"2f2ff15d","hasRole(bytes32,address)":"91d14854","increaseAllowance(address,uint256)":"39509351","mint(address,uint256)":"40c10f19","name()":"06fdde03","renounceRole(bytes32,address)":"36568abe","revokeRole(bytes32,address)":"d547741f","supportsInterface(bytes4)":"01ffc9a7","symbol()":"95d89b41","totalSupply()":"18160ddd","transfer(address,uint256)":"a9059cbb","transferFrom(address,address,uint256)":"23b872dd"}}}}}