{"contracts/mocks/MockV3Aggregator.sol":{"MockV3Aggregator":{"abi":[{"inputs":[{"internalType":"uint8","name":"_decimals","type":"uint8"},{"internalType":"int256","name":"_initialAnswer","type":"int256"}],"stateMutability":"nonpayable","type":"constructor"},{"inputs":[],"name":"decimals","outputs":[{"internalType":"uint8","name":"","type":"uint8"}],"stateMutability":"view","type":"function"},{"inputs":[],"name":"latestAnswer","outputs":[{"internalType":"int256","name":"","type":"int256"}],"stateMutability":"view","type":"function"},{"inputs":[],"name":"latestRoundData","outputs":[{"internalType":"uint80","name":"roundId","type":"uint80"},{"internalType":"int256","name":"answer","type":"int256"},{"internalType":"uint256","name":"startedAt","type":"uint256"},{"internalType":"uint256","name":"updatedAt","type":"uint256"},{"internalType":"uint80","name":"answeredInRound","type":"uint80"}],"stateMutability":"view","type":"function"},{"inputs":[{"internalType":"int256","name":"_newAnswer","type":"int256"}],"name":"updateAnswer","outputs":[],"stateMutability":"nonpayable","type":"function"}],"evm":{"bytecode":{"linkReferences":{},"object":"60803461006d57601f61019238819003918201601f19168301916001600160401b0383118484101761007257808492604094855283398101031261006d5780519060ff821680920361006d57602001519060ff19600054161760005560015560405161010990816100898239f35b600080fd5b634e487b7160e01b600052604160045260246000fdfe6080806040526004361015601257600080fd5b600090813560e01c908163313ce5671460b45750806350d25bcd146098578063a87a20ce14607f5763feaf968c14604857600080fd5b34607c5780600319360112607c5760a090600154906040519181835260208301524260408301524260608301526080820152f35b80fd5b5034607c576020366003190112607c5760043560015580f35b5034607c5780600319360112607c576020600154604051908152f35b90503460cf578160031936011260cf5760ff60209254168152f35b5080fdfea2646970667358221220fe2506f8ac4376292742aa775e0b1ffdfbc2081849c3c1aad7a596dc7a37cdb364736f6c63430008140033","opcodes":"PUSH1 0x80 CALLVALUE PUSH2 0x6D JUMPI PUSH1 0x1F PUSH2 0x192 CODESIZE DUP2 SWAP1 SUB SWAP2 DUP3 ADD PUSH1 0x1F NOT AND DUP4 ADD SWAP2 PUSH1 0x1 PUSH1 0x1 PUSH1 0x40 SHL SUB DUP4 GT DUP5 DUP5 LT OR PUSH2 0x72 JUMPI DUP1 DUP5 SWAP3 PUSH1 0x40 SWAP5 DUP6 MSTORE DUP4 CODECOPY DUP2 ADD SUB SLT PUSH2 0x6D JUMPI DUP1 MLOAD SWAP1 PUSH1 0xFF DUP3 AND DUP1 SWAP3 SUB PUSH2 0x6D JUMPI PUSH1 0x20 ADD MLOAD SWAP1 PUSH1 0xFF NOT PUSH1 0x0 SLOAD AND OR PUSH1 0x0 SSTORE PUSH1 0x1 SSTORE PUSH1 0x40 MLOAD PUSH2 0x109 SWAP1 DUP2 PUSH2 0x89 DUP3 CODECOPY RETURN JUMPDEST PUSH1 0x0 DUP1 REVERT JUMPDEST PUSH4 0x4E487B71 PUSH1 0xE0 SHL PUSH1 0x0 MSTORE PUSH1 0x41 PUSH1 0x4 MSTORE PUSH1 0x24 PUSH1 0x0 REVERT INVALID PUSH1 0x80 DUP1 PUSH1 0x40 MSTORE PUSH1 0x4 CALLDATASIZE LT ISZERO PUSH1 0x12 JUMPI PUSH1 0x0 DUP1 REVERT JUMPDEST PUSH1 0x0 SWAP1 DUP2 CALLDATALOAD PUSH1 0xE0 SHR SWAP1 DUP2 PUSH4 0x313CE567 EQ PUSH1 0xB4 JUMPI POP DUP1 PUSH4 0x50D25BCD EQ PUSH1 0x98 JUMPI DUP1 PUSH4 0xA87A20CE EQ PUSH1 0x7F JUMPI PUSH4 0xFEAF968C EQ PUSH1 0x48 JUMPI PUSH1 0x0 DUP1 REVERT JUMPDEST CALLVALUE PUSH1 0x7C JUMPI DUP1 PUSH1 0x3 NOT CALLDATASIZE ADD SLT PUSH1 0x7C JUMPI PUSH1 0xA0 SWAP1 PUSH1 0x1 SLOAD SWAP1 PUSH1 0x40 MLOAD SWAP2 DUP2 DUP4 MSTORE PUSH1 0x20 DUP4 ADD MSTORE TIMESTAMP PUSH1 0x40 DUP4 ADD MSTORE TIMESTAMP PUSH1 0x60 DUP4 ADD MSTORE PUSH1 0x80 DUP3 ADD MSTORE RETURN JUMPDEST DUP1 REVERT JUMPDEST POP CALLVALUE PUSH1 0x7C JUMPI PUSH1 0x20 CALLDATASIZE PUSH1 0x3 NOT ADD SLT PUSH1 0x7C JUMPI PUSH1 0x4 CALLDATALOAD PUSH1 0x1 SSTORE DUP1 RETURN JUMPDEST POP CALLVALUE PUSH1 0x7C JUMPI DUP1 PUSH1 0x3 NOT CALLDATASIZE ADD SLT PUSH1 0x7C JUMPI PUSH1 0x20 PUSH1 0x1 SLOAD PUSH1 0x40 MLOAD SWAP1 DUP2 MSTORE RETURN JUMPDEST SWAP1 POP CALLVALUE PUSH1 0xCF JUMPI DUP2 PUSH1 0x3 NOT CALLDATASIZE ADD SLT PUSH1 0xCF JUMPI PUSH1 0xFF PUSH1 0x20 SWAP3 SLOAD AND DUP2 MSTORE RETURN JUMPDEST POP DUP1 REVERT INVALID LOG2 PUSH5 0x6970667358 0x22 SLT KECCAK256 INVALID 0x25 MOD 0xF8 0xAC NUMBER PUSH23 0x292742AA775E0B1FFDFBC2081849C3C1AAD7A596DC7A37 0xCD 0xB3 PUSH5 0x736F6C6343 STOP ADDMOD EQ STOP CALLER "},"methodIdentifiers":{"decimals()":"313ce567","latestAnswer()":"50d25bcd","latestRoundData()":"feaf968c","updateAnswer(int256)":"a87a20ce"}}}}}