{"contracts/oracles/DoneWeatherOracle.sol":{"DoneWeatherOracle":{"abi":[{"inputs":[],"stateMutability":"nonpayable","type":"constructor"},{"anonymous":false,"inputs":[{"indexed":false,"internalType":"uint256","name":"baseFee","type":"uint256"},{"indexed":false,"internalType":"uint256","name":"adjustedFee","type":"uint256"},{"indexed":false,"internalType":"enum DoneWeatherOracle.WeatherCondition","name":"condition","type":"uint8"}],"name":"DeliveryFeeAdjusted","type":"event"},{"anonymous":false,"inputs":[{"indexed":true,"internalType":"bytes32","name":"locationHash","type":"bytes32"},{"indexed":false,"internalType":"enum DoneWeatherOracle.WeatherCondition","name":"condition","type":"uint8"}],"name":"ExtremeWeatherAlert","type":"event"},{"anonymous":false,"inputs":[{"indexed":true,"internalType":"address","name":"previousOwner","type":"address"},{"indexed":true,"internalType":"address","name":"newOwner","type":"address"}],"name":"OwnershipTransferred","type":"event"},{"anonymous":false,"inputs":[{"indexed":true,"internalType":"bytes32","name":"locationHash","type":"bytes32"},{"indexed":false,"internalType":"enum DoneWeatherOracle.WeatherCondition","name":"condition","type":"uint8"},{"indexed":false,"internalType":"int256","name":"temperature","type":"int256"},{"indexed":false,"internalType":"bool","name":"isExtreme","type":"bool"}],"name":"WeatherUpdated","type":"event"},{"inputs":[],"name":"UPDATE_INTERVAL","outputs":[{"internalType":"uint256","name":"","type":"uint256"}],"stateMutability":"view","type":"function"},{"inputs":[{"internalType":"uint256","name":"baseFee","type":"uint256"},{"internalType":"enum DoneWeatherOracle.WeatherCondition","name":"condition","type":"uint8"}],"name":"adjustDeliveryFee","outputs":[{"internalType":"uint256","name":"","type":"uint256"}],"stateMutability":"view","type":"function"},{"inputs":[{"internalType":"int256","name":"lat","type":"int256"},{"internalType":"int256","name":"lng","type":"int256"}],"name":"canDeliver","outputs":[{"internalType":"bool","name":"","type":"bool"}],"stateMutability":"view","type":"function"},{"inputs":[{"internalType":"enum DoneWeatherOracle.WeatherCondition","name":"","type":"uint8"}],"name":"deliveryFeeMultipliers","outputs":[{"internalType":"uint256","name":"","type":"uint256"}],"stateMutability":"view","type":"function"},{"inputs":[{"internalType":"int256","name":"lat","type":"int256"},{"internalType":"int256","name":"lng","type":"int256"}],"name":"getWeather","outputs":[{"internalType":"enum DoneWeatherOracle.WeatherCondition","name":"","type":"uint8"},{"internalType":"int256","name":"","type":"int256"},{"internalType":"uint256","name":"","type":"uint256"},{"internalType":"bool","name":"","type":"bool"}],"stateMutability":"view","type":"function"},{"inputs":[],"name":"owner","outputs":[{"internalType":"address","name":"","type":"address"}],"stateMutability":"view","type":"function"},{"inputs":[],"name":"renounceOwnership","outputs":[],"stateMutability":"nonpayable","type":"function"},{"inputs":[{"internalType":"enum DoneWeatherOracle.WeatherCondition","name":"condition","type":"uint8"},{"internalType":"uint256","name":"multiplier","type":"uint256"}],"name":"setFeeMultiplier","outputs":[],"stateMutability":"nonpayable","type":"function"},{"inputs":[{"internalType":"address","name":"newOwner","type":"address"}],"name":"transferOwnership","outputs":[],"stateMutability":"nonpayable","type":"function"},{"inputs":[{"internalType":"int256","name":"lat","type":"int256"},{"internalType":"int256","name":"lng","type":"int256"},{"internalType":"enum DoneWeatherOracle.WeatherCondition","name":"condition","type":"uint8"},{"internalType":"int256","name":"temperature","type":"int256"}],"name":"updateWeather","outputs":[],"stateMutability":"nonpayable","type":"function"},{"inputs":[{"internalType":"bytes32","name":"","type":"bytes32"}],"name":"weatherByLocation","outputs":[{"internalType":"enum DoneWeatherOracle.WeatherCondition","name":"condition","type":"uint8"},{"internalType":"int256","name":"temperature","type":"int256"},{"internalType":"uint256","name":"timestamp","type":"uint256"},{"internalType":"bool","name":"isExtreme","type":"bool"}],"stateMutability":"view","type":"function"}],"evm":{"bytecode":{"linkReferences":{},"object":"60806040818152346100925760008054336001600160a01b0319821681178355614e209392916001600160a01b03167f8be0079c531659141344cd1fd0a4f28419497f9722a3daafe3b4186f6b6457e08380a380805260026020526127108083832055600182528282205560028152612ee08282205560038152613a98828220556004815220556108ae90816100988239f35b600080fdfe60406080815260048036101561001457600080fd5b600091823560e01c80630ee24eb51461062c5780636e7121ea146105e5578063715018a61461058b57806373a70c951461056657806382c34c00146103a757806389ac41471461038a5780638da5cb5b1461035e578063a163bb34146101f7578063b14954721461019a578063b4fed851146101655763f2fde38b1461009957600080fd5b34610161576020366003190112610161576001600160a01b0382358181169391929084900361015d576100ca610736565b831561010b57505082546001600160a01b0319811683178455167f8be0079c531659141344cd1fd0a4f28419497f9722a3daafe3b4186f6b6457e08380a380f35b906020608492519162461bcd60e51b8352820152602660248201527f4f776e61626c653a206e6577206f776e657220697320746865207a65726f206160448201526564647265737360d01b6064820152fd5b8480fd5b8280fd5b5090346101615760203660031901126101615735916005831015610197575061018f60209261071d565b549051908152f35b80fd5b5091346101975782600319360112610197578135916024356005811015610161576101c49061071d565b54928381029381850414901517156101e457602083612710865191048152f35b634e487b7160e01b825260119052602490fd5b5082346101975761020736610702565b8351906020820192835284820152838152610221816107c0565b5190208152600160205281812091805161023a8161078e565b60ff845416600581101561034b57815260018401546020820190815260028501549160ff600385830197858952015416926060820193151584521561031657855161546081018091116103035742116102c857519360058510156102b55750906102b19291519451905115159151948594856106db565b0390f35b634e487b7160e01b815260218752602490fd5b835162461bcd60e51b8152602081890152601560248201527415d9585d1a195c8819185d18481bdd5d19185d1959605a1b6044820152606490fd5b634e487b7160e01b865260118852602486fd5b835162461bcd60e51b8152602081890152600f60248201526e4e6f2077656174686572206461746160881b6044820152606490fd5b634e487b7160e01b845260218652602484fd5b838234610386578160031936011261038657905490516001600160a01b039091168152602090f35b5080fd5b83823461038657816003193601126103865760209051610e108152f35b50346101615760803660031901126101615760443590600582101561056257606435926103d2610736565b8151602081019082358252602435848201528381526103f0816107c0565b51902093848652600160205282862060028101908154610e10810180911161054f574210610517578584149388851561050a575b85156104fd575b85156104f1575b6104de575086927f2d8ad5c85a5d74efd5d7c128c8983740fd094513a6e05422dfa23c66e203c04b92600360609360ff19928382541660ff8c16178255846001830155429055018615159181541660ff8316179055865191610494838a6106b8565b602083015286820152a26104a6578380f35b7f471a175649bde76243e3014f049c8436d156b107daf12e3dbfc66747fad160e6916104d66020925180926106b8565ba23880808380f35b634e487b7160e01b895260219052602488fd5b610fa085139550610432565b6103e7198512955061042b565b5060038714945088610424565b845162461bcd60e51b81526020818601526012602482015271546f6f20736f6f6e20746f2075706461746560701b6044820152606490fd5b634e487b7160e01b895260118552602489fd5b8380fd5b8382346103865760209061058261057c36610702565b906107dc565b90519015158152f35b83346101975780600319360112610197576105a4610736565b80546001600160a01b03198116825581906001600160a01b03167f8be0079c531659141344cd1fd0a4f28419497f9722a3daafe3b4186f6b6457e08280a380f35b50903461016157602036600319011261016157918192358152600160205220906102b160ff8354169160018401549360ff60036002830154920154169151948594856106db565b50903461016157816003193601126101615780359060058210156105625760243592610656610736565b831561066b5750506106679061071d565b5580f35b906020608492519162461bcd60e51b8352820152602160248201527f4d756c7469706c696572206d7573742062652067726561746572207468616e206044820152600360fc1b6064820152fd5b9060058210156106c55752565b634e487b7160e01b600052602160045260246000fd5b92606092959491956106f18560808101986106b8565b602085015260408401521515910152565b6040906003190112610718576004359060243590565b600080fd5b60058110156106c5576000526002602052604060002090565b6000546001600160a01b0316330361074a57565b606460405162461bcd60e51b815260206004820152602060248201527f4f776e61626c653a2063616c6c6572206973206e6f7420746865206f776e65726044820152fd5b6080810190811067ffffffffffffffff8211176107aa57604052565b634e487b7160e01b600052604160045260246000fd5b6060810190811067ffffffffffffffff8211176107aa57604052565b60409182519060208201928352838201528281526107f9816107c0565b51902090600091825260016020528082208151906108168261078e565b60ff81541692600584101561086457838352600182015460208401526002820154908301526003015460ff16151560609091018190526108605760041461085d5750600190565b90565b5090565b634e487b7160e01b85526021600452602485fdfea2646970667358221220d8687b483aa269baefddfa2ccff54dbe96455db6fb637d473b3eb5bd1479909a64736f6c63430008140033","opcodes":"PUSH1 0x80 PUSH1 0x40 DUP2 DUP2 MSTORE CALLVALUE PUSH2 0x92 JUMPI PUSH1 0x0 DUP1 SLOAD CALLER PUSH1 0x1 PUSH1 0x1 PUSH1 0xA0 SHL SUB NOT DUP3 AND DUP2 OR DUP4 SSTORE PUSH2 0x4E20 SWAP4 SWAP3 SWAP2 PUSH1 0x1 PUSH1 0x1 PUSH1 0xA0 SHL SUB AND PUSH32 0x8BE0079C531659141344CD1FD0A4F28419497F9722A3DAAFE3B4186F6B6457E0 DUP4 DUP1 LOG3 DUP1 DUP1 MSTORE PUSH1 0x2 PUSH1 0x20 MSTORE PUSH2 0x2710 DUP1 DUP4 DUP4 KECCAK256 SSTORE PUSH1 0x1 DUP3 MSTORE DUP3 DUP3 KECCAK256 SSTORE PUSH1 0x2 DUP2 MSTORE PUSH2 0x2EE0 DUP3 DUP3 KECCAK256 SSTORE PUSH1 0x3 DUP2 MSTORE PUSH2 0x3A98 DUP3 DUP3 KECCAK256 SSTORE PUSH1 0x4 DUP2 MSTORE KECCAK256 SSTORE PUSH2 0x8AE SWAP1 DUP2 PUSH2 0x98 DUP3 CODECOPY RETURN JUMPDEST PUSH1 0x0 DUP1 REVERT INVALID PUSH1 0x40 PUSH1 0x80 DUP2 MSTORE PUSH1 0x4 DUP1 CALLDATASIZE LT ISZERO PUSH2 0x14 JUMPI PUSH1 0x0 DUP1 REVERT JUMPDEST PUSH1 0x0 SWAP2 DUP3 CALLDATALOAD PUSH1 0xE0 SHR DUP1 PUSH4 0xEE24EB5 EQ PUSH2 0x62C JUMPI DUP1 PUSH4 0x6E7121EA EQ PUSH2 0x5E5 JUMPI DUP1 PUSH4 0x715018A6 EQ PUSH2 0x58B JUMPI DUP1 PUSH4 0x73A70C95 EQ PUSH2 0x566 JUMPI DUP1 PUSH4 0x82C34C00 EQ PUSH2 0x3A7 JUMPI DUP1 PUSH4 0x89AC4147 EQ PUSH2 0x38A JUMPI DUP1 PUSH4 0x8DA5CB5B EQ PUSH2 0x35E JUMPI DUP1 PUSH4 0xA163BB34 EQ PUSH2 0x1F7 JUMPI DUP1 PUSH4 0xB1495472 EQ PUSH2 0x19A JUMPI DUP1 PUSH4 0xB4FED851 EQ PUSH2 0x165 JUMPI PUSH4 0xF2FDE38B EQ PUSH2 0x99 JUMPI PUSH1 0x0 DUP1 REVERT JUMPDEST CALLVALUE PUSH2 0x161 JUMPI PUSH1 0x20 CALLDATASIZE PUSH1 0x3 NOT ADD SLT PUSH2 0x161 JUMPI PUSH1 0x1 PUSH1 0x1 PUSH1 0xA0 SHL SUB DUP3 CALLDATALOAD DUP2 DUP2 AND SWAP4 SWAP2 SWAP3 SWAP1 DUP5 SWAP1 SUB PUSH2 0x15D JUMPI PUSH2 0xCA PUSH2 0x736 JUMP JUMPDEST DUP4 ISZERO PUSH2 0x10B JUMPI POP POP DUP3 SLOAD PUSH1 0x1 PUSH1 0x1 PUSH1 0xA0 SHL SUB NOT DUP2 AND DUP4 OR DUP5 SSTORE AND PUSH32 0x8BE0079C531659141344CD1FD0A4F28419497F9722A3DAAFE3B4186F6B6457E0 DUP4 DUP1 LOG3 DUP1 RETURN JUMPDEST SWAP1 PUSH1 0x20 PUSH1 0x84 SWAP3 MLOAD SWAP2 PUSH3 0x461BCD PUSH1 0xE5 SHL DUP4 MSTORE DUP3 ADD MSTORE PUSH1 0x26 PUSH1 0x24 DUP3 ADD MSTORE PUSH32 0x4F776E61626C653A206E6577206F776E657220697320746865207A65726F2061 PUSH1 0x44 DUP3 ADD MSTORE PUSH6 0x646472657373 PUSH1 0xD0 SHL PUSH1 0x64 DUP3 ADD MSTORE REVERT JUMPDEST DUP5 DUP1 REVERT JUMPDEST DUP3 DUP1 REVERT JUMPDEST POP SWAP1 CALLVALUE PUSH2 0x161 JUMPI PUSH1 0x20 CALLDATASIZE PUSH1 0x3 NOT ADD SLT PUSH2 0x161 JUMPI CALLDATALOAD SWAP2 PUSH1 0x5 DUP4 LT ISZERO PUSH2 0x197 JUMPI POP PUSH2 0x18F PUSH1 0x20 SWAP3 PUSH2 0x71D JUMP JUMPDEST SLOAD SWAP1 MLOAD SWAP1 DUP2 MSTORE RETURN JUMPDEST DUP1 REVERT JUMPDEST POP SWAP2 CALLVALUE PUSH2 0x197 JUMPI DUP3 PUSH1 0x3 NOT CALLDATASIZE ADD SLT PUSH2 0x197 JUMPI DUP2 CALLDATALOAD SWAP2 PUSH1 0x24 CALLDATALOAD PUSH1 0x5 DUP2 LT ISZERO PUSH2 0x161 JUMPI PUSH2 0x1C4 SWAP1 PUSH2 0x71D JUMP JUMPDEST SLOAD SWAP3 DUP4 DUP2 MUL SWAP4 DUP2 DUP6 DIV EQ SWAP1 ISZERO OR ISZERO PUSH2 0x1E4 JUMPI PUSH1 0x20 DUP4 PUSH2 0x2710 DUP7 MLOAD SWAP2 DIV DUP2 MSTORE RETURN JUMPDEST PUSH4 0x4E487B71 PUSH1 0xE0 SHL DUP3 MSTORE PUSH1 0x11 SWAP1 MSTORE PUSH1 0x24 SWAP1 REVERT JUMPDEST POP DUP3 CALLVALUE PUSH2 0x197 JUMPI PUSH2 0x207 CALLDATASIZE PUSH2 0x702 JUMP JUMPDEST DUP4 MLOAD SWAP1 PUSH1 0x20 DUP3 ADD SWAP3 DUP4 MSTORE DUP5 DUP3 ADD MSTORE DUP4 DUP2 MSTORE PUSH2 0x221 DUP2 PUSH2 0x7C0 JUMP JUMPDEST MLOAD SWAP1 KECCAK256 DUP2 MSTORE PUSH1 0x1 PUSH1 0x20 MSTORE DUP2 DUP2 KECCAK256 SWAP2 DUP1 MLOAD PUSH2 0x23A DUP2 PUSH2 0x78E JUMP JUMPDEST PUSH1 0xFF DUP5 SLOAD AND PUSH1 0x5 DUP2 LT ISZERO PUSH2 0x34B JUMPI DUP2 MSTORE PUSH1 0x1 DUP5 ADD SLOAD PUSH1 0x20 DUP3 ADD SWAP1 DUP2 MSTORE PUSH1 0x2 DUP6 ADD SLOAD SWAP2 PUSH1 0xFF PUSH1 0x3 DUP6 DUP4 ADD SWAP8 DUP6 DUP10 MSTORE ADD SLOAD AND SWAP3 PUSH1 0x60 DUP3 ADD SWAP4 ISZERO ISZERO DUP5 MSTORE ISZERO PUSH2 0x316 JUMPI DUP6 MLOAD PUSH2 0x5460 DUP2 ADD DUP1 SWAP2 GT PUSH2 0x303 JUMPI TIMESTAMP GT PUSH2 0x2C8 JUMPI MLOAD SWAP4 PUSH1 0x5 DUP6 LT ISZERO PUSH2 0x2B5 JUMPI POP SWAP1 PUSH2 0x2B1 SWAP3 SWAP2 MLOAD SWAP5 MLOAD SWAP1 MLOAD ISZERO ISZERO SWAP2 MLOAD SWAP5 DUP6 SWAP5 DUP6 PUSH2 0x6DB JUMP JUMPDEST SUB SWAP1 RETURN JUMPDEST PUSH4 0x4E487B71 PUSH1 0xE0 SHL DUP2 MSTORE PUSH1 0x21 DUP8 MSTORE PUSH1 0x24 SWAP1 REVERT JUMPDEST DUP4 MLOAD PUSH3 0x461BCD PUSH1 0xE5 SHL DUP2 MSTORE PUSH1 0x20 DUP2 DUP10 ADD MSTORE PUSH1 0x15 PUSH1 0x24 DUP3 ADD MSTORE PUSH21 0x15D9585D1A195C8819185D18481BDD5D19185D1959 PUSH1 0x5A SHL PUSH1 0x44 DUP3 ADD MSTORE PUSH1 0x64 SWAP1 REVERT JUMPDEST PUSH4 0x4E487B71 PUSH1 0xE0 SHL DUP7 MSTORE PUSH1 0x11 DUP9 MSTORE PUSH1 0x24 DUP7 REVERT JUMPDEST DUP4 MLOAD PUSH3 0x461BCD PUSH1 0xE5 SHL DUP2 MSTORE PUSH1 0x20 DUP2 DUP10 ADD MSTORE PUSH1 0xF PUSH1 0x24 DUP3 ADD MSTORE PUSH15 0x4E6F20776561746865722064617461 PUSH1 0x88 SHL PUSH1 0x44 DUP3 ADD MSTORE PUSH1 0x64 SWAP1 REVERT JUMPDEST PUSH4 0x4E487B71 PUSH1 0xE0 SHL DUP5 MSTORE PUSH1 0x21 DUP7 MSTORE PUSH1 0x24 DUP5 REVERT JUMPDEST DUP4 DUP3 CALLVALUE PUSH2 0x386 JUMPI DUP2 PUSH1 0x3 NOT CALLDATASIZE ADD SLT PUSH2 0x386 JUMPI SWAP1 SLOAD SWAP1 MLOAD PUSH1 0x1 PUSH1 0x1 PUSH1 0xA0 SHL SUB SWAP1 SWAP2 AND DUP2 MSTORE PUSH1 0x20 SWAP1 RETURN JUMPDEST POP DUP1 REVERT JUMPDEST DUP4 DUP3 CALLVALUE PUSH2 0x386 JUMPI DUP2 PUSH1 0x3 NOT CALLDATASIZE ADD SLT PUSH2 0x386 JUMPI PUSH1 0x20 SWAP1 MLOAD PUSH2 0xE10 DUP2 MSTORE RETURN JUMPDEST POP CALLVALUE PUSH2 0x161 JUMPI PUSH1 0x80 CALLDATASIZE PUSH1 0x3 NOT ADD SLT PUSH2 0x161 JUMPI PUSH1 0x44 CALLDATALOAD SWAP1 PUSH1 0x5 DUP3 LT ISZERO PUSH2 0x562 JUMPI PUSH1 0x64 CALLDATALOAD SWAP3 PUSH2 0x3D2 PUSH2 0x736 JUMP JUMPDEST DUP2 MLOAD PUSH1 0x20 DUP2 ADD SWAP1 DUP3 CALLDATALOAD DUP3 MSTORE PUSH1 0x24 CALLDATALOAD DUP5 DUP3 ADD MSTORE DUP4 DUP2 MSTORE PUSH2 0x3F0 DUP2 PUSH2 0x7C0 JUMP JUMPDEST MLOAD SWAP1 KECCAK256 SWAP4 DUP5 DUP7 MSTORE PUSH1 0x1 PUSH1 0x20 MSTORE DUP3 DUP7 KECCAK256 PUSH1 0x2 DUP2 ADD SWAP1 DUP2 SLOAD PUSH2 0xE10 DUP2 ADD DUP1 SWAP2 GT PUSH2 0x54F JUMPI TIMESTAMP LT PUSH2 0x517 JUMPI DUP6 DUP5 EQ SWAP4 DUP9 DUP6 ISZERO PUSH2 0x50A JUMPI JUMPDEST DUP6 ISZERO PUSH2 0x4FD JUMPI JUMPDEST DUP6 ISZERO PUSH2 0x4F1 JUMPI JUMPDEST PUSH2 0x4DE JUMPI POP DUP7 SWAP3 PUSH32 0x2D8AD5C85A5D74EFD5D7C128C8983740FD094513A6E05422DFA23C66E203C04B SWAP3 PUSH1 0x3 PUSH1 0x60 SWAP4 PUSH1 0xFF NOT SWAP3 DUP4 DUP3 SLOAD AND PUSH1 0xFF DUP13 AND OR DUP3 SSTORE DUP5 PUSH1 0x1 DUP4 ADD SSTORE TIMESTAMP SWAP1 SSTORE ADD DUP7 ISZERO ISZERO SWAP2 DUP2 SLOAD AND PUSH1 0xFF DUP4 AND OR SWAP1 SSTORE DUP7 MLOAD SWAP2 PUSH2 0x494 DUP4 DUP11 PUSH2 0x6B8 JUMP JUMPDEST PUSH1 0x20 DUP4 ADD MSTORE DUP7 DUP3 ADD MSTORE LOG2 PUSH2 0x4A6 JUMPI DUP4 DUP1 RETURN JUMPDEST PUSH32 0x471A175649BDE76243E3014F049C8436D156B107DAF12E3DBFC66747FAD160E6 SWAP2 PUSH2 0x4D6 PUSH1 0x20 SWAP3 MLOAD DUP1 SWAP3 PUSH2 0x6B8 JUMP JUMPDEST LOG2 CODESIZE DUP1 DUP1 DUP4 DUP1 RETURN JUMPDEST PUSH4 0x4E487B71 PUSH1 0xE0 SHL DUP10 MSTORE PUSH1 0x21 SWAP1 MSTORE PUSH1 0x24 DUP9 REVERT JUMPDEST PUSH2 0xFA0 DUP6 SGT SWAP6 POP PUSH2 0x432 JUMP JUMPDEST PUSH2 0x3E7 NOT DUP6 SLT SWAP6 POP PUSH2 0x42B JUMP JUMPDEST POP PUSH1 0x3 DUP8 EQ SWAP5 POP DUP9 PUSH2 0x424 JUMP JUMPDEST DUP5 MLOAD PUSH3 0x461BCD PUSH1 0xE5 SHL DUP2 MSTORE PUSH1 0x20 DUP2 DUP7 ADD MSTORE PUSH1 0x12 PUSH1 0x24 DUP3 ADD MSTORE PUSH18 0x546F6F20736F6F6E20746F20757064617465 PUSH1 0x70 SHL PUSH1 0x44 DUP3 ADD MSTORE PUSH1 0x64 SWAP1 REVERT JUMPDEST PUSH4 0x4E487B71 PUSH1 0xE0 SHL DUP10 MSTORE PUSH1 0x11 DUP6 MSTORE PUSH1 0x24 DUP10 REVERT JUMPDEST DUP4 DUP1 REVERT JUMPDEST DUP4 DUP3 CALLVALUE PUSH2 0x386 JUMPI PUSH1 0x20 SWAP1 PUSH2 0x582 PUSH2 0x57C CALLDATASIZE PUSH2 0x702 JUMP JUMPDEST SWAP1 PUSH2 0x7DC JUMP JUMPDEST SWAP1 MLOAD SWAP1 ISZERO ISZERO DUP2 MSTORE RETURN JUMPDEST DUP4 CALLVALUE PUSH2 0x197 JUMPI DUP1 PUSH1 0x3 NOT CALLDATASIZE ADD SLT PUSH2 0x197 JUMPI PUSH2 0x5A4 PUSH2 0x736 JUMP JUMPDEST DUP1 SLOAD PUSH1 0x1 PUSH1 0x1 PUSH1 0xA0 SHL SUB NOT DUP2 AND DUP3 SSTORE DUP2 SWAP1 PUSH1 0x1 PUSH1 0x1 PUSH1 0xA0 SHL SUB AND PUSH32 0x8BE0079C531659141344CD1FD0A4F28419497F9722A3DAAFE3B4186F6B6457E0 DUP3 DUP1 LOG3 DUP1 RETURN JUMPDEST POP SWAP1 CALLVALUE PUSH2 0x161 JUMPI PUSH1 0x20 CALLDATASIZE PUSH1 0x3 NOT ADD SLT PUSH2 0x161 JUMPI SWAP2 DUP2 SWAP3 CALLDATALOAD DUP2 MSTORE PUSH1 0x1 PUSH1 0x20 MSTORE KECCAK256 SWAP1 PUSH2 0x2B1 PUSH1 0xFF DUP4 SLOAD AND SWAP2 PUSH1 0x1 DUP5 ADD SLOAD SWAP4 PUSH1 0xFF PUSH1 0x3 PUSH1 0x2 DUP4 ADD SLOAD SWAP3 ADD SLOAD AND SWAP2 MLOAD SWAP5 DUP6 SWAP5 DUP6 PUSH2 0x6DB JUMP JUMPDEST POP SWAP1 CALLVALUE PUSH2 0x161 JUMPI DUP2 PUSH1 0x3 NOT CALLDATASIZE ADD SLT PUSH2 0x161 JUMPI DUP1 CALLDATALOAD SWAP1 PUSH1 0x5 DUP3 LT ISZERO PUSH2 0x562 JUMPI PUSH1 0x24 CALLDATALOAD SWAP3 PUSH2 0x656 PUSH2 0x736 JUMP JUMPDEST DUP4 ISZERO PUSH2 0x66B JUMPI POP POP PUSH2 0x667 SWAP1 PUSH2 0x71D JUMP JUMPDEST SSTORE DUP1 RETURN JUMPDEST SWAP1 PUSH1 0x20 PUSH1 0x84 SWAP3 MLOAD SWAP2 PUSH3 0x461BCD PUSH1 0xE5 SHL DUP4 MSTORE DUP3 ADD MSTORE PUSH1 0x21 PUSH1 0x24 DUP3 ADD MSTORE PUSH32 0x4D756C7469706C696572206D7573742062652067726561746572207468616E20 PUSH1 0x44 DUP3 ADD MSTORE PUSH1 0x3 PUSH1 0xFC SHL PUSH1 0x64 DUP3 ADD MSTORE REVERT JUMPDEST SWAP1 PUSH1 0x5 DUP3 LT ISZERO PUSH2 0x6C5 JUMPI MSTORE JUMP JUMPDEST PUSH4 0x4E487B71 PUSH1 0xE0 SHL PUSH1 0x0 MSTORE PUSH1 0x21 PUSH1 0x4 MSTORE PUSH1 0x24 PUSH1 0x0 REVERT JUMPDEST SWAP3 PUSH1 0x60 SWAP3 SWAP6 SWAP5 SWAP2 SWAP6 PUSH2 0x6F1 DUP6 PUSH1 0x80 DUP2 ADD SWAP9 PUSH2 0x6B8 JUMP JUMPDEST PUSH1 0x20 DUP6 ADD MSTORE PUSH1 0x40 DUP5 ADD MSTORE ISZERO ISZERO SWAP2 ADD MSTORE JUMP JUMPDEST PUSH1 0x40 SWAP1 PUSH1 0x3 NOT ADD SLT PUSH2 0x718 JUMPI PUSH1 0x4 CALLDATALOAD SWAP1 PUSH1 0x24 CALLDATALOAD SWAP1 JUMP JUMPDEST PUSH1 0x0 DUP1 REVERT JUMPDEST PUSH1 0x5 DUP2 LT ISZERO PUSH2 0x6C5 JUMPI PUSH1 0x0 MSTORE PUSH1 0x2 PUSH1 0x20 MSTORE PUSH1 0x40 PUSH1 0x0 KECCAK256 SWAP1 JUMP JUMPDEST PUSH1 0x0 SLOAD PUSH1 0x1 PUSH1 0x1 PUSH1 0xA0 SHL SUB AND CALLER SUB PUSH2 0x74A JUMPI JUMP JUMPDEST PUSH1 0x64 PUSH1 0x40 MLOAD PUSH3 0x461BCD PUSH1 0xE5 SHL DUP2 MSTORE PUSH1 0x20 PUSH1 0x4 DUP3 ADD MSTORE PUSH1 0x20 PUSH1 0x24 DUP3 ADD MSTORE PUSH32 0x4F776E61626C653A2063616C6C6572206973206E6F7420746865206F776E6572 PUSH1 0x44 DUP3 ADD MSTORE REVERT JUMPDEST PUSH1 0x80 DUP2 ADD SWAP1 DUP2 LT PUSH8 0xFFFFFFFFFFFFFFFF DUP3 GT OR PUSH2 0x7AA JUMPI PUSH1 0x40 MSTORE JUMP JUMPDEST PUSH4 0x4E487B71 PUSH1 0xE0 SHL PUSH1 0x0 MSTORE PUSH1 0x41 PUSH1 0x4 MSTORE PUSH1 0x24 PUSH1 0x0 REVERT JUMPDEST PUSH1 0x60 DUP2 ADD SWAP1 DUP2 LT PUSH8 0xFFFFFFFFFFFFFFFF DUP3 GT OR PUSH2 0x7AA JUMPI PUSH1 0x40 MSTORE JUMP JUMPDEST PUSH1 0x40 SWAP2 DUP3 MLOAD SWAP1 PUSH1 0x20 DUP3 ADD SWAP3 DUP4 MSTORE DUP4 DUP3 ADD MSTORE DUP3 DUP2 MSTORE PUSH2 0x7F9 DUP2 PUSH2 0x7C0 JUMP JUMPDEST MLOAD SWAP1 KECCAK256 SWAP1 PUSH1 0x0 SWAP2 DUP3 MSTORE PUSH1 0x1 PUSH1 0x20 MSTORE DUP1 DUP3 KECCAK256 DUP2 MLOAD SWAP1 PUSH2 0x816 DUP3 PUSH2 0x78E JUMP JUMPDEST PUSH1 0xFF DUP2 SLOAD AND SWAP3 PUSH1 0x5 DUP5 LT ISZERO PUSH2 0x864 JUMPI DUP4 DUP4 MSTORE PUSH1 0x1 DUP3 ADD SLOAD PUSH1 0x20 DUP5 ADD MSTORE PUSH1 0x2 DUP3 ADD SLOAD SWAP1 DUP4 ADD MSTORE PUSH1 0x3 ADD SLOAD PUSH1 0xFF AND ISZERO ISZERO PUSH1 0x60 SWAP1 SWAP2 ADD DUP2 SWAP1 MSTORE PUSH2 0x860 JUMPI PUSH1 0x4 EQ PUSH2 0x85D JUMPI POP PUSH1 0x1 SWAP1 JUMP JUMPDEST SWAP1 JUMP JUMPDEST POP SWAP1 JUMP JUMPDEST PUSH4 0x4E487B71 PUSH1 0xE0 SHL DUP6 MSTORE PUSH1 0x21 PUSH1 0x4 MSTORE PUSH1 0x24 DUP6 REVERT INVALID LOG2 PUSH5 0x6970667358 0x22 SLT KECCAK256 0xD8 PUSH9 0x7B483AA269BAEFDDFA 0x2C 0xCF CREATE2 0x4D 0xBE SWAP7 GASLIMIT 0x5D 0xB6 0xFB PUSH4 0x7D473B3E 0xB5 0xBD EQ PUSH26 0x909A64736F6C6343000814003300000000000000000000000000 "},"methodIdentifiers":{"UPDATE_INTERVAL()":"89ac4147","adjustDeliveryFee(uint256,uint8)":"b1495472","canDeliver(int256,int256)":"73a70c95","deliveryFeeMultipliers(uint8)":"b4fed851","getWeather(int256,int256)":"a163bb34","owner()":"8da5cb5b","renounceOwnership()":"715018a6","setFeeMultiplier(uint8,uint256)":"0ee24eb5","transferOwnership(address)":"f2fde38b","updateWeather(int256,int256,uint8,int256)":"82c34c00","weatherByLocation(bytes32)":"6e7121ea"}}}}}