{"contracts/oracles/DonePriceOracle.sol":{"DonePriceOracle":{"abi":[{"inputs":[{"internalType":"address","name":"_priceFeedAddress","type":"address"}],"stateMutability":"nonpayable","type":"constructor"},{"anonymous":false,"inputs":[{"indexed":false,"internalType":"uint256","name":"usdAmount","type":"uint256"},{"indexed":false,"internalType":"uint256","name":"maticAmount","type":"uint256"}],"name":"ConversionRequested","type":"event"},{"anonymous":false,"inputs":[{"indexed":true,"internalType":"address","name":"previousOwner","type":"address"},{"indexed":true,"internalType":"address","name":"newOwner","type":"address"}],"name":"OwnershipTransferred","type":"event"},{"anonymous":false,"inputs":[{"indexed":false,"internalType":"int256","name":"price","type":"int256"},{"indexed":false,"internalType":"uint256","name":"timestamp","type":"uint256"}],"name":"PriceUpdated","type":"event"},{"inputs":[],"name":"DECIMALS","outputs":[{"internalType":"uint8","name":"","type":"uint8"}],"stateMutability":"view","type":"function"},{"inputs":[],"name":"PRECISION","outputs":[{"internalType":"uint256","name":"","type":"uint256"}],"stateMutability":"view","type":"function"},{"inputs":[{"internalType":"uint256","name":"maticAmount","type":"uint256"}],"name":"convertMATICtoUSD","outputs":[{"internalType":"uint256","name":"","type":"uint256"}],"stateMutability":"nonpayable","type":"function"},{"inputs":[{"internalType":"uint256","name":"usdAmount","type":"uint256"}],"name":"convertUSDtoMATIC","outputs":[{"internalType":"uint256","name":"","type":"uint256"}],"stateMutability":"nonpayable","type":"function"},{"inputs":[],"name":"getLatestPrice","outputs":[{"internalType":"int256","name":"","type":"int256"},{"internalType":"uint8","name":"","type":"uint8"},{"internalType":"uint256","name":"","type":"uint256"}],"stateMutability":"view","type":"function"},{"inputs":[],"name":"getPriceWithAge","outputs":[{"internalType":"int256","name":"","type":"int256"},{"internalType":"uint256","name":"","type":"uint256"}],"stateMutability":"view","type":"function"},{"inputs":[],"name":"owner","outputs":[{"internalType":"address","name":"","type":"address"}],"stateMutability":"view","type":"function"},{"inputs":[],"name":"renounceOwnership","outputs":[],"stateMutability":"nonpayable","type":"function"},{"inputs":[{"internalType":"address","name":"newOwner","type":"address"}],"name":"transferOwnership","outputs":[],"stateMutability":"nonpayable","type":"function"},{"inputs":[{"internalType":"address","name":"_newPriceFeedAddress","type":"address"}],"name":"updatePriceFeed","outputs":[],"stateMutability":"nonpayable","type":"function"}],"evm":{"bytecode":{"linkReferences":{},"object":"6080346100f357601f61084438819003918201601f19168301916001600160401b038311848410176100f8578084926020946040528339810103126100f357516001600160a01b03808216918290036100f3576000549060018060a01b0319913383821617600055604051913391167f8be0079c531659141344cd1fd0a4f28419497f9722a3daafe3b4186f6b6457e0600080a382156100b157506001541617600155604051610735908161010f8239f35b62461bcd60e51b815260206004820152601a60248201527f496e76616c6964207072696365206665656420616464726573730000000000006044820152606490fd5b600080fd5b634e487b7160e01b600052604160045260246000fdfe6040608081526004908136101561001557600080fd5b600091823560e01c806322644179146103db5780632e0f2625146103bf578063715018a6146103655780638da5cb5b1461033d5780638e15f4731461030757806395877f781461027c578063a4fdd36814610200578063aaf5eb68146101d9578063f2fde38b1461010f5763f818a0171461008f57600080fd5b3461010b57602036600319011261010b576020925035906100b1821515610659565b7fd9669984fb749b7a11006a0df5d36b4a2f103297006d91a4d80769ed85d67da9816100f96100ed6100f36100e46104d2565b509290886106cc565b916106a5565b906106df565b9381519085825286820152a151908152f35b8280fd5b50903461010b57602036600319011261010b576001600160a01b038235818116939192908490036101d557610142610426565b831561018357505082546001600160a01b0319811683178455167f8be0079c531659141344cd1fd0a4f28419497f9722a3daafe3b4186f6b6457e08380a380f35b906020608492519162461bcd60e51b8352820152602660248201527f4f776e61626c653a206e6577206f776e657220697320746865207a65726f206160448201526564647265737360d01b6064820152fd5b8480fd5b5050346101fc57816003193601126101fc5760209051670de0b6b3a76400008152f35b5080fd5b503461010b57602036600319011261010b57602092503590610223821515610659565b7fd9669984fb749b7a11006a0df5d36b4a2f103297006d91a4d80769ed85d67da98161026a61025f6102656102566104d2565b509290926106a5565b876106cc565b6106df565b9381519081528486820152a151908152f35b503461010b57602036600319011261010b5780356001600160a01b0381169290839003610303576102ab610426565b82156102ce5750506bffffffffffffffffffffffff60a01b600154161760015580f35b906020606492519162461bcd60e51b8352820152600f60248201526e496e76616c6964206164647265737360881b6044820152fd5b8380fd5b82843461033a578060031936011261033a57606060ff836103266104d2565b929193908251948552166020840152820152f35b80fd5b5050346101fc57816003193601126101fc57905490516001600160a01b039091168152602090f35b833461033a578060031936011261033a5761037e610426565b80546001600160a01b03198116825581906001600160a01b03167f8be0079c531659141344cd1fd0a4f28419497f9722a3daafe3b4186f6b6457e08280a380f35b5050346101fc57816003193601126101fc576020905160128152f35b508290346101fc57816003193601126101fc576103f66104d2565b905092909242039142831161041357505082519182526020820152f35b634e487b7160e01b825260119052602490fd5b6000546001600160a01b0316330361043a57565b606460405162461bcd60e51b815260206004820152602060248201527f4f776e61626c653a2063616c6c6572206973206e6f7420746865206f776e65726044820152fd5b90601f8019910116810190811067ffffffffffffffff8211176104a057604052565b634e487b7160e01b600052604160045260246000fd5b519069ffffffffffffffffffff821682036104cd57565b600080fd5b60018060a01b03600154166040918251633fabe5a360e21b815260a081600481865afa92831561064e5760009182946105f8575b5060008213156105c457831561058c57602060049186519283809263313ce56760e01b82525afa9485156105825750600094610543575b50929190565b6020949194813d821161057a575b8161055e6020938361047e565b810103126101fc57519060ff8216820361033a5750923861053d565b3d9150610551565b513d6000823e3d90fd5b845162461bcd60e51b81526020600482015260116024820152700496e76616c69642074696d657374616d7607c1b6044820152606490fd5b845162461bcd60e51b815260206004820152600d60248201526c496e76616c696420707269636560981b6044820152606490fd5b9190935060a0823d8211610646575b8161061460a0938361047e565b8101031261033a5750610626816104b6565b50602081015161063d6080606084015193016104b6565b50909238610506565b3d9150610607565b84513d6000823e3d90fd5b1561066057565b60405162461bcd60e51b815260206004820152601d60248201527f416d6f756e74206d7573742062652067726561746572207468616e20300000006044820152606490fd5b60ff16604d81116106b657600a0a90565b634e487b7160e01b600052601160045260246000fd5b818102929181159184041417156106b657565b81156106e9570490565b634e487b7160e01b600052601260045260246000fdfea2646970667358221220771ac12f97f1c99316965492d53282883f7a6776e5335736f1813ee04f7813ad64736f6c63430008140033","opcodes":"PUSH1 0x80 CALLVALUE PUSH2 0xF3 JUMPI PUSH1 0x1F PUSH2 0x844 CODESIZE DUP2 SWAP1 SUB SWAP2 DUP3 ADD PUSH1 0x1F NOT AND DUP4 ADD SWAP2 PUSH1 0x1 PUSH1 0x1 PUSH1 0x40 SHL SUB DUP4 GT DUP5 DUP5 LT OR PUSH2 0xF8 JUMPI DUP1 DUP5 SWAP3 PUSH1 0x20 SWAP5 PUSH1 0x40 MSTORE DUP4 CODECOPY DUP2 ADD SUB SLT PUSH2 0xF3 JUMPI MLOAD PUSH1 0x1 PUSH1 0x1 PUSH1 0xA0 SHL SUB DUP1 DUP3 AND SWAP2 DUP3 SWAP1 SUB PUSH2 0xF3 JUMPI PUSH1 0x0 SLOAD SWAP1 PUSH1 0x1 DUP1 PUSH1 0xA0 SHL SUB NOT SWAP2 CALLER DUP4 DUP3 AND OR PUSH1 0x0 SSTORE PUSH1 0x40 MLOAD SWAP2 CALLER SWAP2 AND PUSH32 0x8BE0079C531659141344CD1FD0A4F28419497F9722A3DAAFE3B4186F6B6457E0 PUSH1 0x0 DUP1 LOG3 DUP3 ISZERO PUSH2 0xB1 JUMPI POP PUSH1 0x1 SLOAD AND OR PUSH1 0x1 SSTORE PUSH1 0x40 MLOAD PUSH2 0x735 SWAP1 DUP2 PUSH2 0x10F DUP3 CODECOPY RETURN JUMPDEST PUSH3 0x461BCD PUSH1 0xE5 SHL DUP2 MSTORE PUSH1 0x20 PUSH1 0x4 DUP3 ADD MSTORE PUSH1 0x1A PUSH1 0x24 DUP3 ADD MSTORE PUSH32 0x496E76616C696420707269636520666565642061646472657373000000000000 PUSH1 0x44 DUP3 ADD MSTORE PUSH1 0x64 SWAP1 REVERT JUMPDEST PUSH1 0x0 DUP1 REVERT JUMPDEST PUSH4 0x4E487B71 PUSH1 0xE0 SHL PUSH1 0x0 MSTORE PUSH1 0x41 PUSH1 0x4 MSTORE PUSH1 0x24 PUSH1 0x0 REVERT INVALID PUSH1 0x40 PUSH1 0x80 DUP2 MSTORE PUSH1 0x4 SWAP1 DUP2 CALLDATASIZE LT ISZERO PUSH2 0x15 JUMPI PUSH1 0x0 DUP1 REVERT JUMPDEST PUSH1 0x0 SWAP2 DUP3 CALLDATALOAD PUSH1 0xE0 SHR DUP1 PUSH4 0x22644179 EQ PUSH2 0x3DB JUMPI DUP1 PUSH4 0x2E0F2625 EQ PUSH2 0x3BF JUMPI DUP1 PUSH4 0x715018A6 EQ PUSH2 0x365 JUMPI DUP1 PUSH4 0x8DA5CB5B EQ PUSH2 0x33D JUMPI DUP1 PUSH4 0x8E15F473 EQ PUSH2 0x307 JUMPI DUP1 PUSH4 0x95877F78 EQ PUSH2 0x27C JUMPI DUP1 PUSH4 0xA4FDD368 EQ PUSH2 0x200 JUMPI DUP1 PUSH4 0xAAF5EB68 EQ PUSH2 0x1D9 JUMPI DUP1 PUSH4 0xF2FDE38B EQ PUSH2 0x10F JUMPI PUSH4 0xF818A017 EQ PUSH2 0x8F JUMPI PUSH1 0x0 DUP1 REVERT JUMPDEST CALLVALUE PUSH2 0x10B JUMPI PUSH1 0x20 CALLDATASIZE PUSH1 0x3 NOT ADD SLT PUSH2 0x10B JUMPI PUSH1 0x20 SWAP3 POP CALLDATALOAD SWAP1 PUSH2 0xB1 DUP3 ISZERO ISZERO PUSH2 0x659 JUMP JUMPDEST PUSH32 0xD9669984FB749B7A11006A0DF5D36B4A2F103297006D91A4D80769ED85D67DA9 DUP2 PUSH2 0xF9 PUSH2 0xED PUSH2 0xF3 PUSH2 0xE4 PUSH2 0x4D2 JUMP JUMPDEST POP SWAP3 SWAP1 DUP9 PUSH2 0x6CC JUMP JUMPDEST SWAP2 PUSH2 0x6A5 JUMP JUMPDEST SWAP1 PUSH2 0x6DF JUMP JUMPDEST SWAP4 DUP2 MLOAD SWAP1 DUP6 DUP3 MSTORE DUP7 DUP3 ADD MSTORE LOG1 MLOAD SWAP1 DUP2 MSTORE RETURN JUMPDEST DUP3 DUP1 REVERT JUMPDEST POP SWAP1 CALLVALUE PUSH2 0x10B JUMPI PUSH1 0x20 CALLDATASIZE PUSH1 0x3 NOT ADD SLT PUSH2 0x10B JUMPI PUSH1 0x1 PUSH1 0x1 PUSH1 0xA0 SHL SUB DUP3 CALLDATALOAD DUP2 DUP2 AND SWAP4 SWAP2 SWAP3 SWAP1 DUP5 SWAP1 SUB PUSH2 0x1D5 JUMPI PUSH2 0x142 PUSH2 0x426 JUMP JUMPDEST DUP4 ISZERO PUSH2 0x183 JUMPI POP POP DUP3 SLOAD PUSH1 0x1 PUSH1 0x1 PUSH1 0xA0 SHL SUB NOT DUP2 AND DUP4 OR DUP5 SSTORE AND PUSH32 0x8BE0079C531659141344CD1FD0A4F28419497F9722A3DAAFE3B4186F6B6457E0 DUP4 DUP1 LOG3 DUP1 RETURN JUMPDEST SWAP1 PUSH1 0x20 PUSH1 0x84 SWAP3 MLOAD SWAP2 PUSH3 0x461BCD PUSH1 0xE5 SHL DUP4 MSTORE DUP3 ADD MSTORE PUSH1 0x26 PUSH1 0x24 DUP3 ADD MSTORE PUSH32 0x4F776E61626C653A206E6577206F776E657220697320746865207A65726F2061 PUSH1 0x44 DUP3 ADD MSTORE PUSH6 0x646472657373 PUSH1 0xD0 SHL PUSH1 0x64 DUP3 ADD MSTORE REVERT JUMPDEST DUP5 DUP1 REVERT JUMPDEST POP POP CALLVALUE PUSH2 0x1FC JUMPI DUP2 PUSH1 0x3 NOT CALLDATASIZE ADD SLT PUSH2 0x1FC JUMPI PUSH1 0x20 SWAP1 MLOAD PUSH8 0xDE0B6B3A7640000 DUP2 MSTORE RETURN JUMPDEST POP DUP1 REVERT JUMPDEST POP CALLVALUE PUSH2 0x10B JUMPI PUSH1 0x20 CALLDATASIZE PUSH1 0x3 NOT ADD SLT PUSH2 0x10B JUMPI PUSH1 0x20 SWAP3 POP CALLDATALOAD SWAP1 PUSH2 0x223 DUP3 ISZERO ISZERO PUSH2 0x659 JUMP JUMPDEST PUSH32 0xD9669984FB749B7A11006A0DF5D36B4A2F103297006D91A4D80769ED85D67DA9 DUP2 PUSH2 0x26A PUSH2 0x25F PUSH2 0x265 PUSH2 0x256 PUSH2 0x4D2 JUMP JUMPDEST POP SWAP3 SWAP1 SWAP3 PUSH2 0x6A5 JUMP JUMPDEST DUP8 PUSH2 0x6CC JUMP JUMPDEST PUSH2 0x6DF JUMP JUMPDEST SWAP4 DUP2 MLOAD SWAP1 DUP2 MSTORE DUP5 DUP7 DUP3 ADD MSTORE LOG1 MLOAD SWAP1 DUP2 MSTORE RETURN JUMPDEST POP CALLVALUE PUSH2 0x10B JUMPI PUSH1 0x20 CALLDATASIZE PUSH1 0x3 NOT ADD SLT PUSH2 0x10B JUMPI DUP1 CALLDATALOAD PUSH1 0x1 PUSH1 0x1 PUSH1 0xA0 SHL SUB DUP2 AND SWAP3 SWAP1 DUP4 SWAP1 SUB PUSH2 0x303 JUMPI PUSH2 0x2AB PUSH2 0x426 JUMP JUMPDEST DUP3 ISZERO PUSH2 0x2CE JUMPI POP POP PUSH12 0xFFFFFFFFFFFFFFFFFFFFFFFF PUSH1 0xA0 SHL PUSH1 0x1 SLOAD AND OR PUSH1 0x1 SSTORE DUP1 RETURN JUMPDEST SWAP1 PUSH1 0x20 PUSH1 0x64 SWAP3 MLOAD SWAP2 PUSH3 0x461BCD PUSH1 0xE5 SHL DUP4 MSTORE DUP3 ADD MSTORE PUSH1 0xF PUSH1 0x24 DUP3 ADD MSTORE PUSH15 0x496E76616C69642061646472657373 PUSH1 0x88 SHL PUSH1 0x44 DUP3 ADD MSTORE REVERT JUMPDEST DUP4 DUP1 REVERT JUMPDEST DUP3 DUP5 CALLVALUE PUSH2 0x33A JUMPI DUP1 PUSH1 0x3 NOT CALLDATASIZE ADD SLT PUSH2 0x33A JUMPI PUSH1 0x60 PUSH1 0xFF DUP4 PUSH2 0x326 PUSH2 0x4D2 JUMP JUMPDEST SWAP3 SWAP2 SWAP4 SWAP1 DUP3 MLOAD SWAP5 DUP6 MSTORE AND PUSH1 0x20 DUP5 ADD MSTORE DUP3 ADD MSTORE RETURN JUMPDEST DUP1 REVERT JUMPDEST POP POP CALLVALUE PUSH2 0x1FC JUMPI DUP2 PUSH1 0x3 NOT CALLDATASIZE ADD SLT PUSH2 0x1FC JUMPI SWAP1 SLOAD SWAP1 MLOAD PUSH1 0x1 PUSH1 0x1 PUSH1 0xA0 SHL SUB SWAP1 SWAP2 AND DUP2 MSTORE PUSH1 0x20 SWAP1 RETURN JUMPDEST DUP4 CALLVALUE PUSH2 0x33A JUMPI DUP1 PUSH1 0x3 NOT CALLDATASIZE ADD SLT PUSH2 0x33A JUMPI PUSH2 0x37E PUSH2 0x426 JUMP JUMPDEST DUP1 SLOAD PUSH1 0x1 PUSH1 0x1 PUSH1 0xA0 SHL SUB NOT DUP2 AND DUP3 SSTORE DUP2 SWAP1 PUSH1 0x1 PUSH1 0x1 PUSH1 0xA0 SHL SUB AND PUSH32 0x8BE0079C531659141344CD1FD0A4F28419497F9722A3DAAFE3B4186F6B6457E0 DUP3 DUP1 LOG3 DUP1 RETURN JUMPDEST POP POP CALLVALUE PUSH2 0x1FC JUMPI DUP2 PUSH1 0x3 NOT CALLDATASIZE ADD SLT PUSH2 0x1FC JUMPI PUSH1 0x20 SWAP1 MLOAD PUSH1 0x12 DUP2 MSTORE RETURN JUMPDEST POP DUP3 SWAP1 CALLVALUE PUSH2 0x1FC JUMPI DUP2 PUSH1 0x3 NOT CALLDATASIZE ADD SLT PUSH2 0x1FC JUMPI PUSH2 0x3F6 PUSH2 0x4D2 JUMP JUMPDEST SWAP1 POP SWAP3 SWAP1 SWAP3 TIMESTAMP SUB SWAP2 TIMESTAMP DUP4 GT PUSH2 0x413 JUMPI POP POP DUP3 MLOAD SWAP2 DUP3 MSTORE PUSH1 0x20 DUP3 ADD MSTORE RETURN JUMPDEST PUSH4 0x4E487B71 PUSH1 0xE0 SHL DUP3 MSTORE PUSH1 0x11 SWAP1 MSTORE PUSH1 0x24 SWAP1 REVERT JUMPDEST PUSH1 0x0 SLOAD PUSH1 0x1 PUSH1 0x1 PUSH1 0xA0 SHL SUB AND CALLER SUB PUSH2 0x43A JUMPI JUMP JUMPDEST PUSH1 0x64 PUSH1 0x40 MLOAD PUSH3 0x461BCD PUSH1 0xE5 SHL DUP2 MSTORE PUSH1 0x20 PUSH1 0x4 DUP3 ADD MSTORE PUSH1 0x20 PUSH1 0x24 DUP3 ADD MSTORE PUSH32 0x4F776E61626C653A2063616C6C6572206973206E6F7420746865206F776E6572 PUSH1 0x44 DUP3 ADD MSTORE REVERT JUMPDEST SWAP1 PUSH1 0x1F DUP1 NOT SWAP2 ADD AND DUP2 ADD SWAP1 DUP2 LT PUSH8 0xFFFFFFFFFFFFFFFF DUP3 GT OR PUSH2 0x4A0 JUMPI PUSH1 0x40 MSTORE JUMP JUMPDEST PUSH4 0x4E487B71 PUSH1 0xE0 SHL PUSH1 0x0 MSTORE PUSH1 0x41 PUSH1 0x4 MSTORE PUSH1 0x24 PUSH1 0x0 REVERT JUMPDEST MLOAD SWAP1 PUSH10 0xFFFFFFFFFFFFFFFFFFFF DUP3 AND DUP3 SUB PUSH2 0x4CD JUMPI JUMP JUMPDEST PUSH1 0x0 DUP1 REVERT JUMPDEST PUSH1 0x1 DUP1 PUSH1 0xA0 SHL SUB PUSH1 0x1 SLOAD AND PUSH1 0x40 SWAP2 DUP3 MLOAD PUSH4 0x3FABE5A3 PUSH1 0xE2 SHL DUP2 MSTORE PUSH1 0xA0 DUP2 PUSH1 0x4 DUP2 DUP7 GAS STATICCALL SWAP3 DUP4 ISZERO PUSH2 0x64E JUMPI PUSH1 0x0 SWAP2 DUP3 SWAP5 PUSH2 0x5F8 JUMPI JUMPDEST POP PUSH1 0x0 DUP3 SGT ISZERO PUSH2 0x5C4 JUMPI DUP4 ISZERO PUSH2 0x58C JUMPI PUSH1 0x20 PUSH1 0x4 SWAP2 DUP7 MLOAD SWAP3 DUP4 DUP1 SWAP3 PUSH4 0x313CE567 PUSH1 0xE0 SHL DUP3 MSTORE GAS STATICCALL SWAP5 DUP6 ISZERO PUSH2 0x582 JUMPI POP PUSH1 0x0 SWAP5 PUSH2 0x543 JUMPI JUMPDEST POP SWAP3 SWAP2 SWAP1 JUMP JUMPDEST PUSH1 0x20 SWAP5 SWAP2 SWAP5 DUP2 RETURNDATASIZE DUP3 GT PUSH2 0x57A JUMPI JUMPDEST DUP2 PUSH2 0x55E PUSH1 0x20 SWAP4 DUP4 PUSH2 0x47E JUMP JUMPDEST DUP2 ADD SUB SLT PUSH2 0x1FC JUMPI MLOAD SWAP1 PUSH1 0xFF DUP3 AND DUP3 SUB PUSH2 0x33A JUMPI POP SWAP3 CODESIZE PUSH2 0x53D JUMP JUMPDEST RETURNDATASIZE SWAP2 POP PUSH2 0x551 JUMP JUMPDEST MLOAD RETURNDATASIZE PUSH1 0x0 DUP3 RETURNDATACOPY RETURNDATASIZE SWAP1 REVERT JUMPDEST DUP5 MLOAD PUSH3 0x461BCD PUSH1 0xE5 SHL DUP2 MSTORE PUSH1 0x20 PUSH1 0x4 DUP3 ADD MSTORE PUSH1 0x11 PUSH1 0x24 DUP3 ADD MSTORE PUSH17 0x496E76616C69642074696D657374616D7 PUSH1 0x7C SHL PUSH1 0x44 DUP3 ADD MSTORE PUSH1 0x64 SWAP1 REVERT JUMPDEST DUP5 MLOAD PUSH3 0x461BCD PUSH1 0xE5 SHL DUP2 MSTORE PUSH1 0x20 PUSH1 0x4 DUP3 ADD MSTORE PUSH1 0xD PUSH1 0x24 DUP3 ADD MSTORE PUSH13 0x496E76616C6964207072696365 PUSH1 0x98 SHL PUSH1 0x44 DUP3 ADD MSTORE PUSH1 0x64 SWAP1 REVERT JUMPDEST SWAP2 SWAP1 SWAP4 POP PUSH1 0xA0 DUP3 RETURNDATASIZE DUP3 GT PUSH2 0x646 JUMPI JUMPDEST DUP2 PUSH2 0x614 PUSH1 0xA0 SWAP4 DUP4 PUSH2 0x47E JUMP JUMPDEST DUP2 ADD SUB SLT PUSH2 0x33A JUMPI POP PUSH2 0x626 DUP2 PUSH2 0x4B6 JUMP JUMPDEST POP PUSH1 0x20 DUP2 ADD MLOAD PUSH2 0x63D PUSH1 0x80 PUSH1 0x60 DUP5 ADD MLOAD SWAP4 ADD PUSH2 0x4B6 JUMP JUMPDEST POP SWAP1 SWAP3 CODESIZE PUSH2 0x506 JUMP JUMPDEST RETURNDATASIZE SWAP2 POP PUSH2 0x607 JUMP JUMPDEST DUP5 MLOAD RETURNDATASIZE PUSH1 0x0 DUP3 RETURNDATACOPY RETURNDATASIZE SWAP1 REVERT JUMPDEST ISZERO PUSH2 0x660 JUMPI JUMP JUMPDEST PUSH1 0x40 MLOAD PUSH3 0x461BCD PUSH1 0xE5 SHL DUP2 MSTORE PUSH1 0x20 PUSH1 0x4 DUP3 ADD MSTORE PUSH1 0x1D PUSH1 0x24 DUP3 ADD MSTORE PUSH32 0x416D6F756E74206D7573742062652067726561746572207468616E2030000000 PUSH1 0x44 DUP3 ADD MSTORE PUSH1 0x64 SWAP1 REVERT JUMPDEST PUSH1 0xFF AND PUSH1 0x4D DUP2 GT PUSH2 0x6B6 JUMPI PUSH1 0xA EXP SWAP1 JUMP JUMPDEST PUSH4 0x4E487B71 PUSH1 0xE0 SHL PUSH1 0x0 MSTORE PUSH1 0x11 PUSH1 0x4 MSTORE PUSH1 0x24 PUSH1 0x0 REVERT JUMPDEST DUP2 DUP2 MUL SWAP3 SWAP2 DUP2 ISZERO SWAP2 DUP5 DIV EQ OR ISZERO PUSH2 0x6B6 JUMPI JUMP JUMPDEST DUP2 ISZERO PUSH2 0x6E9 JUMPI DIV SWAP1 JUMP JUMPDEST PUSH4 0x4E487B71 PUSH1 0xE0 SHL PUSH1 0x0 MSTORE PUSH1 0x12 PUSH1 0x4 MSTORE PUSH1 0x24 PUSH1 0x0 REVERT INVALID LOG2 PUSH5 0x6970667358 0x22 SLT KECCAK256 PUSH24 0x1AC12F97F1C99316965492D53282883F7A6776E5335736F1 DUP2 RETURNDATACOPY 0xE0 0x4F PUSH25 0x13AD64736F6C63430008140033000000000000000000000000 "},"methodIdentifiers":{"DECIMALS()":"2e0f2625","PRECISION()":"aaf5eb68","convertMATICtoUSD(uint256)":"f818a017","convertUSDtoMATIC(uint256)":"a4fdd368","getLatestPrice()":"8e15f473","getPriceWithAge()":"22644179","owner()":"8da5cb5b","renounceOwnership()":"715018a6","transferOwnership(address)":"f2fde38b","updatePriceFeed(address)":"95877f78"}}}}}