{"contracts/mocks/ReentrancyAttacker.sol":{"ReentrancyAttacker":{"abi":[{"inputs":[{"internalType":"address","name":"_orderManager","type":"address"},{"internalType":"address","name":"_staking","type":"address"}],"stateMutability":"nonpayable","type":"constructor"},{"anonymous":false,"inputs":[{"indexed":false,"internalType":"uint256","name":"count","type":"uint256"}],"name":"AttackAttempted","type":"event"},{"stateMutability":"payable","type":"fallback"},{"inputs":[],"name":"attackCount","outputs":[{"internalType":"uint256","name":"","type":"uint256"}],"stateMutability":"view","type":"function"},{"inputs":[{"internalType":"uint256","name":"_orderId","type":"uint256"}],"name":"attackDelivery","outputs":[],"stateMutability":"nonpayable","type":"function"},{"inputs":[],"name":"attackUnstake","outputs":[],"stateMutability":"nonpayable","type":"function"},{"inputs":[],"name":"attackingDelivery","outputs":[{"internalType":"bool","name":"","type":"bool"}],"stateMutability":"view","type":"function"},{"inputs":[],"name":"attackingUnstake","outputs":[{"internalType":"bool","name":"","type":"bool"}],"stateMutability":"view","type":"function"},{"inputs":[],"name":"deposit","outputs":[],"stateMutability":"payable","type":"function"},{"inputs":[],"name":"orderId","outputs":[{"internalType":"uint256","name":"","type":"uint256"}],"stateMutability":"view","type":"function"},{"inputs":[],"name":"orderManager","outputs":[{"internalType":"contract IDoneOrderManager","name":"","type":"address"}],"stateMutability":"view","type":"function"},{"inputs":[],"name":"reset","outputs":[],"stateMutability":"nonpayable","type":"function"},{"inputs":[],"name":"staking","outputs":[{"internalType":"contract IDoneStaking","name":"","type":"address"}],"stateMutability":"view","type":"function"},{"inputs":[],"name":"withdraw","outputs":[],"stateMutability":"nonpayable","type":"function"},{"stateMutability":"payable","type":"receive"}],"evm":{"bytecode":{"linkReferences":{},"object":"60803461008d57601f61061f38819003918201601f19168301916001600160401b0383118484101761009257808492604094855283398101031261008d57610052602061004b836100a8565b92016100a8565b600080546001600160a01b039384166001600160a01b0319918216179091556001805492909316911617905560405161056290816100bd8239f35b600080fd5b634e487b7160e01b600052604160045260246000fd5b51906001600160a01b038216820361008d5756fe608060408181526004918236101561022f575b5036156100ca5760ff60035416806100bf575b61002b57005b7f9de7696c1ddde10847858955a8530cc578ad5b8a8887b231fad51acf0a4cfa0a60206100588454610507565b8085558351908152a1600080546002546001600160a01b0390911693843b156100bb579060248392838651978894859363fd84cb9760e01b85528401525af19182156100b15750506100a657005b6100af906104dd565b005b51903d90823e3d90fd5b8280fd5b506003825410610025565b906003549160ff6000931680610224575b61018e575b60ff60035460081c1680610183575b6100f557005b817f9de7696c1ddde10847858955a8530cc578ad5b8a8887b231fad51acf0a4cfa0a6020610124869554610507565b8084558451908152a16001546001600160a01b0316803b1561017e57839183518095819363016f7b3160e51b83525af1908115610175575061016257005b61016c82916104dd565b61017257005b80fd5b513d84823e3d90fd5b505050fd5b5060038254106100ef565b7f9de7696c1ddde10847858955a8530cc578ad5b8a8887b231fad51acf0a4cfa0a60206101bb8454610507565b8085558351908152a1825460025484916001600160a01b0316803b156100bb57602483928551948593849263fd84cb9760e01b8452898401525af1801561021a57610207575b506100e0565b610213909391936104dd565b9138610201565b82513d86823e3d90fd5b5060038254106100db565b600090813560e01c908163163de5e5146104c1575080633ccfd60b1461048d578063407c28211461046f5780634cf088d914610446578063562a28e3146103dd57806380d0dc0f1461035b578063ab36924c14610337578063adacfb3414610310578063d0e30db014610301578063d826f88f146102dc5763f9b6117f036100125790346102d857816003193601126102d857905490516001600160a01b039091168152602090f35b5080fd5b508083346102fe57816003193601126102fe5761ffff19600354166003555580f35b50fd5b50806003193601126101725780f35b5090346102d857816003193601126102d85760209060ff60035460081c1690519015158152f35b5090346102d857816003193601126102d85760209060ff6003541690519015158152f35b50918291346103d95760203660031901126103d957813560028190556003805460ff1916600117905583835583546001600160a01b03169290833b156103d55760248592838551968794859363fd84cb9760e01b85528401525af190811561017557506103c55750f35b6103ce906104dd565b6101725780f35b8480fd5b5050fd5b50809183346103d957826003193601126103d9576003805461ff0019166101001790558281556001546001600160a01b0316803b1561017e57839183518095819363016f7b3160e51b83525af1908115610175575061043a575080f35b610443906104dd565b80f35b5090346102d857816003193601126102d85760015490516001600160a01b039091168152602090f35b5091346100bb57826003193601126100bb5760209250549051908152f35b5090346102d857816003193601126102d85781808080478181156104b8575b3390f1156100b1575080f35b506108fc6104ac565b9050346102d857816003193601126102d8576020906002548152f35b67ffffffffffffffff81116104f157604052565b634e487b7160e01b600052604160045260246000fd5b60001981146105165760010190565b634e487b7160e01b600052601160045260246000fdfea264697066735822122069cf20862c84f3f3a45a0e3dfce633212a5ffff47669f7dea9cfc158d362ecb864736f6c63430008140033","opcodes":"PUSH1 0x80 CALLVALUE PUSH2 0x8D JUMPI PUSH1 0x1F PUSH2 0x61F CODESIZE DUP2 SWAP1 SUB SWAP2 DUP3 ADD PUSH1 0x1F NOT AND DUP4 ADD SWAP2 PUSH1 0x1 PUSH1 0x1 PUSH1 0x40 SHL SUB DUP4 GT DUP5 DUP5 LT OR PUSH2 0x92 JUMPI DUP1 DUP5 SWAP3 PUSH1 0x40 SWAP5 DUP6 MSTORE DUP4 CODECOPY DUP2 ADD SUB SLT PUSH2 0x8D JUMPI PUSH2 0x52 PUSH1 0x20 PUSH2 0x4B DUP4 PUSH2 0xA8 JUMP JUMPDEST SWAP3 ADD PUSH2 0xA8 JUMP JUMPDEST PUSH1 0x0 DUP1 SLOAD PUSH1 0x1 PUSH1 0x1 PUSH1 0xA0 SHL SUB SWAP4 DUP5 AND PUSH1 0x1 PUSH1 0x1 PUSH1 0xA0 SHL SUB NOT SWAP2 DUP3 AND OR SWAP1 SWAP2 SSTORE PUSH1 0x1 DUP1 SLOAD SWAP3 SWAP1 SWAP4 AND SWAP2 AND OR SWAP1 SSTORE PUSH1 0x40 MLOAD PUSH2 0x562 SWAP1 DUP2 PUSH2 0xBD DUP3 CODECOPY RETURN JUMPDEST PUSH1 0x0 DUP1 REVERT JUMPDEST PUSH4 0x4E487B71 PUSH1 0xE0 SHL PUSH1 0x0 MSTORE PUSH1 0x41 PUSH1 0x4 MSTORE PUSH1 0x24 PUSH1 0x0 REVERT JUMPDEST MLOAD SWAP1 PUSH1 0x1 PUSH1 0x1 PUSH1 0xA0 SHL SUB DUP3 AND DUP3 SUB PUSH2 0x8D JUMPI JUMP INVALID PUSH1 0x80 PUSH1 0x40 DUP2 DUP2 MSTORE PUSH1 0x4 SWAP2 DUP3 CALLDATASIZE LT ISZERO PUSH2 0x22F JUMPI JUMPDEST POP CALLDATASIZE ISZERO PUSH2 0xCA JUMPI PUSH1 0xFF PUSH1 0x3 SLOAD AND DUP1 PUSH2 0xBF JUMPI JUMPDEST PUSH2 0x2B JUMPI STOP JUMPDEST PUSH32 0x9DE7696C1DDDE10847858955A8530CC578AD5B8A8887B231FAD51ACF0A4CFA0A PUSH1 0x20 PUSH2 0x58 DUP5 SLOAD PUSH2 0x507 JUMP JUMPDEST DUP1 DUP6 SSTORE DUP4 MLOAD SWAP1 DUP2 MSTORE LOG1 PUSH1 0x0 DUP1 SLOAD PUSH1 0x2 SLOAD PUSH1 0x1 PUSH1 0x1 PUSH1 0xA0 SHL SUB SWAP1 SWAP2 AND SWAP4 DUP5 EXTCODESIZE ISZERO PUSH2 0xBB JUMPI SWAP1 PUSH1 0x24 DUP4 SWAP3 DUP4 DUP7 MLOAD SWAP8 DUP9 SWAP5 DUP6 SWAP4 PUSH4 0xFD84CB97 PUSH1 0xE0 SHL DUP6 MSTORE DUP5 ADD MSTORE GAS CALL SWAP2 DUP3 ISZERO PUSH2 0xB1 JUMPI POP POP PUSH2 0xA6 JUMPI STOP JUMPDEST PUSH2 0xAF SWAP1 PUSH2 0x4DD JUMP JUMPDEST STOP JUMPDEST MLOAD SWAP1 RETURNDATASIZE SWAP1 DUP3 RETURNDATACOPY RETURNDATASIZE SWAP1 REVERT JUMPDEST DUP3 DUP1 REVERT JUMPDEST POP PUSH1 0x3 DUP3 SLOAD LT PUSH2 0x25 JUMP JUMPDEST SWAP1 PUSH1 0x3 SLOAD SWAP2 PUSH1 0xFF PUSH1 0x0 SWAP4 AND DUP1 PUSH2 0x224 JUMPI JUMPDEST PUSH2 0x18E JUMPI JUMPDEST PUSH1 0xFF PUSH1 0x3 SLOAD PUSH1 0x8 SHR AND DUP1 PUSH2 0x183 JUMPI JUMPDEST PUSH2 0xF5 JUMPI STOP JUMPDEST DUP2 PUSH32 0x9DE7696C1DDDE10847858955A8530CC578AD5B8A8887B231FAD51ACF0A4CFA0A PUSH1 0x20 PUSH2 0x124 DUP7 SWAP6 SLOAD PUSH2 0x507 JUMP JUMPDEST DUP1 DUP5 SSTORE DUP5 MLOAD SWAP1 DUP2 MSTORE LOG1 PUSH1 0x1 SLOAD PUSH1 0x1 PUSH1 0x1 PUSH1 0xA0 SHL SUB AND DUP1 EXTCODESIZE ISZERO PUSH2 0x17E JUMPI DUP4 SWAP2 DUP4 MLOAD DUP1 SWAP6 DUP2 SWAP4 PUSH4 0x16F7B31 PUSH1 0xE5 SHL DUP4 MSTORE GAS CALL SWAP1 DUP2 ISZERO PUSH2 0x175 JUMPI POP PUSH2 0x162 JUMPI STOP JUMPDEST PUSH2 0x16C DUP3 SWAP2 PUSH2 0x4DD JUMP JUMPDEST PUSH2 0x172 JUMPI STOP JUMPDEST DUP1 REVERT JUMPDEST MLOAD RETURNDATASIZE DUP5 DUP3 RETURNDATACOPY RETURNDATASIZE SWAP1 REVERT JUMPDEST POP POP POP REVERT JUMPDEST POP PUSH1 0x3 DUP3 SLOAD LT PUSH2 0xEF JUMP JUMPDEST PUSH32 0x9DE7696C1DDDE10847858955A8530CC578AD5B8A8887B231FAD51ACF0A4CFA0A PUSH1 0x20 PUSH2 0x1BB DUP5 SLOAD PUSH2 0x507 JUMP JUMPDEST DUP1 DUP6 SSTORE DUP4 MLOAD SWAP1 DUP2 MSTORE LOG1 DUP3 SLOAD PUSH1 0x2 SLOAD DUP5 SWAP2 PUSH1 0x1 PUSH1 0x1 PUSH1 0xA0 SHL SUB AND DUP1 EXTCODESIZE ISZERO PUSH2 0xBB JUMPI PUSH1 0x24 DUP4 SWAP3 DUP6 MLOAD SWAP5 DUP6 SWAP4 DUP5 SWAP3 PUSH4 0xFD84CB97 PUSH1 0xE0 SHL DUP5 MSTORE DUP10 DUP5 ADD MSTORE GAS CALL DUP1 ISZERO PUSH2 0x21A JUMPI PUSH2 0x207 JUMPI JUMPDEST POP PUSH2 0xE0 JUMP JUMPDEST PUSH2 0x213 SWAP1 SWAP4 SWAP2 SWAP4 PUSH2 0x4DD JUMP JUMPDEST SWAP2 CODESIZE PUSH2 0x201 JUMP JUMPDEST DUP3 MLOAD RETURNDATASIZE DUP7 DUP3 RETURNDATACOPY RETURNDATASIZE SWAP1 REVERT JUMPDEST POP PUSH1 0x3 DUP3 SLOAD LT PUSH2 0xDB JUMP JUMPDEST PUSH1 0x0 SWAP1 DUP2 CALLDATALOAD PUSH1 0xE0 SHR SWAP1 DUP2 PUSH4 0x163DE5E5 EQ PUSH2 0x4C1 JUMPI POP DUP1 PUSH4 0x3CCFD60B EQ PUSH2 0x48D JUMPI DUP1 PUSH4 0x407C2821 EQ PUSH2 0x46F JUMPI DUP1 PUSH4 0x4CF088D9 EQ PUSH2 0x446 JUMPI DUP1 PUSH4 0x562A28E3 EQ PUSH2 0x3DD JUMPI DUP1 PUSH4 0x80D0DC0F EQ PUSH2 0x35B JUMPI DUP1 PUSH4 0xAB36924C EQ PUSH2 0x337 JUMPI DUP1 PUSH4 0xADACFB34 EQ PUSH2 0x310 JUMPI DUP1 PUSH4 0xD0E30DB0 EQ PUSH2 0x301 JUMPI DUP1 PUSH4 0xD826F88F EQ PUSH2 0x2DC JUMPI PUSH4 0xF9B6117F SUB PUSH2 0x12 JUMPI SWAP1 CALLVALUE PUSH2 0x2D8 JUMPI DUP2 PUSH1 0x3 NOT CALLDATASIZE ADD SLT PUSH2 0x2D8 JUMPI SWAP1 SLOAD SWAP1 MLOAD PUSH1 0x1 PUSH1 0x1 PUSH1 0xA0 SHL SUB SWAP1 SWAP2 AND DUP2 MSTORE PUSH1 0x20 SWAP1 RETURN JUMPDEST POP DUP1 REVERT JUMPDEST POP DUP1 DUP4 CALLVALUE PUSH2 0x2FE JUMPI DUP2 PUSH1 0x3 NOT CALLDATASIZE ADD SLT PUSH2 0x2FE JUMPI PUSH2 0xFFFF NOT PUSH1 0x3 SLOAD AND PUSH1 0x3 SSTORE SSTORE DUP1 RETURN JUMPDEST POP REVERT JUMPDEST POP DUP1 PUSH1 0x3 NOT CALLDATASIZE ADD SLT PUSH2 0x172 JUMPI DUP1 RETURN JUMPDEST POP SWAP1 CALLVALUE PUSH2 0x2D8 JUMPI DUP2 PUSH1 0x3 NOT CALLDATASIZE ADD SLT PUSH2 0x2D8 JUMPI PUSH1 0x20 SWAP1 PUSH1 0xFF PUSH1 0x3 SLOAD PUSH1 0x8 SHR AND SWAP1 MLOAD SWAP1 ISZERO ISZERO DUP2 MSTORE RETURN JUMPDEST POP SWAP1 CALLVALUE PUSH2 0x2D8 JUMPI DUP2 PUSH1 0x3 NOT CALLDATASIZE ADD SLT PUSH2 0x2D8 JUMPI PUSH1 0x20 SWAP1 PUSH1 0xFF PUSH1 0x3 SLOAD AND SWAP1 MLOAD SWAP1 ISZERO ISZERO DUP2 MSTORE RETURN JUMPDEST POP SWAP2 DUP3 SWAP2 CALLVALUE PUSH2 0x3D9 JUMPI PUSH1 0x20 CALLDATASIZE PUSH1 0x3 NOT ADD SLT PUSH2 0x3D9 JUMPI DUP2 CALLDATALOAD PUSH1 0x2 DUP2 SWAP1 SSTORE PUSH1 0x3 DUP1 SLOAD PUSH1 0xFF NOT AND PUSH1 0x1 OR SWAP1 SSTORE DUP4 DUP4 SSTORE DUP4 SLOAD PUSH1 0x1 PUSH1 0x1 PUSH1 0xA0 SHL SUB AND SWAP3 SWAP1 DUP4 EXTCODESIZE ISZERO PUSH2 0x3D5 JUMPI PUSH1 0x24 DUP6 SWAP3 DUP4 DUP6 MLOAD SWAP7 DUP8 SWAP5 DUP6 SWAP4 PUSH4 0xFD84CB97 PUSH1 0xE0 SHL DUP6 MSTORE DUP5 ADD MSTORE GAS CALL SWAP1 DUP2 ISZERO PUSH2 0x175 JUMPI POP PUSH2 0x3C5 JUMPI POP RETURN JUMPDEST PUSH2 0x3CE SWAP1 PUSH2 0x4DD JUMP JUMPDEST PUSH2 0x172 JUMPI DUP1 RETURN JUMPDEST DUP5 DUP1 REVERT JUMPDEST POP POP REVERT JUMPDEST POP DUP1 SWAP2 DUP4 CALLVALUE PUSH2 0x3D9 JUMPI DUP3 PUSH1 0x3 NOT CALLDATASIZE ADD SLT PUSH2 0x3D9 JUMPI PUSH1 0x3 DUP1 SLOAD PUSH2 0xFF00 NOT AND PUSH2 0x100 OR SWAP1 SSTORE DUP3 DUP2 SSTORE PUSH1 0x1 SLOAD PUSH1 0x1 PUSH1 0x1 PUSH1 0xA0 SHL SUB AND DUP1 EXTCODESIZE ISZERO PUSH2 0x17E JUMPI DUP4 SWAP2 DUP4 MLOAD DUP1 SWAP6 DUP2 SWAP4 PUSH4 0x16F7B31 PUSH1 0xE5 SHL DUP4 MSTORE GAS CALL SWAP1 DUP2 ISZERO PUSH2 0x175 JUMPI POP PUSH2 0x43A JUMPI POP DUP1 RETURN JUMPDEST PUSH2 0x443 SWAP1 PUSH2 0x4DD JUMP JUMPDEST DUP1 RETURN JUMPDEST POP SWAP1 CALLVALUE PUSH2 0x2D8 JUMPI DUP2 PUSH1 0x3 NOT CALLDATASIZE ADD SLT PUSH2 0x2D8 JUMPI PUSH1 0x1 SLOAD SWAP1 MLOAD PUSH1 0x1 PUSH1 0x1 PUSH1 0xA0 SHL SUB SWAP1 SWAP2 AND DUP2 MSTORE PUSH1 0x20 SWAP1 RETURN JUMPDEST POP SWAP2 CALLVALUE PUSH2 0xBB JUMPI DUP3 PUSH1 0x3 NOT CALLDATASIZE ADD SLT PUSH2 0xBB JUMPI PUSH1 0x20 SWAP3 POP SLOAD SWAP1 MLOAD SWAP1 DUP2 MSTORE RETURN JUMPDEST POP SWAP1 CALLVALUE PUSH2 0x2D8 JUMPI DUP2 PUSH1 0x3 NOT CALLDATASIZE ADD SLT PUSH2 0x2D8 JUMPI DUP2 DUP1 DUP1 DUP1 SELFBALANCE DUP2 DUP2 ISZERO PUSH2 0x4B8 JUMPI JUMPDEST CALLER SWAP1 CALL ISZERO PUSH2 0xB1 JUMPI POP DUP1 RETURN JUMPDEST POP PUSH2 0x8FC PUSH2 0x4AC JUMP JUMPDEST SWAP1 POP CALLVALUE PUSH2 0x2D8 JUMPI DUP2 PUSH1 0x3 NOT CALLDATASIZE ADD SLT PUSH2 0x2D8 JUMPI PUSH1 0x20 SWAP1 PUSH1 0x2 SLOAD DUP2 MSTORE RETURN JUMPDEST PUSH8 0xFFFFFFFFFFFFFFFF DUP2 GT PUSH2 0x4F1 JUMPI PUSH1 0x40 MSTORE JUMP JUMPDEST PUSH4 0x4E487B71 PUSH1 0xE0 SHL PUSH1 0x0 MSTORE PUSH1 0x41 PUSH1 0x4 MSTORE PUSH1 0x24 PUSH1 0x0 REVERT JUMPDEST PUSH1 0x0 NOT DUP2 EQ PUSH2 0x516 JUMPI PUSH1 0x1 ADD SWAP1 JUMP JUMPDEST PUSH4 0x4E487B71 PUSH1 0xE0 SHL PUSH1 0x0 MSTORE PUSH1 0x11 PUSH1 0x4 MSTORE PUSH1 0x24 PUSH1 0x0 REVERT INVALID LOG2 PUSH5 0x6970667358 0x22 SLT KECCAK256 PUSH10 0xCF20862C84F3F3A45A0E RETURNDATASIZE 0xFC 0xE6 CALLER 0x21 0x2A PUSH0 SELFDESTRUCT DELEGATECALL PUSH23 0x69F7DEA9CFC158D362ECB864736F6C6343000814003300 "},"methodIdentifiers":{"attackCount()":"407c2821","attackDelivery(uint256)":"80d0dc0f","attackUnstake()":"562a28e3","attackingDelivery()":"ab36924c","attackingUnstake()":"adacfb34","deposit()":"d0e30db0","orderId()":"163de5e5","orderManager()":"f9b6117f","reset()":"d826f88f","staking()":"4cf088d9","withdraw()":"3ccfd60b"}}}}}