{"contracts/DonePaymentSplitter.sol":{"DonePaymentSplitter":{"abi":[{"inputs":[],"stateMutability":"nonpayable","type":"constructor"},{"anonymous":false,"inputs":[{"indexed":true,"internalType":"address","name":"previousOwner","type":"address"},{"indexed":true,"internalType":"address","name":"newOwner","type":"address"}],"name":"OwnershipTransferred","type":"event"},{"anonymous":false,"inputs":[{"indexed":true,"internalType":"uint256","name":"orderId","type":"uint256"},{"indexed":true,"internalType":"address","name":"restaurant","type":"address"},{"indexed":true,"internalType":"address","name":"deliverer","type":"address"},{"indexed":false,"internalType":"address","name":"platform","type":"address"},{"indexed":false,"internalType":"uint256","name":"restaurantAmount","type":"uint256"},{"indexed":false,"internalType":"uint256","name":"delivererAmount","type":"uint256"},{"indexed":false,"internalType":"uint256","name":"platformAmount","type":"uint256"},{"indexed":false,"internalType":"uint256","name":"timestamp","type":"uint256"}],"name":"PaymentSplit","type":"event"},{"anonymous":false,"inputs":[{"indexed":true,"internalType":"address","name":"payee","type":"address"},{"indexed":false,"internalType":"uint256","name":"amount","type":"uint256"}],"name":"Withdrawn","type":"event"},{"inputs":[],"name":"DELIVERER_PERCENT","outputs":[{"internalType":"uint256","name":"","type":"uint256"}],"stateMutability":"view","type":"function"},{"inputs":[],"name":"PLATFORM_PERCENT","outputs":[{"internalType":"uint256","name":"","type":"uint256"}],"stateMutability":"view","type":"function"},{"inputs":[],"name":"RESTAURANT_PERCENT","outputs":[{"internalType":"uint256","name":"","type":"uint256"}],"stateMutability":"view","type":"function"},{"inputs":[{"internalType":"address","name":"","type":"address"}],"name":"balances","outputs":[{"internalType":"uint256","name":"","type":"uint256"}],"stateMutability":"view","type":"function"},{"inputs":[{"internalType":"address","name":"payee","type":"address"}],"name":"getPendingBalance","outputs":[{"internalType":"uint256","name":"","type":"uint256"}],"stateMutability":"view","type":"function"},{"inputs":[],"name":"owner","outputs":[{"internalType":"address","name":"","type":"address"}],"stateMutability":"view","type":"function"},{"inputs":[],"name":"renounceOwnership","outputs":[],"stateMutability":"nonpayable","type":"function"},{"inputs":[{"internalType":"uint256","name":"_orderId","type":"uint256"},{"internalType":"address payable","name":"_restaurant","type":"address"},{"internalType":"address payable","name":"_deliverer","type":"address"},{"internalType":"address payable","name":"_platform","type":"address"}],"name":"splitPayment","outputs":[],"stateMutability":"payable","type":"function"},{"inputs":[{"internalType":"address","name":"newOwner","type":"address"}],"name":"transferOwnership","outputs":[],"stateMutability":"nonpayable","type":"function"},{"inputs":[],"name":"withdraw","outputs":[],"stateMutability":"nonpayable","type":"function"}],"evm":{"bytecode":{"linkReferences":{},"object":"6080806040523461005f5760008054336001600160a01b0319821681178355916001600160a01b03909116907f8be0079c531659141344cd1fd0a4f28419497f9722a3daafe3b4186f6b6457e09080a3600180556107f090816100658239f35b600080fdfe608060408181526004908136101561001657600080fd5b600092833560e01c90816327e235e3146106ae575080633ccfd60b1461053957806348981d8a1461051d57806351d550d2146104e35780635354b701146104c75780636f191a1514610203578063715018a6146101a65780638da5cb5b1461017e5780639569ef7e1461015e5763f2fde38b1461009257600080fd5b3461015a57602036600319011261015a576001600160a01b03823581811693919290849003610156576100c36106e9565b831561010457505082546001600160a01b0319811683178455167f8be0079c531659141344cd1fd0a4f28419497f9722a3daafe3b4186f6b6457e08380a380f35b906020608492519162461bcd60e51b8352820152602660248201527f4f776e61626c653a206e6577206f776e657220697320746865207a65726f206160448201526564647265737360d01b6064820152fd5b8480fd5b8280fd5b83823461017a578160031936011261017a576020905160148152f35b5080fd5b83823461017a578160031936011261017a57905490516001600160a01b039091168152602090f35b83346102005780600319360112610200576101bf6106e9565b80546001600160a01b03198116825581906001600160a01b03167f8be0079c531659141344cd1fd0a4f28419497f9722a3daafe3b4186f6b6457e08280a380f35b80fd5b5090608036600319011261015a576024916001600160a01b038335818116939192908490036104c357604435948386168096036104bf5760649182359485168095036104bb57610251610764565b341561046357851561040e5786156103ba57841561036757604634023481046046036103555783900492601434023481046014036103435781900492600a340290348204600a036103325750917fef86c5d886f0f76bbdbd07d6c3ce467c95c0dfcf1ca134f273283b0178b0bac095939160a095930492888b526002602052818b206102de828254610741565b9055898b526002602052818b206102f6848254610741565b9055878b526002602052818b2061030e858254610741565b90558151978852602088015286015260608501524260808501523592a46001805580f35b634e487b7160e01b8b52601187528afd5b634e487b7160e01b8a5260118652838afd5b634e487b7160e01b8952601185528289fd5b916029686d206164647265737360b81b92602060849695519562461bcd60e51b87528601528401527f5061796d656e7453706c69747465723a20496e76616c696420706c6174666f726044840152820152fd5b91602a696572206164647265737360b01b92602060849695519562461bcd60e51b87528601528401527f5061796d656e7453706c69747465723a20496e76616c69642064656c697665726044840152820152fd5b91602b6a616e74206164647265737360a81b92602060849695519562461bcd60e51b87528601528401527f5061796d656e7453706c69747465723a20496e76616c696420726573746175726044840152820152fd5b91602e6d067726561746572207468616e20360941b92602060849695519562461bcd60e51b87528601528401527f5061796d656e7453706c69747465723a20416d6f756e74206d757374206265206044840152820152fd5b8780fd5b8680fd5b8580fd5b83823461017a578160031936011261017a576020905160468152f35b50903461015a57602036600319011261015a57356001600160a01b0381169081900361015a57828291602094526002845220549051908152f35b83823461017a578160031936011261017a5760209051600a8152f35b503461015a578260031936011261015a57610552610764565b338352602090600282528084205492831561065d573385526002835284828120558480808087335af13d156106585767ffffffffffffffff3d81811161064557845191601f8201601f19908116603f0116830190811183821017610632578552815286853d92013e5b156105f25750907f7084f5476618d8e60b11ef0d7d3f06914655adb8793e28ff7f018d4c76d505d591519283523392a26001805580f35b8280606493519262461bcd60e51b845283015260248201527f5061796d656e7453706c69747465723a205769746864726177206661696c65646044820152fd5b634e487b7160e01b895260418552602489fd5b634e487b7160e01b885260418452602488fd5b6105bb565b82608492519162461bcd60e51b8352820152602760248201527f5061796d656e7453706c69747465723a204e6f2062616c616e636520746f20776044820152666974686472617760c81b6064820152fd5b929050346106e55760203660031901126106e557356001600160a01b038116908190036106e5579260209381526002845220548152f35b8380fd5b6000546001600160a01b031633036106fd57565b606460405162461bcd60e51b815260206004820152602060248201527f4f776e61626c653a2063616c6c6572206973206e6f7420746865206f776e65726044820152fd5b9190820180921161074e57565b634e487b7160e01b600052601160045260246000fd5b600260015414610775576002600155565b60405162461bcd60e51b815260206004820152601f60248201527f5265656e7472616e637947756172643a207265656e7472616e742063616c6c006044820152606490fdfea26469706673582212205594d45191f85f323eac01226784d3cb1b46cdd408507f9990b3574d21f6daca64736f6c63430008140033","opcodes":"PUSH1 0x80 DUP1 PUSH1 0x40 MSTORE CALLVALUE PUSH2 0x5F JUMPI PUSH1 0x0 DUP1 SLOAD CALLER PUSH1 0x1 PUSH1 0x1 PUSH1 0xA0 SHL SUB NOT DUP3 AND DUP2 OR DUP4 SSTORE SWAP2 PUSH1 0x1 PUSH1 0x1 PUSH1 0xA0 SHL SUB SWAP1 SWAP2 AND SWAP1 PUSH32 0x8BE0079C531659141344CD1FD0A4F28419497F9722A3DAAFE3B4186F6B6457E0 SWAP1 DUP1 LOG3 PUSH1 0x1 DUP1 SSTORE PUSH2 0x7F0 SWAP1 DUP2 PUSH2 0x65 DUP3 CODECOPY RETURN JUMPDEST PUSH1 0x0 DUP1 REVERT INVALID PUSH1 0x80 PUSH1 0x40 DUP2 DUP2 MSTORE PUSH1 0x4 SWAP1 DUP2 CALLDATASIZE LT ISZERO PUSH2 0x16 JUMPI PUSH1 0x0 DUP1 REVERT JUMPDEST PUSH1 0x0 SWAP3 DUP4 CALLDATALOAD PUSH1 0xE0 SHR SWAP1 DUP2 PUSH4 0x27E235E3 EQ PUSH2 0x6AE JUMPI POP DUP1 PUSH4 0x3CCFD60B EQ PUSH2 0x539 JUMPI DUP1 PUSH4 0x48981D8A EQ PUSH2 0x51D JUMPI DUP1 PUSH4 0x51D550D2 EQ PUSH2 0x4E3 JUMPI DUP1 PUSH4 0x5354B701 EQ PUSH2 0x4C7 JUMPI DUP1 PUSH4 0x6F191A15 EQ PUSH2 0x203 JUMPI DUP1 PUSH4 0x715018A6 EQ PUSH2 0x1A6 JUMPI DUP1 PUSH4 0x8DA5CB5B EQ PUSH2 0x17E JUMPI DUP1 PUSH4 0x9569EF7E EQ PUSH2 0x15E JUMPI PUSH4 0xF2FDE38B EQ PUSH2 0x92 JUMPI PUSH1 0x0 DUP1 REVERT JUMPDEST CALLVALUE PUSH2 0x15A JUMPI PUSH1 0x20 CALLDATASIZE PUSH1 0x3 NOT ADD SLT PUSH2 0x15A JUMPI PUSH1 0x1 PUSH1 0x1 PUSH1 0xA0 SHL SUB DUP3 CALLDATALOAD DUP2 DUP2 AND SWAP4 SWAP2 SWAP3 SWAP1 DUP5 SWAP1 SUB PUSH2 0x156 JUMPI PUSH2 0xC3 PUSH2 0x6E9 JUMP JUMPDEST DUP4 ISZERO PUSH2 0x104 JUMPI POP POP DUP3 SLOAD PUSH1 0x1 PUSH1 0x1 PUSH1 0xA0 SHL SUB NOT DUP2 AND DUP4 OR DUP5 SSTORE AND PUSH32 0x8BE0079C531659141344CD1FD0A4F28419497F9722A3DAAFE3B4186F6B6457E0 DUP4 DUP1 LOG3 DUP1 RETURN JUMPDEST SWAP1 PUSH1 0x20 PUSH1 0x84 SWAP3 MLOAD SWAP2 PUSH3 0x461BCD PUSH1 0xE5 SHL DUP4 MSTORE DUP3 ADD MSTORE PUSH1 0x26 PUSH1 0x24 DUP3 ADD MSTORE PUSH32 0x4F776E61626C653A206E6577206F776E657220697320746865207A65726F2061 PUSH1 0x44 DUP3 ADD MSTORE PUSH6 0x646472657373 PUSH1 0xD0 SHL PUSH1 0x64 DUP3 ADD MSTORE REVERT JUMPDEST DUP5 DUP1 REVERT JUMPDEST DUP3 DUP1 REVERT JUMPDEST DUP4 DUP3 CALLVALUE PUSH2 0x17A JUMPI DUP2 PUSH1 0x3 NOT CALLDATASIZE ADD SLT PUSH2 0x17A JUMPI PUSH1 0x20 SWAP1 MLOAD PUSH1 0x14 DUP2 MSTORE RETURN JUMPDEST POP DUP1 REVERT JUMPDEST DUP4 DUP3 CALLVALUE PUSH2 0x17A JUMPI DUP2 PUSH1 0x3 NOT CALLDATASIZE ADD SLT PUSH2 0x17A JUMPI SWAP1 SLOAD SWAP1 MLOAD PUSH1 0x1 PUSH1 0x1 PUSH1 0xA0 SHL SUB SWAP1 SWAP2 AND DUP2 MSTORE PUSH1 0x20 SWAP1 RETURN JUMPDEST DUP4 CALLVALUE PUSH2 0x200 JUMPI DUP1 PUSH1 0x3 NOT CALLDATASIZE ADD SLT PUSH2 0x200 JUMPI PUSH2 0x1BF PUSH2 0x6E9 JUMP JUMPDEST DUP1 SLOAD PUSH1 0x1 PUSH1 0x1 PUSH1 0xA0 SHL SUB NOT DUP2 AND DUP3 SSTORE DUP2 SWAP1 PUSH1 0x1 PUSH1 0x1 PUSH1 0xA0 SHL SUB AND PUSH32 0x8BE0079C531659141344CD1FD0A4F28419497F9722A3DAAFE3B4186F6B6457E0 DUP3 DUP1 LOG3 DUP1 RETURN JUMPDEST DUP1 REVERT JUMPDEST POP SWAP1 PUSH1 0x80 CALLDATASIZE PUSH1 0x3 NOT ADD SLT PUSH2 0x15A JUMPI PUSH1 0x24 SWAP2 PUSH1 0x1 PUSH1 0x1 PUSH1 0xA0 SHL SUB DUP4 CALLDATALOAD DUP2 DUP2 AND SWAP4 SWAP2 SWAP3 SWAP1 DUP5 SWAP1 SUB PUSH2 0x4C3 JUMPI PUSH1 0x44 CALLDATALOAD SWAP5 DUP4 DUP7 AND DUP1 SWAP7 SUB PUSH2 0x4BF JUMPI PUSH1 0x64 SWAP2 DUP3 CALLDATALOAD SWAP5 DUP6 AND DUP1 SWAP6 SUB PUSH2 0x4BB JUMPI PUSH2 0x251 PUSH2 0x764 JUMP JUMPDEST CALLVALUE ISZERO PUSH2 0x463 JUMPI DUP6 ISZERO PUSH2 0x40E JUMPI DUP7 ISZERO PUSH2 0x3BA JUMPI DUP5 ISZERO PUSH2 0x367 JUMPI PUSH1 0x46 CALLVALUE MUL CALLVALUE DUP2 DIV PUSH1 0x46 SUB PUSH2 0x355 JUMPI DUP4 SWAP1 DIV SWAP3 PUSH1 0x14 CALLVALUE MUL CALLVALUE DUP2 DIV PUSH1 0x14 SUB PUSH2 0x343 JUMPI DUP2 SWAP1 DIV SWAP3 PUSH1 0xA CALLVALUE MUL SWAP1 CALLVALUE DUP3 DIV PUSH1 0xA SUB PUSH2 0x332 JUMPI POP SWAP2 PUSH32 0xEF86C5D886F0F76BBDBD07D6C3CE467C95C0DFCF1CA134F273283B0178B0BAC0 SWAP6 SWAP4 SWAP2 PUSH1 0xA0 SWAP6 SWAP4 DIV SWAP3 DUP9 DUP12 MSTORE PUSH1 0x2 PUSH1 0x20 MSTORE DUP2 DUP12 KECCAK256 PUSH2 0x2DE DUP3 DUP3 SLOAD PUSH2 0x741 JUMP JUMPDEST SWAP1 SSTORE DUP10 DUP12 MSTORE PUSH1 0x2 PUSH1 0x20 MSTORE DUP2 DUP12 KECCAK256 PUSH2 0x2F6 DUP5 DUP3 SLOAD PUSH2 0x741 JUMP JUMPDEST SWAP1 SSTORE DUP8 DUP12 MSTORE PUSH1 0x2 PUSH1 0x20 MSTORE DUP2 DUP12 KECCAK256 PUSH2 0x30E DUP6 DUP3 SLOAD PUSH2 0x741 JUMP JUMPDEST SWAP1 SSTORE DUP2 MLOAD SWAP8 DUP9 MSTORE PUSH1 0x20 DUP9 ADD MSTORE DUP7 ADD MSTORE PUSH1 0x60 DUP6 ADD MSTORE TIMESTAMP PUSH1 0x80 DUP6 ADD MSTORE CALLDATALOAD SWAP3 LOG4 PUSH1 0x1 DUP1 SSTORE DUP1 RETURN JUMPDEST PUSH4 0x4E487B71 PUSH1 0xE0 SHL DUP12 MSTORE PUSH1 0x11 DUP8 MSTORE DUP11 REVERT JUMPDEST PUSH4 0x4E487B71 PUSH1 0xE0 SHL DUP11 MSTORE PUSH1 0x11 DUP7 MSTORE DUP4 DUP11 REVERT JUMPDEST PUSH4 0x4E487B71 PUSH1 0xE0 SHL DUP10 MSTORE PUSH1 0x11 DUP6 MSTORE DUP3 DUP10 REVERT JUMPDEST SWAP2 PUSH1 0x29 PUSH9 0x6D2061646472657373 PUSH1 0xB8 SHL SWAP3 PUSH1 0x20 PUSH1 0x84 SWAP7 SWAP6 MLOAD SWAP6 PUSH3 0x461BCD PUSH1 0xE5 SHL DUP8 MSTORE DUP7 ADD MSTORE DUP5 ADD MSTORE PUSH32 0x5061796D656E7453706C69747465723A20496E76616C696420706C6174666F72 PUSH1 0x44 DUP5 ADD MSTORE DUP3 ADD MSTORE REVERT JUMPDEST SWAP2 PUSH1 0x2A PUSH10 0x65722061646472657373 PUSH1 0xB0 SHL SWAP3 PUSH1 0x20 PUSH1 0x84 SWAP7 SWAP6 MLOAD SWAP6 PUSH3 0x461BCD PUSH1 0xE5 SHL DUP8 MSTORE DUP7 ADD MSTORE DUP5 ADD MSTORE PUSH32 0x5061796D656E7453706C69747465723A20496E76616C69642064656C69766572 PUSH1 0x44 DUP5 ADD MSTORE DUP3 ADD MSTORE REVERT JUMPDEST SWAP2 PUSH1 0x2B PUSH11 0x616E742061646472657373 PUSH1 0xA8 SHL SWAP3 PUSH1 0x20 PUSH1 0x84 SWAP7 SWAP6 MLOAD SWAP6 PUSH3 0x461BCD PUSH1 0xE5 SHL DUP8 MSTORE DUP7 ADD MSTORE DUP5 ADD MSTORE PUSH32 0x5061796D656E7453706C69747465723A20496E76616C69642072657374617572 PUSH1 0x44 DUP5 ADD MSTORE DUP3 ADD MSTORE REVERT JUMPDEST SWAP2 PUSH1 0x2E PUSH14 0x67726561746572207468616E203 PUSH1 0x94 SHL SWAP3 PUSH1 0x20 PUSH1 0x84 SWAP7 SWAP6 MLOAD SWAP6 PUSH3 0x461BCD PUSH1 0xE5 SHL DUP8 MSTORE DUP7 ADD MSTORE DUP5 ADD MSTORE PUSH32 0x5061796D656E7453706C69747465723A20416D6F756E74206D75737420626520 PUSH1 0x44 DUP5 ADD MSTORE DUP3 ADD MSTORE REVERT JUMPDEST DUP8 DUP1 REVERT JUMPDEST DUP7 DUP1 REVERT JUMPDEST DUP6 DUP1 REVERT JUMPDEST DUP4 DUP3 CALLVALUE PUSH2 0x17A JUMPI DUP2 PUSH1 0x3 NOT CALLDATASIZE ADD SLT PUSH2 0x17A JUMPI PUSH1 0x20 SWAP1 MLOAD PUSH1 0x46 DUP2 MSTORE RETURN JUMPDEST POP SWAP1 CALLVALUE PUSH2 0x15A JUMPI PUSH1 0x20 CALLDATASIZE PUSH1 0x3 NOT ADD SLT PUSH2 0x15A JUMPI CALLDATALOAD PUSH1 0x1 PUSH1 0x1 PUSH1 0xA0 SHL SUB DUP2 AND SWAP1 DUP2 SWAP1 SUB PUSH2 0x15A JUMPI DUP3 DUP3 SWAP2 PUSH1 0x20 SWAP5 MSTORE PUSH1 0x2 DUP5 MSTORE KECCAK256 SLOAD SWAP1 MLOAD SWAP1 DUP2 MSTORE RETURN JUMPDEST DUP4 DUP3 CALLVALUE PUSH2 0x17A JUMPI DUP2 PUSH1 0x3 NOT CALLDATASIZE ADD SLT PUSH2 0x17A JUMPI PUSH1 0x20 SWAP1 MLOAD PUSH1 0xA DUP2 MSTORE RETURN JUMPDEST POP CALLVALUE PUSH2 0x15A JUMPI DUP3 PUSH1 0x3 NOT CALLDATASIZE ADD SLT PUSH2 0x15A JUMPI PUSH2 0x552 PUSH2 0x764 JUMP JUMPDEST CALLER DUP4 MSTORE PUSH1 0x20 SWAP1 PUSH1 0x2 DUP3 MSTORE DUP1 DUP5 KECCAK256 SLOAD SWAP3 DUP4 ISZERO PUSH2 0x65D JUMPI CALLER DUP6 MSTORE PUSH1 0x2 DUP4 MSTORE DUP5 DUP3 DUP2 KECCAK256 SSTORE DUP5 DUP1 DUP1 DUP1 DUP8 CALLER GAS CALL RETURNDATASIZE ISZERO PUSH2 0x658 JUMPI PUSH8 0xFFFFFFFFFFFFFFFF RETURNDATASIZE DUP2 DUP2 GT PUSH2 0x645 JUMPI DUP5 MLOAD SWAP2 PUSH1 0x1F DUP3 ADD PUSH1 0x1F NOT SWAP1 DUP2 AND PUSH1 0x3F ADD AND DUP4 ADD SWAP1 DUP2 GT DUP4 DUP3 LT OR PUSH2 0x632 JUMPI DUP6 MSTORE DUP2 MSTORE DUP7 DUP6 RETURNDATASIZE SWAP3 ADD RETURNDATACOPY JUMPDEST ISZERO PUSH2 0x5F2 JUMPI POP SWAP1 PUSH32 0x7084F5476618D8E60B11EF0D7D3F06914655ADB8793E28FF7F018D4C76D505D5 SWAP2 MLOAD SWAP3 DUP4 MSTORE CALLER SWAP3 LOG2 PUSH1 0x1 DUP1 SSTORE DUP1 RETURN JUMPDEST DUP3 DUP1 PUSH1 0x64 SWAP4 MLOAD SWAP3 PUSH3 0x461BCD PUSH1 0xE5 SHL DUP5 MSTORE DUP4 ADD MSTORE PUSH1 0x24 DUP3 ADD MSTORE PUSH32 0x5061796D656E7453706C69747465723A205769746864726177206661696C6564 PUSH1 0x44 DUP3 ADD MSTORE REVERT JUMPDEST PUSH4 0x4E487B71 PUSH1 0xE0 SHL DUP10 MSTORE PUSH1 0x41 DUP6 MSTORE PUSH1 0x24 DUP10 REVERT JUMPDEST PUSH4 0x4E487B71 PUSH1 0xE0 SHL DUP9 MSTORE PUSH1 0x41 DUP5 MSTORE PUSH1 0x24 DUP9 REVERT JUMPDEST PUSH2 0x5BB JUMP JUMPDEST DUP3 PUSH1 0x84 SWAP3 MLOAD SWAP2 PUSH3 0x461BCD PUSH1 0xE5 SHL DUP4 MSTORE DUP3 ADD MSTORE PUSH1 0x27 PUSH1 0x24 DUP3 ADD MSTORE PUSH32 0x5061796D656E7453706C69747465723A204E6F2062616C616E636520746F2077 PUSH1 0x44 DUP3 ADD MSTORE PUSH7 0x69746864726177 PUSH1 0xC8 SHL PUSH1 0x64 DUP3 ADD MSTORE REVERT JUMPDEST SWAP3 SWAP1 POP CALLVALUE PUSH2 0x6E5 JUMPI PUSH1 0x20 CALLDATASIZE PUSH1 0x3 NOT ADD SLT PUSH2 0x6E5 JUMPI CALLDATALOAD PUSH1 0x1 PUSH1 0x1 PUSH1 0xA0 SHL SUB DUP2 AND SWAP1 DUP2 SWAP1 SUB PUSH2 0x6E5 JUMPI SWAP3 PUSH1 0x20 SWAP4 DUP2 MSTORE PUSH1 0x2 DUP5 MSTORE KECCAK256 SLOAD DUP2 MSTORE RETURN JUMPDEST DUP4 DUP1 REVERT JUMPDEST PUSH1 0x0 SLOAD PUSH1 0x1 PUSH1 0x1 PUSH1 0xA0 SHL SUB AND CALLER SUB PUSH2 0x6FD JUMPI JUMP JUMPDEST PUSH1 0x64 PUSH1 0x40 MLOAD PUSH3 0x461BCD PUSH1 0xE5 SHL DUP2 MSTORE PUSH1 0x20 PUSH1 0x4 DUP3 ADD MSTORE PUSH1 0x20 PUSH1 0x24 DUP3 ADD MSTORE PUSH32 0x4F776E61626C653A2063616C6C6572206973206E6F7420746865206F776E6572 PUSH1 0x44 DUP3 ADD MSTORE REVERT JUMPDEST SWAP2 SWAP1 DUP3 ADD DUP1 SWAP3 GT PUSH2 0x74E JUMPI JUMP JUMPDEST PUSH4 0x4E487B71 PUSH1 0xE0 SHL PUSH1 0x0 MSTORE PUSH1 0x11 PUSH1 0x4 MSTORE PUSH1 0x24 PUSH1 0x0 REVERT JUMPDEST PUSH1 0x2 PUSH1 0x1 SLOAD EQ PUSH2 0x775 JUMPI PUSH1 0x2 PUSH1 0x1 SSTORE JUMP JUMPDEST PUSH1 0x40 MLOAD PUSH3 0x461BCD PUSH1 0xE5 SHL DUP2 MSTORE PUSH1 0x20 PUSH1 0x4 DUP3 ADD MSTORE PUSH1 0x1F PUSH1 0x24 DUP3 ADD MSTORE PUSH32 0x5265656E7472616E637947756172643A207265656E7472616E742063616C6C00 PUSH1 0x44 DUP3 ADD MSTORE PUSH1 0x64 SWAP1 REVERT INVALID LOG2 PUSH5 0x6970667358 0x22 SLT KECCAK256 SSTORE SWAP5 0xD4 MLOAD SWAP2 0xF8 PUSH0 ORIGIN RETURNDATACOPY 0xAC ADD 0x22 PUSH8 0x84D3CB1B46CDD408 POP PUSH32 0x9990B3574D21F6DACA64736F6C63430008140033000000000000000000000000 "},"methodIdentifiers":{"DELIVERER_PERCENT()":"9569ef7e","PLATFORM_PERCENT()":"48981d8a","RESTAURANT_PERCENT()":"5354b701","balances(address)":"27e235e3","getPendingBalance(address)":"51d550d2","owner()":"8da5cb5b","renounceOwnership()":"715018a6","splitPayment(uint256,address,address,address)":"6f191a15","transferOwnership(address)":"f2fde38b","withdraw()":"3ccfd60b"}}}}}