{
  "_format": "hh-sol-artifact-1",
  "contractName": "DoneToken",
  "sourceName": "contracts/DoneToken.sol",
  "abi": [
    {
      "inputs": [],
      "stateMutability": "nonpayable",
      "type": "constructor"
    },
    {
      "anonymous": false,
      "inputs": [
        {
          "indexed": true,
          "internalType": "address",
          "name": "owner",
          "type": "address"
        },
        {
          "indexed": true,
          "internalType": "address",
          "name": "spender",
          "type": "address"
        },
        {
          "indexed": false,
          "internalType": "uint256",
          "name": "value",
          "type": "uint256"
        }
      ],
      "name": "Approval",
      "type": "event"
    },
    {
      "anonymous": false,
      "inputs": [
        {
          "indexed": true,
          "internalType": "bytes32",
          "name": "role",
          "type": "bytes32"
        },
        {
          "indexed": true,
          "internalType": "bytes32",
          "name": "previousAdminRole",
          "type": "bytes32"
        },
        {
          "indexed": true,
          "internalType": "bytes32",
          "name": "newAdminRole",
          "type": "bytes32"
        }
      ],
      "name": "RoleAdminChanged",
      "type": "event"
    },
    {
      "anonymous": false,
      "inputs": [
        {
          "indexed": true,
          "internalType": "bytes32",
          "name": "role",
          "type": "bytes32"
        },
        {
          "indexed": true,
          "internalType": "address",
          "name": "account",
          "type": "address"
        },
        {
          "indexed": true,
          "internalType": "address",
          "name": "sender",
          "type": "address"
        }
      ],
      "name": "RoleGranted",
      "type": "event"
    },
    {
      "anonymous": false,
      "inputs": [
        {
          "indexed": true,
          "internalType": "bytes32",
          "name": "role",
          "type": "bytes32"
        },
        {
          "indexed": true,
          "internalType": "address",
          "name": "account",
          "type": "address"
        },
        {
          "indexed": true,
          "internalType": "address",
          "name": "sender",
          "type": "address"
        }
      ],
      "name": "RoleRevoked",
      "type": "event"
    },
    {
      "anonymous": false,
      "inputs": [
        {
          "indexed": true,
          "internalType": "address",
          "name": "from",
          "type": "address"
        },
        {
          "indexed": true,
          "internalType": "address",
          "name": "to",
          "type": "address"
        },
        {
          "indexed": false,
          "internalType": "uint256",
          "name": "value",
          "type": "uint256"
        }
      ],
      "name": "Transfer",
      "type": "event"
    },
    {
      "inputs": [],
      "name": "DEFAULT_ADMIN_ROLE",
      "outputs": [
        {
          "internalType": "bytes32",
          "name": "",
          "type": "bytes32"
        }
      ],
      "stateMutability": "view",
      "type": "function"
    },
    {
      "inputs": [],
      "name": "MINTER_ROLE",
      "outputs": [
        {
          "internalType": "bytes32",
          "name": "",
          "type": "bytes32"
        }
      ],
      "stateMutability": "view",
      "type": "function"
    },
    {
      "inputs": [
        {
          "internalType": "address",
          "name": "owner",
          "type": "address"
        },
        {
          "internalType": "address",
          "name": "spender",
          "type": "address"
        }
      ],
      "name": "allowance",
      "outputs": [
        {
          "internalType": "uint256",
          "name": "",
          "type": "uint256"
        }
      ],
      "stateMutability": "view",
      "type": "function"
    },
    {
      "inputs": [
        {
          "internalType": "address",
          "name": "spender",
          "type": "address"
        },
        {
          "internalType": "uint256",
          "name": "amount",
          "type": "uint256"
        }
      ],
      "name": "approve",
      "outputs": [
        {
          "internalType": "bool",
          "name": "",
          "type": "bool"
        }
      ],
      "stateMutability": "nonpayable",
      "type": "function"
    },
    {
      "inputs": [
        {
          "internalType": "address",
          "name": "account",
          "type": "address"
        }
      ],
      "name": "balanceOf",
      "outputs": [
        {
          "internalType": "uint256",
          "name": "",
          "type": "uint256"
        }
      ],
      "stateMutability": "view",
      "type": "function"
    },
    {
      "inputs": [
        {
          "internalType": "uint256",
          "name": "amount",
          "type": "uint256"
        }
      ],
      "name": "burn",
      "outputs": [],
      "stateMutability": "nonpayable",
      "type": "function"
    },
    {
      "inputs": [
        {
          "internalType": "address",
          "name": "account",
          "type": "address"
        },
        {
          "internalType": "uint256",
          "name": "amount",
          "type": "uint256"
        }
      ],
      "name": "burnFrom",
      "outputs": [],
      "stateMutability": "nonpayable",
      "type": "function"
    },
    {
      "inputs": [
        {
          "internalType": "uint256",
          "name": "foodPrice",
          "type": "uint256"
        }
      ],
      "name": "calculateReward",
      "outputs": [
        {
          "internalType": "uint256",
          "name": "",
          "type": "uint256"
        }
      ],
      "stateMutability": "pure",
      "type": "function"
    },
    {
      "inputs": [],
      "name": "decimals",
      "outputs": [
        {
          "internalType": "uint8",
          "name": "",
          "type": "uint8"
        }
      ],
      "stateMutability": "view",
      "type": "function"
    },
    {
      "inputs": [
        {
          "internalType": "address",
          "name": "spender",
          "type": "address"
        },
        {
          "internalType": "uint256",
          "name": "subtractedValue",
          "type": "uint256"
        }
      ],
      "name": "decreaseAllowance",
      "outputs": [
        {
          "internalType": "bool",
          "name": "",
          "type": "bool"
        }
      ],
      "stateMutability": "nonpayable",
      "type": "function"
    },
    {
      "inputs": [
        {
          "internalType": "bytes32",
          "name": "role",
          "type": "bytes32"
        }
      ],
      "name": "getRoleAdmin",
      "outputs": [
        {
          "internalType": "bytes32",
          "name": "",
          "type": "bytes32"
        }
      ],
      "stateMutability": "view",
      "type": "function"
    },
    {
      "inputs": [
        {
          "internalType": "bytes32",
          "name": "role",
          "type": "bytes32"
        },
        {
          "internalType": "address",
          "name": "account",
          "type": "address"
        }
      ],
      "name": "grantRole",
      "outputs": [],
      "stateMutability": "nonpayable",
      "type": "function"
    },
    {
      "inputs": [
        {
          "internalType": "bytes32",
          "name": "role",
          "type": "bytes32"
        },
        {
          "internalType": "address",
          "name": "account",
          "type": "address"
        }
      ],
      "name": "hasRole",
      "outputs": [
        {
          "internalType": "bool",
          "name": "",
          "type": "bool"
        }
      ],
      "stateMutability": "view",
      "type": "function"
    },
    {
      "inputs": [
        {
          "internalType": "address",
          "name": "spender",
          "type": "address"
        },
        {
          "internalType": "uint256",
          "name": "addedValue",
          "type": "uint256"
        }
      ],
      "name": "increaseAllowance",
      "outputs": [
        {
          "internalType": "bool",
          "name": "",
          "type": "bool"
        }
      ],
      "stateMutability": "nonpayable",
      "type": "function"
    },
    {
      "inputs": [
        {
          "internalType": "address",
          "name": "to",
          "type": "address"
        },
        {
          "internalType": "uint256",
          "name": "amount",
          "type": "uint256"
        }
      ],
      "name": "mint",
      "outputs": [],
      "stateMutability": "nonpayable",
      "type": "function"
    },
    {
      "inputs": [],
      "name": "name",
      "outputs": [
        {
          "internalType": "string",
          "name": "",
          "type": "string"
        }
      ],
      "stateMutability": "view",
      "type": "function"
    },
    {
      "inputs": [
        {
          "internalType": "bytes32",
          "name": "role",
          "type": "bytes32"
        },
        {
          "internalType": "address",
          "name": "account",
          "type": "address"
        }
      ],
      "name": "renounceRole",
      "outputs": [],
      "stateMutability": "nonpayable",
      "type": "function"
    },
    {
      "inputs": [
        {
          "internalType": "bytes32",
          "name": "role",
          "type": "bytes32"
        },
        {
          "internalType": "address",
          "name": "account",
          "type": "address"
        }
      ],
      "name": "revokeRole",
      "outputs": [],
      "stateMutability": "nonpayable",
      "type": "function"
    },
    {
      "inputs": [
        {
          "internalType": "bytes4",
          "name": "interfaceId",
          "type": "bytes4"
        }
      ],
      "name": "supportsInterface",
      "outputs": [
        {
          "internalType": "bool",
          "name": "",
          "type": "bool"
        }
      ],
      "stateMutability": "view",
      "type": "function"
    },
    {
      "inputs": [],
      "name": "symbol",
      "outputs": [
        {
          "internalType": "string",
          "name": "",
          "type": "string"
        }
      ],
      "stateMutability": "view",
      "type": "function"
    },
    {
      "inputs": [],
      "name": "totalSupply",
      "outputs": [
        {
          "internalType": "uint256",
          "name": "",
          "type": "uint256"
        }
      ],
      "stateMutability": "view",
      "type": "function"
    },
    {
      "inputs": [
        {
          "internalType": "address",
          "name": "to",
          "type": "address"
        },
        {
          "internalType": "uint256",
          "name": "amount",
          "type": "uint256"
        }
      ],
      "name": "transfer",
      "outputs": [
        {
          "internalType": "bool",
          "name": "",
          "type": "bool"
        }
      ],
      "stateMutability": "nonpayable",
      "type": "function"
    },
    {
      "inputs": [
        {
          "internalType": "address",
          "name": "from",
          "type": "address"
        },
        {
          "internalType": "address",
          "name": "to",
          "type": "address"
        },
        {
          "internalType": "uint256",
          "name": "amount",
          "type": "uint256"
        }
      ],
      "name": "transferFrom",
      "outputs": [
        {
          "internalType": "bool",
          "name": "",
          "type": "bool"
        }
      ],
      "stateMutability": "nonpayable",
      "type": "function"
    }
  ],
  "bytecode": "0x6080346200041b576001600160401b03906040908082018381118282101762000405578252600a8152602090692227a722902a37b5b2b760b11b82820152825193838501858110828211176200040557845260049081865263444f4e4560e01b848701528251818111620003f0576003908154906001958683811c93168015620003e5575b88841014620003d0578190601f938481116200037a575b508890848311600114620003135760009262000307575b505060001982851b1c191690861b1782555b8751928311620002f25783548581811c91168015620002e7575b87821014620002d25781811162000287575b50859083116001146200021b578293949596976000936200020f575b505082851b92600019911b1c19161790555b60008052600582528260002033600052825260ff83600020541615620001d2575b7f9f2df0fed2c77648de5860a4cc508cd0818c85b8b8a1ab4ceeef8d981c8956a69182600052600581528360002033600052815260ff8460002054161562000191575b83516114369081620004218239f35b826000526005815283600020903360005252826000209060ff198254161790553390339060008051602062001857833981519152600080a438808062000182565b600080526005825282600020336000528252826000208160ff1982541617905533336000600080516020620018578339815191528180a46200013f565b0151915038806200010c565b90601f1983169184600052866000209260005b81811062000271575098848798999a9796971062000256575b50505050811b0190556200011e565b01519060f884600019921b161c191690553880808062000247565b8a8301518555938701939188019188016200022e565b84600052866000208280860160051c820192898710620002c8575b0160051c019086905b828110620002bb575050620000f0565b60008155018690620002ab565b92508192620002a2565b602285634e487b7160e01b6000525260246000fd5b90607f1690620000de565b604184634e487b7160e01b6000525260246000fd5b015190503880620000b2565b90889350601f19831691866000528a6000209260005b8c8282106200036357505084116200034a575b505050811b018255620000c4565b015160001983871b60f8161c191690553880806200033c565b8385015186558c9790950194938401930162000329565b90915084600052886000208480850160051c8201928b8610620003c6575b918a91869594930160051c01915b828110620003b65750506200009b565b600081558594508a9101620003a6565b9250819262000398565b602286634e487b7160e01b6000525260246000fd5b92607f169262000084565b604183634e487b7160e01b6000525260246000fd5b634e487b7160e01b600052604160045260246000fd5b600080fdfe608060408181526004918236101561001657600080fd5b600092833560e01c91826301ffc9a714610be65750816306fdde0314610af1578163095ea7b314610ac757816318160ddd14610aa857816323b872dd146109de578163248a9ca3146109b35781632f2ff15d14610906578163313ce567146108ea57816336568abe14610858578163395093511461080857816340c10f191461054757816342966c681461052957816370a08231146104f257816379cc67901461044b57816391d148541461040457816395d89b4114610301578163a217fddf146102e6578163a457c2d714610241578163a9059cbb14610210578163d2d7231f146101eb578163d5391393146101b0578163d547741f1461016d575063dd62ed3e1461012257600080fd5b346101695780600319360112610169578060209261013e610c88565b610146610ca3565b6001600160a01b0391821683526001865283832091168252845220549051908152f35b5080fd5b919050346101ac57806003193601126101ac576101a991356101a46001610192610ca3565b93838752600560205286200154610cb9565b610eba565b80f35b8280fd5b505034610169578160031936011261016957602090517f9f2df0fed2c77648de5860a4cc508cd0818c85b8b8a1ab4ceeef8d981c8956a68152f35b9050823461020d57602036600319011261020d5750600a602092519135048152f35b80fd5b50503461016957806003193601126101695760209061023a610230610c88565b6024359033610f53565b5160018152f35b9050823461020d578260031936011261020d5761025c610c88565b918360243592338152600160205281812060018060a01b03861682526020522054908282106102955760208561023a85850387336110c1565b608490602086519162461bcd60e51b8352820152602560248201527f45524332303a2064656372656173656420616c6c6f77616e63652062656c6f77604482015264207a65726f60d81b6064820152fd5b50503461016957816003193601126101695751908152602090f35b838334610169578160031936011261016957805191809380549160019083821c928285169485156103fa575b60209586861081146103e7578589529081156103c3575060011461036b575b610367878761035d828c0383610e98565b5191829182610c5c565b0390f35b81529295507f8a35acfbc15ff81a39ae7d344fd709f28e8600b4aa8c65c6b64bfe7fe36bd19b5b8284106103b057505050826103679461035d9282010194868061034c565b8054868501880152928601928101610392565b60ff19168887015250505050151560051b830101925061035d82610367868061034c565b634e487b7160e01b845260228352602484fd5b93607f169361032d565b9050346101ac57816003193601126101ac578160209360ff92610425610ca3565b90358252600586528282206001600160a01b039091168252855220549151911615158152f35b838334610169578060031936011261016957610465610c88565b6001600160a01b038116835260016020908152828420338552905281832054602435928382106104c257508281039081116104af57906104aa6101a9939233836110c1565b6112f9565b634e487b7160e01b845260118552602484fd5b5162461bcd60e51b8152602081870152600b60248201526a139bdd08185b1b1bddd95960aa1b6044820152606490fd5b5050346101695760203660031901126101695760209181906001600160a01b0361051a610c88565b16815280845220549051908152f35b839034610169576020366003190112610169576101a99035336112f9565b9050346101ac57816003193601126101ac57610561610c88565b906024928335917f9f2df0fed2c77648de5860a4cc508cd0818c85b8b8a1ab4ceeef8d981c8956a69384875260209460058652838820338952865260ff84892054161561064657506001600160a01b0316948515610606575050918185936105ec7fddf252ad1be2c89b69c2b068fc378daa952ba7f163c4a11628f55a4df523b3ef94600254610f30565b60025585855284835280852082815401905551908152a380f35b601f9085606494519362461bcd60e51b85528401528201527f45524332303a206d696e7420746f20746865207a65726f2061646472657373006044820152fd5b859150868891610655336111ea565b909186519261066384610e66565b604284528584019460603687378451156107f657603086538451906001918210156107e45790607860218701536041915b81831161077b5750505061073a5750610736938693610722936107136048946106ea9a519a8576020b1b1b2b9b9a1b7b73a3937b61d1030b1b1b7bab73a1604d1b8d978801528251928391603789019101610c39565b8401917001034b99036b4b9b9b4b733903937b6329607d1b603784015251809386840190610c39565b01036028810187520185610e98565b5162461bcd60e51b81529283928301610c5c565b0390fd5b9250505081606494519362461bcd60e51b85528401528201527f537472696e67733a20686578206c656e67746820696e73756666696369656e746044820152fd5b909192600f811660108110156107d2576f181899199a1a9b1b9c1cb0b131b232b360811b901a6107ab85896111c3565b53891c9280156107c057600019019190610694565b634e487b7160e01b825260118a528482fd5b634e487b7160e01b835260328b528583fd5b634e487b7160e01b8152603289528390fd5b634e487b7160e01b8152603288529050fd5b50503461016957806003193601126101695761023a60209261085161082b610c88565b338352600186528483206001600160a01b03821684528652918490205460243590610f30565b90336110c1565b83915034610169578260031936011261016957610873610ca3565b90336001600160a01b0383160361088f57906101a99135610eba565b608490602085519162461bcd60e51b8352820152602f60248201527f416363657373436f6e74726f6c3a2063616e206f6e6c792072656e6f756e636560448201526e103937b632b9903337b91039b2b63360891b6064820152fd5b5050346101695781600319360112610169576020905160128152f35b9050346101ac57816003193601126101ac573590610922610ca3565b90828452600560205261093a60018286200154610cb9565b828452600560209081528185206001600160a01b039093168086529290528084205460ff1615610968578380f35b82845260056020528084208285526020528320600160ff1982541617905533917f2f8788117e7eff1d82e926ec794901d17c78024a50270940304540a733656f0d8480a43880808380f35b9050346101ac5760203660031901126101ac5781602093600192358152600585522001549051908152f35b83915034610169576060366003190112610169576109fa610c88565b610a02610ca3565b91846044359460018060a01b038416815260016020528181203382526020522054906000198203610a3c575b60208661023a878787610f53565b848210610a655750918391610a5a6020969561023a950333836110c1565b919394819350610a2e565b606490602087519162461bcd60e51b8352820152601d60248201527f45524332303a20696e73756666696369656e7420616c6c6f77616e63650000006044820152fd5b5050346101695781600319360112610169576020906002549051908152f35b50503461016957806003193601126101695760209061023a610ae7610c88565b60243590336110c1565b919050346101ac57826003193601126101ac57805191836003549060019082821c928281168015610bdc575b6020958686108214610bc95750848852908115610ba75750600114610b4e575b610367868661035d828b0383610e98565b929550600383527fc2575a0e9e593c00f959f8c92f12db2869c3395a3b0502d05e2516446f71f85b5b828410610b9457505050826103679461035d928201019438610b3d565b8054868501880152928601928101610b77565b60ff191687860152505050151560051b830101925061035d8261036738610b3d565b634e487b7160e01b845260229052602483fd5b93607f1693610b1d565b8491346101ac5760203660031901126101ac573563ffffffff60e01b81168091036101ac5760209250637965db0b60e01b8114908115610c28575b5015158152f35b6301ffc9a760e01b14905083610c21565b60005b838110610c4c5750506000910152565b8181015183820152602001610c3c565b60409160208252610c7c8151809281602086015260208686019101610c39565b601f01601f1916010190565b600435906001600160a01b0382168203610c9e57565b600080fd5b602435906001600160a01b0382168203610c9e57565b600081815260209060058252604092838220338352835260ff848320541615610ce25750505050565b610ceb336111ea565b845191610cf783610e66565b60428352848301936060368637835115610e525760308553835190600191821015610e525790607860218601536041915b818311610de457505050610da2576106ea938593610d8c93610d7d6048946107369951988576020b1b1b2b9b9a1b7b73a3937b61d1030b1b1b7bab73a1604d1b8b978801528251928391603789019101610c39565b01036028810185520183610e98565b5162461bcd60e51b815291829160048301610c5c565b60648486519062461bcd60e51b825280600483015260248201527f537472696e67733a20686578206c656e67746820696e73756666696369656e746044820152fd5b909192600f81166010811015610e3e576f181899199a1a9b1b9c1cb0b131b232b360811b901a610e1485886111c3565b5360041c928015610e2a57600019019190610d28565b634e487b7160e01b82526011600452602482fd5b634e487b7160e01b83526032600452602483fd5b634e487b7160e01b81526032600452602490fd5b6080810190811067ffffffffffffffff821117610e8257604052565b634e487b7160e01b600052604160045260246000fd5b90601f8019910116810190811067ffffffffffffffff821117610e8257604052565b906000918083526005602052604083209160018060a01b03169182845260205260ff604084205416610eeb57505050565b8083526005602052604083208284526020526040832060ff1981541690557ff6391f5c32d9c69d2a47ea670b442974b53935d1edc7fd64eb21e047a839171b339380a4565b91908201809211610f3d57565b634e487b7160e01b600052601160045260246000fd5b6001600160a01b0390811691821561106e571691821561101d57600082815280602052604081205491808310610fc957604082827fddf252ad1be2c89b69c2b068fc378daa952ba7f163c4a11628f55a4df523b3ef958760209652828652038282205586815220818154019055604051908152a3565b60405162461bcd60e51b815260206004820152602660248201527f45524332303a207472616e7366657220616d6f756e7420657863656564732062604482015265616c616e636560d01b6064820152608490fd5b60405162461bcd60e51b815260206004820152602360248201527f45524332303a207472616e7366657220746f20746865207a65726f206164647260448201526265737360e81b6064820152608490fd5b60405162461bcd60e51b815260206004820152602560248201527f45524332303a207472616e736665722066726f6d20746865207a65726f206164604482015264647265737360d81b6064820152608490fd5b6001600160a01b0390811691821561117257169182156111225760207f8c5be1e5ebec7d5bd14f71427d1e84f3dd0314c0f7b2291e5b200ac8c7c3b925918360005260018252604060002085600052825280604060002055604051908152a3565b60405162461bcd60e51b815260206004820152602260248201527f45524332303a20617070726f766520746f20746865207a65726f206164647265604482015261737360f01b6064820152608490fd5b60405162461bcd60e51b8152602060048201526024808201527f45524332303a20617070726f76652066726f6d20746865207a65726f206164646044820152637265737360e01b6064820152608490fd5b9081518110156111d4570160200190565b634e487b7160e01b600052603260045260246000fd5b604051906060820182811067ffffffffffffffff821117610e8257604052602a82526020820160403682378251156111d4576030905381516001908110156111d457607860218401536029905b80821161128b5750506112475790565b606460405162461bcd60e51b815260206004820152602060248201527f537472696e67733a20686578206c656e67746820696e73756666696369656e746044820152fd5b9091600f811660108110156112e4576f181899199a1a9b1b9c1cb0b131b232b360811b901a6112ba84866111c3565b5360041c9180156112cf576000190190611237565b60246000634e487b7160e01b81526011600452fd5b60246000634e487b7160e01b81526032600452fd5b6001600160a01b031680156113b15760009181835282602052604083205481811061136157817fddf252ad1be2c89b69c2b068fc378daa952ba7f163c4a11628f55a4df523b3ef926020928587528684520360408620558060025403600255604051908152a3565b60405162461bcd60e51b815260206004820152602260248201527f45524332303a206275726e20616d6f756e7420657863656564732062616c616e604482015261636560f01b6064820152608490fd5b60405162461bcd60e51b815260206004820152602160248201527f45524332303a206275726e2066726f6d20746865207a65726f206164647265736044820152607360f81b6064820152608490fdfea2646970667358221220ea5031393c9cda62641959856acae4c0f1ee57b76413545b0425aad18e4876aa64736f6c634300081400332f8788117e7eff1d82e926ec794901d17c78024a50270940304540a733656f0d",
  "linkReferences": {},
  "deployedLinkReferences": {}
}