{
  "_format": "hh-sol-artifact-1",
  "contractName": "ReentrancyAttacker",
  "sourceName": "contracts/mocks/ReentrancyAttacker.sol",
  "abi": [
    {
      "inputs": [
        {
          "internalType": "address",
          "name": "_orderManager",
          "type": "address"
        },
        {
          "internalType": "address",
          "name": "_staking",
          "type": "address"
        }
      ],
      "stateMutability": "nonpayable",
      "type": "constructor"
    },
    {
      "anonymous": false,
      "inputs": [
        {
          "indexed": false,
          "internalType": "uint256",
          "name": "count",
          "type": "uint256"
        }
      ],
      "name": "AttackAttempted",
      "type": "event"
    },
    {
      "stateMutability": "payable",
      "type": "fallback"
    },
    {
      "inputs": [],
      "name": "attackCount",
      "outputs": [
        {
          "internalType": "uint256",
          "name": "",
          "type": "uint256"
        }
      ],
      "stateMutability": "view",
      "type": "function"
    },
    {
      "inputs": [
        {
          "internalType": "uint256",
          "name": "_orderId",
          "type": "uint256"
        }
      ],
      "name": "attackDelivery",
      "outputs": [],
      "stateMutability": "nonpayable",
      "type": "function"
    },
    {
      "inputs": [],
      "name": "attackUnstake",
      "outputs": [],
      "stateMutability": "nonpayable",
      "type": "function"
    },
    {
      "inputs": [],
      "name": "attackingDelivery",
      "outputs": [
        {
          "internalType": "bool",
          "name": "",
          "type": "bool"
        }
      ],
      "stateMutability": "view",
      "type": "function"
    },
    {
      "inputs": [],
      "name": "attackingUnstake",
      "outputs": [
        {
          "internalType": "bool",
          "name": "",
          "type": "bool"
        }
      ],
      "stateMutability": "view",
      "type": "function"
    },
    {
      "inputs": [],
      "name": "deposit",
      "outputs": [],
      "stateMutability": "payable",
      "type": "function"
    },
    {
      "inputs": [],
      "name": "orderId",
      "outputs": [
        {
          "internalType": "uint256",
          "name": "",
          "type": "uint256"
        }
      ],
      "stateMutability": "view",
      "type": "function"
    },
    {
      "inputs": [],
      "name": "orderManager",
      "outputs": [
        {
          "internalType": "contract IDoneOrderManager",
          "name": "",
          "type": "address"
        }
      ],
      "stateMutability": "view",
      "type": "function"
    },
    {
      "inputs": [],
      "name": "reset",
      "outputs": [],
      "stateMutability": "nonpayable",
      "type": "function"
    },
    {
      "inputs": [],
      "name": "staking",
      "outputs": [
        {
          "internalType": "contract IDoneStaking",
          "name": "",
          "type": "address"
        }
      ],
      "stateMutability": "view",
      "type": "function"
    },
    {
      "inputs": [],
      "name": "withdraw",
      "outputs": [],
      "stateMutability": "nonpayable",
      "type": "function"
    },
    {
      "stateMutability": "payable",
      "type": "receive"
    }
  ],
  "bytecode": "0x60803461008d57601f61061f38819003918201601f19168301916001600160401b0383118484101761009257808492604094855283398101031261008d57610052602061004b836100a8565b92016100a8565b600080546001600160a01b039384166001600160a01b0319918216179091556001805492909316911617905560405161056290816100bd8239f35b600080fd5b634e487b7160e01b600052604160045260246000fd5b51906001600160a01b038216820361008d5756fe608060408181526004918236101561022f575b5036156100ca5760ff60035416806100bf575b61002b57005b7f9de7696c1ddde10847858955a8530cc578ad5b8a8887b231fad51acf0a4cfa0a60206100588454610507565b8085558351908152a1600080546002546001600160a01b0390911693843b156100bb579060248392838651978894859363fd84cb9760e01b85528401525af19182156100b15750506100a657005b6100af906104dd565b005b51903d90823e3d90fd5b8280fd5b506003825410610025565b906003549160ff6000931680610224575b61018e575b60ff60035460081c1680610183575b6100f557005b817f9de7696c1ddde10847858955a8530cc578ad5b8a8887b231fad51acf0a4cfa0a6020610124869554610507565b8084558451908152a16001546001600160a01b0316803b1561017e57839183518095819363016f7b3160e51b83525af1908115610175575061016257005b61016c82916104dd565b61017257005b80fd5b513d84823e3d90fd5b505050fd5b5060038254106100ef565b7f9de7696c1ddde10847858955a8530cc578ad5b8a8887b231fad51acf0a4cfa0a60206101bb8454610507565b8085558351908152a1825460025484916001600160a01b0316803b156100bb57602483928551948593849263fd84cb9760e01b8452898401525af1801561021a57610207575b506100e0565b610213909391936104dd565b9138610201565b82513d86823e3d90fd5b5060038254106100db565b600090813560e01c908163163de5e5146104c1575080633ccfd60b1461048d578063407c28211461046f5780634cf088d914610446578063562a28e3146103dd57806380d0dc0f1461035b578063ab36924c14610337578063adacfb3414610310578063d0e30db014610301578063d826f88f146102dc5763f9b6117f036100125790346102d857816003193601126102d857905490516001600160a01b039091168152602090f35b5080fd5b508083346102fe57816003193601126102fe5761ffff19600354166003555580f35b50fd5b50806003193601126101725780f35b5090346102d857816003193601126102d85760209060ff60035460081c1690519015158152f35b5090346102d857816003193601126102d85760209060ff6003541690519015158152f35b50918291346103d95760203660031901126103d957813560028190556003805460ff1916600117905583835583546001600160a01b03169290833b156103d55760248592838551968794859363fd84cb9760e01b85528401525af190811561017557506103c55750f35b6103ce906104dd565b6101725780f35b8480fd5b5050fd5b50809183346103d957826003193601126103d9576003805461ff0019166101001790558281556001546001600160a01b0316803b1561017e57839183518095819363016f7b3160e51b83525af1908115610175575061043a575080f35b610443906104dd565b80f35b5090346102d857816003193601126102d85760015490516001600160a01b039091168152602090f35b5091346100bb57826003193601126100bb5760209250549051908152f35b5090346102d857816003193601126102d85781808080478181156104b8575b3390f1156100b1575080f35b506108fc6104ac565b9050346102d857816003193601126102d8576020906002548152f35b67ffffffffffffffff81116104f157604052565b634e487b7160e01b600052604160045260246000fd5b60001981146105165760010190565b634e487b7160e01b600052601160045260246000fdfea264697066735822122069cf20862c84f3f3a45a0e3dfce633212a5ffff47669f7dea9cfc158d362ecb864736f6c63430008140033",
  "linkReferences": {},
  "deployedLinkReferences": {}
}