{
  "_format": "hh-sol-artifact-1",
  "contractName": "DoneStaking",
  "sourceName": "contracts/DoneStaking.sol",
  "abi": [
    {
      "inputs": [],
      "stateMutability": "nonpayable",
      "type": "constructor"
    },
    {
      "anonymous": false,
      "inputs": [
        {
          "indexed": true,
          "internalType": "bytes32",
          "name": "role",
          "type": "bytes32"
        },
        {
          "indexed": true,
          "internalType": "bytes32",
          "name": "previousAdminRole",
          "type": "bytes32"
        },
        {
          "indexed": true,
          "internalType": "bytes32",
          "name": "newAdminRole",
          "type": "bytes32"
        }
      ],
      "name": "RoleAdminChanged",
      "type": "event"
    },
    {
      "anonymous": false,
      "inputs": [
        {
          "indexed": true,
          "internalType": "bytes32",
          "name": "role",
          "type": "bytes32"
        },
        {
          "indexed": true,
          "internalType": "address",
          "name": "account",
          "type": "address"
        },
        {
          "indexed": true,
          "internalType": "address",
          "name": "sender",
          "type": "address"
        }
      ],
      "name": "RoleGranted",
      "type": "event"
    },
    {
      "anonymous": false,
      "inputs": [
        {
          "indexed": true,
          "internalType": "bytes32",
          "name": "role",
          "type": "bytes32"
        },
        {
          "indexed": true,
          "internalType": "address",
          "name": "account",
          "type": "address"
        },
        {
          "indexed": true,
          "internalType": "address",
          "name": "sender",
          "type": "address"
        }
      ],
      "name": "RoleRevoked",
      "type": "event"
    },
    {
      "anonymous": false,
      "inputs": [
        {
          "indexed": true,
          "internalType": "address",
          "name": "deliverer",
          "type": "address"
        },
        {
          "indexed": false,
          "internalType": "uint256",
          "name": "amount",
          "type": "uint256"
        },
        {
          "indexed": true,
          "internalType": "address",
          "name": "platform",
          "type": "address"
        }
      ],
      "name": "Slashed",
      "type": "event"
    },
    {
      "anonymous": false,
      "inputs": [
        {
          "indexed": true,
          "internalType": "address",
          "name": "deliverer",
          "type": "address"
        },
        {
          "indexed": false,
          "internalType": "uint256",
          "name": "amount",
          "type": "uint256"
        }
      ],
      "name": "Staked",
      "type": "event"
    },
    {
      "anonymous": false,
      "inputs": [
        {
          "indexed": true,
          "internalType": "address",
          "name": "deliverer",
          "type": "address"
        },
        {
          "indexed": false,
          "internalType": "uint256",
          "name": "amount",
          "type": "uint256"
        }
      ],
      "name": "Unstaked",
      "type": "event"
    },
    {
      "inputs": [],
      "name": "DEFAULT_ADMIN_ROLE",
      "outputs": [
        {
          "internalType": "bytes32",
          "name": "",
          "type": "bytes32"
        }
      ],
      "stateMutability": "view",
      "type": "function"
    },
    {
      "inputs": [],
      "name": "MINIMUM_STAKE",
      "outputs": [
        {
          "internalType": "uint256",
          "name": "",
          "type": "uint256"
        }
      ],
      "stateMutability": "view",
      "type": "function"
    },
    {
      "inputs": [],
      "name": "PLATFORM_ROLE",
      "outputs": [
        {
          "internalType": "bytes32",
          "name": "",
          "type": "bytes32"
        }
      ],
      "stateMutability": "view",
      "type": "function"
    },
    {
      "inputs": [
        {
          "internalType": "bytes32",
          "name": "role",
          "type": "bytes32"
        }
      ],
      "name": "getRoleAdmin",
      "outputs": [
        {
          "internalType": "bytes32",
          "name": "",
          "type": "bytes32"
        }
      ],
      "stateMutability": "view",
      "type": "function"
    },
    {
      "inputs": [
        {
          "internalType": "address",
          "name": "deliverer",
          "type": "address"
        }
      ],
      "name": "getStakedAmount",
      "outputs": [
        {
          "internalType": "uint256",
          "name": "",
          "type": "uint256"
        }
      ],
      "stateMutability": "view",
      "type": "function"
    },
    {
      "inputs": [
        {
          "internalType": "bytes32",
          "name": "role",
          "type": "bytes32"
        },
        {
          "internalType": "address",
          "name": "account",
          "type": "address"
        }
      ],
      "name": "grantRole",
      "outputs": [],
      "stateMutability": "nonpayable",
      "type": "function"
    },
    {
      "inputs": [
        {
          "internalType": "bytes32",
          "name": "role",
          "type": "bytes32"
        },
        {
          "internalType": "address",
          "name": "account",
          "type": "address"
        }
      ],
      "name": "hasRole",
      "outputs": [
        {
          "internalType": "bool",
          "name": "",
          "type": "bool"
        }
      ],
      "stateMutability": "view",
      "type": "function"
    },
    {
      "inputs": [
        {
          "internalType": "address",
          "name": "deliverer",
          "type": "address"
        }
      ],
      "name": "isStaked",
      "outputs": [
        {
          "internalType": "bool",
          "name": "",
          "type": "bool"
        }
      ],
      "stateMutability": "view",
      "type": "function"
    },
    {
      "inputs": [
        {
          "internalType": "bytes32",
          "name": "role",
          "type": "bytes32"
        },
        {
          "internalType": "address",
          "name": "account",
          "type": "address"
        }
      ],
      "name": "renounceRole",
      "outputs": [],
      "stateMutability": "nonpayable",
      "type": "function"
    },
    {
      "inputs": [
        {
          "internalType": "bytes32",
          "name": "role",
          "type": "bytes32"
        },
        {
          "internalType": "address",
          "name": "account",
          "type": "address"
        }
      ],
      "name": "revokeRole",
      "outputs": [],
      "stateMutability": "nonpayable",
      "type": "function"
    },
    {
      "inputs": [
        {
          "internalType": "address",
          "name": "deliverer",
          "type": "address"
        },
        {
          "internalType": "uint256",
          "name": "amount",
          "type": "uint256"
        }
      ],
      "name": "slash",
      "outputs": [],
      "stateMutability": "nonpayable",
      "type": "function"
    },
    {
      "inputs": [],
      "name": "stakeAsDeliverer",
      "outputs": [],
      "stateMutability": "payable",
      "type": "function"
    },
    {
      "inputs": [
        {
          "internalType": "address",
          "name": "",
          "type": "address"
        }
      ],
      "name": "stakedAmount",
      "outputs": [
        {
          "internalType": "uint256",
          "name": "",
          "type": "uint256"
        }
      ],
      "stateMutability": "view",
      "type": "function"
    },
    {
      "inputs": [
        {
          "internalType": "bytes4",
          "name": "interfaceId",
          "type": "bytes4"
        }
      ],
      "name": "supportsInterface",
      "outputs": [
        {
          "internalType": "bool",
          "name": "",
          "type": "bool"
        }
      ],
      "stateMutability": "view",
      "type": "function"
    },
    {
      "inputs": [],
      "name": "unstake",
      "outputs": [],
      "stateMutability": "nonpayable",
      "type": "function"
    }
  ],
  "bytecode": "0x60806040818152346100e757600180556000808052602091818352808220338352835260ff8183205416156100b1575b7f797343f8d6a29aafeb3aaf0910a8973e0081c60c2f6c1f775cd9f76ea348fc1e92838352828152818320338452815260ff828420541615610078575b610ee985816100ed8239f35b83835282815281832090338452528120600160ff198254161790553391600080516020610fd6833981519152339280a43880808061006c565b8180528183528082203383528352808220600160ff19825416179055333383600080516020610fd68339815191528180a461002f565b600080fdfe608060408181526004918236101561001657600080fd5b600092833560e01c91826301ffc9a7146109bc5750816302fb4d85146105f757816308dbbb03146105d45781631b814b39146104bd578163248a9ca3146104935781632def6620146103835781632f2ff15d146102da57816336568abe146102485781634da6a556146102205781636177fd18146101e257816370824c5c146101a757816391d1485414610161578163a217fddf14610146578163d547741f14610104575063f9931855146100ca57600080fd5b346101005760203660031901126101005760209181906001600160a01b036100f0610a0f565b1681526002845220549051908152f35b5080fd5b9190503461014257806003193601126101425761013f913561013a6001610129610a2a565b938387528660205286200154610a40565b610c73565b80f35b8280fd5b50503461010057816003193601126101005751908152602090f35b9050346101425781600319360112610142578160209360ff92610182610a2a565b903582528186528282206001600160a01b039091168252855220549151911615158152f35b505034610100578160031936011261010057602090517f797343f8d6a29aafeb3aaf0910a8973e0081c60c2f6c1f775cd9f76ea348fc1e8152f35b5050346101005760203660031901126101005760209160ff9082906001600160a01b0361020d610a0f565b1681526003855220541690519015158152f35b5050346101005760203660031901126101005760209181906001600160a01b036100f0610a0f565b83915034610100578260031936011261010057610263610a2a565b90336001600160a01b0383160361027f579061013f9135610c73565b608490602085519162461bcd60e51b8352820152602f60248201527f416363657373436f6e74726f6c3a2063616e206f6e6c792072656e6f756e636560448201526e103937b632b9903337b91039b2b63360891b6064820152fd5b90503461014257816003193601126101425735906102f6610a2a565b908284528360205261030d60018286200154610a40565b82845260208481528185206001600160a01b039093168086529290528084205460ff1615610339578380f35b828452836020528084208285526020528320600160ff1982541617905533917f2f8788117e7eff1d82e926ec794901d17c78024a50270940304540a733656f0d8480a43880808380f35b9190503461014257826003193601126101425761039e610e1d565b3383526020906003825260ff81852054161561045c57338452600282528084209284845494556003835281852060ff1981541690558480808087335af16103e3610e73565b501561041b5750907f0f5bb82176feb1b5e747e28471aa92156a04d9f3ab9f45f28e2d704232b93f7591519283523392a26001805580f35b82606492519162461bcd60e51b8352820152601860248201527f5374616b696e673a205472616e73666572206661696c656400000000000000006044820152fd5b5162461bcd60e51b815291820152601360248201527214dd185ada5b99ce88139bdd081cdd185ad959606a1b604482015260649150fd5b90503461014257602036600319011261014257816020936001923581528085522001549051908152f35b905082600319360112610142576104d2610e1d565b67016345785d8a0000341061058857338352600360205260ff82842054166105465750338252600260205234818320556003602052808220600160ff19825416179055513481527f9e71bc8eea02a63969f509818f2dafb9254532904319f9dbda79b67bd34a5f3d60203392a26001805580f35b6020606492519162461bcd60e51b8352820152601760248201527f5374616b696e673a20416c7265616479207374616b65640000000000000000006044820152fd5b6020608492519162461bcd60e51b8352820152602160248201527f5374616b696e673a204d696e696d756d207374616b6520697320302e312045546044820152600960fb1b6064820152fd5b5050346101005781600319360112610100576020905167016345785d8a00008152f35b91905034610142578060031936011261014257610612610a0f565b6024918235937f797343f8d6a29aafeb3aaf0910a8973e0081c60c2f6c1f775cd9f76ea348fc1e92838752602093878552838820338952855260ff8489205416156107e15750610660610e1d565b6001600160a01b0316808752600384528287205490949060ff16156107a1578487526002845282872054861161076857848752600284528287208054908782039182116107565755848752600284528287205415610742575b8680808089335af16106c9610e73565b5015610702575050907fd87c3348a79019696e9b472cb0efe979015741dd3a1c95f43cc26dd1ace903c091519384523393a36001805580f35b60649360189293519362461bcd60e51b85528401528201527f5374616b696e673a20536c617368696e67206661696c656400000000000000006044820152fd5b60038452828720805460ff191690556106b9565b634e487b7160e01b8952601184528289fd5b60649360169293519362461bcd60e51b8552840152820152755374616b696e673a2045786365656473207374616b6560501b6044820152fd5b606493601d9293519362461bcd60e51b85528401528201527f5374616b696e673a2044656c697665726572206e6f74207374616b65640000006044820152fd5b8286858a88946107f033610d0e565b8351916107fc83610c1f565b604283528783019360603686378351156109aa57603085538351906001918210156109985790607860218601536041915b81831161092f575050506108ef57836108c06048896108e19660449a99966108b16108889776020b1b1b2b9b9a1b7b73a3937b61d1030b1b1b7bab73a1604d1b9b5198858a9687019d8e528251928391603789019101610bfc565b8401917001034b99036b4b9b9b4b733903937b6329607d1b603784015251809386840190610bfc565b01036028810185520183610c51565b5196879562461bcd60e51b8752860152519283809286015285850190610bfc565b601f01601f19168101030190fd5b60648688878188519362461bcd60e51b85528401528201527f537472696e67733a20686578206c656e67746820696e73756666696369656e746044820152fd5b909192600f81166010811015610986576f181899199a1a9b1b9c1cb0b131b232b360811b901a61095f8588610ce7565b53891c9280156109745760001901919061082d565b634e487b7160e01b825260118a528882fd5b634e487b7160e01b835260328b528983fd5b634e487b7160e01b8152603289528790fd5b634e487b7160e01b8152603288528690fd5b849134610142576020366003190112610142573563ffffffff60e01b81168091036101425760209250637965db0b60e01b81149081156109fe575b5015158152f35b6301ffc9a760e01b149050836109f7565b600435906001600160a01b0382168203610a2557565b600080fd5b602435906001600160a01b0382168203610a2557565b60008181526020818152604092838320338452825260ff848420541615610a675750505050565b610a7033610d0e565b90845190610a7d82610c1f565b60428252838201946060368737825115610be85760308653825190600191821015610be85790607860218501536041915b818311610b7a57505050610b385784610b1460486108e1936044979851988991610b058984019876020b1b1b2b9b9a1b7b73a3937b61d1030b1b1b7bab73a1604d1b8a52610888815180928d603789019101610bfc565b01036028810189520187610c51565b5194859362461bcd60e51b8552600485015251809281602486015285850190610bfc565b60648386519062461bcd60e51b825280600483015260248201527f537472696e67733a20686578206c656e67746820696e73756666696369656e746044820152fd5b909192600f81166010811015610bd4576f181899199a1a9b1b9c1cb0b131b232b360811b901a610baa8587610ce7565b5360041c928015610bc057600019019190610aae565b634e487b7160e01b82526011600452602482fd5b634e487b7160e01b83526032600452602483fd5b634e487b7160e01b81526032600452602490fd5b60005b838110610c0f5750506000910152565b8181015183820152602001610bff565b6080810190811067ffffffffffffffff821117610c3b57604052565b634e487b7160e01b600052604160045260246000fd5b90601f8019910116810190811067ffffffffffffffff821117610c3b57604052565b9060009180835282602052604083209160018060a01b03169182845260205260ff604084205416610ca357505050565b80835282602052604083208284526020526040832060ff1981541690557ff6391f5c32d9c69d2a47ea670b442974b53935d1edc7fd64eb21e047a839171b339380a4565b908151811015610cf8570160200190565b634e487b7160e01b600052603260045260246000fd5b604051906060820182811067ffffffffffffffff821117610c3b57604052602a8252602082016040368237825115610cf857603090538151600190811015610cf857607860218401536029905b808211610daf575050610d6b5790565b606460405162461bcd60e51b815260206004820152602060248201527f537472696e67733a20686578206c656e67746820696e73756666696369656e746044820152fd5b9091600f81166010811015610e08576f181899199a1a9b1b9c1cb0b131b232b360811b901a610dde8486610ce7565b5360041c918015610df3576000190190610d5b565b60246000634e487b7160e01b81526011600452fd5b60246000634e487b7160e01b81526032600452fd5b600260015414610e2e576002600155565b60405162461bcd60e51b815260206004820152601f60248201527f5265656e7472616e637947756172643a207265656e7472616e742063616c6c006044820152606490fd5b3d15610eae573d9067ffffffffffffffff8211610c3b5760405191610ea2601f8201601f191660200184610c51565b82523d6000602084013e565b60609056fea264697066735822122072c1fd53bb2b952eedad35e433d9b5f3679605ea2576210414e8fadc2e4667ed64736f6c634300081400332f8788117e7eff1d82e926ec794901d17c78024a50270940304540a733656f0d",
  "linkReferences": {},
  "deployedLinkReferences": {}
}